{
  "address": "0x4EC013bb67E0b49e01437E8E64e6Ddfa332bf258",
  "abi": [
    {
      "inputs": [
        {
          "internalType": "address",
          "name": "vaultAddress",
          "type": "address"
        },
        {
          "internalType": "address",
          "name": "lendingPoolAddress",
          "type": "address"
        },
        {
          "internalType": "address",
          "name": "tokenAddress",
          "type": "address"
        },
        {
          "internalType": "address",
          "name": "wrappedHTokenAddress",
          "type": "address"
        },
        {
          "internalType": "address",
          "name": "linearPoolAddress",
          "type": "address"
        },
        {
          "internalType": "bytes32",
          "name": "_poolId",
          "type": "bytes32"
        }
      ],
      "stateMutability": "nonpayable",
      "type": "constructor"
    },
    {
      "inputs": [
        {
          "internalType": "uint256",
          "name": "threshold",
          "type": "uint256"
        }
      ],
      "name": "balancePool",
      "outputs": [],
      "stateMutability": "nonpayable",
      "type": "function"
    },
    {
      "inputs": [
        {
          "internalType": "uint256",
          "name": "threshold",
          "type": "uint256"
        }
      ],
      "name": "checkIfPoolIsOutsideRange",
      "outputs": [
        {
          "internalType": "bool",
          "name": "",
          "type": "bool"
        }
      ],
      "stateMutability": "view",
      "type": "function"
    },
    {
      "inputs": [
        {
          "internalType": "address[]",
          "name": "assets",
          "type": "address[]"
        },
        {
          "internalType": "uint256[]",
          "name": "amounts",
          "type": "uint256[]"
        },
        {
          "internalType": "uint256[]",
          "name": "premiums",
          "type": "uint256[]"
        },
        {
          "internalType": "address",
          "name": "initiator",
          "type": "address"
        },
        {
          "internalType": "bytes",
          "name": "params",
          "type": "bytes"
        }
      ],
      "name": "executeOperation",
      "outputs": [
        {
          "internalType": "bool",
          "name": "",
          "type": "bool"
        }
      ],
      "stateMutability": "nonpayable",
      "type": "function"
    },
    {
      "inputs": [
        {
          "internalType": "uint8",
          "name": "counter",
          "type": "uint8"
        },
        {
          "internalType": "uint256",
          "name": "amount",
          "type": "uint256"
        }
      ],
      "name": "flashLoanUnwind",
      "outputs": [],
      "stateMutability": "nonpayable",
      "type": "function"
    },
    {
      "inputs": [
        {
          "internalType": "uint8",
          "name": "counter",
          "type": "uint8"
        },
        {
          "internalType": "uint256",
          "name": "amount",
          "type": "uint256"
        }
      ],
      "name": "flashLoanWind",
      "outputs": [],
      "stateMutability": "nonpayable",
      "type": "function"
    },
    {
      "inputs": [
        {
          "internalType": "uint256",
          "name": "threshold",
          "type": "uint256"
        }
      ],
      "name": "getBalancingOperation",
      "outputs": [
        {
          "internalType": "enum LinearPoolSwap.op",
          "name": "operation",
          "type": "uint8"
        },
        {
          "internalType": "uint256",
          "name": "amount",
          "type": "uint256"
        }
      ],
      "stateMutability": "view",
      "type": "function"
    },
    {
      "inputs": [
        {
          "internalType": "uint8",
          "name": "counter",
          "type": "uint8"
        },
        {
          "internalType": "uint256",
          "name": "amount",
          "type": "uint256"
        }
      ],
      "name": "unwindXTimes",
      "outputs": [],
      "stateMutability": "nonpayable",
      "type": "function"
    },
    {
      "inputs": [
        {
          "internalType": "uint8",
          "name": "counter",
          "type": "uint8"
        },
        {
          "internalType": "uint256",
          "name": "amount",
          "type": "uint256"
        }
      ],
      "name": "windXTimes",
      "outputs": [],
      "stateMutability": "nonpayable",
      "type": "function"
    }
  ],
  "transactionHash": "0xa09ab4e41d1765b4722efe639e842e10b57eb536b1bda646847b1f175d0810aa",
  "args": [
    "0x4F8BDF24826EbcF649658147756115Ee867b7D63",
    "0x50ff8715E9882a6a184D51D0952Db1Eb311d1988",
    "0x186181e225dc1Ad85a4A94164232bD261e351C33",
    "0xe16ae54fd2b74d92f9fed49bf7fa20aab003dd60",
    "0x149916d7128c36bbcebd04f794217baf51085fb9",
    "0x149916d7128c36bbcebd04f794217baf51085fb9000000000000000000000008"
  ],
  "numDeployments": 6,
  "solcInputHash": "eca8b51c9c472a342204d2f952badb9b",
  "bytecode": "0x60806040523480156200001157600080fd5b506040516200385038038062003850833981810160405281019062000037919062000233565b856000806101000a81548173ffffffffffffffffffffffffffffffffffffffff021916908373ffffffffffffffffffffffffffffffffffffffff16021790555084600460006101000a81548173ffffffffffffffffffffffffffffffffffffffff021916908373ffffffffffffffffffffffffffffffffffffffff16021790555083600160006101000a81548173ffffffffffffffffffffffffffffffffffffffff021916908373ffffffffffffffffffffffffffffffffffffffff16021790555082600260006101000a81548173ffffffffffffffffffffffffffffffffffffffff021916908373ffffffffffffffffffffffffffffffffffffffff16021790555081600560006101000a81548173ffffffffffffffffffffffffffffffffffffffff021916908373ffffffffffffffffffffffffffffffffffffffff16021790555080600381905550505050505050620002cf565b600080fd5b600073ffffffffffffffffffffffffffffffffffffffff82169050919050565b6000620001c08262000193565b9050919050565b620001d281620001b3565b8114620001de57600080fd5b50565b600081519050620001f281620001c7565b92915050565b6000819050919050565b6200020d81620001f8565b81146200021957600080fd5b50565b6000815190506200022d8162000202565b92915050565b60008060008060008060c087890312156200025357620002526200018e565b5b60006200026389828a01620001e1565b96505060206200027689828a01620001e1565b95505060406200028989828a01620001e1565b94505060606200029c89828a01620001e1565b9350506080620002af89828a01620001e1565b92505060a0620002c289828a016200021c565b9150509295509295509295565b61357180620002df6000396000f3fe608060405234801561001057600080fd5b50600436106100885760003560e01c80639a348cc81161005b5780639a348cc814610125578063a90a94cc14610141578063cc5814fe1461015d578063e2f4de021461017957610088565b806316e6e8791461008d5780634f87b2b3146100a957806356618de1146100d9578063920f5c84146100f5575b600080fd5b6100a760048036038101906100a29190612339565b6101aa565b005b6100c360048036038101906100be9190612379565b610412565b6040516100d091906123c1565b60405180910390f35b6100f360048036038101906100ee9190612339565b610455565b005b61010f600480360381019061010a919061254b565b6106be565b60405161011c91906123c1565b60405180910390f35b61013f600480360381019061013a9190612339565b610a4f565b005b61015b60048036038101906101569190612339565b610c5f565b005b61017760048036038101906101729190612379565b610e6f565b005b610193600480360381019061018e9190612379565b6112c8565b6040516101a19291906126cd565b60405180910390f35b6000600167ffffffffffffffff8111156101c7576101c66126f6565b5b6040519080825280602002602001820160405280156101f55781602001602082028036833780820191505090505b509050600160009054906101000a900473ffffffffffffffffffffffffffffffffffffffff168160008151811061022f5761022e612725565b5b602002602001019073ffffffffffffffffffffffffffffffffffffffff16908173ffffffffffffffffffffffffffffffffffffffff16815250506000600167ffffffffffffffff811115610286576102856126f6565b5b6040519080825280602002602001820160405280156102b45781602001602082028036833780820191505090505b50905082816000815181106102cc576102cb612725565b5b6020026020010181815250506000600167ffffffffffffffff8111156102f5576102f46126f6565b5b6040519080825280602002602001820160405280156103235781602001602082028036833780820191505090505b50905060008160008151811061033c5761033b612725565b5b602002602001018181525050600080338760405160200161035f93929190612772565b6040516020818303038152906040529050600460009054906101000a900473ffffffffffffffffffffffffffffffffffffffff1673ffffffffffffffffffffffffffffffffffffffff1663ab9c4b5d30868686308760006040518863ffffffff1660e01b81526004016103d89796959493929190612a11565b600060405180830381600087803b1580156103f257600080fd5b505af1158015610406573d6000803e3d6000fd5b50505050505050505050565b6000806000610420846112c8565b9150915060028081111561043757610436612647565b5b82600281111561044a57610449612647565b5b141592505050919050565b6000600167ffffffffffffffff811115610472576104716126f6565b5b6040519080825280602002602001820160405280156104a05781602001602082028036833780820191505090505b509050600160009054906101000a900473ffffffffffffffffffffffffffffffffffffffff16816000815181106104da576104d9612725565b5b602002602001019073ffffffffffffffffffffffffffffffffffffffff16908173ffffffffffffffffffffffffffffffffffffffff16815250506000600167ffffffffffffffff811115610531576105306126f6565b5b60405190808252806020026020018201604052801561055f5781602001602082028036833780820191505090505b509050828160008151811061057757610576612725565b5b6020026020010181815250506000600167ffffffffffffffff8111156105a05761059f6126f6565b5b6040519080825280602002602001820160405280156105ce5781602001602082028036833780820191505090505b5090506000816000815181106105e7576105e6612725565b5b60200260200101818152505060006001338760405160200161060b93929190612772565b6040516020818303038152906040529050600460009054906101000a900473ffffffffffffffffffffffffffffffffffffffff1673ffffffffffffffffffffffffffffffffffffffff1663ab9c4b5d30868686308760006040518863ffffffff1660e01b81526004016106849796959493929190612a11565b600060405180830381600087803b15801561069e57600080fd5b505af11580156106b2573d6000803e3d6000fd5b50505050505050505050565b60008060008085858101906106d39190612aff565b809350819450829550505050600060028111156106f3576106f2612647565b5b83600281111561070657610705612647565b5b141561073e5760005b8160ff168160ff16101561073857610725611707565b808061073090612b81565b91505061070f565b5061079a565b6001600281111561075257610751612647565b5b83600281111561076557610764612647565b5b14156107995760005b8160ff168160ff16101561079757610784611d4a565b808061078f90612b81565b91505061076e565b505b5b6000600160009054906101000a900473ffffffffffffffffffffffffffffffffffffffff1673ffffffffffffffffffffffffffffffffffffffff166370a08231306040518263ffffffff1660e01b81526004016107f79190612bab565b602060405180830381865afa158015610814573d6000803e3d6000fd5b505050506040513d601f19601f820116820180604052508101906108389190612bdb565b905060008a8a60008181106108505761084f612725565b5b905060200201358d8d600081811061086b5761086a612725565b5b9050602002013561087c9190612c08565b9050818111156108c1576040517f08c379a00000000000000000000000000000000000000000000000000000000081526004016108b890612cbb565b60405180910390fd5b8181101561097657600160009054906101000a900473ffffffffffffffffffffffffffffffffffffffff1673ffffffffffffffffffffffffffffffffffffffff1663a9059cbb8583856109149190612cdb565b6040518363ffffffff1660e01b8152600401610931929190612d0f565b6020604051808303816000875af1158015610950573d6000803e3d6000fd5b505050506040513d601f19601f820116820180604052508101906109749190612d64565b505b600160009054906101000a900473ffffffffffffffffffffffffffffffffffffffff1673ffffffffffffffffffffffffffffffffffffffff1663095ea7b3600460009054906101000a900473ffffffffffffffffffffffffffffffffffffffff16836040518363ffffffff1660e01b81526004016109f5929190612d0f565b6020604051808303816000875af1158015610a14573d6000803e3d6000fd5b505050506040513d601f19601f82011682018060405250810190610a389190612d64565b506001955050505050509998505050505050505050565b600160009054906101000a900473ffffffffffffffffffffffffffffffffffffffff1673ffffffffffffffffffffffffffffffffffffffff166323b872dd3330846040518463ffffffff1660e01b8152600401610aae93929190612d91565b6020604051808303816000875af1158015610acd573d6000803e3d6000fd5b505050506040513d601f19601f82011682018060405250810190610af19190612d64565b5060005b8260ff168160ff161015610b1e57610b0b611707565b8080610b1690612b81565b915050610af5565b50600160009054906101000a900473ffffffffffffffffffffffffffffffffffffffff1673ffffffffffffffffffffffffffffffffffffffff1663a9059cbb33600160009054906101000a900473ffffffffffffffffffffffffffffffffffffffff1673ffffffffffffffffffffffffffffffffffffffff166370a08231306040518263ffffffff1660e01b8152600401610bb99190612bab565b602060405180830381865afa158015610bd6573d6000803e3d6000fd5b505050506040513d601f19601f82011682018060405250810190610bfa9190612bdb565b6040518363ffffffff1660e01b8152600401610c17929190612d0f565b6020604051808303816000875af1158015610c36573d6000803e3d6000fd5b505050506040513d601f19601f82011682018060405250810190610c5a9190612d64565b505050565b600160009054906101000a900473ffffffffffffffffffffffffffffffffffffffff1673ffffffffffffffffffffffffffffffffffffffff166323b872dd3330846040518463ffffffff1660e01b8152600401610cbe93929190612d91565b6020604051808303816000875af1158015610cdd573d6000803e3d6000fd5b505050506040513d601f19601f82011682018060405250810190610d019190612d64565b5060005b8260ff168160ff161015610d2e57610d1b611d4a565b8080610d2690612b81565b915050610d05565b50600160009054906101000a900473ffffffffffffffffffffffffffffffffffffffff1673ffffffffffffffffffffffffffffffffffffffff1663a9059cbb33600160009054906101000a900473ffffffffffffffffffffffffffffffffffffffff1673ffffffffffffffffffffffffffffffffffffffff166370a08231306040518263ffffffff1660e01b8152600401610dc99190612bab565b602060405180830381865afa158015610de6573d6000803e3d6000fd5b505050506040513d601f19601f82011682018060405250810190610e0a9190612bdb565b6040518363ffffffff1660e01b8152600401610e27929190612d0f565b6020604051808303816000875af1158015610e46573d6000803e3d6000fd5b505050506040513d601f19601f82011682018060405250810190610e6a9190612d64565b505050565b600080610e7b836112c8565b915091506000600260009054906101000a900473ffffffffffffffffffffffffffffffffffffffff1673ffffffffffffffffffffffffffffffffffffffff166351c0e0616040518163ffffffff1660e01b81526004016020604051808303816000875af1158015610ef0573d6000803e3d6000fd5b505050506040513d601f19601f82011682018060405250810190610f149190612e06565b90506000600160009054906101000a900473ffffffffffffffffffffffffffffffffffffffff1673ffffffffffffffffffffffffffffffffffffffff166370a08231836040518263ffffffff1660e01b8152600401610f739190612bab565b602060405180830381865afa158015610f90573d6000803e3d6000fd5b505050506040513d601f19601f82011682018060405250810190610fb49190612bdb565b905060016002811115610fca57610fc9612647565b5b846002811115610fdd57610fdc612647565b5b1415611025576064601e82610ff29190612e33565b610ffc9190612ebc565b83116110085780611022565b6064601e826110179190612e33565b6110219190612ebc565b5b90505b6000611049600183866110389190612ebc565b6110429190612c08565b600a6122a7565b9050600081856110599190612ebc565b90506000600167ffffffffffffffff811115611078576110776126f6565b5b6040519080825280602002602001820160405280156110a65781602001602082028036833780820191505090505b509050600160009054906101000a900473ffffffffffffffffffffffffffffffffffffffff16816000815181106110e0576110df612725565b5b602002602001019073ffffffffffffffffffffffffffffffffffffffff16908173ffffffffffffffffffffffffffffffffffffffff16815250506000600167ffffffffffffffff811115611137576111366126f6565b5b6040519080825280602002602001820160405280156111655781602001602082028036833780820191505090505b509050828160008151811061117d5761117c612725565b5b6020026020010181815250506000600167ffffffffffffffff8111156111a6576111a56126f6565b5b6040519080825280602002602001820160405280156111d45781602001602082028036833780820191505090505b5090506000816000815181106111ed576111ec612725565b5b602002602001018181525050600089338760405160200161121093929190612eed565b6040516020818303038152906040529050600460009054906101000a900473ffffffffffffffffffffffffffffffffffffffff1673ffffffffffffffffffffffffffffffffffffffff1663ab9c4b5d30868686308760006040518863ffffffff1660e01b81526004016112899796959493929190612a11565b600060405180830381600087803b1580156112a357600080fd5b505af11580156112b7573d6000803e3d6000fd5b505050505050505050505050505050565b600080600080600560009054906101000a900473ffffffffffffffffffffffffffffffffffffffff1673ffffffffffffffffffffffffffffffffffffffff166363fe3b566040518163ffffffff1660e01b81526004016040805180830381865afa15801561133a573d6000803e3d6000fd5b505050506040513d601f19601f8201168201806040525081019061135e9190612f24565b915091506000600160009054906101000a900473ffffffffffffffffffffffffffffffffffffffff1673ffffffffffffffffffffffffffffffffffffffff1663313ce5676040518163ffffffff1660e01b8152600401602060405180830381865afa1580156113d1573d6000803e3d6000fd5b505050506040513d601f19601f820116820180604052508101906113f59190612f79565b60126114019190612fa6565b600a61140d919061310d565b836114189190612ebc565b90506000600160009054906101000a900473ffffffffffffffffffffffffffffffffffffffff1673ffffffffffffffffffffffffffffffffffffffff1663313ce5676040518163ffffffff1660e01b8152600401602060405180830381865afa158015611489573d6000803e3d6000fd5b505050506040513d601f19601f820116820180604052508101906114ad9190612f79565b60126114b99190612fa6565b600a6114c5919061310d565b836114d09190612ebc565b905060008060009054906101000a900473ffffffffffffffffffffffffffffffffffffffff1673ffffffffffffffffffffffffffffffffffffffff1663b05f8e48600354600160009054906101000a900473ffffffffffffffffffffffffffffffffffffffff166040518363ffffffff1660e01b81526004016115549291906131c6565b608060405180830381865afa158015611571573d6000803e3d6000fd5b505050506040513d601f19601f820116820180604052508101906115959190613204565b50505090506000600284846115aa9190612c08565b6115b49190612ebc565b905060008060009054906101000a900473ffffffffffffffffffffffffffffffffffffffff1673ffffffffffffffffffffffffffffffffffffffff1663b05f8e48600354600260009054906101000a900473ffffffffffffffffffffffffffffffffffffffff166040518363ffffffff1660e01b815260040161163892919061328c565b608060405180830381865afa158015611655573d6000803e3d6000fd5b505050506040513d601f19601f820116820180604052508101906116799190613204565b5050509050848310156116d257600198506116b983836116999190612cdb565b61271061251c846116aa9190612e33565b6116b49190612ebc565b6122a7565b97508988116116c95760006116cb565b875b97506116fb565b838311156116f1576000985081836116ea9190612cdb565b97506116fa565b60029850600097505b5b50505050505050915091565b600160009054906101000a900473ffffffffffffffffffffffffffffffffffffffff1673ffffffffffffffffffffffffffffffffffffffff1663095ea7b3600260009054906101000a900473ffffffffffffffffffffffffffffffffffffffff167fffffffffffffffffffffffffffffffffffffffffffffffffffffffffffffffff6040518363ffffffff1660e01b81526004016117a6929190612d0f565b6020604051808303816000875af11580156117c5573d6000803e3d6000fd5b505050506040513d601f19601f820116820180604052508101906117e99190612d64565b50600260009054906101000a900473ffffffffffffffffffffffffffffffffffffffff1673ffffffffffffffffffffffffffffffffffffffff16632f2cab8730600160009054906101000a900473ffffffffffffffffffffffffffffffffffffffff1673ffffffffffffffffffffffffffffffffffffffff166370a08231306040518263ffffffff1660e01b81526004016118849190612bab565b602060405180830381865afa1580156118a1573d6000803e3d6000fd5b505050506040513d601f19601f820116820180604052508101906118c59190612bdb565b600060016040518563ffffffff1660e01b81526004016118e894939291906132b5565b6020604051808303816000875af1158015611907573d6000803e3d6000fd5b505050506040513d601f19601f8201168201806040525081019061192b9190612bdb565b50600260009054906101000a900473ffffffffffffffffffffffffffffffffffffffff1673ffffffffffffffffffffffffffffffffffffffff1663095ea7b360008054906101000a900473ffffffffffffffffffffffffffffffffffffffff167fffffffffffffffffffffffffffffffffffffffffffffffffffffffffffffffff6040518363ffffffff1660e01b81526004016119c9929190612d0f565b6020604051808303816000875af11580156119e8573d6000803e3d6000fd5b505050506040513d601f19601f82011682018060405250810190611a0c9190612d64565b50600060405180602001604052806000815250905060006040518060c00160405280600354815260200160006001811115611a4a57611a49612647565b5b8152602001600260009054906101000a900473ffffffffffffffffffffffffffffffffffffffff1673ffffffffffffffffffffffffffffffffffffffff168152602001600160009054906101000a900473ffffffffffffffffffffffffffffffffffffffff1673ffffffffffffffffffffffffffffffffffffffff168152602001600260009054906101000a900473ffffffffffffffffffffffffffffffffffffffff1673ffffffffffffffffffffffffffffffffffffffff166370a08231306040518263ffffffff1660e01b8152600401611b269190612bab565b602060405180830381865afa158015611b43573d6000803e3d6000fd5b505050506040513d601f19601f82011682018060405250810190611b679190612bdb565b8152602001838152509050600060405180608001604052803073ffffffffffffffffffffffffffffffffffffffff1681526020016000151581526020013073ffffffffffffffffffffffffffffffffffffffff16815260200160001515815250905060006064605a600260009054906101000a900473ffffffffffffffffffffffffffffffffffffffff1673ffffffffffffffffffffffffffffffffffffffff166370a08231306040518263ffffffff1660e01b8152600401611c2a9190612bab565b602060405180830381865afa158015611c47573d6000803e3d6000fd5b505050506040513d601f19601f82011682018060405250810190611c6b9190612bdb565b611c759190612e33565b611c7f9190612ebc565b905060008054906101000a900473ffffffffffffffffffffffffffffffffffffffff1673ffffffffffffffffffffffffffffffffffffffff166352bbbe298484847fffffffffffffffffffffffffffffffffffffffffffffffffffffffffffffffff6040518563ffffffff1660e01b8152600401611d0094939291906134b8565b6020604051808303816000875af1158015611d1f573d6000803e3d6000fd5b505050506040513d601f19601f82011682018060405250810190611d439190612bdb565b5050505050565b600160009054906101000a900473ffffffffffffffffffffffffffffffffffffffff1673ffffffffffffffffffffffffffffffffffffffff1663095ea7b360008054906101000a900473ffffffffffffffffffffffffffffffffffffffff167fffffffffffffffffffffffffffffffffffffffffffffffffffffffffffffffff6040518363ffffffff1660e01b8152600401611de7929190612d0f565b6020604051808303816000875af1158015611e06573d6000803e3d6000fd5b505050506040513d601f19601f82011682018060405250810190611e2a9190612d64565b50600060405180602001604052806000815250905060006040518060c00160405280600354815260200160006001811115611e6857611e67612647565b5b8152602001600160009054906101000a900473ffffffffffffffffffffffffffffffffffffffff1673ffffffffffffffffffffffffffffffffffffffff168152602001600260009054906101000a900473ffffffffffffffffffffffffffffffffffffffff1673ffffffffffffffffffffffffffffffffffffffff168152602001600160009054906101000a900473ffffffffffffffffffffffffffffffffffffffff1673ffffffffffffffffffffffffffffffffffffffff166370a08231306040518263ffffffff1660e01b8152600401611f449190612bab565b602060405180830381865afa158015611f61573d6000803e3d6000fd5b505050506040513d601f19601f82011682018060405250810190611f859190612bdb565b8152602001838152509050600060405180608001604052803073ffffffffffffffffffffffffffffffffffffffff1681526020016000151581526020013073ffffffffffffffffffffffffffffffffffffffff16815260200160001515815250905060006064605a600160009054906101000a900473ffffffffffffffffffffffffffffffffffffffff1673ffffffffffffffffffffffffffffffffffffffff166370a08231306040518263ffffffff1660e01b81526004016120489190612bab565b602060405180830381865afa158015612065573d6000803e3d6000fd5b505050506040513d601f19601f820116820180604052508101906120899190612bdb565b6120939190612e33565b61209d9190612ebc565b905060008054906101000a900473ffffffffffffffffffffffffffffffffffffffff1673ffffffffffffffffffffffffffffffffffffffff166352bbbe298484847fffffffffffffffffffffffffffffffffffffffffffffffffffffffffffffffff6040518563ffffffff1660e01b815260040161211e94939291906134b8565b6020604051808303816000875af115801561213d573d6000803e3d6000fd5b505050506040513d601f19601f820116820180604052508101906121619190612bdb565b50600260009054906101000a900473ffffffffffffffffffffffffffffffffffffffff1673ffffffffffffffffffffffffffffffffffffffff1663ead5d35930600260009054906101000a900473ffffffffffffffffffffffffffffffffffffffff1673ffffffffffffffffffffffffffffffffffffffff166370a08231306040518263ffffffff1660e01b81526004016121fc9190612bab565b602060405180830381865afa158015612219573d6000803e3d6000fd5b505050506040513d601f19601f8201168201806040525081019061223d9190612bdb565b60016040518463ffffffff1660e01b815260040161225d93929190613504565b60408051808303816000875af115801561227b573d6000803e3d6000fd5b505050506040513d601f19601f8201168201806040525081019061229f9190612f24565b505050505050565b60008183106122b657816122b8565b825b905092915050565b600080fd5b600080fd5b600060ff82169050919050565b6122e0816122ca565b81146122eb57600080fd5b50565b6000813590506122fd816122d7565b92915050565b6000819050919050565b61231681612303565b811461232157600080fd5b50565b6000813590506123338161230d565b92915050565b600080604083850312156123505761234f6122c0565b5b600061235e858286016122ee565b925050602061236f85828601612324565b9150509250929050565b60006020828403121561238f5761238e6122c0565b5b600061239d84828501612324565b91505092915050565b60008115159050919050565b6123bb816123a6565b82525050565b60006020820190506123d660008301846123b2565b92915050565b600080fd5b600080fd5b600080fd5b60008083601f840112612401576124006123dc565b5b8235905067ffffffffffffffff81111561241e5761241d6123e1565b5b60208301915083602082028301111561243a576124396123e6565b5b9250929050565b60008083601f840112612457576124566123dc565b5b8235905067ffffffffffffffff811115612474576124736123e1565b5b6020830191508360208202830111156124905761248f6123e6565b5b9250929050565b600073ffffffffffffffffffffffffffffffffffffffff82169050919050565b60006124c282612497565b9050919050565b6124d2816124b7565b81146124dd57600080fd5b50565b6000813590506124ef816124c9565b92915050565b60008083601f84011261250b5761250a6123dc565b5b8235905067ffffffffffffffff811115612528576125276123e1565b5b602083019150836001820283011115612544576125436123e6565b5b9250929050565b600080600080600080600080600060a08a8c03121561256d5761256c6122c0565b5b60008a013567ffffffffffffffff81111561258b5761258a6122c5565b5b6125978c828d016123eb565b995099505060208a013567ffffffffffffffff8111156125ba576125b96122c5565b5b6125c68c828d01612441565b975097505060408a013567ffffffffffffffff8111156125e9576125e86122c5565b5b6125f58c828d01612441565b955095505060606126088c828d016124e0565b93505060808a013567ffffffffffffffff811115612629576126286122c5565b5b6126358c828d016124f5565b92509250509295985092959850929598565b7f4e487b7100000000000000000000000000000000000000000000000000000000600052602160045260246000fd5b6003811061268757612686612647565b5b50565b600081905061269882612676565b919050565b60006126a88261268a565b9050919050565b6126b88161269d565b82525050565b6126c781612303565b82525050565b60006040820190506126e260008301856126af565b6126ef60208301846126be565b9392505050565b7f4e487b7100000000000000000000000000000000000000000000000000000000600052604160045260246000fd5b7f4e487b7100000000000000000000000000000000000000000000000000000000600052603260045260246000fd5b61275d816124b7565b82525050565b61276c816122ca565b82525050565b600060608201905061278760008301866126af565b6127946020830185612754565b6127a16040830184612763565b949350505050565b600081519050919050565b600082825260208201905092915050565b6000819050602082019050919050565b6127de816124b7565b82525050565b60006127f083836127d5565b60208301905092915050565b6000602082019050919050565b6000612814826127a9565b61281e81856127b4565b9350612829836127c5565b8060005b8381101561285a57815161284188826127e4565b975061284c836127fc565b92505060018101905061282d565b5085935050505092915050565b600081519050919050565b600082825260208201905092915050565b6000819050602082019050919050565b61289c81612303565b82525050565b60006128ae8383612893565b60208301905092915050565b6000602082019050919050565b60006128d282612867565b6128dc8185612872565b93506128e783612883565b8060005b838110156129185781516128ff88826128a2565b975061290a836128ba565b9250506001810190506128eb565b5085935050505092915050565b600081519050919050565b600082825260208201905092915050565b60005b8381101561295f578082015181840152602081019050612944565b8381111561296e576000848401525b50505050565b6000601f19601f8301169050919050565b600061299082612925565b61299a8185612930565b93506129aa818560208601612941565b6129b381612974565b840191505092915050565b6000819050919050565b600061ffff82169050919050565b6000819050919050565b60006129fb6129f66129f1846129be565b6129d6565b6129c8565b9050919050565b612a0b816129e0565b82525050565b600060e082019050612a26600083018a612754565b8181036020830152612a388189612809565b90508181036040830152612a4c81886128c7565b90508181036060830152612a6081876128c7565b9050612a6f6080830186612754565b81810360a0830152612a818185612985565b9050612a9060c0830184612a02565b98975050505050505050565b60038110612aa957600080fd5b50565b600081359050612abb81612a9c565b92915050565b6000612acc82612497565b9050919050565b612adc81612ac1565b8114612ae757600080fd5b50565b600081359050612af981612ad3565b92915050565b600080600060608486031215612b1857612b176122c0565b5b6000612b2686828701612aac565b9350506020612b3786828701612aea565b9250506040612b48868287016122ee565b9150509250925092565b7f4e487b7100000000000000000000000000000000000000000000000000000000600052601160045260246000fd5b6000612b8c826122ca565b915060ff821415612ba057612b9f612b52565b5b600182019050919050565b6000602082019050612bc06000830184612754565b92915050565b600081519050612bd58161230d565b92915050565b600060208284031215612bf157612bf06122c0565b5b6000612bff84828501612bc6565b91505092915050565b6000612c1382612303565b9150612c1e83612303565b9250827fffffffffffffffffffffffffffffffffffffffffffffffffffffffffffffffff03821115612c5357612c52612b52565b5b828201905092915050565b600082825260208201905092915050565b7f4e656761746976652070726f6669742100000000000000000000000000000000600082015250565b6000612ca5601083612c5e565b9150612cb082612c6f565b602082019050919050565b60006020820190508181036000830152612cd481612c98565b9050919050565b6000612ce682612303565b9150612cf183612303565b925082821015612d0457612d03612b52565b5b828203905092915050565b6000604082019050612d246000830185612754565b612d3160208301846126be565b9392505050565b612d41816123a6565b8114612d4c57600080fd5b50565b600081519050612d5e81612d38565b92915050565b600060208284031215612d7a57612d796122c0565b5b6000612d8884828501612d4f565b91505092915050565b6000606082019050612da66000830186612754565b612db36020830185612754565b612dc060408301846126be565b949350505050565b6000612dd3826124b7565b9050919050565b612de381612dc8565b8114612dee57600080fd5b50565b600081519050612e0081612dda565b92915050565b600060208284031215612e1c57612e1b6122c0565b5b6000612e2a84828501612df1565b91505092915050565b6000612e3e82612303565b9150612e4983612303565b9250817fffffffffffffffffffffffffffffffffffffffffffffffffffffffffffffffff0483118215151615612e8257612e81612b52565b5b828202905092915050565b7f4e487b7100000000000000000000000000000000000000000000000000000000600052601260045260246000fd5b6000612ec782612303565b9150612ed283612303565b925082612ee257612ee1612e8d565b5b828204905092915050565b6000606082019050612f0260008301866126af565b612f0f6020830185612754565b612f1c60408301846126be565b949350505050565b60008060408385031215612f3b57612f3a6122c0565b5b6000612f4985828601612bc6565b9250506020612f5a85828601612bc6565b9150509250929050565b600081519050612f73816122d7565b92915050565b600060208284031215612f8f57612f8e6122c0565b5b6000612f9d84828501612f64565b91505092915050565b6000612fb1826122ca565b9150612fbc836122ca565b925082821015612fcf57612fce612b52565b5b828203905092915050565b60008160011c9050919050565b6000808291508390505b60018511156130315780860481111561300d5761300c612b52565b5b600185161561301c5780820291505b808102905061302a85612fda565b9450612ff1565b94509492505050565b60008261304a5760019050613106565b816130585760009050613106565b816001811461306e5760028114613078576130a7565b6001915050613106565b60ff84111561308a57613089612b52565b5b8360020a9150848211156130a1576130a0612b52565b5b50613106565b5060208310610133831016604e8410600b84101617156130dc5782820a9050838111156130d7576130d6612b52565b5b613106565b6130e98484846001612fe7565b92509050818404811115613100576130ff612b52565b5b81810290505b9392505050565b600061311882612303565b9150613123836122ca565b92506131507fffffffffffffffffffffffffffffffffffffffffffffffffffffffffffffffff848461303a565b905092915050565b6000819050919050565b61316b81613158565b82525050565b600061318c61318761318284612497565b6129d6565b612497565b9050919050565b600061319e82613171565b9050919050565b60006131b082613193565b9050919050565b6131c0816131a5565b82525050565b60006040820190506131db6000830185613162565b6131e860208301846131b7565b9392505050565b6000815190506131fe816124c9565b92915050565b6000806000806080858703121561321e5761321d6122c0565b5b600061322c87828801612bc6565b945050602061323d87828801612bc6565b935050604061324e87828801612bc6565b925050606061325f878288016131ef565b91505092959194509250565b600061327682613193565b9050919050565b6132868161326b565b82525050565b60006040820190506132a16000830185613162565b6132ae602083018461327d565b9392505050565b60006080820190506132ca6000830187612754565b6132d760208301866126be565b6132e46040830185612a02565b6132f160608301846123b2565b95945050505050565b61330381613158565b82525050565b6002811061331a57613319612647565b5b50565b600081905061332b82613309565b919050565b600061333b8261331d565b9050919050565b61334b81613330565b82525050565b600061335c82613193565b9050919050565b61336c81613351565b82525050565b600082825260208201905092915050565b600061338e82612925565b6133988185613372565b93506133a8818560208601612941565b6133b181612974565b840191505092915050565b600060c0830160008301516133d460008601826132fa565b5060208301516133e76020860182613342565b5060408301516133fa6040860182613363565b50606083015161340d6060860182613363565b5060808301516134206080860182612893565b5060a083015184820360a08601526134388282613383565b9150508091505092915050565b61344e816123a6565b82525050565b61345d81612ac1565b82525050565b60808201600082015161347960008501826127d5565b50602082015161348c6020850182613445565b50604082015161349f6040850182613454565b5060608201516134b26060850182613445565b50505050565b600060e08201905081810360008301526134d281876133bc565b90506134e16020830186613463565b6134ee60a08301856126be565b6134fb60c08301846126be565b95945050505050565b60006060820190506135196000830186612754565b61352660208301856126be565b61353360408301846123b2565b94935050505056fea264697066735822122016a8ef955a3cc53a90d2267c85bbdd7c1bbc3326764b2147bd1fbba98c482bb264736f6c634300080c0033",
  "devdoc": {
    "kind": "dev",
    "methods": {},
    "version": 1
  },
  "userdoc": {
    "kind": "user",
    "methods": {},
    "version": 1
  },
  "storageLayout": {
    "storage": [
      {
        "astId": 889,
        "contract": "contracts/LinearPoolSwap.sol:LinearPoolSwap",
        "label": "vault",
        "offset": 0,
        "slot": "0",
        "type": "t_contract(IVault)2592"
      },
      {
        "astId": 892,
        "contract": "contracts/LinearPoolSwap.sol:LinearPoolSwap",
        "label": "token",
        "offset": 0,
        "slot": "1",
        "type": "t_contract(IERC20)2068"
      },
      {
        "astId": 895,
        "contract": "contracts/LinearPoolSwap.sol:LinearPoolSwap",
        "label": "wrappedHToken",
        "offset": 0,
        "slot": "2",
        "type": "t_contract(IStaticATokenLM)2436"
      },
      {
        "astId": 897,
        "contract": "contracts/LinearPoolSwap.sol:LinearPoolSwap",
        "label": "poolId",
        "offset": 0,
        "slot": "3",
        "type": "t_bytes32"
      },
      {
        "astId": 900,
        "contract": "contracts/LinearPoolSwap.sol:LinearPoolSwap",
        "label": "lendingPool",
        "offset": 0,
        "slot": "4",
        "type": "t_contract(ILendingPool)2139"
      },
      {
        "astId": 903,
        "contract": "contracts/LinearPoolSwap.sol:LinearPoolSwap",
        "label": "linearPool",
        "offset": 0,
        "slot": "5",
        "type": "t_contract(ILinearPool)2184"
      }
    ],
    "types": {
      "t_bytes32": {
        "encoding": "inplace",
        "label": "bytes32",
        "numberOfBytes": "32"
      },
      "t_contract(IERC20)2068": {
        "encoding": "inplace",
        "label": "contract IERC20",
        "numberOfBytes": "20"
      },
      "t_contract(ILendingPool)2139": {
        "encoding": "inplace",
        "label": "contract ILendingPool",
        "numberOfBytes": "20"
      },
      "t_contract(ILinearPool)2184": {
        "encoding": "inplace",
        "label": "contract ILinearPool",
        "numberOfBytes": "20"
      },
      "t_contract(IStaticATokenLM)2436": {
        "encoding": "inplace",
        "label": "contract IStaticATokenLM",
        "numberOfBytes": "20"
      },
      "t_contract(IVault)2592": {
        "encoding": "inplace",
        "label": "contract IVault",
        "numberOfBytes": "20"
      }
    }
  }
}