{
  "address": "0x8aB701d9fcAb3F8A775316a7c4389CcdB73A0d39",
  "abi": [
    {
      "inputs": [
        {
          "internalType": "address",
          "name": "vaultAddress",
          "type": "address"
        },
        {
          "internalType": "address",
          "name": "lendingPoolAddress",
          "type": "address"
        },
        {
          "internalType": "address",
          "name": "tokenAddress",
          "type": "address"
        },
        {
          "internalType": "address",
          "name": "wrappedHTokenAddress",
          "type": "address"
        },
        {
          "internalType": "bytes32",
          "name": "_poolId",
          "type": "bytes32"
        }
      ],
      "stateMutability": "nonpayable",
      "type": "constructor"
    },
    {
      "inputs": [
        {
          "internalType": "address[]",
          "name": "assets",
          "type": "address[]"
        },
        {
          "internalType": "uint256[]",
          "name": "amounts",
          "type": "uint256[]"
        },
        {
          "internalType": "uint256[]",
          "name": "premiums",
          "type": "uint256[]"
        },
        {
          "internalType": "address",
          "name": "initiator",
          "type": "address"
        },
        {
          "internalType": "bytes",
          "name": "params",
          "type": "bytes"
        }
      ],
      "name": "executeOperation",
      "outputs": [
        {
          "internalType": "bool",
          "name": "",
          "type": "bool"
        }
      ],
      "stateMutability": "nonpayable",
      "type": "function"
    },
    {
      "inputs": [
        {
          "internalType": "uint256",
          "name": "amount",
          "type": "uint256"
        }
      ],
      "name": "flashLoanUnwind",
      "outputs": [],
      "stateMutability": "nonpayable",
      "type": "function"
    },
    {
      "inputs": [
        {
          "internalType": "uint256",
          "name": "amount",
          "type": "uint256"
        }
      ],
      "name": "flashLoanWind",
      "outputs": [],
      "stateMutability": "nonpayable",
      "type": "function"
    },
    {
      "inputs": [],
      "name": "unwind",
      "outputs": [],
      "stateMutability": "nonpayable",
      "type": "function"
    },
    {
      "inputs": [
        {
          "internalType": "uint8",
          "name": "counter",
          "type": "uint8"
        },
        {
          "internalType": "uint256",
          "name": "amount",
          "type": "uint256"
        }
      ],
      "name": "unwindXTimes",
      "outputs": [],
      "stateMutability": "nonpayable",
      "type": "function"
    },
    {
      "inputs": [],
      "name": "wind",
      "outputs": [],
      "stateMutability": "nonpayable",
      "type": "function"
    },
    {
      "inputs": [
        {
          "internalType": "uint8",
          "name": "counter",
          "type": "uint8"
        },
        {
          "internalType": "uint256",
          "name": "amount",
          "type": "uint256"
        }
      ],
      "name": "windXTimes",
      "outputs": [],
      "stateMutability": "nonpayable",
      "type": "function"
    }
  ],
  "transactionHash": "0x008cf5a6a5e523e598b8213bb7d66f42b00b8b96a1c84eb05653b2b945814640",
  "args": [
    "0xd69FAC6C632eF023afCe7471Bda724b228237570",
    "0x72ddd1eca2af73024e0823C9a80B00de8e3f0070",
    "0x0c7F21908222098616803EfF5d054d3F4EF57EBb",
    "0x70a58262bc55fbf3965bd1c0861e3ddf1a253777",
    "0x003ab2a164fcd7b5384c8bf4939806f11a1dc32d000000000000000000000009"
  ],
  "numDeployments": 39,
  "solcInputHash": "401ae7c4b2e1ad54948a9d2dfa3ff52f",
  "bytecode": "0x60806040523480156200001157600080fd5b506040516200297a3803806200297a83398181016040528101906200003791906200017a565b846000806101000a81548173ffffffffffffffffffffffffffffffffffffffff021916908373ffffffffffffffffffffffffffffffffffffffff16021790555083600460006101000a81548173ffffffffffffffffffffffffffffffffffffffff021916908373ffffffffffffffffffffffffffffffffffffffff16021790555082600160006101000a81548173ffffffffffffffffffffffffffffffffffffffff021916908373ffffffffffffffffffffffffffffffffffffffff16021790555081600260006101000a81548173ffffffffffffffffffffffffffffffffffffffff021916908373ffffffffffffffffffffffffffffffffffffffff1602179055508060038190555050505050506200026e565b6000815190506200015d816200023a565b92915050565b600081519050620001748162000254565b92915050565b600080600080600060a086880312156200019357600080fd5b6000620001a3888289016200014c565b9550506020620001b6888289016200014c565b9450506040620001c9888289016200014c565b9350506060620001dc888289016200014c565b9250506080620001ef8882890162000163565b9150509295509295909350565b600062000209826200021a565b9050919050565b6000819050919050565b600073ffffffffffffffffffffffffffffffffffffffff82169050919050565b6200024581620001fc565b81146200025157600080fd5b50565b6200025f8162000210565b81146200026b57600080fd5b50565b6126fc806200027e6000396000f3fe608060405234801561001057600080fd5b506004361061007d5760003560e01c8063a14a166c1161005b578063a14a166c146100d8578063a90a94cc146100f4578063b44ce39c14610110578063fe694bb21461011a5761007d565b8063807763ab14610082578063920f5c841461008c5780639a348cc8146100bc575b600080fd5b61008a610136565b005b6100a660048036038101906100a19190611c7a565b6106e7565b6040516100b39190612381565b60405180910390f35b6100d660048036038101906100d19190611e55565b610a97565b005b6100f260048036038101906100ed9190611dc7565b610cce565b005b61010e60048036038101906101099190611e55565b610f19565b005b610118611150565b005b610134600480360381019061012f9190611dc7565b6117f6565b005b600160009054906101000a900473ffffffffffffffffffffffffffffffffffffffff1673ffffffffffffffffffffffffffffffffffffffff1663095ea7b360008054906101000a900473ffffffffffffffffffffffffffffffffffffffff167fffffffffffffffffffffffffffffffffffffffffffffffffffffffffffffffff6040518363ffffffff1660e01b81526004016101d39291906122dc565b602060405180830381600087803b1580156101ed57600080fd5b505af1158015610201573d6000803e3d6000fd5b505050506040513d601f19601f820116820180604052508101906102259190611d62565b506060604051806020016040528060008152509050610242611a41565b6040518060c0016040528060035481526020016000600181111561026257fe5b8152602001600160009054906101000a900473ffffffffffffffffffffffffffffffffffffffff1673ffffffffffffffffffffffffffffffffffffffff168152602001600260009054906101000a900473ffffffffffffffffffffffffffffffffffffffff1673ffffffffffffffffffffffffffffffffffffffff168152602001600160009054906101000a900473ffffffffffffffffffffffffffffffffffffffff1673ffffffffffffffffffffffffffffffffffffffff166370a08231306040518263ffffffff1660e01b815260040161033e919061219f565b60206040518083038186803b15801561035657600080fd5b505afa15801561036a573d6000803e3d6000fd5b505050506040513d601f19601f8201168201806040525081019061038e9190611df0565b81526020018381525090506103a1611ab1565b60405180608001604052803073ffffffffffffffffffffffffffffffffffffffff1681526020016000151581526020013073ffffffffffffffffffffffffffffffffffffffff16815260200160001515815250905060006064605a600160009054906101000a900473ffffffffffffffffffffffffffffffffffffffff1673ffffffffffffffffffffffffffffffffffffffff166370a08231306040518263ffffffff1660e01b8152600401610457919061219f565b60206040518083038186803b15801561046f57600080fd5b505afa158015610483573d6000803e3d6000fd5b505050506040513d601f19601f820116820180604052508101906104a79190611df0565b02816104af57fe5b04905060008054906101000a900473ffffffffffffffffffffffffffffffffffffffff1673ffffffffffffffffffffffffffffffffffffffff166352bbbe298484847fffffffffffffffffffffffffffffffffffffffffffffffffffffffffffffffff6040518563ffffffff1660e01b815260040161053194939291906123c5565b602060405180830381600087803b15801561054b57600080fd5b505af115801561055f573d6000803e3d6000fd5b505050506040513d601f19601f820116820180604052508101906105839190611df0565b50600260009054906101000a900473ffffffffffffffffffffffffffffffffffffffff1673ffffffffffffffffffffffffffffffffffffffff1663ead5d35930600260009054906101000a900473ffffffffffffffffffffffffffffffffffffffff1673ffffffffffffffffffffffffffffffffffffffff166370a08231306040518263ffffffff1660e01b815260040161061e919061219f565b60206040518083038186803b15801561063657600080fd5b505afa15801561064a573d6000803e3d6000fd5b505050506040513d601f19601f8201168201806040525081019061066e9190611df0565b60016040518463ffffffff1660e01b815260040161068e93929190612305565b6040805180830381600087803b1580156106a757600080fd5b505af11580156106bb573d6000803e3d6000fd5b505050506040513d601f19601f820116820180604052508101906106df9190611e19565b505050505050565b600080600084848101906106fb9190611d8b565b80925081935050506000600181111561071057fe5b82600181111561071c57fe5b141561072f5761072a611150565b610757565b60018081111561073b57fe5b82600181111561074757fe5b141561075657610755610136565b5b5b6000600160009054906101000a900473ffffffffffffffffffffffffffffffffffffffff1673ffffffffffffffffffffffffffffffffffffffff166370a08231306040518263ffffffff1660e01b81526004016107b4919061219f565b60206040518083038186803b1580156107cc57600080fd5b505afa1580156107e0573d6000803e3d6000fd5b505050506040513d601f19601f820116820180604052508101906108049190611df0565b905060008989600081811061081557fe5b905060200201358c8c600081811061082957fe5b90506020020135019050818111156108f457600160009054906101000a900473ffffffffffffffffffffffffffffffffffffffff1673ffffffffffffffffffffffffffffffffffffffff166323b872dd84308585036040518463ffffffff1660e01b815260040161089c9392919061221a565b602060405180830381600087803b1580156108b657600080fd5b505af11580156108ca573d6000803e3d6000fd5b505050506040513d601f19601f820116820180604052508101906108ee9190611d62565b506109b0565b818110156109af57600160009054906101000a900473ffffffffffffffffffffffffffffffffffffffff1673ffffffffffffffffffffffffffffffffffffffff1663a9059cbb848385036040518363ffffffff1660e01b815260040161095b9291906122dc565b602060405180830381600087803b15801561097557600080fd5b505af1158015610989573d6000803e3d6000fd5b505050506040513d601f19601f820116820180604052508101906109ad9190611d62565b505b5b600160009054906101000a900473ffffffffffffffffffffffffffffffffffffffff1673ffffffffffffffffffffffffffffffffffffffff1663095ea7b3600460009054906101000a900473ffffffffffffffffffffffffffffffffffffffff16836040518363ffffffff1660e01b8152600401610a2f9291906122dc565b602060405180830381600087803b158015610a4957600080fd5b505af1158015610a5d573d6000803e3d6000fd5b505050506040513d601f19601f82011682018060405250810190610a819190611d62565b5060019450505050509998505050505050505050565b600160009054906101000a900473ffffffffffffffffffffffffffffffffffffffff1673ffffffffffffffffffffffffffffffffffffffff166323b872dd3330846040518463ffffffff1660e01b8152600401610af6939291906121ba565b602060405180830381600087803b158015610b1057600080fd5b505af1158015610b24573d6000803e3d6000fd5b505050506040513d601f19601f82011682018060405250810190610b489190611d62565b5060005b8260ff168160ff161015610b6f57610b62611150565b8080600101915050610b4c565b50600160009054906101000a900473ffffffffffffffffffffffffffffffffffffffff1673ffffffffffffffffffffffffffffffffffffffff1663a9059cbb33600160009054906101000a900473ffffffffffffffffffffffffffffffffffffffff1673ffffffffffffffffffffffffffffffffffffffff166370a08231306040518263ffffffff1660e01b8152600401610c0a919061219f565b60206040518083038186803b158015610c2257600080fd5b505afa158015610c36573d6000803e3d6000fd5b505050506040513d601f19601f82011682018060405250810190610c5a9190611df0565b6040518363ffffffff1660e01b8152600401610c779291906121f1565b602060405180830381600087803b158015610c9157600080fd5b505af1158015610ca5573d6000803e3d6000fd5b505050506040513d601f19601f82011682018060405250810190610cc99190611d62565b505050565b6060600167ffffffffffffffff81118015610ce857600080fd5b50604051908082528060200260200182016040528015610d175781602001602082028036833780820191505090505b509050600160009054906101000a900473ffffffffffffffffffffffffffffffffffffffff1681600081518110610d4a57fe5b602002602001019073ffffffffffffffffffffffffffffffffffffffff16908173ffffffffffffffffffffffffffffffffffffffff16815250506060600167ffffffffffffffff81118015610d9e57600080fd5b50604051908082528060200260200182016040528015610dcd5781602001602082028036833780820191505090505b5090508281600081518110610dde57fe5b6020026020010181815250506060600167ffffffffffffffff81118015610e0457600080fd5b50604051908082528060200260200182016040528015610e335781602001602082028036833780820191505090505b509050600081600081518110610e4557fe5b6020026020010181815250506060600033604051602001610e6792919061239c565b6040516020818303038152906040529050600460009054906101000a900473ffffffffffffffffffffffffffffffffffffffff1673ffffffffffffffffffffffffffffffffffffffff1663ab9c4b5d30868686308760006040518863ffffffff1660e01b8152600401610ee09796959493929190612251565b600060405180830381600087803b158015610efa57600080fd5b505af1158015610f0e573d6000803e3d6000fd5b505050505050505050565b600160009054906101000a900473ffffffffffffffffffffffffffffffffffffffff1673ffffffffffffffffffffffffffffffffffffffff166323b872dd3330846040518463ffffffff1660e01b8152600401610f78939291906121ba565b602060405180830381600087803b158015610f9257600080fd5b505af1158015610fa6573d6000803e3d6000fd5b505050506040513d601f19601f82011682018060405250810190610fca9190611d62565b5060005b8260ff168160ff161015610ff157610fe4610136565b8080600101915050610fce565b50600160009054906101000a900473ffffffffffffffffffffffffffffffffffffffff1673ffffffffffffffffffffffffffffffffffffffff1663a9059cbb33600160009054906101000a900473ffffffffffffffffffffffffffffffffffffffff1673ffffffffffffffffffffffffffffffffffffffff166370a08231306040518263ffffffff1660e01b815260040161108c919061219f565b60206040518083038186803b1580156110a457600080fd5b505afa1580156110b8573d6000803e3d6000fd5b505050506040513d601f19601f820116820180604052508101906110dc9190611df0565b6040518363ffffffff1660e01b81526004016110f99291906121f1565b602060405180830381600087803b15801561111357600080fd5b505af1158015611127573d6000803e3d6000fd5b505050506040513d601f19601f8201168201806040525081019061114b9190611d62565b505050565b600160009054906101000a900473ffffffffffffffffffffffffffffffffffffffff1673ffffffffffffffffffffffffffffffffffffffff1663095ea7b3600260009054906101000a900473ffffffffffffffffffffffffffffffffffffffff167fffffffffffffffffffffffffffffffffffffffffffffffffffffffffffffffff6040518363ffffffff1660e01b81526004016111ef9291906122dc565b602060405180830381600087803b15801561120957600080fd5b505af115801561121d573d6000803e3d6000fd5b505050506040513d601f19601f820116820180604052508101906112419190611d62565b50600260009054906101000a900473ffffffffffffffffffffffffffffffffffffffff1673ffffffffffffffffffffffffffffffffffffffff16632f2cab8730600160009054906101000a900473ffffffffffffffffffffffffffffffffffffffff1673ffffffffffffffffffffffffffffffffffffffff166370a08231306040518263ffffffff1660e01b81526004016112dc919061219f565b60206040518083038186803b1580156112f457600080fd5b505afa158015611308573d6000803e3d6000fd5b505050506040513d601f19601f8201168201806040525081019061132c9190611df0565b600060016040518563ffffffff1660e01b815260040161134f949392919061233c565b602060405180830381600087803b15801561136957600080fd5b505af115801561137d573d6000803e3d6000fd5b505050506040513d601f19601f820116820180604052508101906113a19190611df0565b50600260009054906101000a900473ffffffffffffffffffffffffffffffffffffffff1673ffffffffffffffffffffffffffffffffffffffff1663095ea7b360008054906101000a900473ffffffffffffffffffffffffffffffffffffffff167fffffffffffffffffffffffffffffffffffffffffffffffffffffffffffffffff6040518363ffffffff1660e01b815260040161143f9291906122dc565b602060405180830381600087803b15801561145957600080fd5b505af115801561146d573d6000803e3d6000fd5b505050506040513d601f19601f820116820180604052508101906114919190611d62565b5060606040518060200160405280600081525090506114ae611a41565b6040518060c001604052806003548152602001600060018111156114ce57fe5b8152602001600260009054906101000a900473ffffffffffffffffffffffffffffffffffffffff1673ffffffffffffffffffffffffffffffffffffffff168152602001600160009054906101000a900473ffffffffffffffffffffffffffffffffffffffff1673ffffffffffffffffffffffffffffffffffffffff168152602001600260009054906101000a900473ffffffffffffffffffffffffffffffffffffffff1673ffffffffffffffffffffffffffffffffffffffff166370a08231306040518263ffffffff1660e01b81526004016115aa919061219f565b60206040518083038186803b1580156115c257600080fd5b505afa1580156115d6573d6000803e3d6000fd5b505050506040513d601f19601f820116820180604052508101906115fa9190611df0565b815260200183815250905061160d611ab1565b60405180608001604052803073ffffffffffffffffffffffffffffffffffffffff1681526020016000151581526020013073ffffffffffffffffffffffffffffffffffffffff16815260200160001515815250905060006064605a600260009054906101000a900473ffffffffffffffffffffffffffffffffffffffff1673ffffffffffffffffffffffffffffffffffffffff166370a08231306040518263ffffffff1660e01b81526004016116c3919061219f565b60206040518083038186803b1580156116db57600080fd5b505afa1580156116ef573d6000803e3d6000fd5b505050506040513d601f19601f820116820180604052508101906117139190611df0565b028161171b57fe5b04905060008054906101000a900473ffffffffffffffffffffffffffffffffffffffff1673ffffffffffffffffffffffffffffffffffffffff166352bbbe298484847fffffffffffffffffffffffffffffffffffffffffffffffffffffffffffffffff6040518563ffffffff1660e01b815260040161179d94939291906123c5565b602060405180830381600087803b1580156117b757600080fd5b505af11580156117cb573d6000803e3d6000fd5b505050506040513d601f19601f820116820180604052508101906117ef9190611df0565b5050505050565b6060600167ffffffffffffffff8111801561181057600080fd5b5060405190808252806020026020018201604052801561183f5781602001602082028036833780820191505090505b509050600160009054906101000a900473ffffffffffffffffffffffffffffffffffffffff168160008151811061187257fe5b602002602001019073ffffffffffffffffffffffffffffffffffffffff16908173ffffffffffffffffffffffffffffffffffffffff16815250506060600167ffffffffffffffff811180156118c657600080fd5b506040519080825280602002602001820160405280156118f55781602001602082028036833780820191505090505b509050828160008151811061190657fe5b6020026020010181815250506060600167ffffffffffffffff8111801561192c57600080fd5b5060405190808252806020026020018201604052801561195b5781602001602082028036833780820191505090505b50905060008160008151811061196d57fe5b602002602001018181525050606060013360405160200161198f92919061239c565b6040516020818303038152906040529050600460009054906101000a900473ffffffffffffffffffffffffffffffffffffffff1673ffffffffffffffffffffffffffffffffffffffff1663ab9c4b5d30868686308760006040518863ffffffff1660e01b8152600401611a089796959493929190612251565b600060405180830381600087803b158015611a2257600080fd5b505af1158015611a36573d6000803e3d6000fd5b505050505050505050565b6040518060c001604052806000801916815260200160006001811115611a6357fe5b8152602001600073ffffffffffffffffffffffffffffffffffffffff168152602001600073ffffffffffffffffffffffffffffffffffffffff16815260200160008152602001606081525090565b6040518060800160405280600073ffffffffffffffffffffffffffffffffffffffff168152602001600015158152602001600073ffffffffffffffffffffffffffffffffffffffff1681526020016000151581525090565b600081359050611b1881612643565b92915050565b600081359050611b2d8161265a565b92915050565b60008083601f840112611b4557600080fd5b8235905067ffffffffffffffff811115611b5e57600080fd5b602083019150836020820283011115611b7657600080fd5b9250929050565b60008083601f840112611b8f57600080fd5b8235905067ffffffffffffffff811115611ba857600080fd5b602083019150836020820283011115611bc057600080fd5b9250929050565b600081519050611bd681612671565b92915050565b60008083601f840112611bee57600080fd5b8235905067ffffffffffffffff811115611c0757600080fd5b602083019150836001820283011115611c1f57600080fd5b9250929050565b600081359050611c3581612688565b92915050565b600081359050611c4a81612698565b92915050565b600081519050611c5f81612698565b92915050565b600081359050611c74816126af565b92915050565b600080600080600080600080600060a08a8c031215611c9857600080fd5b60008a013567ffffffffffffffff811115611cb257600080fd5b611cbe8c828d01611b33565b995099505060208a013567ffffffffffffffff811115611cdd57600080fd5b611ce98c828d01611b7d565b975097505060408a013567ffffffffffffffff811115611d0857600080fd5b611d148c828d01611b7d565b95509550506060611d278c828d01611b09565b93505060808a013567ffffffffffffffff811115611d4457600080fd5b611d508c828d01611bdc565b92509250509295985092959850929598565b600060208284031215611d7457600080fd5b6000611d8284828501611bc7565b91505092915050565b60008060408385031215611d9e57600080fd5b6000611dac85828601611c26565b9250506020611dbd85828601611b1e565b9150509250929050565b600060208284031215611dd957600080fd5b6000611de784828501611c3b565b91505092915050565b600060208284031215611e0257600080fd5b6000611e1084828501611c50565b91505092915050565b60008060408385031215611e2c57600080fd5b6000611e3a85828601611c50565b9250506020611e4b85828601611c50565b9150509250929050565b60008060408385031215611e6857600080fd5b6000611e7685828601611c65565b9250506020611e8785828601611c3b565b9150509250929050565b6000611e9d8383611eee565b60208301905092915050565b6000611eb58383612181565b60208301905092915050565b611eca81612555565b82525050565b611ed9816124c2565b82525050565b611ee8816124c2565b82525050565b611ef7816124b0565b82525050565b611f06816124b0565b82525050565b6000611f1782612431565b611f21818561246c565b9350611f2c83612411565b8060005b83811015611f5d578151611f448882611e91565b9750611f4f83612452565b925050600181019050611f30565b5085935050505092915050565b6000611f758261243c565b611f7f818561247d565b9350611f8a83612421565b8060005b83811015611fbb578151611fa28882611ea9565b9750611fad8361245f565b925050600181019050611f8e565b5085935050505092915050565b611fd1816124d4565b82525050565b611fe0816124d4565b82525050565b611fef816124e0565b82525050565b600061200082612447565b61200a818561248e565b935061201a8185602086016125e5565b61202381612618565b840191505092915050565b600061203982612447565b612043818561249f565b93506120538185602086016125e5565b61205c81612618565b840191505092915050565b61207081612567565b82525050565b61207f8161258b565b82525050565b61208e8161259d565b82525050565b61209d816125af565b82525050565b6080820160008201516120b96000850182611eee565b5060208201516120cc6020850182611fc8565b5060408201516120df6040850182611ed0565b5060608201516120f26060850182611fc8565b50505050565b600060c0830160008301516121106000860182611fe6565b5060208301516121236020860182612076565b5060408301516121366040860182612067565b5060608301516121496060860182612067565b50608083015161215c6080860182612181565b5060a083015184820360a08601526121748282611ff5565b9150508091505092915050565b61218a8161253e565b82525050565b6121998161253e565b82525050565b60006020820190506121b46000830184611efd565b92915050565b60006060820190506121cf6000830186611ec1565b6121dc6020830185611efd565b6121e96040830184612190565b949350505050565b60006040820190506122066000830185611ec1565b6122136020830184612190565b9392505050565b600060608201905061222f6000830186611efd565b61223c6020830185611efd565b6122496040830184612190565b949350505050565b600060e082019050612266600083018a611efd565b81810360208301526122788189611f0c565b9050818103604083015261228c8188611f6a565b905081810360608301526122a08187611f6a565b90506122af6080830186611efd565b81810360a08301526122c1818561202e565b90506122d060c0830184612094565b98975050505050505050565b60006040820190506122f16000830185611efd565b6122fe6020830184612190565b9392505050565b600060608201905061231a6000830186611efd565b6123276020830185612190565b6123346040830184611fd7565b949350505050565b60006080820190506123516000830187611efd565b61235e6020830186612190565b61236b6040830185612094565b6123786060830184611fd7565b95945050505050565b60006020820190506123966000830184611fd7565b92915050565b60006040820190506123b16000830185612085565b6123be6020830184611edf565b9392505050565b600060e08201905081810360008301526123df81876120f8565b90506123ee60208301866120a3565b6123fb60a0830185612190565b61240860c0830184612190565b95945050505050565b6000819050602082019050919050565b6000819050602082019050919050565b600081519050919050565b600081519050919050565b600081519050919050565b6000602082019050919050565b6000602082019050919050565b600082825260208201905092915050565b600082825260208201905092915050565b600082825260208201905092915050565b600082825260208201905092915050565b60006124bb8261251e565b9050919050565b60006124cd8261251e565b9050919050565b60008115159050919050565b6000819050919050565b60008190506124f882612629565b919050565b600081905061250b82612636565b919050565b600061ffff82169050919050565b600073ffffffffffffffffffffffffffffffffffffffff82169050919050565b6000819050919050565b600060ff82169050919050565b6000612560826125c1565b9050919050565b600061257282612579565b9050919050565b60006125848261251e565b9050919050565b6000612596826124ea565b9050919050565b60006125a8826124fd565b9050919050565b60006125ba82612510565b9050919050565b60006125cc826125d3565b9050919050565b60006125de8261251e565b9050919050565b60005b838110156126035780820151818401526020810190506125e8565b83811115612612576000848401525b50505050565b6000601f19601f8301169050919050565b6002811061263357fe5b50565b6002811061264057fe5b50565b61264c816124b0565b811461265757600080fd5b50565b612663816124c2565b811461266e57600080fd5b50565b61267a816124d4565b811461268557600080fd5b50565b6002811061269557600080fd5b50565b6126a18161253e565b81146126ac57600080fd5b50565b6126b881612548565b81146126c357600080fd5b5056fea2646970667358221220bae49e7f4e214085bf5afc5fd3182d787a78cd8619395dd1b34c053d3135e33164736f6c634300060c0033",
  "devdoc": {
    "kind": "dev",
    "methods": {},
    "version": 1
  },
  "userdoc": {
    "kind": "user",
    "methods": {},
    "version": 1
  },
  "storageLayout": {
    "storage": [
      {
        "astId": 20,
        "contract": "contracts/LinearPoolSwap.sol:LinearPoolSwap",
        "label": "vault",
        "offset": 0,
        "slot": "0",
        "type": "t_contract(IVault)1285"
      },
      {
        "astId": 22,
        "contract": "contracts/LinearPoolSwap.sol:LinearPoolSwap",
        "label": "token",
        "offset": 0,
        "slot": "1",
        "type": "t_contract(IERC20)829"
      },
      {
        "astId": 24,
        "contract": "contracts/LinearPoolSwap.sol:LinearPoolSwap",
        "label": "wrappedHToken",
        "offset": 0,
        "slot": "2",
        "type": "t_contract(IStaticATokenLM)1146"
      },
      {
        "astId": 26,
        "contract": "contracts/LinearPoolSwap.sol:LinearPoolSwap",
        "label": "poolId",
        "offset": 0,
        "slot": "3",
        "type": "t_bytes32"
      },
      {
        "astId": 28,
        "contract": "contracts/LinearPoolSwap.sol:LinearPoolSwap",
        "label": "lendingPool",
        "offset": 0,
        "slot": "4",
        "type": "t_contract(ILendingPool)899"
      }
    ],
    "types": {
      "t_bytes32": {
        "encoding": "inplace",
        "label": "bytes32",
        "numberOfBytes": "32"
      },
      "t_contract(IERC20)829": {
        "encoding": "inplace",
        "label": "contract IERC20",
        "numberOfBytes": "20"
      },
      "t_contract(ILendingPool)899": {
        "encoding": "inplace",
        "label": "contract ILendingPool",
        "numberOfBytes": "20"
      },
      "t_contract(IStaticATokenLM)1146": {
        "encoding": "inplace",
        "label": "contract IStaticATokenLM",
        "numberOfBytes": "20"
      },
      "t_contract(IVault)1285": {
        "encoding": "inplace",
        "label": "contract IVault",
        "numberOfBytes": "20"
      }
    }
  }
}