{
  "address": "0xe209B40A6229B4BA2ca87f9403595586A79420D4",
  "abi": [
    {
      "inputs": [
        {
          "internalType": "address",
          "name": "vaultAddress",
          "type": "address"
        },
        {
          "internalType": "address",
          "name": "lendingPoolAddress",
          "type": "address"
        },
        {
          "internalType": "address",
          "name": "tokenAddress",
          "type": "address"
        },
        {
          "internalType": "address",
          "name": "wrappedHTokenAddress",
          "type": "address"
        },
        {
          "internalType": "address",
          "name": "linearPoolAddress",
          "type": "address"
        },
        {
          "internalType": "bytes32",
          "name": "_poolId",
          "type": "bytes32"
        }
      ],
      "stateMutability": "nonpayable",
      "type": "constructor"
    },
    {
      "inputs": [
        {
          "internalType": "uint256",
          "name": "threshold",
          "type": "uint256"
        }
      ],
      "name": "balancePool",
      "outputs": [],
      "stateMutability": "nonpayable",
      "type": "function"
    },
    {
      "inputs": [
        {
          "internalType": "uint256",
          "name": "threshold",
          "type": "uint256"
        }
      ],
      "name": "checkIfPoolIsOutsideRange",
      "outputs": [
        {
          "internalType": "bool",
          "name": "",
          "type": "bool"
        },
        {
          "internalType": "uint256",
          "name": "",
          "type": "uint256"
        }
      ],
      "stateMutability": "view",
      "type": "function"
    },
    {
      "inputs": [
        {
          "internalType": "address[]",
          "name": "assets",
          "type": "address[]"
        },
        {
          "internalType": "uint256[]",
          "name": "amounts",
          "type": "uint256[]"
        },
        {
          "internalType": "uint256[]",
          "name": "premiums",
          "type": "uint256[]"
        },
        {
          "internalType": "address",
          "name": "initiator",
          "type": "address"
        },
        {
          "internalType": "bytes",
          "name": "params",
          "type": "bytes"
        }
      ],
      "name": "executeOperation",
      "outputs": [
        {
          "internalType": "bool",
          "name": "",
          "type": "bool"
        }
      ],
      "stateMutability": "nonpayable",
      "type": "function"
    },
    {
      "inputs": [
        {
          "internalType": "uint8",
          "name": "counter",
          "type": "uint8"
        },
        {
          "internalType": "uint256",
          "name": "amount",
          "type": "uint256"
        }
      ],
      "name": "flashLoanUnwind",
      "outputs": [],
      "stateMutability": "nonpayable",
      "type": "function"
    },
    {
      "inputs": [
        {
          "internalType": "uint8",
          "name": "counter",
          "type": "uint8"
        },
        {
          "internalType": "uint256",
          "name": "amount",
          "type": "uint256"
        }
      ],
      "name": "flashLoanWind",
      "outputs": [],
      "stateMutability": "nonpayable",
      "type": "function"
    },
    {
      "inputs": [
        {
          "internalType": "uint256",
          "name": "threshold",
          "type": "uint256"
        }
      ],
      "name": "getBalancingOperation",
      "outputs": [
        {
          "internalType": "enum LinearPoolSwap.op",
          "name": "operation",
          "type": "uint8"
        },
        {
          "internalType": "uint256",
          "name": "amount",
          "type": "uint256"
        }
      ],
      "stateMutability": "view",
      "type": "function"
    },
    {
      "inputs": [
        {
          "internalType": "uint8",
          "name": "counter",
          "type": "uint8"
        },
        {
          "internalType": "uint256",
          "name": "amount",
          "type": "uint256"
        }
      ],
      "name": "unwindXTimes",
      "outputs": [],
      "stateMutability": "nonpayable",
      "type": "function"
    },
    {
      "inputs": [
        {
          "internalType": "uint8",
          "name": "counter",
          "type": "uint8"
        },
        {
          "internalType": "uint256",
          "name": "amount",
          "type": "uint256"
        }
      ],
      "name": "windXTimes",
      "outputs": [],
      "stateMutability": "nonpayable",
      "type": "function"
    }
  ],
  "transactionHash": "0x1f0db380c6b2d693a6e683ab9500470586481b7e2db981140886543b94050374",
  "args": [
    "0xd69FAC6C632eF023afCe7471Bda724b228237570",
    "0x72ddd1eca2af73024e0823C9a80B00de8e3f0070",
    "0x0c7F21908222098616803EfF5d054d3F4EF57EBb",
    "0x70a58262bc55fbf3965bd1c0861e3ddf1a253777",
    "0x003ab2a164fcd7b5384c8bf4939806f11a1dc32d",
    "0x003ab2a164fcd7b5384c8bf4939806f11a1dc32d000000000000000000000009"
  ],
  "numDeployments": 35,
  "solcInputHash": "0e6e72c8ae28c3bd4e65bd12878847d6",
  "bytecode": "0x60806040523480156200001157600080fd5b506040516200385038038062003850833981810160405281019062000037919062000233565b856000806101000a81548173ffffffffffffffffffffffffffffffffffffffff021916908373ffffffffffffffffffffffffffffffffffffffff16021790555084600460006101000a81548173ffffffffffffffffffffffffffffffffffffffff021916908373ffffffffffffffffffffffffffffffffffffffff16021790555083600160006101000a81548173ffffffffffffffffffffffffffffffffffffffff021916908373ffffffffffffffffffffffffffffffffffffffff16021790555082600260006101000a81548173ffffffffffffffffffffffffffffffffffffffff021916908373ffffffffffffffffffffffffffffffffffffffff16021790555081600560006101000a81548173ffffffffffffffffffffffffffffffffffffffff021916908373ffffffffffffffffffffffffffffffffffffffff16021790555080600381905550505050505050620002cf565b600080fd5b600073ffffffffffffffffffffffffffffffffffffffff82169050919050565b6000620001c08262000193565b9050919050565b620001d281620001b3565b8114620001de57600080fd5b50565b600081519050620001f281620001c7565b92915050565b6000819050919050565b6200020d81620001f8565b81146200021957600080fd5b50565b6000815190506200022d8162000202565b92915050565b60008060008060008060c087890312156200025357620002526200018e565b5b60006200026389828a01620001e1565b96505060206200027689828a01620001e1565b95505060406200028989828a01620001e1565b94505060606200029c89828a01620001e1565b9350506080620002af89828a01620001e1565b92505060a0620002c289828a016200021c565b9150509295509295509295565b61357180620002df6000396000f3fe608060405234801561001057600080fd5b50600436106100885760003560e01c80639a348cc81161005b5780639a348cc814610126578063a90a94cc14610142578063cc5814fe1461015e578063e2f4de021461017a57610088565b806316e6e8791461008d5780634f87b2b3146100a957806356618de1146100da578063920f5c84146100f6575b600080fd5b6100a760048036038101906100a29190612310565b6101ab565b005b6100c360048036038101906100be9190612350565b610413565b6040516100d19291906123a7565b60405180910390f35b6100f460048036038101906100ef9190612310565b61045a565b005b610110600480360381019061010b919061253f565b6106c3565b60405161011d919061263b565b60405180910390f35b610140600480360381019061013b9190612310565b610a54565b005b61015c60048036038101906101579190612310565b610c64565b005b61017860048036038101906101739190612350565b610e74565b005b610194600480360381019061018f9190612350565b61129f565b6040516101a29291906126cd565b60405180910390f35b6000600167ffffffffffffffff8111156101c8576101c76126f6565b5b6040519080825280602002602001820160405280156101f65781602001602082028036833780820191505090505b509050600160009054906101000a900473ffffffffffffffffffffffffffffffffffffffff16816000815181106102305761022f612725565b5b602002602001019073ffffffffffffffffffffffffffffffffffffffff16908173ffffffffffffffffffffffffffffffffffffffff16815250506000600167ffffffffffffffff811115610287576102866126f6565b5b6040519080825280602002602001820160405280156102b55781602001602082028036833780820191505090505b50905082816000815181106102cd576102cc612725565b5b6020026020010181815250506000600167ffffffffffffffff8111156102f6576102f56126f6565b5b6040519080825280602002602001820160405280156103245781602001602082028036833780820191505090505b50905060008160008151811061033d5761033c612725565b5b602002602001018181525050600080338760405160200161036093929190612772565b6040516020818303038152906040529050600460009054906101000a900473ffffffffffffffffffffffffffffffffffffffff1673ffffffffffffffffffffffffffffffffffffffff1663ab9c4b5d30868686308760006040518863ffffffff1660e01b81526004016103d99796959493929190612a11565b600060405180830381600087803b1580156103f357600080fd5b505af1158015610407573d6000803e3d6000fd5b50505050505050505050565b6000806000806104228561129f565b9150915060028081111561043957610438612656565b5b82600281111561044c5761044b612656565b5b141581935093505050915091565b6000600167ffffffffffffffff811115610477576104766126f6565b5b6040519080825280602002602001820160405280156104a55781602001602082028036833780820191505090505b509050600160009054906101000a900473ffffffffffffffffffffffffffffffffffffffff16816000815181106104df576104de612725565b5b602002602001019073ffffffffffffffffffffffffffffffffffffffff16908173ffffffffffffffffffffffffffffffffffffffff16815250506000600167ffffffffffffffff811115610536576105356126f6565b5b6040519080825280602002602001820160405280156105645781602001602082028036833780820191505090505b509050828160008151811061057c5761057b612725565b5b6020026020010181815250506000600167ffffffffffffffff8111156105a5576105a46126f6565b5b6040519080825280602002602001820160405280156105d35781602001602082028036833780820191505090505b5090506000816000815181106105ec576105eb612725565b5b60200260200101818152505060006001338760405160200161061093929190612772565b6040516020818303038152906040529050600460009054906101000a900473ffffffffffffffffffffffffffffffffffffffff1673ffffffffffffffffffffffffffffffffffffffff1663ab9c4b5d30868686308760006040518863ffffffff1660e01b81526004016106899796959493929190612a11565b600060405180830381600087803b1580156106a357600080fd5b505af11580156106b7573d6000803e3d6000fd5b50505050505050505050565b60008060008085858101906106d89190612aff565b809350819450829550505050600060028111156106f8576106f7612656565b5b83600281111561070b5761070a612656565b5b14156107435760005b8160ff168160ff16101561073d5761072a6116de565b808061073590612b81565b915050610714565b5061079f565b6001600281111561075757610756612656565b5b83600281111561076a57610769612656565b5b141561079e5760005b8160ff168160ff16101561079c57610789611d21565b808061079490612b81565b915050610773565b505b5b6000600160009054906101000a900473ffffffffffffffffffffffffffffffffffffffff1673ffffffffffffffffffffffffffffffffffffffff166370a08231306040518263ffffffff1660e01b81526004016107fc9190612bab565b602060405180830381865afa158015610819573d6000803e3d6000fd5b505050506040513d601f19601f8201168201806040525081019061083d9190612bdb565b905060008a8a600081811061085557610854612725565b5b905060200201358d8d60008181106108705761086f612725565b5b905060200201356108819190612c08565b9050818111156108c6576040517f08c379a00000000000000000000000000000000000000000000000000000000081526004016108bd90612cbb565b60405180910390fd5b8181101561097b57600160009054906101000a900473ffffffffffffffffffffffffffffffffffffffff1673ffffffffffffffffffffffffffffffffffffffff1663a9059cbb8583856109199190612cdb565b6040518363ffffffff1660e01b8152600401610936929190612d0f565b6020604051808303816000875af1158015610955573d6000803e3d6000fd5b505050506040513d601f19601f820116820180604052508101906109799190612d64565b505b600160009054906101000a900473ffffffffffffffffffffffffffffffffffffffff1673ffffffffffffffffffffffffffffffffffffffff1663095ea7b3600460009054906101000a900473ffffffffffffffffffffffffffffffffffffffff16836040518363ffffffff1660e01b81526004016109fa929190612d0f565b6020604051808303816000875af1158015610a19573d6000803e3d6000fd5b505050506040513d601f19601f82011682018060405250810190610a3d9190612d64565b506001955050505050509998505050505050505050565b600160009054906101000a900473ffffffffffffffffffffffffffffffffffffffff1673ffffffffffffffffffffffffffffffffffffffff166323b872dd3330846040518463ffffffff1660e01b8152600401610ab393929190612d91565b6020604051808303816000875af1158015610ad2573d6000803e3d6000fd5b505050506040513d601f19601f82011682018060405250810190610af69190612d64565b5060005b8260ff168160ff161015610b2357610b106116de565b8080610b1b90612b81565b915050610afa565b50600160009054906101000a900473ffffffffffffffffffffffffffffffffffffffff1673ffffffffffffffffffffffffffffffffffffffff1663a9059cbb33600160009054906101000a900473ffffffffffffffffffffffffffffffffffffffff1673ffffffffffffffffffffffffffffffffffffffff166370a08231306040518263ffffffff1660e01b8152600401610bbe9190612bab565b602060405180830381865afa158015610bdb573d6000803e3d6000fd5b505050506040513d601f19601f82011682018060405250810190610bff9190612bdb565b6040518363ffffffff1660e01b8152600401610c1c929190612d0f565b6020604051808303816000875af1158015610c3b573d6000803e3d6000fd5b505050506040513d601f19601f82011682018060405250810190610c5f9190612d64565b505050565b600160009054906101000a900473ffffffffffffffffffffffffffffffffffffffff1673ffffffffffffffffffffffffffffffffffffffff166323b872dd3330846040518463ffffffff1660e01b8152600401610cc393929190612d91565b6020604051808303816000875af1158015610ce2573d6000803e3d6000fd5b505050506040513d601f19601f82011682018060405250810190610d069190612d64565b5060005b8260ff168160ff161015610d3357610d20611d21565b8080610d2b90612b81565b915050610d0a565b50600160009054906101000a900473ffffffffffffffffffffffffffffffffffffffff1673ffffffffffffffffffffffffffffffffffffffff1663a9059cbb33600160009054906101000a900473ffffffffffffffffffffffffffffffffffffffff1673ffffffffffffffffffffffffffffffffffffffff166370a08231306040518263ffffffff1660e01b8152600401610dce9190612bab565b602060405180830381865afa158015610deb573d6000803e3d6000fd5b505050506040513d601f19601f82011682018060405250810190610e0f9190612bdb565b6040518363ffffffff1660e01b8152600401610e2c929190612d0f565b6020604051808303816000875af1158015610e4b573d6000803e3d6000fd5b505050506040513d601f19601f82011682018060405250810190610e6f9190612d64565b505050565b600080610e808361129f565b915091506000600260009054906101000a900473ffffffffffffffffffffffffffffffffffffffff1673ffffffffffffffffffffffffffffffffffffffff166351c0e0616040518163ffffffff1660e01b81526004016020604051808303816000875af1158015610ef5573d6000803e3d6000fd5b505050506040513d601f19601f82011682018060405250810190610f199190612e06565b90506000600160009054906101000a900473ffffffffffffffffffffffffffffffffffffffff1673ffffffffffffffffffffffffffffffffffffffff166370a08231836040518263ffffffff1660e01b8152600401610f789190612bab565b602060405180830381865afa158015610f95573d6000803e3d6000fd5b505050506040513d601f19601f82011682018060405250810190610fb99190612bdb565b90506064601e82610fca9190612e33565b610fd49190612ebc565b8311610fe05780610ffa565b6064601e82610fef9190612e33565b610ff99190612ebc565b5b905060006110206001838661100f9190612ebc565b6110199190612c08565b600a61227e565b9050600081856110309190612ebc565b90506000600167ffffffffffffffff81111561104f5761104e6126f6565b5b60405190808252806020026020018201604052801561107d5781602001602082028036833780820191505090505b509050600160009054906101000a900473ffffffffffffffffffffffffffffffffffffffff16816000815181106110b7576110b6612725565b5b602002602001019073ffffffffffffffffffffffffffffffffffffffff16908173ffffffffffffffffffffffffffffffffffffffff16815250506000600167ffffffffffffffff81111561110e5761110d6126f6565b5b60405190808252806020026020018201604052801561113c5781602001602082028036833780820191505090505b509050828160008151811061115457611153612725565b5b6020026020010181815250506000600167ffffffffffffffff81111561117d5761117c6126f6565b5b6040519080825280602002602001820160405280156111ab5781602001602082028036833780820191505090505b5090506000816000815181106111c4576111c3612725565b5b60200260200101818152505060008933876040516020016111e793929190612eed565b6040516020818303038152906040529050600460009054906101000a900473ffffffffffffffffffffffffffffffffffffffff1673ffffffffffffffffffffffffffffffffffffffff1663ab9c4b5d30868686308760006040518863ffffffff1660e01b81526004016112609796959493929190612a11565b600060405180830381600087803b15801561127a57600080fd5b505af115801561128e573d6000803e3d6000fd5b505050505050505050505050505050565b600080600080600560009054906101000a900473ffffffffffffffffffffffffffffffffffffffff1673ffffffffffffffffffffffffffffffffffffffff166363fe3b566040518163ffffffff1660e01b81526004016040805180830381865afa158015611311573d6000803e3d6000fd5b505050506040513d601f19601f820116820180604052508101906113359190612f24565b915091506000600160009054906101000a900473ffffffffffffffffffffffffffffffffffffffff1673ffffffffffffffffffffffffffffffffffffffff1663313ce5676040518163ffffffff1660e01b8152600401602060405180830381865afa1580156113a8573d6000803e3d6000fd5b505050506040513d601f19601f820116820180604052508101906113cc9190612f79565b60126113d89190612fa6565b600a6113e4919061310d565b836113ef9190612ebc565b90506000600160009054906101000a900473ffffffffffffffffffffffffffffffffffffffff1673ffffffffffffffffffffffffffffffffffffffff1663313ce5676040518163ffffffff1660e01b8152600401602060405180830381865afa158015611460573d6000803e3d6000fd5b505050506040513d601f19601f820116820180604052508101906114849190612f79565b60126114909190612fa6565b600a61149c919061310d565b836114a79190612ebc565b905060008060009054906101000a900473ffffffffffffffffffffffffffffffffffffffff1673ffffffffffffffffffffffffffffffffffffffff1663b05f8e48600354600160009054906101000a900473ffffffffffffffffffffffffffffffffffffffff166040518363ffffffff1660e01b815260040161152b9291906131c6565b608060405180830381865afa158015611548573d6000803e3d6000fd5b505050506040513d601f19601f8201168201806040525081019061156c9190613204565b50505090506000600284846115819190612c08565b61158b9190612ebc565b905060008060009054906101000a900473ffffffffffffffffffffffffffffffffffffffff1673ffffffffffffffffffffffffffffffffffffffff1663b05f8e48600354600260009054906101000a900473ffffffffffffffffffffffffffffffffffffffff166040518363ffffffff1660e01b815260040161160f92919061328c565b608060405180830381865afa15801561162c573d6000803e3d6000fd5b505050506040513d601f19601f820116820180604052508101906116509190613204565b5050509050848310156116a9576001985061169083836116709190612cdb565b61271061251c846116819190612e33565b61168b9190612ebc565b61227e565b97508988116116a05760006116a2565b875b97506116d2565b838311156116c8576000985081836116c19190612cdb565b97506116d1565b60029850600097505b5b50505050505050915091565b600160009054906101000a900473ffffffffffffffffffffffffffffffffffffffff1673ffffffffffffffffffffffffffffffffffffffff1663095ea7b3600260009054906101000a900473ffffffffffffffffffffffffffffffffffffffff167fffffffffffffffffffffffffffffffffffffffffffffffffffffffffffffffff6040518363ffffffff1660e01b815260040161177d929190612d0f565b6020604051808303816000875af115801561179c573d6000803e3d6000fd5b505050506040513d601f19601f820116820180604052508101906117c09190612d64565b50600260009054906101000a900473ffffffffffffffffffffffffffffffffffffffff1673ffffffffffffffffffffffffffffffffffffffff16632f2cab8730600160009054906101000a900473ffffffffffffffffffffffffffffffffffffffff1673ffffffffffffffffffffffffffffffffffffffff166370a08231306040518263ffffffff1660e01b815260040161185b9190612bab565b602060405180830381865afa158015611878573d6000803e3d6000fd5b505050506040513d601f19601f8201168201806040525081019061189c9190612bdb565b600060016040518563ffffffff1660e01b81526004016118bf94939291906132b5565b6020604051808303816000875af11580156118de573d6000803e3d6000fd5b505050506040513d601f19601f820116820180604052508101906119029190612bdb565b50600260009054906101000a900473ffffffffffffffffffffffffffffffffffffffff1673ffffffffffffffffffffffffffffffffffffffff1663095ea7b360008054906101000a900473ffffffffffffffffffffffffffffffffffffffff167fffffffffffffffffffffffffffffffffffffffffffffffffffffffffffffffff6040518363ffffffff1660e01b81526004016119a0929190612d0f565b6020604051808303816000875af11580156119bf573d6000803e3d6000fd5b505050506040513d601f19601f820116820180604052508101906119e39190612d64565b50600060405180602001604052806000815250905060006040518060c00160405280600354815260200160006001811115611a2157611a20612656565b5b8152602001600260009054906101000a900473ffffffffffffffffffffffffffffffffffffffff1673ffffffffffffffffffffffffffffffffffffffff168152602001600160009054906101000a900473ffffffffffffffffffffffffffffffffffffffff1673ffffffffffffffffffffffffffffffffffffffff168152602001600260009054906101000a900473ffffffffffffffffffffffffffffffffffffffff1673ffffffffffffffffffffffffffffffffffffffff166370a08231306040518263ffffffff1660e01b8152600401611afd9190612bab565b602060405180830381865afa158015611b1a573d6000803e3d6000fd5b505050506040513d601f19601f82011682018060405250810190611b3e9190612bdb565b8152602001838152509050600060405180608001604052803073ffffffffffffffffffffffffffffffffffffffff1681526020016000151581526020013073ffffffffffffffffffffffffffffffffffffffff16815260200160001515815250905060006064605a600260009054906101000a900473ffffffffffffffffffffffffffffffffffffffff1673ffffffffffffffffffffffffffffffffffffffff166370a08231306040518263ffffffff1660e01b8152600401611c019190612bab565b602060405180830381865afa158015611c1e573d6000803e3d6000fd5b505050506040513d601f19601f82011682018060405250810190611c429190612bdb565b611c4c9190612e33565b611c569190612ebc565b905060008054906101000a900473ffffffffffffffffffffffffffffffffffffffff1673ffffffffffffffffffffffffffffffffffffffff166352bbbe298484847fffffffffffffffffffffffffffffffffffffffffffffffffffffffffffffffff6040518563ffffffff1660e01b8152600401611cd794939291906134b8565b6020604051808303816000875af1158015611cf6573d6000803e3d6000fd5b505050506040513d601f19601f82011682018060405250810190611d1a9190612bdb565b5050505050565b600160009054906101000a900473ffffffffffffffffffffffffffffffffffffffff1673ffffffffffffffffffffffffffffffffffffffff1663095ea7b360008054906101000a900473ffffffffffffffffffffffffffffffffffffffff167fffffffffffffffffffffffffffffffffffffffffffffffffffffffffffffffff6040518363ffffffff1660e01b8152600401611dbe929190612d0f565b6020604051808303816000875af1158015611ddd573d6000803e3d6000fd5b505050506040513d601f19601f82011682018060405250810190611e019190612d64565b50600060405180602001604052806000815250905060006040518060c00160405280600354815260200160006001811115611e3f57611e3e612656565b5b8152602001600160009054906101000a900473ffffffffffffffffffffffffffffffffffffffff1673ffffffffffffffffffffffffffffffffffffffff168152602001600260009054906101000a900473ffffffffffffffffffffffffffffffffffffffff1673ffffffffffffffffffffffffffffffffffffffff168152602001600160009054906101000a900473ffffffffffffffffffffffffffffffffffffffff1673ffffffffffffffffffffffffffffffffffffffff166370a08231306040518263ffffffff1660e01b8152600401611f1b9190612bab565b602060405180830381865afa158015611f38573d6000803e3d6000fd5b505050506040513d601f19601f82011682018060405250810190611f5c9190612bdb565b8152602001838152509050600060405180608001604052803073ffffffffffffffffffffffffffffffffffffffff1681526020016000151581526020013073ffffffffffffffffffffffffffffffffffffffff16815260200160001515815250905060006064605a600160009054906101000a900473ffffffffffffffffffffffffffffffffffffffff1673ffffffffffffffffffffffffffffffffffffffff166370a08231306040518263ffffffff1660e01b815260040161201f9190612bab565b602060405180830381865afa15801561203c573d6000803e3d6000fd5b505050506040513d601f19601f820116820180604052508101906120609190612bdb565b61206a9190612e33565b6120749190612ebc565b905060008054906101000a900473ffffffffffffffffffffffffffffffffffffffff1673ffffffffffffffffffffffffffffffffffffffff166352bbbe298484847fffffffffffffffffffffffffffffffffffffffffffffffffffffffffffffffff6040518563ffffffff1660e01b81526004016120f594939291906134b8565b6020604051808303816000875af1158015612114573d6000803e3d6000fd5b505050506040513d601f19601f820116820180604052508101906121389190612bdb565b50600260009054906101000a900473ffffffffffffffffffffffffffffffffffffffff1673ffffffffffffffffffffffffffffffffffffffff1663ead5d35930600260009054906101000a900473ffffffffffffffffffffffffffffffffffffffff1673ffffffffffffffffffffffffffffffffffffffff166370a08231306040518263ffffffff1660e01b81526004016121d39190612bab565b602060405180830381865afa1580156121f0573d6000803e3d6000fd5b505050506040513d601f19601f820116820180604052508101906122149190612bdb565b60016040518463ffffffff1660e01b815260040161223493929190613504565b60408051808303816000875af1158015612252573d6000803e3d6000fd5b505050506040513d601f19601f820116820180604052508101906122769190612f24565b505050505050565b600081831061228d578161228f565b825b905092915050565b600080fd5b600080fd5b600060ff82169050919050565b6122b7816122a1565b81146122c257600080fd5b50565b6000813590506122d4816122ae565b92915050565b6000819050919050565b6122ed816122da565b81146122f857600080fd5b50565b60008135905061230a816122e4565b92915050565b6000806040838503121561232757612326612297565b5b6000612335858286016122c5565b9250506020612346858286016122fb565b9150509250929050565b60006020828403121561236657612365612297565b5b6000612374848285016122fb565b91505092915050565b60008115159050919050565b6123928161237d565b82525050565b6123a1816122da565b82525050565b60006040820190506123bc6000830185612389565b6123c96020830184612398565b9392505050565b600080fd5b600080fd5b600080fd5b60008083601f8401126123f5576123f46123d0565b5b8235905067ffffffffffffffff811115612412576124116123d5565b5b60208301915083602082028301111561242e5761242d6123da565b5b9250929050565b60008083601f84011261244b5761244a6123d0565b5b8235905067ffffffffffffffff811115612468576124676123d5565b5b602083019150836020820283011115612484576124836123da565b5b9250929050565b600073ffffffffffffffffffffffffffffffffffffffff82169050919050565b60006124b68261248b565b9050919050565b6124c6816124ab565b81146124d157600080fd5b50565b6000813590506124e3816124bd565b92915050565b60008083601f8401126124ff576124fe6123d0565b5b8235905067ffffffffffffffff81111561251c5761251b6123d5565b5b602083019150836001820283011115612538576125376123da565b5b9250929050565b600080600080600080600080600060a08a8c03121561256157612560612297565b5b60008a013567ffffffffffffffff81111561257f5761257e61229c565b5b61258b8c828d016123df565b995099505060208a013567ffffffffffffffff8111156125ae576125ad61229c565b5b6125ba8c828d01612435565b975097505060408a013567ffffffffffffffff8111156125dd576125dc61229c565b5b6125e98c828d01612435565b955095505060606125fc8c828d016124d4565b93505060808a013567ffffffffffffffff81111561261d5761261c61229c565b5b6126298c828d016124e9565b92509250509295985092959850929598565b60006020820190506126506000830184612389565b92915050565b7f4e487b7100000000000000000000000000000000000000000000000000000000600052602160045260246000fd5b6003811061269657612695612656565b5b50565b60008190506126a782612685565b919050565b60006126b782612699565b9050919050565b6126c7816126ac565b82525050565b60006040820190506126e260008301856126be565b6126ef6020830184612398565b9392505050565b7f4e487b7100000000000000000000000000000000000000000000000000000000600052604160045260246000fd5b7f4e487b7100000000000000000000000000000000000000000000000000000000600052603260045260246000fd5b61275d816124ab565b82525050565b61276c816122a1565b82525050565b600060608201905061278760008301866126be565b6127946020830185612754565b6127a16040830184612763565b949350505050565b600081519050919050565b600082825260208201905092915050565b6000819050602082019050919050565b6127de816124ab565b82525050565b60006127f083836127d5565b60208301905092915050565b6000602082019050919050565b6000612814826127a9565b61281e81856127b4565b9350612829836127c5565b8060005b8381101561285a57815161284188826127e4565b975061284c836127fc565b92505060018101905061282d565b5085935050505092915050565b600081519050919050565b600082825260208201905092915050565b6000819050602082019050919050565b61289c816122da565b82525050565b60006128ae8383612893565b60208301905092915050565b6000602082019050919050565b60006128d282612867565b6128dc8185612872565b93506128e783612883565b8060005b838110156129185781516128ff88826128a2565b975061290a836128ba565b9250506001810190506128eb565b5085935050505092915050565b600081519050919050565b600082825260208201905092915050565b60005b8381101561295f578082015181840152602081019050612944565b8381111561296e576000848401525b50505050565b6000601f19601f8301169050919050565b600061299082612925565b61299a8185612930565b93506129aa818560208601612941565b6129b381612974565b840191505092915050565b6000819050919050565b600061ffff82169050919050565b6000819050919050565b60006129fb6129f66129f1846129be565b6129d6565b6129c8565b9050919050565b612a0b816129e0565b82525050565b600060e082019050612a26600083018a612754565b8181036020830152612a388189612809565b90508181036040830152612a4c81886128c7565b90508181036060830152612a6081876128c7565b9050612a6f6080830186612754565b81810360a0830152612a818185612985565b9050612a9060c0830184612a02565b98975050505050505050565b60038110612aa957600080fd5b50565b600081359050612abb81612a9c565b92915050565b6000612acc8261248b565b9050919050565b612adc81612ac1565b8114612ae757600080fd5b50565b600081359050612af981612ad3565b92915050565b600080600060608486031215612b1857612b17612297565b5b6000612b2686828701612aac565b9350506020612b3786828701612aea565b9250506040612b48868287016122c5565b9150509250925092565b7f4e487b7100000000000000000000000000000000000000000000000000000000600052601160045260246000fd5b6000612b8c826122a1565b915060ff821415612ba057612b9f612b52565b5b600182019050919050565b6000602082019050612bc06000830184612754565b92915050565b600081519050612bd5816122e4565b92915050565b600060208284031215612bf157612bf0612297565b5b6000612bff84828501612bc6565b91505092915050565b6000612c13826122da565b9150612c1e836122da565b9250827fffffffffffffffffffffffffffffffffffffffffffffffffffffffffffffffff03821115612c5357612c52612b52565b5b828201905092915050565b600082825260208201905092915050565b7f4e656761746976652070726f6669742100000000000000000000000000000000600082015250565b6000612ca5601083612c5e565b9150612cb082612c6f565b602082019050919050565b60006020820190508181036000830152612cd481612c98565b9050919050565b6000612ce6826122da565b9150612cf1836122da565b925082821015612d0457612d03612b52565b5b828203905092915050565b6000604082019050612d246000830185612754565b612d316020830184612398565b9392505050565b612d418161237d565b8114612d4c57600080fd5b50565b600081519050612d5e81612d38565b92915050565b600060208284031215612d7a57612d79612297565b5b6000612d8884828501612d4f565b91505092915050565b6000606082019050612da66000830186612754565b612db36020830185612754565b612dc06040830184612398565b949350505050565b6000612dd3826124ab565b9050919050565b612de381612dc8565b8114612dee57600080fd5b50565b600081519050612e0081612dda565b92915050565b600060208284031215612e1c57612e1b612297565b5b6000612e2a84828501612df1565b91505092915050565b6000612e3e826122da565b9150612e49836122da565b9250817fffffffffffffffffffffffffffffffffffffffffffffffffffffffffffffffff0483118215151615612e8257612e81612b52565b5b828202905092915050565b7f4e487b7100000000000000000000000000000000000000000000000000000000600052601260045260246000fd5b6000612ec7826122da565b9150612ed2836122da565b925082612ee257612ee1612e8d565b5b828204905092915050565b6000606082019050612f0260008301866126be565b612f0f6020830185612754565b612f1c6040830184612398565b949350505050565b60008060408385031215612f3b57612f3a612297565b5b6000612f4985828601612bc6565b9250506020612f5a85828601612bc6565b9150509250929050565b600081519050612f73816122ae565b92915050565b600060208284031215612f8f57612f8e612297565b5b6000612f9d84828501612f64565b91505092915050565b6000612fb1826122a1565b9150612fbc836122a1565b925082821015612fcf57612fce612b52565b5b828203905092915050565b60008160011c9050919050565b6000808291508390505b60018511156130315780860481111561300d5761300c612b52565b5b600185161561301c5780820291505b808102905061302a85612fda565b9450612ff1565b94509492505050565b60008261304a5760019050613106565b816130585760009050613106565b816001811461306e5760028114613078576130a7565b6001915050613106565b60ff84111561308a57613089612b52565b5b8360020a9150848211156130a1576130a0612b52565b5b50613106565b5060208310610133831016604e8410600b84101617156130dc5782820a9050838111156130d7576130d6612b52565b5b613106565b6130e98484846001612fe7565b92509050818404811115613100576130ff612b52565b5b81810290505b9392505050565b6000613118826122da565b9150613123836122a1565b92506131507fffffffffffffffffffffffffffffffffffffffffffffffffffffffffffffffff848461303a565b905092915050565b6000819050919050565b61316b81613158565b82525050565b600061318c6131876131828461248b565b6129d6565b61248b565b9050919050565b600061319e82613171565b9050919050565b60006131b082613193565b9050919050565b6131c0816131a5565b82525050565b60006040820190506131db6000830185613162565b6131e860208301846131b7565b9392505050565b6000815190506131fe816124bd565b92915050565b6000806000806080858703121561321e5761321d612297565b5b600061322c87828801612bc6565b945050602061323d87828801612bc6565b935050604061324e87828801612bc6565b925050606061325f878288016131ef565b91505092959194509250565b600061327682613193565b9050919050565b6132868161326b565b82525050565b60006040820190506132a16000830185613162565b6132ae602083018461327d565b9392505050565b60006080820190506132ca6000830187612754565b6132d76020830186612398565b6132e46040830185612a02565b6132f16060830184612389565b95945050505050565b61330381613158565b82525050565b6002811061331a57613319612656565b5b50565b600081905061332b82613309565b919050565b600061333b8261331d565b9050919050565b61334b81613330565b82525050565b600061335c82613193565b9050919050565b61336c81613351565b82525050565b600082825260208201905092915050565b600061338e82612925565b6133988185613372565b93506133a8818560208601612941565b6133b181612974565b840191505092915050565b600060c0830160008301516133d460008601826132fa565b5060208301516133e76020860182613342565b5060408301516133fa6040860182613363565b50606083015161340d6060860182613363565b5060808301516134206080860182612893565b5060a083015184820360a08601526134388282613383565b9150508091505092915050565b61344e8161237d565b82525050565b61345d81612ac1565b82525050565b60808201600082015161347960008501826127d5565b50602082015161348c6020850182613445565b50604082015161349f6040850182613454565b5060608201516134b26060850182613445565b50505050565b600060e08201905081810360008301526134d281876133bc565b90506134e16020830186613463565b6134ee60a0830185612398565b6134fb60c0830184612398565b95945050505050565b60006060820190506135196000830186612754565b6135266020830185612398565b6135336040830184612389565b94935050505056fea2646970667358221220544b114347417272eca27326557327f3d9f14c96211bb9ced3b99e9101a705de64736f6c634300080c0033",
  "devdoc": {
    "kind": "dev",
    "methods": {},
    "version": 1
  },
  "userdoc": {
    "kind": "user",
    "methods": {},
    "version": 1
  },
  "storageLayout": {
    "storage": [
      {
        "astId": 1065,
        "contract": "contracts/LinearPoolSwap.sol:LinearPoolSwap",
        "label": "vault",
        "offset": 0,
        "slot": "0",
        "type": "t_contract(IVault)2765"
      },
      {
        "astId": 1068,
        "contract": "contracts/LinearPoolSwap.sol:LinearPoolSwap",
        "label": "token",
        "offset": 0,
        "slot": "1",
        "type": "t_contract(IERC20)2241"
      },
      {
        "astId": 1071,
        "contract": "contracts/LinearPoolSwap.sol:LinearPoolSwap",
        "label": "wrappedHToken",
        "offset": 0,
        "slot": "2",
        "type": "t_contract(IStaticATokenLM)2609"
      },
      {
        "astId": 1073,
        "contract": "contracts/LinearPoolSwap.sol:LinearPoolSwap",
        "label": "poolId",
        "offset": 0,
        "slot": "3",
        "type": "t_bytes32"
      },
      {
        "astId": 1076,
        "contract": "contracts/LinearPoolSwap.sol:LinearPoolSwap",
        "label": "lendingPool",
        "offset": 0,
        "slot": "4",
        "type": "t_contract(ILendingPool)2312"
      },
      {
        "astId": 1079,
        "contract": "contracts/LinearPoolSwap.sol:LinearPoolSwap",
        "label": "linearPool",
        "offset": 0,
        "slot": "5",
        "type": "t_contract(ILinearPool)2357"
      }
    ],
    "types": {
      "t_bytes32": {
        "encoding": "inplace",
        "label": "bytes32",
        "numberOfBytes": "32"
      },
      "t_contract(IERC20)2241": {
        "encoding": "inplace",
        "label": "contract IERC20",
        "numberOfBytes": "20"
      },
      "t_contract(ILendingPool)2312": {
        "encoding": "inplace",
        "label": "contract ILendingPool",
        "numberOfBytes": "20"
      },
      "t_contract(ILinearPool)2357": {
        "encoding": "inplace",
        "label": "contract ILinearPool",
        "numberOfBytes": "20"
      },
      "t_contract(IStaticATokenLM)2609": {
        "encoding": "inplace",
        "label": "contract IStaticATokenLM",
        "numberOfBytes": "20"
      },
      "t_contract(IVault)2765": {
        "encoding": "inplace",
        "label": "contract IVault",
        "numberOfBytes": "20"
      }
    }
  }
}