{
  "address": "0xAe911c4e1f7e281f882d6d3CB5B18F232ce88932",
  "abi": [
    {
      "inputs": [
        {
          "internalType": "address",
          "name": "_vaultAddress",
          "type": "address"
        },
        {
          "internalType": "address",
          "name": "lendingPoolAddress",
          "type": "address"
        },
        {
          "internalType": "address",
          "name": "pCKBAddress",
          "type": "address"
        },
        {
          "internalType": "address",
          "name": "WCKBAddress",
          "type": "address"
        }
      ],
      "stateMutability": "nonpayable",
      "type": "constructor"
    },
    {
      "inputs": [
        {
          "components": [
            {
              "internalType": "uint256",
              "name": "quoteAmount",
              "type": "uint256"
            },
            {
              "internalType": "address",
              "name": "baseTokenAddress",
              "type": "address"
            },
            {
              "internalType": "address",
              "name": "quoteTokenAddress",
              "type": "address"
            },
            {
              "internalType": "enum ArbitrageSwap.SwapOrder",
              "name": "order",
              "type": "uint8"
            },
            {
              "internalType": "bytes",
              "name": "batchSwapCalldata",
              "type": "bytes"
            },
            {
              "internalType": "address",
              "name": "yokaiPoolAddress",
              "type": "address"
            }
          ],
          "internalType": "struct ArbitrageSwap.ArbitrageParams",
          "name": "arbitrageParams",
          "type": "tuple"
        }
      ],
      "name": "arbitrage",
      "outputs": [],
      "stateMutability": "nonpayable",
      "type": "function"
    },
    {
      "inputs": [
        {
          "internalType": "bytes",
          "name": "batchSwapCalldata",
          "type": "bytes"
        },
        {
          "internalType": "uint256",
          "name": "baseTokenBalance",
          "type": "uint256"
        }
      ],
      "name": "changeAmountInHadoukenCallData",
      "outputs": [
        {
          "internalType": "bytes",
          "name": "",
          "type": "bytes"
        }
      ],
      "stateMutability": "pure",
      "type": "function"
    },
    {
      "inputs": [
        {
          "internalType": "address[]",
          "name": "assets",
          "type": "address[]"
        },
        {
          "internalType": "uint256[]",
          "name": "amounts",
          "type": "uint256[]"
        },
        {
          "internalType": "uint256[]",
          "name": "premiums",
          "type": "uint256[]"
        },
        {
          "internalType": "address",
          "name": "initiator",
          "type": "address"
        },
        {
          "internalType": "bytes",
          "name": "params",
          "type": "bytes"
        }
      ],
      "name": "executeOperation",
      "outputs": [
        {
          "internalType": "bool",
          "name": "",
          "type": "bool"
        }
      ],
      "stateMutability": "nonpayable",
      "type": "function"
    },
    {
      "stateMutability": "payable",
      "type": "receive"
    }
  ],
  "transactionHash": "0xdca9d008fefdb583c2d8c6a51c0e1fa7cf92f39eac09fecb56352c736df265b0",
  "args": [
    "0x4F8BDF24826EbcF649658147756115Ee867b7D63",
    "0x50ff8715E9882a6a184D51D0952Db1Eb311d1988",
    "0x7538c85cae4e4673253ffd2568c1f1b48a71558a",
    "0xc296f806d15e97243a08334256c705ba5c5754cd"
  ],
  "numDeployments": 32,
  "solcInputHash": "56ecb50a6a254460133eee8c8808daaa",
  "bytecode": "0x60806040523480156200001157600080fd5b5060405162003221380380620032218339818101604052810190620000379190620001ae565b83600160006101000a81548173ffffffffffffffffffffffffffffffffffffffff021916908373ffffffffffffffffffffffffffffffffffffffff160217905550826000806101000a81548173ffffffffffffffffffffffffffffffffffffffff021916908373ffffffffffffffffffffffffffffffffffffffff16021790555081600360006101000a81548173ffffffffffffffffffffffffffffffffffffffff021916908373ffffffffffffffffffffffffffffffffffffffff16021790555080600260006101000a81548173ffffffffffffffffffffffffffffffffffffffff021916908373ffffffffffffffffffffffffffffffffffffffff1602179055505050505062000220565b600080fd5b600073ffffffffffffffffffffffffffffffffffffffff82169050919050565b6000620001768262000149565b9050919050565b620001888162000169565b81146200019457600080fd5b50565b600081519050620001a8816200017d565b92915050565b60008060008060808587031215620001cb57620001ca62000144565b5b6000620001db8782880162000197565b9450506020620001ee8782880162000197565b9350506040620002018782880162000197565b9250506060620002148782880162000197565b91505092959194509250565b612ff180620002306000396000f3fe6080604052600436106100385760003560e01c80630bd6430514610044578063516a00dc14610081578063920f5c84146100aa5761003f565b3661003f57005b600080fd5b34801561005057600080fd5b5061006b60048036038101906100669190611765565b6100e7565b6040516100789190611849565b60405180910390f35b34801561008d57600080fd5b506100a860048036038101906100a391906119b4565b6102fd565b005b3480156100b657600080fd5b506100d160048036038101906100cc9190611b09565b610546565b6040516100de9190611c20565b60405180910390f35b606060006060806100f66114f3565b606060008061011d6004808c5161010d9190611c6a565b8c610ad39092919063ffffffff16565b90508080602001905181019061013391906121ce565b809750819850829950839a50849b50859c505050505050506000805b87518110156101bf57600088828151811061016d5761016c6122b1565b5b60200260200101516020015114156101ac57878181518110610192576101916122b1565b5b602002602001015160600151826101a991906122e0565b91505b80806101b790612336565b91505061014f565b508981111561020c5789816101d49190611c6a565b876000815181106101e8576101e76122b1565b5b60200260200101516060018181516102009190611c6a565b91508181525050610255565b8981101561025457808a6102209190611c6a565b87600081518110610234576102336122b1565b5b602002602001015160600181815161024c91906122e0565b915081815250505b5b8787878787876040516024016102709695949392919061272c565b6040516020818303038152906040527f945bcec9000000000000000000000000000000000000000000000000000000007bffffffffffffffffffffffffffffffffffffffffffffffffffffffff19166020820180517bffffffffffffffffffffffffffffffffffffffffffffffffffffffff83818316178352505050509850505050505050505092915050565b6000600167ffffffffffffffff81111561031a57610319611604565b5b6040519080825280602002602001820160405280156103485781602001602082028036833780820191505090505b509050816040015181600081518110610364576103636122b1565b5b602002602001019073ffffffffffffffffffffffffffffffffffffffff16908173ffffffffffffffffffffffffffffffffffffffff16815250506000600167ffffffffffffffff8111156103bb576103ba611604565b5b6040519080825280602002602001820160405280156103e95781602001602082028036833780820191505090505b509050826000015181600081518110610405576104046122b1565b5b6020026020010181815250506000600167ffffffffffffffff81111561042e5761042d611604565b5b60405190808252806020026020018201604052801561045c5781602001602082028036833780820191505090505b509050600081600081518110610475576104746122b1565b5b602002602001018181525050600033856040516020016104969291906128b3565b604051602081830303815290604052905060008054906101000a900473ffffffffffffffffffffffffffffffffffffffff1673ffffffffffffffffffffffffffffffffffffffff1663ab9c4b5d30868686308760006040518863ffffffff1660e01b815260040161050d97969594939291906129e5565b600060405180830381600087803b15801561052757600080fd5b505af115801561053b573d6000803e3d6000fd5b505050505050505050565b60008061055161154b565b84848101906105609190612a85565b80925081935050506000816020015190506000826040015190506000600181111561058e5761058d6127b3565b5b836060015160018111156105a5576105a46127b3565b5b14156106d35760008273ffffffffffffffffffffffffffffffffffffffff166370a08231306040518263ffffffff1660e01b81526004016105e69190612ae1565b602060405180830381865afa158015610603573d6000803e3d6000fd5b505050506040513d601f19601f820116820180604052508101906106279190612afc565b9050610637846080015183610bf1565b6000818473ffffffffffffffffffffffffffffffffffffffff166370a08231306040518263ffffffff1660e01b81526004016106739190612ae1565b602060405180830381865afa158015610690573d6000803e3d6000fd5b505050506040513d601f19601f820116820180604052508101906106b49190612afc565b6106be9190611c6a565b90506106cc83858388610dae565b5050610851565b6001808111156106e6576106e56127b3565b5b836060015160018111156106fd576106fc6127b3565b5b14156108505760008273ffffffffffffffffffffffffffffffffffffffff166370a08231306040518263ffffffff1660e01b815260040161073e9190612ae1565b602060405180830381865afa15801561075b573d6000803e3d6000fd5b505050506040513d601f19601f8201168201806040525081019061077f9190612afc565b90506107a783838f8f600081811061079a576107996122b1565b5b9050602002013587610dae565b6000818473ffffffffffffffffffffffffffffffffffffffff166370a08231306040518263ffffffff1660e01b81526004016107e39190612ae1565b602060405180830381865afa158015610800573d6000803e3d6000fd5b505050506040513d601f19601f820116820180604052508101906108249190612afc565b61082e9190611c6a565b905060006108408660800151836100e7565b905061084c8186610bf1565b5050505b5b60008173ffffffffffffffffffffffffffffffffffffffff166370a08231306040518263ffffffff1660e01b815260040161088c9190612ae1565b602060405180830381865afa1580156108a9573d6000803e3d6000fd5b505050506040513d601f19601f820116820180604052508101906108cd9190612afc565b905060008b8b60008181106108e5576108e46122b1565b5b905060200201358e8e6000818110610900576108ff6122b1565b5b9050602002013561091191906122e0565b90508181111561098a5761092f828261092a9190611c6a565b6112c8565b60405160200161093f9190612b96565b6040516020818303038152906040526040517f08c379a00000000000000000000000000000000000000000000000000000000081526004016109819190612c06565b60405180910390fd5b81811015610a1d578273ffffffffffffffffffffffffffffffffffffffff1663a9059cbb8783856109bb9190611c6a565b6040518363ffffffff1660e01b81526004016109d8929190612c28565b6020604051808303816000875af11580156109f7573d6000803e3d6000fd5b505050506040513d601f19601f82011682018060405250810190610a1b9190612c51565b505b8273ffffffffffffffffffffffffffffffffffffffff1663095ea7b360008054906101000a900473ffffffffffffffffffffffffffffffffffffffff16836040518363ffffffff1660e01b8152600401610a78929190612c28565b6020604051808303816000875af1158015610a97573d6000803e3d6000fd5b505050506040513d601f19601f82011682018060405250810190610abb9190612c51565b50600196505050505050509998505050505050505050565b606081601f83610ae391906122e0565b1015610b24576040517f08c379a0000000000000000000000000000000000000000000000000000000008152600401610b1b90612cca565b60405180910390fd5b8183610b3091906122e0565b84511015610b73576040517f08c379a0000000000000000000000000000000000000000000000000000000008152600401610b6a90612d36565b60405180910390fd5b6060821560008114610b945760405191506000825260208201604052610be5565b6040519150601f8416801560200281840101858101878315602002848b0101015b81831015610bd25780518352602083019250602081019050610bb5565b50868552601f19601f8301166040525050505b50809150509392505050565b8073ffffffffffffffffffffffffffffffffffffffff1663095ea7b3600160009054906101000a900473ffffffffffffffffffffffffffffffffffffffff168373ffffffffffffffffffffffffffffffffffffffff166370a08231306040518263ffffffff1660e01b8152600401610c699190612ae1565b602060405180830381865afa158015610c86573d6000803e3d6000fd5b505050506040513d601f19601f82011682018060405250810190610caa9190612afc565b6040518363ffffffff1660e01b8152600401610cc7929190612c28565b6020604051808303816000875af1158015610ce6573d6000803e3d6000fd5b505050506040513d601f19601f82011682018060405250810190610d0a9190612c51565b50600080600160009054906101000a900473ffffffffffffffffffffffffffffffffffffffff1673ffffffffffffffffffffffffffffffffffffffff1684604051610d559190612d92565b6000604051808303816000865af19150503d8060008114610d92576040519150601f19603f3d011682016040523d82523d6000602084013e610d97565b606091505b509150915081610da8578060208201fd5b50505050565b6000600267ffffffffffffffff811115610dcb57610dca611604565b5b604051908082528060200260200182016040528015610df95781602001602082028036833780820191505090505b5090508381600081518110610e1157610e106122b1565b5b602002602001019073ffffffffffffffffffffffffffffffffffffffff16908173ffffffffffffffffffffffffffffffffffffffff16815250508481600181518110610e6057610e5f6122b1565b5b602002602001019073ffffffffffffffffffffffffffffffffffffffff16908173ffffffffffffffffffffffffffffffffffffffff16815250508373ffffffffffffffffffffffffffffffffffffffff1663095ea7b38360a00151856040518363ffffffff1660e01b8152600401610ed9929190612c28565b6020604051808303816000875af1158015610ef8573d6000803e3d6000fd5b505050506040513d601f19601f82011682018060405250810190610f1c9190612c51565b5060008260a001519050600360009054906101000a900473ffffffffffffffffffffffffffffffffffffffff1673ffffffffffffffffffffffffffffffffffffffff168673ffffffffffffffffffffffffffffffffffffffff16141561109d57600260009054906101000a900473ffffffffffffffffffffffffffffffffffffffff1682600181518110610fb357610fb26122b1565b5b602002602001019073ffffffffffffffffffffffffffffffffffffffff16908173ffffffffffffffffffffffffffffffffffffffff16815250508073ffffffffffffffffffffffffffffffffffffffff166318cbafe585600085307fffffffffffffffffffffffffffffffffffffffffffffffffffffffffffffffff6040518663ffffffff1660e01b815260040161104f959493929190612dda565b6000604051808303816000875af115801561106e573d6000803e3d6000fd5b505050506040513d6000823e3d601f19601f820116820180604052508101906110979190612ef7565b506112c0565b600360009054906101000a900473ffffffffffffffffffffffffffffffffffffffff1673ffffffffffffffffffffffffffffffffffffffff168573ffffffffffffffffffffffffffffffffffffffff16141561121357600260009054906101000a900473ffffffffffffffffffffffffffffffffffffffff168260008151811061112a576111296122b1565b5b602002602001019073ffffffffffffffffffffffffffffffffffffffff16908173ffffffffffffffffffffffffffffffffffffffff16815250508073ffffffffffffffffffffffffffffffffffffffff16637ff36ab585600085307fffffffffffffffffffffffffffffffffffffffffffffffffffffffffffffffff6040518663ffffffff1660e01b81526004016111c59493929190612f40565b60006040518083038185885af11580156111e3573d6000803e3d6000fd5b50505050506040513d6000823e3d601f19601f8201168201806040525081019061120d9190612ef7565b506112bf565b8073ffffffffffffffffffffffffffffffffffffffff166338ed173985600085307fffffffffffffffffffffffffffffffffffffffffffffffffffffffffffffffff6040518663ffffffff1660e01b8152600401611275959493929190612dda565b6000604051808303816000875af1158015611294573d6000803e3d6000fd5b505050506040513d6000823e3d601f19601f820116820180604052508101906112bd9190612ef7565b505b5b505050505050565b6060600060016112d7846113a0565b01905060008167ffffffffffffffff8111156112f6576112f5611604565b5b6040519080825280601f01601f1916602001820160405280156113285781602001600182028036833780820191505090505b509050600082602001820190505b600115611395578080600190039150507f3031323334353637383961626364656600000000000000000000000000000000600a86061a8153600a858161137f5761137e612f8c565b5b049450600085141561139057611395565b611336565b819350505050919050565b600080600090507a184f03e93ff9f4daa797ed6e38ed64bf6a1f01000000000000000083106113fe577a184f03e93ff9f4daa797ed6e38ed64bf6a1f01000000000000000083816113f4576113f3612f8c565b5b0492506040810190505b6d04ee2d6d415b85acef8100000000831061143b576d04ee2d6d415b85acef8100000000838161143157611430612f8c565b5b0492506020810190505b662386f26fc10000831061146a57662386f26fc1000083816114605761145f612f8c565b5b0492506010810190505b6305f5e1008310611493576305f5e100838161148957611488612f8c565b5b0492506008810190505b61271083106114b85761271083816114ae576114ad612f8c565b5b0492506004810190505b606483106114db57606483816114d1576114d0612f8c565b5b0492506002810190505b600a83106114ea576001810190505b80915050919050565b6040518060800160405280600073ffffffffffffffffffffffffffffffffffffffff168152602001600015158152602001600073ffffffffffffffffffffffffffffffffffffffff1681526020016000151581525090565b6040518060c0016040528060008152602001600073ffffffffffffffffffffffffffffffffffffffff168152602001600073ffffffffffffffffffffffffffffffffffffffff168152602001600060018111156115ab576115aa6127b3565b5b815260200160608152602001600073ffffffffffffffffffffffffffffffffffffffff1681525090565b6000604051905090565b600080fd5b600080fd5b600080fd5b600080fd5b6000601f19601f8301169050919050565b7f4e487b7100000000000000000000000000000000000000000000000000000000600052604160045260246000fd5b61163c826115f3565b810181811067ffffffffffffffff8211171561165b5761165a611604565b5b80604052505050565b600061166e6115d5565b905061167a8282611633565b919050565b600067ffffffffffffffff82111561169a57611699611604565b5b6116a3826115f3565b9050602081019050919050565b82818337600083830152505050565b60006116d26116cd8461167f565b611664565b9050828152602081018484840111156116ee576116ed6115ee565b5b6116f98482856116b0565b509392505050565b600082601f830112611716576117156115e9565b5b81356117268482602086016116bf565b91505092915050565b6000819050919050565b6117428161172f565b811461174d57600080fd5b50565b60008135905061175f81611739565b92915050565b6000806040838503121561177c5761177b6115df565b5b600083013567ffffffffffffffff81111561179a576117996115e4565b5b6117a685828601611701565b92505060206117b785828601611750565b9150509250929050565b600081519050919050565b600082825260208201905092915050565b60005b838110156117fb5780820151818401526020810190506117e0565b8381111561180a576000848401525b50505050565b600061181b826117c1565b61182581856117cc565b93506118358185602086016117dd565b61183e816115f3565b840191505092915050565b600060208201905081810360008301526118638184611810565b905092915050565b600080fd5b600080fd5b600073ffffffffffffffffffffffffffffffffffffffff82169050919050565b60006118a082611875565b9050919050565b6118b081611895565b81146118bb57600080fd5b50565b6000813590506118cd816118a7565b92915050565b600281106118e057600080fd5b50565b6000813590506118f2816118d3565b92915050565b600060c0828403121561190e5761190d61186b565b5b61191860c0611664565b9050600061192884828501611750565b600083015250602061193c848285016118be565b6020830152506040611950848285016118be565b6040830152506060611964848285016118e3565b606083015250608082013567ffffffffffffffff81111561198857611987611870565b5b61199484828501611701565b60808301525060a06119a8848285016118be565b60a08301525092915050565b6000602082840312156119ca576119c96115df565b5b600082013567ffffffffffffffff8111156119e8576119e76115e4565b5b6119f4848285016118f8565b91505092915050565b600080fd5b600080fd5b60008083601f840112611a1d57611a1c6115e9565b5b8235905067ffffffffffffffff811115611a3a57611a396119fd565b5b602083019150836020820283011115611a5657611a55611a02565b5b9250929050565b60008083601f840112611a7357611a726115e9565b5b8235905067ffffffffffffffff811115611a9057611a8f6119fd565b5b602083019150836020820283011115611aac57611aab611a02565b5b9250929050565b60008083601f840112611ac957611ac86115e9565b5b8235905067ffffffffffffffff811115611ae657611ae56119fd565b5b602083019150836001820283011115611b0257611b01611a02565b5b9250929050565b600080600080600080600080600060a08a8c031215611b2b57611b2a6115df565b5b60008a013567ffffffffffffffff811115611b4957611b486115e4565b5b611b558c828d01611a07565b995099505060208a013567ffffffffffffffff811115611b7857611b776115e4565b5b611b848c828d01611a5d565b975097505060408a013567ffffffffffffffff811115611ba757611ba66115e4565b5b611bb38c828d01611a5d565b95509550506060611bc68c828d016118be565b93505060808a013567ffffffffffffffff811115611be757611be66115e4565b5b611bf38c828d01611ab3565b92509250509295985092959850929598565b60008115159050919050565b611c1a81611c05565b82525050565b6000602082019050611c356000830184611c11565b92915050565b7f4e487b7100000000000000000000000000000000000000000000000000000000600052601160045260246000fd5b6000611c758261172f565b9150611c808361172f565b925082821015611c9357611c92611c3b565b5b828203905092915050565b600060ff82169050919050565b611cb481611c9e565b8114611cbf57600080fd5b50565b600081519050611cd181611cab565b92915050565b600067ffffffffffffffff821115611cf257611cf1611604565b5b602082029050602081019050919050565b6000819050919050565b611d1681611d03565b8114611d2157600080fd5b50565b600081519050611d3381611d0d565b92915050565b600081519050611d4881611739565b92915050565b6000611d61611d5c8461167f565b611664565b905082815260208101848484011115611d7d57611d7c6115ee565b5b611d888482856117dd565b509392505050565b600082601f830112611da557611da46115e9565b5b8151611db5848260208601611d4e565b91505092915050565b600060a08284031215611dd457611dd361186b565b5b611dde60a0611664565b90506000611dee84828501611d24565b6000830152506020611e0284828501611d39565b6020830152506040611e1684828501611d39565b6040830152506060611e2a84828501611d39565b606083015250608082015167ffffffffffffffff811115611e4e57611e4d611870565b5b611e5a84828501611d90565b60808301525092915050565b6000611e79611e7484611cd7565b611664565b90508083825260208201905060208402830185811115611e9c57611e9b611a02565b5b835b81811015611ee357805167ffffffffffffffff811115611ec157611ec06115e9565b5b808601611ece8982611dbe565b85526020850194505050602081019050611e9e565b5050509392505050565b600082601f830112611f0257611f016115e9565b5b8151611f12848260208601611e66565b91505092915050565b600067ffffffffffffffff821115611f3657611f35611604565b5b602082029050602081019050919050565b600081519050611f56816118a7565b92915050565b6000611f6f611f6a84611f1b565b611664565b90508083825260208201905060208402830185811115611f9257611f91611a02565b5b835b81811015611fbb5780611fa78882611f47565b845260208401935050602081019050611f94565b5050509392505050565b600082601f830112611fda57611fd96115e9565b5b8151611fea848260208601611f5c565b91505092915050565b611ffc81611c05565b811461200757600080fd5b50565b60008151905061201981611ff3565b92915050565b600061202a82611875565b9050919050565b61203a8161201f565b811461204557600080fd5b50565b60008151905061205781612031565b92915050565b6000608082840312156120735761207261186b565b5b61207d6080611664565b9050600061208d84828501611f47565b60008301525060206120a18482850161200a565b60208301525060406120b584828501612048565b60408301525060606120c98482850161200a565b60608301525092915050565b600067ffffffffffffffff8211156120f0576120ef611604565b5b602082029050602081019050919050565b6000819050919050565b61211481612101565b811461211f57600080fd5b50565b6000815190506121318161210b565b92915050565b600061214a612145846120d5565b611664565b9050808382526020820190506020840283018581111561216d5761216c611a02565b5b835b8181101561219657806121828882612122565b84526020840193505060208101905061216f565b5050509392505050565b600082601f8301126121b5576121b46115e9565b5b81516121c5848260208601612137565b91505092915050565b60008060008060008061012087890312156121ec576121eb6115df565b5b60006121fa89828a01611cc2565b965050602087015167ffffffffffffffff81111561221b5761221a6115e4565b5b61222789828a01611eed565b955050604087015167ffffffffffffffff811115612248576122476115e4565b5b61225489828a01611fc5565b945050606061226589828a0161205d565b93505060e087015167ffffffffffffffff811115612286576122856115e4565b5b61229289828a016121a0565b9250506101006122a489828a01611d39565b9150509295509295509295565b7f4e487b7100000000000000000000000000000000000000000000000000000000600052603260045260246000fd5b60006122eb8261172f565b91506122f68361172f565b9250827fffffffffffffffffffffffffffffffffffffffffffffffffffffffffffffffff0382111561232b5761232a611c3b565b5b828201905092915050565b60006123418261172f565b91507fffffffffffffffffffffffffffffffffffffffffffffffffffffffffffffffff82141561237457612373611c3b565b5b600182019050919050565b61238881611c9e565b82525050565b600081519050919050565b600082825260208201905092915050565b6000819050602082019050919050565b6123c381611d03565b82525050565b6123d28161172f565b82525050565b600082825260208201905092915050565b60006123f4826117c1565b6123fe81856123d8565b935061240e8185602086016117dd565b612417816115f3565b840191505092915050565b600060a08301600083015161243a60008601826123ba565b50602083015161244d60208601826123c9565b50604083015161246060408601826123c9565b50606083015161247360608601826123c9565b506080830151848203608086015261248b82826123e9565b9150508091505092915050565b60006124a48383612422565b905092915050565b6000602082019050919050565b60006124c48261238e565b6124ce8185612399565b9350836020820285016124e0856123aa565b8060005b8581101561251c57848403895281516124fd8582612498565b9450612508836124ac565b925060208a019950506001810190506124e4565b50829750879550505050505092915050565b600081519050919050565b600082825260208201905092915050565b6000819050602082019050919050565b61256381611895565b82525050565b6000612575838361255a565b60208301905092915050565b6000602082019050919050565b60006125998261252e565b6125a38185612539565b93506125ae8361254a565b8060005b838110156125df5781516125c68882612569565b97506125d183612581565b9250506001810190506125b2565b5085935050505092915050565b6125f581611c05565b82525050565b6126048161201f565b82525050565b608082016000820151612620600085018261255a565b50602082015161263360208501826125ec565b50604082015161264660408501826125fb565b50606082015161265960608501826125ec565b50505050565b600081519050919050565b600082825260208201905092915050565b6000819050602082019050919050565b61269481612101565b82525050565b60006126a6838361268b565b60208301905092915050565b6000602082019050919050565b60006126ca8261265f565b6126d4818561266a565b93506126df8361267b565b8060005b838110156127105781516126f7888261269a565b9750612702836126b2565b9250506001810190506126e3565b5085935050505092915050565b6127268161172f565b82525050565b600061012082019050612742600083018961237f565b818103602083015261275481886124b9565b90508181036040830152612768818761258e565b9050612777606083018661260a565b81810360e083015261278981856126bf565b905061279961010083018461271d565b979650505050505050565b6127ad81611895565b82525050565b7f4e487b7100000000000000000000000000000000000000000000000000000000600052602160045260246000fd5b600281106127f3576127f26127b3565b5b50565b6000819050612804826127e2565b919050565b6000612814826127f6565b9050919050565b61282481612809565b82525050565b600060c08301600083015161284260008601826123c9565b506020830151612855602086018261255a565b506040830151612868604086018261255a565b50606083015161287b606086018261281b565b506080830151848203608086015261289382826123e9565b91505060a08301516128a860a086018261255a565b508091505092915050565b60006040820190506128c860008301856127a4565b81810360208301526128da818461282a565b90509392505050565b600081519050919050565b600082825260208201905092915050565b6000819050602082019050919050565b600061291b83836123c9565b60208301905092915050565b6000602082019050919050565b600061293f826128e3565b61294981856128ee565b9350612954836128ff565b8060005b8381101561298557815161296c888261290f565b975061297783612927565b925050600181019050612958565b5085935050505092915050565b6000819050919050565b600061ffff82169050919050565b6000819050919050565b60006129cf6129ca6129c584612992565b6129aa565b61299c565b9050919050565b6129df816129b4565b82525050565b600060e0820190506129fa600083018a6127a4565b8181036020830152612a0c818961258e565b90508181036040830152612a208188612934565b90508181036060830152612a348187612934565b9050612a4360808301866127a4565b81810360a0830152612a558185611810565b9050612a6460c08301846129d6565b98975050505050505050565b600081359050612a7f81612031565b92915050565b60008060408385031215612a9c57612a9b6115df565b5b6000612aaa85828601612a70565b925050602083013567ffffffffffffffff811115612acb57612aca6115e4565b5b612ad7858286016118f8565b9150509250929050565b6000602082019050612af660008301846127a4565b92915050565b600060208284031215612b1257612b116115df565b5b6000612b2084828501611d39565b91505092915050565b7f4e656761746976652070726f6669742120000000000000000000000000000000815250565b600081519050919050565b600081905092915050565b6000612b7082612b4f565b612b7a8185612b5a565b9350612b8a8185602086016117dd565b80840191505092915050565b6000612ba182612b29565b601182019150612bb18284612b65565b915081905092915050565b600082825260208201905092915050565b6000612bd882612b4f565b612be28185612bbc565b9350612bf28185602086016117dd565b612bfb816115f3565b840191505092915050565b60006020820190508181036000830152612c208184612bcd565b905092915050565b6000604082019050612c3d60008301856127a4565b612c4a602083018461271d565b9392505050565b600060208284031215612c6757612c666115df565b5b6000612c758482850161200a565b91505092915050565b7f736c6963655f6f766572666c6f77000000000000000000000000000000000000600082015250565b6000612cb4600e83612bbc565b9150612cbf82612c7e565b602082019050919050565b60006020820190508181036000830152612ce381612ca7565b9050919050565b7f736c6963655f6f75744f66426f756e6473000000000000000000000000000000600082015250565b6000612d20601183612bbc565b9150612d2b82612cea565b602082019050919050565b60006020820190508181036000830152612d4f81612d13565b9050919050565b600081905092915050565b6000612d6c826117c1565b612d768185612d56565b9350612d868185602086016117dd565b80840191505092915050565b6000612d9e8284612d61565b915081905092915050565b6000612dc4612dbf612dba84612992565b6129aa565b61172f565b9050919050565b612dd481612da9565b82525050565b600060a082019050612def600083018861271d565b612dfc6020830187612dcb565b8181036040830152612e0e818661258e565b9050612e1d60608301856127a4565b612e2a608083018461271d565b9695505050505050565b600067ffffffffffffffff821115612e4f57612e4e611604565b5b602082029050602081019050919050565b6000612e73612e6e84612e34565b611664565b90508083825260208201905060208402830185811115612e9657612e95611a02565b5b835b81811015612ebf5780612eab8882611d39565b845260208401935050602081019050612e98565b5050509392505050565b600082601f830112612ede57612edd6115e9565b5b8151612eee848260208601612e60565b91505092915050565b600060208284031215612f0d57612f0c6115df565b5b600082015167ffffffffffffffff811115612f2b57612f2a6115e4565b5b612f3784828501612ec9565b91505092915050565b6000608082019050612f556000830187612dcb565b8181036020830152612f67818661258e565b9050612f7660408301856127a4565b612f83606083018461271d565b95945050505050565b7f4e487b7100000000000000000000000000000000000000000000000000000000600052601260045260246000fdfea2646970667358221220a7a5673fb2185e17228511e3ce8c1effa9dd3c96c3ebd75f3d69b9d5290a361f64736f6c634300080c0033",
  "devdoc": {
    "kind": "dev",
    "methods": {},
    "version": 1
  },
  "userdoc": {
    "kind": "user",
    "methods": {},
    "version": 1
  },
  "storageLayout": {
    "storage": [
      {
        "astId": 1073,
        "contract": "contracts/ArbitrageSwap.sol:ArbitrageSwap",
        "label": "lendingPool",
        "offset": 0,
        "slot": "0",
        "type": "t_contract(ILendingPool)1959"
      },
      {
        "astId": 1075,
        "contract": "contracts/ArbitrageSwap.sol:ArbitrageSwap",
        "label": "vaultAddress",
        "offset": 0,
        "slot": "1",
        "type": "t_address"
      },
      {
        "astId": 1078,
        "contract": "contracts/ArbitrageSwap.sol:ArbitrageSwap",
        "label": "WCKB",
        "offset": 0,
        "slot": "2",
        "type": "t_contract(IWETH)2140"
      },
      {
        "astId": 1081,
        "contract": "contracts/ArbitrageSwap.sol:ArbitrageSwap",
        "label": "pCKB",
        "offset": 0,
        "slot": "3",
        "type": "t_contract(IERC20)1888"
      }
    ],
    "types": {
      "t_address": {
        "encoding": "inplace",
        "label": "address",
        "numberOfBytes": "20"
      },
      "t_contract(IERC20)1888": {
        "encoding": "inplace",
        "label": "contract IERC20",
        "numberOfBytes": "20"
      },
      "t_contract(ILendingPool)1959": {
        "encoding": "inplace",
        "label": "contract ILendingPool",
        "numberOfBytes": "20"
      },
      "t_contract(IWETH)2140": {
        "encoding": "inplace",
        "label": "contract IWETH",
        "numberOfBytes": "20"
      }
    }
  }
}