{
  "address": "0xDaB633289973fB6a258cC100fc5C1F1493DEd394",
  "abi": [
    {
      "inputs": [
        {
          "internalType": "address",
          "name": "_vaultAddress",
          "type": "address"
        },
        {
          "internalType": "address",
          "name": "lendingPoolAddress",
          "type": "address"
        },
        {
          "internalType": "address",
          "name": "pCKBAddress",
          "type": "address"
        },
        {
          "internalType": "address",
          "name": "WCKBAddress",
          "type": "address"
        }
      ],
      "stateMutability": "nonpayable",
      "type": "constructor"
    },
    {
      "inputs": [
        {
          "components": [
            {
              "internalType": "uint256",
              "name": "quoteAmount",
              "type": "uint256"
            },
            {
              "internalType": "address",
              "name": "baseTokenAddress",
              "type": "address"
            },
            {
              "internalType": "address",
              "name": "quoteTokenAddress",
              "type": "address"
            },
            {
              "internalType": "enum ArbitrageSwap.SwapOrder",
              "name": "order",
              "type": "uint8"
            },
            {
              "internalType": "bytes",
              "name": "batchSwapCalldata",
              "type": "bytes"
            },
            {
              "internalType": "address",
              "name": "yokaiPoolAddress",
              "type": "address"
            }
          ],
          "internalType": "struct ArbitrageSwap.ArbitrageParams",
          "name": "arbitrageParams",
          "type": "tuple"
        }
      ],
      "name": "arbitrage",
      "outputs": [],
      "stateMutability": "nonpayable",
      "type": "function"
    },
    {
      "inputs": [
        {
          "internalType": "bytes",
          "name": "batchSwapCalldata",
          "type": "bytes"
        },
        {
          "internalType": "uint256",
          "name": "baseTokenBalance",
          "type": "uint256"
        }
      ],
      "name": "changeAmountInHadoukenCallData",
      "outputs": [
        {
          "internalType": "bytes",
          "name": "",
          "type": "bytes"
        }
      ],
      "stateMutability": "view",
      "type": "function"
    },
    {
      "inputs": [
        {
          "internalType": "address[]",
          "name": "assets",
          "type": "address[]"
        },
        {
          "internalType": "uint256[]",
          "name": "amounts",
          "type": "uint256[]"
        },
        {
          "internalType": "uint256[]",
          "name": "premiums",
          "type": "uint256[]"
        },
        {
          "internalType": "address",
          "name": "initiator",
          "type": "address"
        },
        {
          "internalType": "bytes",
          "name": "params",
          "type": "bytes"
        }
      ],
      "name": "executeOperation",
      "outputs": [
        {
          "internalType": "bool",
          "name": "",
          "type": "bool"
        }
      ],
      "stateMutability": "nonpayable",
      "type": "function"
    },
    {
      "stateMutability": "payable",
      "type": "receive"
    }
  ],
  "transactionHash": "0x218309aad76db4f39b1f0b4aace6348dd963be8b1722f2ed7aa06f9414ab2d87",
  "args": [
    "0xd69FAC6C632eF023afCe7471Bda724b228237570",
    "0x72ddd1eca2af73024e0823C9a80B00de8e3f0070",
    "0xf3476352D9DcD38CCE088Ef6bf0812D23a58611B",
    "0xD3a77b082cF44a31B31768148539314Ac802c96C"
  ],
  "numDeployments": 1,
  "solcInputHash": "7d361f96e7a8947cb8d0c9aebf475ac9",
  "bytecode": "0x60806040523480156200001157600080fd5b50604051620030ed380380620030ed8339818101604052810190620000379190620001ae565b83600160006101000a81548173ffffffffffffffffffffffffffffffffffffffff021916908373ffffffffffffffffffffffffffffffffffffffff160217905550826000806101000a81548173ffffffffffffffffffffffffffffffffffffffff021916908373ffffffffffffffffffffffffffffffffffffffff16021790555081600360006101000a81548173ffffffffffffffffffffffffffffffffffffffff021916908373ffffffffffffffffffffffffffffffffffffffff16021790555080600260006101000a81548173ffffffffffffffffffffffffffffffffffffffff021916908373ffffffffffffffffffffffffffffffffffffffff1602179055505050505062000220565b600080fd5b600073ffffffffffffffffffffffffffffffffffffffff82169050919050565b6000620001768262000149565b9050919050565b620001888162000169565b81146200019457600080fd5b50565b600081519050620001a8816200017d565b92915050565b60008060008060808587031215620001cb57620001ca62000144565b5b6000620001db8782880162000197565b9450506020620001ee8782880162000197565b9350506040620002018782880162000197565b9250506060620002148782880162000197565b91505092959194509250565b612ebd80620002306000396000f3fe6080604052600436106100385760003560e01c80630bd6430514610044578063516a00dc14610081578063920f5c84146100aa5761003f565b3661003f57005b600080fd5b34801561005057600080fd5b5061006b600480360381019061006691906115b3565b6100e7565b6040516100789190611697565b60405180910390f35b34801561008d57600080fd5b506100a860048036038101906100a39190611802565b610269565b005b3480156100b657600080fd5b506100d160048036038101906100cc9190611957565b6104b2565b6040516100de9190611a6e565b60405180910390f35b606060006060806100f6611341565b606060008880602001905181019061010e9190611fe3565b809650819750829850839950849a50859b505050505050506000805b865181101561019a576000878281518110610148576101476120c6565b5b60200260200101516020015114156101875786818151811061016d5761016c6120c6565b5b602002602001015160600151826101849190612124565b91505b80806101929061217a565b91505061012a565b50888111156101e75788816101af91906121c3565b866000815181106101c3576101c26120c6565b5b60200260200101516060018181516101db91906121c3565b91508181525050610230565b8881101561022f5780896101fb91906121c3565b8660008151811061020f5761020e6120c6565b5b60200260200101516060018181516102279190612124565b915081815250505b5b86868686868660405160200161024b9695949392919061266b565b60405160208183030381529060405297505050505050505092915050565b6000600167ffffffffffffffff81111561028657610285611452565b5b6040519080825280602002602001820160405280156102b45781602001602082028036833780820191505090505b5090508160400151816000815181106102d0576102cf6120c6565b5b602002602001019073ffffffffffffffffffffffffffffffffffffffff16908173ffffffffffffffffffffffffffffffffffffffff16815250506000600167ffffffffffffffff81111561032757610326611452565b5b6040519080825280602002602001820160405280156103555781602001602082028036833780820191505090505b509050826000015181600081518110610371576103706120c6565b5b6020026020010181815250506000600167ffffffffffffffff81111561039a57610399611452565b5b6040519080825280602002602001820160405280156103c85781602001602082028036833780820191505090505b5090506000816000815181106103e1576103e06120c6565b5b602002602001018181525050600033856040516020016104029291906127c3565b604051602081830303815290604052905060008054906101000a900473ffffffffffffffffffffffffffffffffffffffff1673ffffffffffffffffffffffffffffffffffffffff1663ab9c4b5d30868686308760006040518863ffffffff1660e01b81526004016104799796959493929190612989565b600060405180830381600087803b15801561049357600080fd5b505af11580156104a7573d6000803e3d6000fd5b505050505050505050565b6000806104bd611399565b84848101906104cc9190612a29565b8092508193505050600081602001519050600082604001519050600060018111156104fa576104f96121f7565b5b83606001516001811115610511576105106121f7565b5b141561063f5760008273ffffffffffffffffffffffffffffffffffffffff166370a08231306040518263ffffffff1660e01b81526004016105529190612a85565b602060405180830381865afa15801561056f573d6000803e3d6000fd5b505050506040513d601f19601f820116820180604052508101906105939190612aa0565b90506105a3846080015183610a3f565b6000818473ffffffffffffffffffffffffffffffffffffffff166370a08231306040518263ffffffff1660e01b81526004016105df9190612a85565b602060405180830381865afa1580156105fc573d6000803e3d6000fd5b505050506040513d601f19601f820116820180604052508101906106209190612aa0565b61062a91906121c3565b905061063883858388610bfc565b50506107bd565b600180811115610652576106516121f7565b5b83606001516001811115610669576106686121f7565b5b14156107bc5760008273ffffffffffffffffffffffffffffffffffffffff166370a08231306040518263ffffffff1660e01b81526004016106aa9190612a85565b602060405180830381865afa1580156106c7573d6000803e3d6000fd5b505050506040513d601f19601f820116820180604052508101906106eb9190612aa0565b905061071383838f8f6000818110610706576107056120c6565b5b9050602002013587610bfc565b6000818473ffffffffffffffffffffffffffffffffffffffff166370a08231306040518263ffffffff1660e01b815260040161074f9190612a85565b602060405180830381865afa15801561076c573d6000803e3d6000fd5b505050506040513d601f19601f820116820180604052508101906107909190612aa0565b61079a91906121c3565b905060006107ac8660800151836100e7565b90506107b88186610a3f565b5050505b5b60008173ffffffffffffffffffffffffffffffffffffffff166370a08231306040518263ffffffff1660e01b81526004016107f89190612a85565b602060405180830381865afa158015610815573d6000803e3d6000fd5b505050506040513d601f19601f820116820180604052508101906108399190612aa0565b905060008b8b6000818110610851576108506120c6565b5b905060200201358e8e600081811061086c5761086b6120c6565b5b9050602002013561087d9190612124565b9050818111156108f65761089b828261089691906121c3565b611116565b6040516020016108ab9190612b3a565b6040516020818303038152906040526040517f08c379a00000000000000000000000000000000000000000000000000000000081526004016108ed9190612baa565b60405180910390fd5b81811015610989578273ffffffffffffffffffffffffffffffffffffffff1663a9059cbb87838561092791906121c3565b6040518363ffffffff1660e01b8152600401610944929190612bcc565b6020604051808303816000875af1158015610963573d6000803e3d6000fd5b505050506040513d601f19601f820116820180604052508101906109879190612bf5565b505b8273ffffffffffffffffffffffffffffffffffffffff1663095ea7b360008054906101000a900473ffffffffffffffffffffffffffffffffffffffff16836040518363ffffffff1660e01b81526004016109e4929190612bcc565b6020604051808303816000875af1158015610a03573d6000803e3d6000fd5b505050506040513d601f19601f82011682018060405250810190610a279190612bf5565b50600196505050505050509998505050505050505050565b8073ffffffffffffffffffffffffffffffffffffffff1663095ea7b3600160009054906101000a900473ffffffffffffffffffffffffffffffffffffffff168373ffffffffffffffffffffffffffffffffffffffff166370a08231306040518263ffffffff1660e01b8152600401610ab79190612a85565b602060405180830381865afa158015610ad4573d6000803e3d6000fd5b505050506040513d601f19601f82011682018060405250810190610af89190612aa0565b6040518363ffffffff1660e01b8152600401610b15929190612bcc565b6020604051808303816000875af1158015610b34573d6000803e3d6000fd5b505050506040513d601f19601f82011682018060405250810190610b589190612bf5565b50600080600160009054906101000a900473ffffffffffffffffffffffffffffffffffffffff1673ffffffffffffffffffffffffffffffffffffffff1684604051610ba39190612c5e565b6000604051808303816000865af19150503d8060008114610be0576040519150601f19603f3d011682016040523d82523d6000602084013e610be5565b606091505b509150915081610bf6578060208201fd5b50505050565b6000600267ffffffffffffffff811115610c1957610c18611452565b5b604051908082528060200260200182016040528015610c475781602001602082028036833780820191505090505b5090508381600081518110610c5f57610c5e6120c6565b5b602002602001019073ffffffffffffffffffffffffffffffffffffffff16908173ffffffffffffffffffffffffffffffffffffffff16815250508481600181518110610cae57610cad6120c6565b5b602002602001019073ffffffffffffffffffffffffffffffffffffffff16908173ffffffffffffffffffffffffffffffffffffffff16815250508373ffffffffffffffffffffffffffffffffffffffff1663095ea7b38360a00151856040518363ffffffff1660e01b8152600401610d27929190612bcc565b6020604051808303816000875af1158015610d46573d6000803e3d6000fd5b505050506040513d601f19601f82011682018060405250810190610d6a9190612bf5565b5060008260a001519050600360009054906101000a900473ffffffffffffffffffffffffffffffffffffffff1673ffffffffffffffffffffffffffffffffffffffff168673ffffffffffffffffffffffffffffffffffffffff161415610eeb57600260009054906101000a900473ffffffffffffffffffffffffffffffffffffffff1682600181518110610e0157610e006120c6565b5b602002602001019073ffffffffffffffffffffffffffffffffffffffff16908173ffffffffffffffffffffffffffffffffffffffff16815250508073ffffffffffffffffffffffffffffffffffffffff166318cbafe585600085307fffffffffffffffffffffffffffffffffffffffffffffffffffffffffffffffff6040518663ffffffff1660e01b8152600401610e9d959493929190612ca6565b6000604051808303816000875af1158015610ebc573d6000803e3d6000fd5b505050506040513d6000823e3d601f19601f82011682018060405250810190610ee59190612dc3565b5061110e565b600360009054906101000a900473ffffffffffffffffffffffffffffffffffffffff1673ffffffffffffffffffffffffffffffffffffffff168573ffffffffffffffffffffffffffffffffffffffff16141561106157600260009054906101000a900473ffffffffffffffffffffffffffffffffffffffff1682600081518110610f7857610f776120c6565b5b602002602001019073ffffffffffffffffffffffffffffffffffffffff16908173ffffffffffffffffffffffffffffffffffffffff16815250508073ffffffffffffffffffffffffffffffffffffffff16637ff36ab585600085307fffffffffffffffffffffffffffffffffffffffffffffffffffffffffffffffff6040518663ffffffff1660e01b81526004016110139493929190612e0c565b60006040518083038185885af1158015611031573d6000803e3d6000fd5b50505050506040513d6000823e3d601f19601f8201168201806040525081019061105b9190612dc3565b5061110d565b8073ffffffffffffffffffffffffffffffffffffffff166338ed173985600085307fffffffffffffffffffffffffffffffffffffffffffffffffffffffffffffffff6040518663ffffffff1660e01b81526004016110c3959493929190612ca6565b6000604051808303816000875af11580156110e2573d6000803e3d6000fd5b505050506040513d6000823e3d601f19601f8201168201806040525081019061110b9190612dc3565b505b5b505050505050565b606060006001611125846111ee565b01905060008167ffffffffffffffff81111561114457611143611452565b5b6040519080825280601f01601f1916602001820160405280156111765781602001600182028036833780820191505090505b509050600082602001820190505b6001156111e3578080600190039150507f3031323334353637383961626364656600000000000000000000000000000000600a86061a8153600a85816111cd576111cc612e58565b5b04945060008514156111de576111e3565b611184565b819350505050919050565b600080600090507a184f03e93ff9f4daa797ed6e38ed64bf6a1f010000000000000000831061124c577a184f03e93ff9f4daa797ed6e38ed64bf6a1f010000000000000000838161124257611241612e58565b5b0492506040810190505b6d04ee2d6d415b85acef81000000008310611289576d04ee2d6d415b85acef8100000000838161127f5761127e612e58565b5b0492506020810190505b662386f26fc1000083106112b857662386f26fc1000083816112ae576112ad612e58565b5b0492506010810190505b6305f5e10083106112e1576305f5e10083816112d7576112d6612e58565b5b0492506008810190505b61271083106113065761271083816112fc576112fb612e58565b5b0492506004810190505b60648310611329576064838161131f5761131e612e58565b5b0492506002810190505b600a8310611338576001810190505b80915050919050565b6040518060800160405280600073ffffffffffffffffffffffffffffffffffffffff168152602001600015158152602001600073ffffffffffffffffffffffffffffffffffffffff1681526020016000151581525090565b6040518060c0016040528060008152602001600073ffffffffffffffffffffffffffffffffffffffff168152602001600073ffffffffffffffffffffffffffffffffffffffff168152602001600060018111156113f9576113f86121f7565b5b815260200160608152602001600073ffffffffffffffffffffffffffffffffffffffff1681525090565b6000604051905090565b600080fd5b600080fd5b600080fd5b600080fd5b6000601f19601f8301169050919050565b7f4e487b7100000000000000000000000000000000000000000000000000000000600052604160045260246000fd5b61148a82611441565b810181811067ffffffffffffffff821117156114a9576114a8611452565b5b80604052505050565b60006114bc611423565b90506114c88282611481565b919050565b600067ffffffffffffffff8211156114e8576114e7611452565b5b6114f182611441565b9050602081019050919050565b82818337600083830152505050565b600061152061151b846114cd565b6114b2565b90508281526020810184848401111561153c5761153b61143c565b5b6115478482856114fe565b509392505050565b600082601f83011261156457611563611437565b5b813561157484826020860161150d565b91505092915050565b6000819050919050565b6115908161157d565b811461159b57600080fd5b50565b6000813590506115ad81611587565b92915050565b600080604083850312156115ca576115c961142d565b5b600083013567ffffffffffffffff8111156115e8576115e7611432565b5b6115f48582860161154f565b92505060206116058582860161159e565b9150509250929050565b600081519050919050565b600082825260208201905092915050565b60005b8381101561164957808201518184015260208101905061162e565b83811115611658576000848401525b50505050565b60006116698261160f565b611673818561161a565b935061168381856020860161162b565b61168c81611441565b840191505092915050565b600060208201905081810360008301526116b1818461165e565b905092915050565b600080fd5b600080fd5b600073ffffffffffffffffffffffffffffffffffffffff82169050919050565b60006116ee826116c3565b9050919050565b6116fe816116e3565b811461170957600080fd5b50565b60008135905061171b816116f5565b92915050565b6002811061172e57600080fd5b50565b60008135905061174081611721565b92915050565b600060c0828403121561175c5761175b6116b9565b5b61176660c06114b2565b905060006117768482850161159e565b600083015250602061178a8482850161170c565b602083015250604061179e8482850161170c565b60408301525060606117b284828501611731565b606083015250608082013567ffffffffffffffff8111156117d6576117d56116be565b5b6117e28482850161154f565b60808301525060a06117f68482850161170c565b60a08301525092915050565b6000602082840312156118185761181761142d565b5b600082013567ffffffffffffffff81111561183657611835611432565b5b61184284828501611746565b91505092915050565b600080fd5b600080fd5b60008083601f84011261186b5761186a611437565b5b8235905067ffffffffffffffff8111156118885761188761184b565b5b6020830191508360208202830111156118a4576118a3611850565b5b9250929050565b60008083601f8401126118c1576118c0611437565b5b8235905067ffffffffffffffff8111156118de576118dd61184b565b5b6020830191508360208202830111156118fa576118f9611850565b5b9250929050565b60008083601f84011261191757611916611437565b5b8235905067ffffffffffffffff8111156119345761193361184b565b5b6020830191508360018202830111156119505761194f611850565b5b9250929050565b600080600080600080600080600060a08a8c0312156119795761197861142d565b5b60008a013567ffffffffffffffff81111561199757611996611432565b5b6119a38c828d01611855565b995099505060208a013567ffffffffffffffff8111156119c6576119c5611432565b5b6119d28c828d016118ab565b975097505060408a013567ffffffffffffffff8111156119f5576119f4611432565b5b611a018c828d016118ab565b95509550506060611a148c828d0161170c565b93505060808a013567ffffffffffffffff811115611a3557611a34611432565b5b611a418c828d01611901565b92509250509295985092959850929598565b60008115159050919050565b611a6881611a53565b82525050565b6000602082019050611a836000830184611a5f565b92915050565b60028110611a9657600080fd5b50565b600081519050611aa881611a89565b92915050565b600067ffffffffffffffff821115611ac957611ac8611452565b5b602082029050602081019050919050565b6000819050919050565b611aed81611ada565b8114611af857600080fd5b50565b600081519050611b0a81611ae4565b92915050565b600081519050611b1f81611587565b92915050565b6000611b38611b33846114cd565b6114b2565b905082815260208101848484011115611b5457611b5361143c565b5b611b5f84828561162b565b509392505050565b600082601f830112611b7c57611b7b611437565b5b8151611b8c848260208601611b25565b91505092915050565b600060a08284031215611bab57611baa6116b9565b5b611bb560a06114b2565b90506000611bc584828501611afb565b6000830152506020611bd984828501611b10565b6020830152506040611bed84828501611b10565b6040830152506060611c0184828501611b10565b606083015250608082015167ffffffffffffffff811115611c2557611c246116be565b5b611c3184828501611b67565b60808301525092915050565b6000611c50611c4b84611aae565b6114b2565b90508083825260208201905060208402830185811115611c7357611c72611850565b5b835b81811015611cba57805167ffffffffffffffff811115611c9857611c97611437565b5b808601611ca58982611b95565b85526020850194505050602081019050611c75565b5050509392505050565b600082601f830112611cd957611cd8611437565b5b8151611ce9848260208601611c3d565b91505092915050565b600067ffffffffffffffff821115611d0d57611d0c611452565b5b602082029050602081019050919050565b6000611d29826116e3565b9050919050565b611d3981611d1e565b8114611d4457600080fd5b50565b600081519050611d5681611d30565b92915050565b6000611d6f611d6a84611cf2565b6114b2565b90508083825260208201905060208402830185811115611d9257611d91611850565b5b835b81811015611dbb5780611da78882611d47565b845260208401935050602081019050611d94565b5050509392505050565b600082601f830112611dda57611dd9611437565b5b8151611dea848260208601611d5c565b91505092915050565b600081519050611e02816116f5565b92915050565b611e1181611a53565b8114611e1c57600080fd5b50565b600081519050611e2e81611e08565b92915050565b6000611e3f826116c3565b9050919050565b611e4f81611e34565b8114611e5a57600080fd5b50565b600081519050611e6c81611e46565b92915050565b600060808284031215611e8857611e876116b9565b5b611e9260806114b2565b90506000611ea284828501611df3565b6000830152506020611eb684828501611e1f565b6020830152506040611eca84828501611e5d565b6040830152506060611ede84828501611e1f565b60608301525092915050565b600067ffffffffffffffff821115611f0557611f04611452565b5b602082029050602081019050919050565b6000819050919050565b611f2981611f16565b8114611f3457600080fd5b50565b600081519050611f4681611f20565b92915050565b6000611f5f611f5a84611eea565b6114b2565b90508083825260208201905060208402830185811115611f8257611f81611850565b5b835b81811015611fab5780611f978882611f37565b845260208401935050602081019050611f84565b5050509392505050565b600082601f830112611fca57611fc9611437565b5b8151611fda848260208601611f4c565b91505092915050565b60008060008060008061012087890312156120015761200061142d565b5b600061200f89828a01611a99565b965050602087015167ffffffffffffffff8111156120305761202f611432565b5b61203c89828a01611cc4565b955050604087015167ffffffffffffffff81111561205d5761205c611432565b5b61206989828a01611dc5565b945050606061207a89828a01611e72565b93505060e087015167ffffffffffffffff81111561209b5761209a611432565b5b6120a789828a01611fb5565b9250506101006120b989828a01611b10565b9150509295509295509295565b7f4e487b7100000000000000000000000000000000000000000000000000000000600052603260045260246000fd5b7f4e487b7100000000000000000000000000000000000000000000000000000000600052601160045260246000fd5b600061212f8261157d565b915061213a8361157d565b9250827fffffffffffffffffffffffffffffffffffffffffffffffffffffffffffffffff0382111561216f5761216e6120f5565b5b828201905092915050565b60006121858261157d565b91507fffffffffffffffffffffffffffffffffffffffffffffffffffffffffffffffff8214156121b8576121b76120f5565b5b600182019050919050565b60006121ce8261157d565b91506121d98361157d565b9250828210156121ec576121eb6120f5565b5b828203905092915050565b7f4e487b7100000000000000000000000000000000000000000000000000000000600052602160045260246000fd5b60028110612237576122366121f7565b5b50565b600081905061224882612226565b919050565b60006122588261223a565b9050919050565b6122688161224d565b82525050565b600081519050919050565b600082825260208201905092915050565b6000819050602082019050919050565b6122a381611ada565b82525050565b6122b28161157d565b82525050565b600082825260208201905092915050565b60006122d48261160f565b6122de81856122b8565b93506122ee81856020860161162b565b6122f781611441565b840191505092915050565b600060a08301600083015161231a600086018261229a565b50602083015161232d60208601826122a9565b50604083015161234060408601826122a9565b50606083015161235360608601826122a9565b506080830151848203608086015261236b82826122c9565b9150508091505092915050565b60006123848383612302565b905092915050565b6000602082019050919050565b60006123a48261226e565b6123ae8185612279565b9350836020820285016123c08561228a565b8060005b858110156123fc57848403895281516123dd8582612378565b94506123e88361238c565b925060208a019950506001810190506123c4565b50829750879550505050505092915050565b600081519050919050565b600082825260208201905092915050565b6000819050602082019050919050565b6000819050919050565b600061245f61245a612455846116c3565b61243a565b6116c3565b9050919050565b600061247182612444565b9050919050565b600061248382612466565b9050919050565b61249381612478565b82525050565b60006124a5838361248a565b60208301905092915050565b6000602082019050919050565b60006124c98261240e565b6124d38185612419565b93506124de8361242a565b8060005b8381101561250f5781516124f68882612499565b9750612501836124b1565b9250506001810190506124e2565b5085935050505092915050565b612525816116e3565b82525050565b61253481611a53565b82525050565b61254381611e34565b82525050565b60808201600082015161255f600085018261251c565b506020820151612572602085018261252b565b506040820151612585604085018261253a565b506060820151612598606085018261252b565b50505050565b600081519050919050565b600082825260208201905092915050565b6000819050602082019050919050565b6125d381611f16565b82525050565b60006125e583836125ca565b60208301905092915050565b6000602082019050919050565b60006126098261259e565b61261381856125a9565b935061261e836125ba565b8060005b8381101561264f57815161263688826125d9565b9750612641836125f1565b925050600181019050612622565b5085935050505092915050565b6126658161157d565b82525050565b600061012082019050612681600083018961225f565b81810360208301526126938188612399565b905081810360408301526126a781876124be565b90506126b66060830186612549565b81810360e08301526126c881856125fe565b90506126d861010083018461265c565b979650505050505050565b6126ec816116e3565b82525050565b60028110612703576127026121f7565b5b50565b6000819050612714826126f2565b919050565b600061272482612706565b9050919050565b61273481612719565b82525050565b600060c08301600083015161275260008601826122a9565b506020830151612765602086018261251c565b506040830151612778604086018261251c565b50606083015161278b606086018261272b565b50608083015184820360808601526127a382826122c9565b91505060a08301516127b860a086018261251c565b508091505092915050565b60006040820190506127d860008301856126e3565b81810360208301526127ea818461273a565b90509392505050565b600081519050919050565b6000819050602082019050919050565b600061281a838361251c565b60208301905092915050565b6000602082019050919050565b600061283e826127f3565b6128488185612419565b9350612853836127fe565b8060005b8381101561288457815161286b888261280e565b975061287683612826565b925050600181019050612857565b5085935050505092915050565b600081519050919050565b600082825260208201905092915050565b6000819050602082019050919050565b60006128c983836122a9565b60208301905092915050565b6000602082019050919050565b60006128ed82612891565b6128f7818561289c565b9350612902836128ad565b8060005b8381101561293357815161291a88826128bd565b9750612925836128d5565b925050600181019050612906565b5085935050505092915050565b6000819050919050565b600061ffff82169050919050565b600061297361296e61296984612940565b61243a565b61294a565b9050919050565b61298381612958565b82525050565b600060e08201905061299e600083018a6126e3565b81810360208301526129b08189612833565b905081810360408301526129c481886128e2565b905081810360608301526129d881876128e2565b90506129e760808301866126e3565b81810360a08301526129f9818561165e565b9050612a0860c083018461297a565b98975050505050505050565b600081359050612a2381611e46565b92915050565b60008060408385031215612a4057612a3f61142d565b5b6000612a4e85828601612a14565b925050602083013567ffffffffffffffff811115612a6f57612a6e611432565b5b612a7b85828601611746565b9150509250929050565b6000602082019050612a9a60008301846126e3565b92915050565b600060208284031215612ab657612ab561142d565b5b6000612ac484828501611b10565b91505092915050565b7f4e656761746976652070726f6669742120000000000000000000000000000000815250565b600081519050919050565b600081905092915050565b6000612b1482612af3565b612b1e8185612afe565b9350612b2e81856020860161162b565b80840191505092915050565b6000612b4582612acd565b601182019150612b558284612b09565b915081905092915050565b600082825260208201905092915050565b6000612b7c82612af3565b612b868185612b60565b9350612b9681856020860161162b565b612b9f81611441565b840191505092915050565b60006020820190508181036000830152612bc48184612b71565b905092915050565b6000604082019050612be160008301856126e3565b612bee602083018461265c565b9392505050565b600060208284031215612c0b57612c0a61142d565b5b6000612c1984828501611e1f565b91505092915050565b600081905092915050565b6000612c388261160f565b612c428185612c22565b9350612c5281856020860161162b565b80840191505092915050565b6000612c6a8284612c2d565b915081905092915050565b6000612c90612c8b612c8684612940565b61243a565b61157d565b9050919050565b612ca081612c75565b82525050565b600060a082019050612cbb600083018861265c565b612cc86020830187612c97565b8181036040830152612cda8186612833565b9050612ce960608301856126e3565b612cf6608083018461265c565b9695505050505050565b600067ffffffffffffffff821115612d1b57612d1a611452565b5b602082029050602081019050919050565b6000612d3f612d3a84612d00565b6114b2565b90508083825260208201905060208402830185811115612d6257612d61611850565b5b835b81811015612d8b5780612d778882611b10565b845260208401935050602081019050612d64565b5050509392505050565b600082601f830112612daa57612da9611437565b5b8151612dba848260208601612d2c565b91505092915050565b600060208284031215612dd957612dd861142d565b5b600082015167ffffffffffffffff811115612df757612df6611432565b5b612e0384828501612d95565b91505092915050565b6000608082019050612e216000830187612c97565b8181036020830152612e338186612833565b9050612e4260408301856126e3565b612e4f606083018461265c565b95945050505050565b7f4e487b7100000000000000000000000000000000000000000000000000000000600052601260045260246000fdfea2646970667358221220c7033f5782fdfb98855d662bf3fa524a50fbc71ca4c989b8c0365f9283eb3bf064736f6c634300080c0033",
  "devdoc": {
    "kind": "dev",
    "methods": {},
    "version": 1
  },
  "userdoc": {
    "kind": "user",
    "methods": {},
    "version": 1
  },
  "storageLayout": {
    "storage": [
      {
        "astId": 1069,
        "contract": "contracts/ArbitrageSwap.sol:ArbitrageSwap",
        "label": "lendingPool",
        "offset": 0,
        "slot": "0",
        "type": "t_contract(ILendingPool)1945"
      },
      {
        "astId": 1071,
        "contract": "contracts/ArbitrageSwap.sol:ArbitrageSwap",
        "label": "vaultAddress",
        "offset": 0,
        "slot": "1",
        "type": "t_address"
      },
      {
        "astId": 1074,
        "contract": "contracts/ArbitrageSwap.sol:ArbitrageSwap",
        "label": "WCKB",
        "offset": 0,
        "slot": "2",
        "type": "t_contract(IWETH)2126"
      },
      {
        "astId": 1077,
        "contract": "contracts/ArbitrageSwap.sol:ArbitrageSwap",
        "label": "pCKB",
        "offset": 0,
        "slot": "3",
        "type": "t_contract(IERC20)1874"
      }
    ],
    "types": {
      "t_address": {
        "encoding": "inplace",
        "label": "address",
        "numberOfBytes": "20"
      },
      "t_contract(IERC20)1874": {
        "encoding": "inplace",
        "label": "contract IERC20",
        "numberOfBytes": "20"
      },
      "t_contract(ILendingPool)1945": {
        "encoding": "inplace",
        "label": "contract ILendingPool",
        "numberOfBytes": "20"
      },
      "t_contract(IWETH)2126": {
        "encoding": "inplace",
        "label": "contract IWETH",
        "numberOfBytes": "20"
      }
    }
  }
}