{
  "_format": "hh-sol-artifact-1",
  "contractName": "AaveLinearPool",
  "sourceName": "contracts/aave/AaveLinearPool.sol",
  "abi": [
    {
      "inputs": [
        {
          "components": [
            {
              "internalType": "contract IVault",
              "name": "vault",
              "type": "address"
            },
            {
              "internalType": "string",
              "name": "name",
              "type": "string"
            },
            {
              "internalType": "string",
              "name": "symbol",
              "type": "string"
            },
            {
              "internalType": "contract IERC20",
              "name": "mainToken",
              "type": "address"
            },
            {
              "internalType": "contract IERC20",
              "name": "wrappedToken",
              "type": "address"
            },
            {
              "internalType": "address",
              "name": "assetManager",
              "type": "address"
            },
            {
              "internalType": "uint256",
              "name": "upperTarget",
              "type": "uint256"
            },
            {
              "internalType": "uint256",
              "name": "swapFeePercentage",
              "type": "uint256"
            },
            {
              "internalType": "uint256",
              "name": "pauseWindowDuration",
              "type": "uint256"
            },
            {
              "internalType": "uint256",
              "name": "bufferPeriodDuration",
              "type": "uint256"
            },
            {
              "internalType": "address",
              "name": "owner",
              "type": "address"
            },
            {
              "internalType": "string",
              "name": "version",
              "type": "string"
            }
          ],
          "internalType": "struct AaveLinearPool.ConstructorArgs",
          "name": "args",
          "type": "tuple"
        }
      ],
      "stateMutability": "nonpayable",
      "type": "constructor"
    },
    {
      "anonymous": false,
      "inputs": [
        {
          "indexed": true,
          "internalType": "address",
          "name": "owner",
          "type": "address"
        },
        {
          "indexed": true,
          "internalType": "address",
          "name": "spender",
          "type": "address"
        },
        {
          "indexed": false,
          "internalType": "uint256",
          "name": "value",
          "type": "uint256"
        }
      ],
      "name": "Approval",
      "type": "event"
    },
    {
      "anonymous": false,
      "inputs": [
        {
          "indexed": false,
          "internalType": "bool",
          "name": "paused",
          "type": "bool"
        }
      ],
      "name": "PausedStateChanged",
      "type": "event"
    },
    {
      "anonymous": false,
      "inputs": [
        {
          "indexed": false,
          "internalType": "bool",
          "name": "enabled",
          "type": "bool"
        }
      ],
      "name": "RecoveryModeStateChanged",
      "type": "event"
    },
    {
      "anonymous": false,
      "inputs": [
        {
          "indexed": false,
          "internalType": "uint256",
          "name": "swapFeePercentage",
          "type": "uint256"
        }
      ],
      "name": "SwapFeePercentageChanged",
      "type": "event"
    },
    {
      "anonymous": false,
      "inputs": [
        {
          "indexed": true,
          "internalType": "contract IERC20",
          "name": "token",
          "type": "address"
        },
        {
          "indexed": false,
          "internalType": "uint256",
          "name": "lowerTarget",
          "type": "uint256"
        },
        {
          "indexed": false,
          "internalType": "uint256",
          "name": "upperTarget",
          "type": "uint256"
        }
      ],
      "name": "TargetsSet",
      "type": "event"
    },
    {
      "anonymous": false,
      "inputs": [
        {
          "indexed": true,
          "internalType": "address",
          "name": "from",
          "type": "address"
        },
        {
          "indexed": true,
          "internalType": "address",
          "name": "to",
          "type": "address"
        },
        {
          "indexed": false,
          "internalType": "uint256",
          "name": "value",
          "type": "uint256"
        }
      ],
      "name": "Transfer",
      "type": "event"
    },
    {
      "inputs": [],
      "name": "DOMAIN_SEPARATOR",
      "outputs": [
        {
          "internalType": "bytes32",
          "name": "",
          "type": "bytes32"
        }
      ],
      "stateMutability": "view",
      "type": "function"
    },
    {
      "inputs": [],
      "name": "_decimals",
      "outputs": [
        {
          "internalType": "uint8",
          "name": "",
          "type": "uint8"
        }
      ],
      "stateMutability": "view",
      "type": "function"
    },
    {
      "inputs": [],
      "name": "_name",
      "outputs": [
        {
          "internalType": "string",
          "name": "",
          "type": "string"
        }
      ],
      "stateMutability": "view",
      "type": "function"
    },
    {
      "inputs": [],
      "name": "_symbol",
      "outputs": [
        {
          "internalType": "string",
          "name": "",
          "type": "string"
        }
      ],
      "stateMutability": "view",
      "type": "function"
    },
    {
      "inputs": [
        {
          "internalType": "address",
          "name": "owner",
          "type": "address"
        },
        {
          "internalType": "address",
          "name": "spender",
          "type": "address"
        }
      ],
      "name": "allowance",
      "outputs": [
        {
          "internalType": "uint256",
          "name": "",
          "type": "uint256"
        }
      ],
      "stateMutability": "view",
      "type": "function"
    },
    {
      "inputs": [
        {
          "internalType": "address",
          "name": "spender",
          "type": "address"
        },
        {
          "internalType": "uint256",
          "name": "amount",
          "type": "uint256"
        }
      ],
      "name": "approve",
      "outputs": [
        {
          "internalType": "bool",
          "name": "",
          "type": "bool"
        }
      ],
      "stateMutability": "nonpayable",
      "type": "function"
    },
    {
      "inputs": [
        {
          "internalType": "address",
          "name": "account",
          "type": "address"
        }
      ],
      "name": "balanceOf",
      "outputs": [
        {
          "internalType": "uint256",
          "name": "",
          "type": "uint256"
        }
      ],
      "stateMutability": "view",
      "type": "function"
    },
    {
      "inputs": [],
      "name": "decimals",
      "outputs": [
        {
          "internalType": "uint8",
          "name": "",
          "type": "uint8"
        }
      ],
      "stateMutability": "view",
      "type": "function"
    },
    {
      "inputs": [
        {
          "internalType": "address",
          "name": "spender",
          "type": "address"
        },
        {
          "internalType": "uint256",
          "name": "amount",
          "type": "uint256"
        }
      ],
      "name": "decreaseAllowance",
      "outputs": [
        {
          "internalType": "bool",
          "name": "",
          "type": "bool"
        }
      ],
      "stateMutability": "nonpayable",
      "type": "function"
    },
    {
      "inputs": [],
      "name": "disableRecoveryMode",
      "outputs": [],
      "stateMutability": "nonpayable",
      "type": "function"
    },
    {
      "inputs": [],
      "name": "enableRecoveryMode",
      "outputs": [],
      "stateMutability": "nonpayable",
      "type": "function"
    },
    {
      "inputs": [
        {
          "internalType": "bytes4",
          "name": "selector",
          "type": "bytes4"
        }
      ],
      "name": "getActionId",
      "outputs": [
        {
          "internalType": "bytes32",
          "name": "",
          "type": "bytes32"
        }
      ],
      "stateMutability": "view",
      "type": "function"
    },
    {
      "inputs": [],
      "name": "getAuthorizer",
      "outputs": [
        {
          "internalType": "contract IAuthorizer",
          "name": "",
          "type": "address"
        }
      ],
      "stateMutability": "view",
      "type": "function"
    },
    {
      "inputs": [],
      "name": "getBptIndex",
      "outputs": [
        {
          "internalType": "uint256",
          "name": "",
          "type": "uint256"
        }
      ],
      "stateMutability": "pure",
      "type": "function"
    },
    {
      "inputs": [],
      "name": "getDomainSeparator",
      "outputs": [
        {
          "internalType": "bytes32",
          "name": "",
          "type": "bytes32"
        }
      ],
      "stateMutability": "view",
      "type": "function"
    },
    {
      "inputs": [],
      "name": "getMainIndex",
      "outputs": [
        {
          "internalType": "uint256",
          "name": "",
          "type": "uint256"
        }
      ],
      "stateMutability": "view",
      "type": "function"
    },
    {
      "inputs": [],
      "name": "getMainToken",
      "outputs": [
        {
          "internalType": "contract IERC20",
          "name": "",
          "type": "address"
        }
      ],
      "stateMutability": "view",
      "type": "function"
    },
    {
      "inputs": [
        {
          "internalType": "address",
          "name": "account",
          "type": "address"
        }
      ],
      "name": "getNextNonce",
      "outputs": [
        {
          "internalType": "uint256",
          "name": "",
          "type": "uint256"
        }
      ],
      "stateMutability": "view",
      "type": "function"
    },
    {
      "inputs": [],
      "name": "getOwner",
      "outputs": [
        {
          "internalType": "address",
          "name": "",
          "type": "address"
        }
      ],
      "stateMutability": "view",
      "type": "function"
    },
    {
      "inputs": [],
      "name": "getPausedState",
      "outputs": [
        {
          "internalType": "bool",
          "name": "paused",
          "type": "bool"
        },
        {
          "internalType": "uint256",
          "name": "pauseWindowEndTime",
          "type": "uint256"
        },
        {
          "internalType": "uint256",
          "name": "bufferPeriodEndTime",
          "type": "uint256"
        }
      ],
      "stateMutability": "view",
      "type": "function"
    },
    {
      "inputs": [],
      "name": "getPoolId",
      "outputs": [
        {
          "internalType": "bytes32",
          "name": "",
          "type": "bytes32"
        }
      ],
      "stateMutability": "view",
      "type": "function"
    },
    {
      "inputs": [],
      "name": "getProtocolFeesCollector",
      "outputs": [
        {
          "internalType": "contract IProtocolFeesCollector",
          "name": "",
          "type": "address"
        }
      ],
      "stateMutability": "view",
      "type": "function"
    },
    {
      "inputs": [],
      "name": "getRate",
      "outputs": [
        {
          "internalType": "uint256",
          "name": "",
          "type": "uint256"
        }
      ],
      "stateMutability": "view",
      "type": "function"
    },
    {
      "inputs": [],
      "name": "getScalingFactors",
      "outputs": [
        {
          "internalType": "uint256[]",
          "name": "",
          "type": "uint256[]"
        }
      ],
      "stateMutability": "view",
      "type": "function"
    },
    {
      "inputs": [],
      "name": "getSwapFeePercentage",
      "outputs": [
        {
          "internalType": "uint256",
          "name": "",
          "type": "uint256"
        }
      ],
      "stateMutability": "view",
      "type": "function"
    },
    {
      "inputs": [],
      "name": "getTargets",
      "outputs": [
        {
          "internalType": "uint256",
          "name": "lowerTarget",
          "type": "uint256"
        },
        {
          "internalType": "uint256",
          "name": "upperTarget",
          "type": "uint256"
        }
      ],
      "stateMutability": "view",
      "type": "function"
    },
    {
      "inputs": [],
      "name": "getVault",
      "outputs": [
        {
          "internalType": "contract IVault",
          "name": "",
          "type": "address"
        }
      ],
      "stateMutability": "view",
      "type": "function"
    },
    {
      "inputs": [],
      "name": "getVirtualSupply",
      "outputs": [
        {
          "internalType": "uint256",
          "name": "",
          "type": "uint256"
        }
      ],
      "stateMutability": "view",
      "type": "function"
    },
    {
      "inputs": [],
      "name": "getWrappedIndex",
      "outputs": [
        {
          "internalType": "uint256",
          "name": "",
          "type": "uint256"
        }
      ],
      "stateMutability": "view",
      "type": "function"
    },
    {
      "inputs": [],
      "name": "getWrappedToken",
      "outputs": [
        {
          "internalType": "contract IERC20",
          "name": "",
          "type": "address"
        }
      ],
      "stateMutability": "view",
      "type": "function"
    },
    {
      "inputs": [],
      "name": "getWrappedTokenRate",
      "outputs": [
        {
          "internalType": "uint256",
          "name": "",
          "type": "uint256"
        }
      ],
      "stateMutability": "view",
      "type": "function"
    },
    {
      "inputs": [],
      "name": "inRecoveryMode",
      "outputs": [
        {
          "internalType": "bool",
          "name": "",
          "type": "bool"
        }
      ],
      "stateMutability": "view",
      "type": "function"
    },
    {
      "inputs": [
        {
          "internalType": "address",
          "name": "spender",
          "type": "address"
        },
        {
          "internalType": "uint256",
          "name": "addedValue",
          "type": "uint256"
        }
      ],
      "name": "increaseAllowance",
      "outputs": [
        {
          "internalType": "bool",
          "name": "",
          "type": "bool"
        }
      ],
      "stateMutability": "nonpayable",
      "type": "function"
    },
    {
      "inputs": [],
      "name": "initialize",
      "outputs": [],
      "stateMutability": "nonpayable",
      "type": "function"
    },
    {
      "inputs": [],
      "name": "name",
      "outputs": [
        {
          "internalType": "string",
          "name": "",
          "type": "string"
        }
      ],
      "stateMutability": "view",
      "type": "function"
    },
    {
      "inputs": [
        {
          "internalType": "address",
          "name": "owner",
          "type": "address"
        }
      ],
      "name": "nonces",
      "outputs": [
        {
          "internalType": "uint256",
          "name": "",
          "type": "uint256"
        }
      ],
      "stateMutability": "view",
      "type": "function"
    },
    {
      "inputs": [
        {
          "internalType": "bytes32",
          "name": "poolId",
          "type": "bytes32"
        },
        {
          "internalType": "address",
          "name": "sender",
          "type": "address"
        },
        {
          "internalType": "address",
          "name": "",
          "type": "address"
        },
        {
          "internalType": "uint256[]",
          "name": "balances",
          "type": "uint256[]"
        },
        {
          "internalType": "uint256",
          "name": "",
          "type": "uint256"
        },
        {
          "internalType": "uint256",
          "name": "",
          "type": "uint256"
        },
        {
          "internalType": "bytes",
          "name": "userData",
          "type": "bytes"
        }
      ],
      "name": "onExitPool",
      "outputs": [
        {
          "internalType": "uint256[]",
          "name": "amountsOut",
          "type": "uint256[]"
        },
        {
          "internalType": "uint256[]",
          "name": "dueProtocolFees",
          "type": "uint256[]"
        }
      ],
      "stateMutability": "nonpayable",
      "type": "function"
    },
    {
      "inputs": [
        {
          "internalType": "bytes32",
          "name": "poolId",
          "type": "bytes32"
        },
        {
          "internalType": "address",
          "name": "sender",
          "type": "address"
        },
        {
          "internalType": "address",
          "name": "recipient",
          "type": "address"
        },
        {
          "internalType": "uint256[]",
          "name": "balances",
          "type": "uint256[]"
        },
        {
          "internalType": "uint256",
          "name": "",
          "type": "uint256"
        },
        {
          "internalType": "uint256",
          "name": "",
          "type": "uint256"
        },
        {
          "internalType": "bytes",
          "name": "userData",
          "type": "bytes"
        }
      ],
      "name": "onJoinPool",
      "outputs": [
        {
          "internalType": "uint256[]",
          "name": "amountsIn",
          "type": "uint256[]"
        },
        {
          "internalType": "uint256[]",
          "name": "dueProtocolFees",
          "type": "uint256[]"
        }
      ],
      "stateMutability": "nonpayable",
      "type": "function"
    },
    {
      "inputs": [
        {
          "components": [
            {
              "internalType": "enum IVault.SwapKind",
              "name": "kind",
              "type": "uint8"
            },
            {
              "internalType": "contract IERC20",
              "name": "tokenIn",
              "type": "address"
            },
            {
              "internalType": "contract IERC20",
              "name": "tokenOut",
              "type": "address"
            },
            {
              "internalType": "uint256",
              "name": "amount",
              "type": "uint256"
            },
            {
              "internalType": "bytes32",
              "name": "poolId",
              "type": "bytes32"
            },
            {
              "internalType": "uint256",
              "name": "lastChangeBlock",
              "type": "uint256"
            },
            {
              "internalType": "address",
              "name": "from",
              "type": "address"
            },
            {
              "internalType": "address",
              "name": "to",
              "type": "address"
            },
            {
              "internalType": "bytes",
              "name": "userData",
              "type": "bytes"
            }
          ],
          "internalType": "struct IPoolSwapStructs.SwapRequest",
          "name": "request",
          "type": "tuple"
        },
        {
          "internalType": "uint256[]",
          "name": "balances",
          "type": "uint256[]"
        },
        {
          "internalType": "uint256",
          "name": "indexIn",
          "type": "uint256"
        },
        {
          "internalType": "uint256",
          "name": "indexOut",
          "type": "uint256"
        }
      ],
      "name": "onSwap",
      "outputs": [
        {
          "internalType": "uint256",
          "name": "",
          "type": "uint256"
        }
      ],
      "stateMutability": "nonpayable",
      "type": "function"
    },
    {
      "inputs": [
        {
          "components": [
            {
              "internalType": "enum IVault.SwapKind",
              "name": "kind",
              "type": "uint8"
            },
            {
              "internalType": "contract IERC20",
              "name": "tokenIn",
              "type": "address"
            },
            {
              "internalType": "contract IERC20",
              "name": "tokenOut",
              "type": "address"
            },
            {
              "internalType": "uint256",
              "name": "amount",
              "type": "uint256"
            },
            {
              "internalType": "bytes32",
              "name": "poolId",
              "type": "bytes32"
            },
            {
              "internalType": "uint256",
              "name": "lastChangeBlock",
              "type": "uint256"
            },
            {
              "internalType": "address",
              "name": "from",
              "type": "address"
            },
            {
              "internalType": "address",
              "name": "to",
              "type": "address"
            },
            {
              "internalType": "bytes",
              "name": "userData",
              "type": "bytes"
            }
          ],
          "internalType": "struct IPoolSwapStructs.SwapRequest",
          "name": "request",
          "type": "tuple"
        },
        {
          "internalType": "uint256",
          "name": "balanceTokenIn",
          "type": "uint256"
        },
        {
          "internalType": "uint256",
          "name": "balanceTokenOut",
          "type": "uint256"
        }
      ],
      "name": "onSwap",
      "outputs": [
        {
          "internalType": "uint256",
          "name": "",
          "type": "uint256"
        }
      ],
      "stateMutability": "nonpayable",
      "type": "function"
    },
    {
      "inputs": [],
      "name": "pause",
      "outputs": [],
      "stateMutability": "nonpayable",
      "type": "function"
    },
    {
      "inputs": [
        {
          "internalType": "address",
          "name": "owner",
          "type": "address"
        },
        {
          "internalType": "address",
          "name": "spender",
          "type": "address"
        },
        {
          "internalType": "uint256",
          "name": "value",
          "type": "uint256"
        },
        {
          "internalType": "uint256",
          "name": "deadline",
          "type": "uint256"
        },
        {
          "internalType": "uint8",
          "name": "v",
          "type": "uint8"
        },
        {
          "internalType": "bytes32",
          "name": "r",
          "type": "bytes32"
        },
        {
          "internalType": "bytes32",
          "name": "s",
          "type": "bytes32"
        }
      ],
      "name": "permit",
      "outputs": [],
      "stateMutability": "nonpayable",
      "type": "function"
    },
    {
      "inputs": [
        {
          "internalType": "bytes32",
          "name": "",
          "type": "bytes32"
        },
        {
          "internalType": "address",
          "name": "sender",
          "type": "address"
        },
        {
          "internalType": "address",
          "name": "",
          "type": "address"
        },
        {
          "internalType": "uint256[]",
          "name": "balances",
          "type": "uint256[]"
        },
        {
          "internalType": "uint256",
          "name": "",
          "type": "uint256"
        },
        {
          "internalType": "uint256",
          "name": "",
          "type": "uint256"
        },
        {
          "internalType": "bytes",
          "name": "userData",
          "type": "bytes"
        }
      ],
      "name": "queryExit",
      "outputs": [
        {
          "internalType": "uint256",
          "name": "bptIn",
          "type": "uint256"
        },
        {
          "internalType": "uint256[]",
          "name": "amountsOut",
          "type": "uint256[]"
        }
      ],
      "stateMutability": "nonpayable",
      "type": "function"
    },
    {
      "inputs": [
        {
          "internalType": "bytes32",
          "name": "",
          "type": "bytes32"
        },
        {
          "internalType": "address",
          "name": "sender",
          "type": "address"
        },
        {
          "internalType": "address",
          "name": "",
          "type": "address"
        },
        {
          "internalType": "uint256[]",
          "name": "balances",
          "type": "uint256[]"
        },
        {
          "internalType": "uint256",
          "name": "",
          "type": "uint256"
        },
        {
          "internalType": "uint256",
          "name": "",
          "type": "uint256"
        },
        {
          "internalType": "bytes",
          "name": "userData",
          "type": "bytes"
        }
      ],
      "name": "queryJoin",
      "outputs": [
        {
          "internalType": "uint256",
          "name": "bptOut",
          "type": "uint256"
        },
        {
          "internalType": "uint256[]",
          "name": "amountsIn",
          "type": "uint256[]"
        }
      ],
      "stateMutability": "nonpayable",
      "type": "function"
    },
    {
      "inputs": [
        {
          "internalType": "uint256",
          "name": "swapFeePercentage",
          "type": "uint256"
        }
      ],
      "name": "setSwapFeePercentage",
      "outputs": [],
      "stateMutability": "nonpayable",
      "type": "function"
    },
    {
      "inputs": [
        {
          "internalType": "uint256",
          "name": "newLowerTarget",
          "type": "uint256"
        },
        {
          "internalType": "uint256",
          "name": "newUpperTarget",
          "type": "uint256"
        }
      ],
      "name": "setTargets",
      "outputs": [],
      "stateMutability": "nonpayable",
      "type": "function"
    },
    {
      "inputs": [],
      "name": "symbol",
      "outputs": [
        {
          "internalType": "string",
          "name": "",
          "type": "string"
        }
      ],
      "stateMutability": "view",
      "type": "function"
    },
    {
      "inputs": [],
      "name": "totalSupply",
      "outputs": [
        {
          "internalType": "uint256",
          "name": "",
          "type": "uint256"
        }
      ],
      "stateMutability": "view",
      "type": "function"
    },
    {
      "inputs": [
        {
          "internalType": "address",
          "name": "recipient",
          "type": "address"
        },
        {
          "internalType": "uint256",
          "name": "amount",
          "type": "uint256"
        }
      ],
      "name": "transfer",
      "outputs": [
        {
          "internalType": "bool",
          "name": "",
          "type": "bool"
        }
      ],
      "stateMutability": "nonpayable",
      "type": "function"
    },
    {
      "inputs": [
        {
          "internalType": "address",
          "name": "sender",
          "type": "address"
        },
        {
          "internalType": "address",
          "name": "recipient",
          "type": "address"
        },
        {
          "internalType": "uint256",
          "name": "amount",
          "type": "uint256"
        }
      ],
      "name": "transferFrom",
      "outputs": [
        {
          "internalType": "bool",
          "name": "",
          "type": "bool"
        }
      ],
      "stateMutability": "nonpayable",
      "type": "function"
    },
    {
      "inputs": [],
      "name": "unpause",
      "outputs": [],
      "stateMutability": "nonpayable",
      "type": "function"
    },
    {
      "inputs": [],
      "name": "version",
      "outputs": [
        {
          "internalType": "string",
          "name": "",
          "type": "string"
        }
      ],
      "stateMutability": "view",
      "type": "function"
    }
  ],
  "bytecode": "0x6102c06040523480156200001257600080fd5b5060405162005a5a38038062005a5a833981016040819052620000359162000e00565b6101608101518151602083015160408401516060850151608086015160c0870151620000618862000476565b60e08901516101008a01516101208b01516101408c01518a6200009e8160006200008c8c8c620004ff565b89620005b060201b6200154f1760201c565b8b8b86868686838387878b86336001600160a01b031660001b8480604051806040016040528060018152602001603160f81b81525087878160039080519060200190620000ed92919062000c89565b5080516200010390600490602084019062000c89565b50506005805460ff19166012179055508151602092830120608052805191012060a052507f8b73c3c69bb8fe3d512ecc4cf759cc79239f7b179b0ffacaa9a75d522b39400f60c05260e0526001600160601b0319606091821b81166101005291901b166101205250620001829050630163f5008311156101946200077e565b620001966276a7008211156101956200077e565b4291909101610140819052016101605260601b6001600160601b031916610180526101a08690526040805163d2946c2b60e01b815290516001600160a01b0389169163d2946c2b916004808301926020929190829003018186803b158015620001fe57600080fd5b505afa15801562000213573d6000803e3d6000fd5b505050506040513d601f19601f8201168201806040525081019062000239919062000dc1565b6001600160a01b03166101c0816001600160a01b031660601b8152505050505050505050876001600160a01b03166101e0816001600160a01b031660601b81525050866001600160a01b0316610200816001600160a01b031660601b81525050866001600160a01b0316886001600160a01b031610620002bb576002620002be565b60015b60ff16610220526001600160a01b0380881690891610620002e1576001620002e4565b60025b60ff1661024052620002f68862000793565b61026052620003058762000793565b610280526000620003188982896200083f565b620003238562000939565b5050505050505050505050506200034081620009c860201b60201c565b50620003e581608001516001600160a01b0316634800d97f6040518163ffffffff1660e01b815260040160206040518083038186803b1580156200038357600080fd5b505afa15801562000398573d6000803e3d6000fd5b505050506040513d601f19601f82011682018060405250810190620003be919062000dc1565b6001600160a01b031682606001516001600160a01b0316146102086200077e60201b60201c565b80608001516001600160a01b031663b4dcfc776040518163ffffffff1660e01b815260040160206040518083038186803b1580156200042357600080fd5b505afa15801562000438573d6000803e3d6000fd5b505050506040513d601f19601f820116820180604052508101906200045e919062000dc1565b60601b6001600160601b0319166102a052506200107d565b6040805160028082526060808301845292839291906020830190803683370190505090508260a0015181600081518110620004ad57fe5b60200260200101906001600160a01b031690816001600160a01b0316815250508260a0015181600181518110620004e057fe5b6001600160a01b03909216602092830291909101909101529050919050565b60408051600280825260608281019093526001600160a01b03848116908616109183918160200160208202803683370190505090508162000541578362000543565b845b816000815181106200055157fe5b60200260200101906001600160a01b031690816001600160a01b031681525050816200057e578462000580565b835b816001815181106200058e57fe5b6001600160a01b03909216602092830291909101909101529150505b92915050565b6000620005c883620009dd60201b620017041760201c565b606083516001016001600160401b0381118015620005e557600080fd5b5060405190808252806020026020018201604052801562000610578160200160208202803683370190505b50905030816000815181106200062257fe5b60200260200101906001600160a01b031690816001600160a01b03168152505060005b845181101562000695578481815181106200065c57fe5b60200260200101518282600101815181106200067457fe5b6001600160a01b039092166020928302919091019091015260010162000645565b50606083516001016001600160401b0381118015620006b357600080fd5b50604051908082528060200260200182016040528015620006de578160200160208202803683370190505b509050600081600081518110620006f157fe5b60200260200101906001600160a01b031690816001600160a01b03168152505060005b845181101562000764578481815181106200072b57fe5b60200260200101518282600101815181106200074357fe5b6001600160a01b039092166020928302919091019091015260010162000714565b506200077387878484620009e9565b979650505050505050565b816200078f576200078f8162000ae3565b5050565b600080826001600160a01b031663313ce5676040518163ffffffff1660e01b815260040160206040518083038186803b158015620007d057600080fd5b505afa158015620007e5573d6000803e3d6000fd5b505050506040513d601f19601f820116820180604052508101906200080b919062000f57565b60ff16905060006200082a60128362000af860201b620017121760201c565b600a0a670de0b6b3a764000002949350505050565b620008508183111561014c6200077e565b6200086d6b0de0b6b39983494c589c000082111561014d6200077e565b62000887670de0b6b3a7640000825b06156101616200077e565b6200089b670de0b6b3a7640000836200087c565b620008ea670de0b6b3a7640000820460406020620008d4670de0b6b3a7640000876008549190046020806200172862000b10821b17811c565b62000b1060201b6200172817909392919060201c565b6008556040516001600160a01b038416907fd0e27a0d0c2cb09280fa5e4487315455b32afcdcf012dc35b6ef2a0e3c4d1280906200092c908590859062001026565b60405180910390a2505050565b6200094e64e8d4a5100082101560cb6200077e565b6200096667016345785d8a000082111560ca6200077e565b620009888160c0603f60085462000b1060201b6200172817909392919060201c565b6008556040517fa9ba3ffe0b6c366b81232caab38605a0699ad5398d6cce76f91ee809e322dafc90620009bd9083906200101d565b60405180910390a150565b80516200078f90600990602084019062000c89565b806200078f8162000b35565b600080856001600160a01b03166309b2760f866040518263ffffffff1660e01b815260040162000a1a919062001008565b602060405180830381600087803b15801562000a3557600080fd5b505af115801562000a4a573d6000803e3d6000fd5b505050506040513d601f19601f8201168201806040525081019062000a70919062000de7565b604051633354e3e960e11b81529091506001600160a01b038716906366a9c7d29062000aa59084908890889060040162000f7a565b600060405180830381600087803b15801562000ac057600080fd5b505af115801562000ad5573d6000803e3d6000fd5b509298975050505050505050565b62000af5816210905360ea1b62000bc1565b50565b600062000b0a8383111560016200077e565b50900390565b600062000b1f84848462000c22565b506001901b60001901811b1992909216911b1790565b60028151101562000b465762000af5565b60008160008151811062000b5657fe5b602002602001015190506000600190505b825181101562000bbc57600083828151811062000b8057fe5b6020026020010151905062000bb1816001600160a01b0316846001600160a01b03161060656200077e60201b60201c565b915060010162000b67565b505050565b62461bcd60e51b600090815260206004526007602452600a808404818106603090810160081b958390069590950190829004918206850160101b01602363ffffff0060e086901c160160181b0190930160c81b60445260e882901c90606490fd5b62000c33610100831060646200077e565b62000c6c6001821015801562000c64575062000c6060ff846101000362000c7d60201b6200174b1760201c565b8211155b60646200077e565b62000bbc83821c156101b46200077e565b80820390821102900390565b828054600181600116156101000203166002900490600052602060002090601f016020900481019282601f1062000ccc57805160ff191683800117855562000cfc565b8280016001018555821562000cfc579182015b8281111562000cfc57825182559160200191906001019062000cdf565b5062000d0a92915062000d0e565b5090565b5b8082111562000d0a576000815560010162000d0f565b8051620005aa8162001067565b600082601f83011262000d43578081fd5b81516001600160401b0381111562000d59578182fd5b602062000d6f601f8301601f1916820162001034565b9250818352848183860101111562000d8657600080fd5b60005b8281101562000da657848101820151848201830152810162000d89565b8281111562000db85760008284860101525b50505092915050565b60006020828403121562000dd3578081fd5b815162000de08162001067565b9392505050565b60006020828403121562000df9578081fd5b5051919050565b60006020828403121562000e12578081fd5b81516001600160401b038082111562000e29578283fd5b818401915061018080838703121562000e40578384fd5b62000e4b8162001034565b905062000e59868462000d25565b815260208301518281111562000e6d578485fd5b62000e7b8782860162000d32565b60208301525060408301518281111562000e93578485fd5b62000ea18782860162000d32565b60408301525062000eb6866060850162000d25565b606082015262000eca866080850162000d25565b608082015262000ede8660a0850162000d25565b60a082015260c083015160c082015260e083015160e082015261010080840151818301525061012080840151818301525061014062000f208782860162000d25565b90820152610160838101518381111562000f38578586fd5b62000f468882870162000d32565b918301919091525095945050505050565b60006020828403121562000f69578081fd5b815160ff8116811462000de0578182fd5b60006060820185835260206060818501528186518084526080860191508288019350845b8181101562000fc65762000fb385516200105b565b8352938301939183019160010162000f9e565b505084810360408601528551808252908201925081860190845b8181101562000ad55762000ff583516200105b565b8552938301939183019160010162000fe0565b60208101600383106200101757fe5b91905290565b90815260200190565b918252602082015260400190565b6040518181016001600160401b03811182821017156200105357600080fd5b604052919050565b6001600160a01b031690565b6001600160a01b038116811462000af557600080fd5b60805160a05160c05160e0516101005160601c6101205160601c61014051610160516101805160601c6101a0516101c05160601c6101e05160601c6102005160601c610220516102405161026051610280516102a05160601c614843620012176000398061196e52508061082d5250806107c95280612bf552508061075152806108555280610c93528061307052806131f95280613331528061343c52806135b952806136f15250806107eb52806109fe5280610c59528061303c528061317e52806131c552806132bb52806132fd528061340852806135435280613585528061367b52806136bd525080611523528061282852806128f45280612c1b5280612ff1528061310a52806133be52806134cf525080610a2252806111305280611bee5280611c8d52806127df52806128ab5280612bba5280612fb252806130b45280613247528061337f528061348052806136075250806112f752508061098b52505080611948525080611924525080611013525080610fef525080610f9f52508061251c52508061255e52508061253d52506148436000f3fe608060405234801561001057600080fd5b506004361061034c5760003560e01c80638129fc1c116101bd578063aaabadc5116100f9578063d505accf116100a2578063de82cd341161007c578063de82cd3414610621578063ed24911d14610629578063f174e24114610631578063f5431aa8146106395761034c565b8063d505accf146105e8578063d5c096c4146105fb578063dd62ed3e1461060e5761034c565b8063b7b814fc116100d3578063b7b814fc146105d0578063d28d8852146105d8578063d2946c2b146105e05761034c565b8063aaabadc5146105b8578063b09f1266146105c0578063b35056b8146105c85761034c565b80638d928af8116101665780639d2c110c116101405780639d2c110c1461056c5780639f11080e1461057f578063a457c2d714610592578063a9059cbb146105a55761034c565b80638d928af81461054957806390193b7c1461055157806395d89b41146105645761034c565b8063851c1bb311610197578063851c1bb31461052e57806387ec681714610490578063893d20e8146105415761034c565b80638129fc1c1461051657806382687a561461051e5780638456cb59146105265761034c565b8063395093511161028c57806355c6762811610235578063679aefce1161020f578063679aefce146104c757806370a08231146104cf57806374f3b009146104e25780637ecebe00146105035761034c565b806355c67628146104885780636028bfd41461049057806363fe3b56146104b15761034c565b80634de046d5116102665780634de046d51461046357806354a844ba1461047857806354fd4d50146104805761034c565b806339509351146104405780633f4ba83a146104535780634d64cd741461045b5761034c565b80631dd746ea116102f957806332424aa3116102d357806332424aa3146104135780633644e5151461041b57806338e9922e1461042357806338fff2d0146104385761034c565b80631dd746ea146103d657806323b872dd146103eb578063313ce567146103fe5761034c565b806316b8d6ff1161032a57806316b8d6ff146103af57806318160ddd146103b75780631c0de051146103bf5761034c565b806301ec954a1461035157806306fdde031461037a578063095ea7b31461038f575b600080fd5b61036461035f3660046141f2565b610641565b60405161037191906144de565b60405180910390f35b6103826106a1565b6040516103719190614730565b6103a261039d366004613fc4565b610738565b60405161037191906144bb565b61036461074f565b610364610773565b6103c7610779565b604051610371939291906144c6565b6103de6107a2565b6040516103719190614483565b6103a26103f9366004613f14565b6108b0565b610406610926565b6040516103719190614722565b61040661092f565b610364610938565b6104366104313660046142af565b610947565b005b610364610989565b6103a261044e366004613fc4565b6109ad565b6104366109e8565b6103646109fc565b61046b610a20565b604051610371919061446f565b610436610a44565b610382610a98565b610364610af9565b6104a361049e3660046140f3565b610b0c565b604051610371929190614743565b6104b9610b2a565b60405161037192919061475c565b610364610b68565b6103646104dd366004613ec0565b610cfd565b6104f56104f03660046140f3565b610d1c565b604051610371929190614496565b610364610511366004613ec0565b610dde565b610436610de9565b610364610f84565b610436610f89565b61036461053c366004614196565b610f9b565b61046b610fed565b61046b611011565b61036461055f366004613ec0565b611035565b610382611050565b61036461057a366004614263565b6110b1565b61043661058d3660046142c7565b6110ea565b6103a26105a0366004613fc4565b61115c565b6103a26105b3366004613fc4565b61119a565b61046b6111a7565b6103826111b1565b6103a261123f565b610436611250565b61038261129a565b61046b6112f5565b6104366105f6366004613f54565b611319565b6104f56106093660046140f3565b61139a565b61036461061c366004613edc565b611431565b61036461146e565b610364611517565b61046b611521565b610364611545565b6000846080015161066e610653611011565b6001600160a01b0316336001600160a01b03161460cd611757565b610683610679610989565b82146101f4611757565b61068b611765565b61069786868686611778565b9695505050505050565b60038054604080516020601f600260001961010060018816150201909516949094049384018190048102820181019092528281526060939092909183018282801561072d5780601f106107025761010080835404028352916020019161072d565b820191906000526020600020905b81548152906001019060200180831161071057829003601f168201915b505050505090505b90565b600061074533848461189d565b5060015b92915050565b7f000000000000000000000000000000000000000000000000000000000000000090565b60025490565b6000806000610786611905565b159250610791611922565b915061079b611946565b9050909192565b604080516003808252608082019092526060918291906020820183803683370190505090507f0000000000000000000000000000000000000000000000000000000000000000817f00000000000000000000000000000000000000000000000000000000000000008151811061081457fe5b60200260200101818152505061085261082b61196a565b7f000000000000000000000000000000000000000000000000000000000000000090611a58565b817f00000000000000000000000000000000000000000000000000000000000000008151811061087e57fe5b602002602001018181525050670de0b6b3a7640000816000815181106108a057fe5b6020908102919091010152905090565b6000806108bd8533611431565b90506108e1336001600160a01b03871614806108d95750838210155b61019e611757565b6108ec858585611a90565b336001600160a01b0386161480159061090757506000198114155b1561091957610919853385840361189d565b60019150505b9392505050565b60055460ff1690565b60055460ff1681565b6000610942611517565b905090565b61094f611b70565b610957611bb9565b600080610962610b2a565b9150915061097b6109738383611bc9565b61014f611757565b61098483611cd0565b505050565b7f000000000000000000000000000000000000000000000000000000000000000090565b3360008181526001602090815260408083206001600160a01b038716845290915281205490916107459185906109e39086611d48565b61189d565b6109f0611b70565b6109fa6000611d5a565b565b7f000000000000000000000000000000000000000000000000000000000000000090565b7f000000000000000000000000000000000000000000000000000000000000000090565b610a4c611b70565b610a54611deb565b610a5e6001611dff565b7feff3d4d215b42bf0960be9c6d5e05c22cba4df6627a3a523e2acee733b5854c86001604051610a8e91906144bb565b60405180910390a1565b60098054604080516020601f600260001961010060018816150201909516949094049384018190048102820181019092528281526060939092909183018282801561072d5780601f106107025761010080835404028352916020019161072d565b6008546000906109429060c0603f611e41565b60006060610b1e888785611e50611e67565b97509795505050505050565b6008546000908190670de0b6b3a7640000610b4782602080611e41565b029250670de0b6b3a7640000610b608260406020611e41565b029150509091565b600080610b73610989565b90506060610b7f611011565b6001600160a01b031663f94d4668836040518263ffffffff1660e01b8152600401610baa91906144de565b60006040518083038186803b158015610bc257600080fd5b505afa158015610bd6573d6000803e3d6000fd5b505050506040513d6000823e601f3d908101601f19168201604052610bfe9190810190613fef565b50915050610c1381610c0e6107a2565b611fce565b600080610c1e610b2a565b91509150610c2a613c61565b6040518060600160405280610c3d610af9565b81526020018481526020018381525090506000610cc9610c90867f000000000000000000000000000000000000000000000000000000000000000081518110610c8257fe5b602002602001015184612037565b867f000000000000000000000000000000000000000000000000000000000000000081518110610cbc57fe5b6020026020010151612098565b9050610cf2610ceb86600081518110610cde57fe5b60200260200101516120a4565b82906120b8565b965050505050505090565b6001600160a01b0381166000908152602081905260409020545b919050565b60608088610d2b610653611011565b610d36610679610989565b6000610d418561210f565b15610d6957610d4e61213e565b610d6088610d5a610773565b87612151565b94509050610d81565b610d71611765565b610d7c8a8987611e50565b945090505b610d8b8a82612247565b835167ffffffffffffffff81118015610da357600080fd5b50604051908082528060200260200182016040528015610dcd578160200160208202803683370190505b509250505097509795505050505050565b600061074982611035565b6000610df3610989565b90506060610dff611011565b6001600160a01b031663f94d4668836040518263ffffffff1660e01b8152600401610e2a91906144de565b60006040518083038186803b158015610e4257600080fd5b505afa158015610e56573d6000803e3d6000fd5b505050506040513d6000823e601f3d908101601f19168201604052610e7e9190810190613fef565b505060408051600380825260808201909252919250606091906020820183803683370190505090506dffffffffffffffffffffffffffff81600081518110610ec257fe5b602002602001018181525050610ed6613c82565b6040518060800160405280610eea85610735565b8152602001838152602001604051806020016040528060008152508152602001600015158152509050610f1b611011565b6001600160a01b031663b95cac28853030856040518563ffffffff1660e01b8152600401610f4c9493929190614506565b600060405180830381600087803b158015610f6657600080fd5b505af1158015610f7a573d6000803e3d6000fd5b5050505050505050565b600090565b610f91611b70565b6109fa6001611d5a565b60007f000000000000000000000000000000000000000000000000000000000000000082604051602001610fd09291906143dd565b604051602081830303815290604052805190602001209050919050565b7f000000000000000000000000000000000000000000000000000000000000000090565b7f000000000000000000000000000000000000000000000000000000000000000090565b6001600160a01b031660009081526006602052604090205490565b60048054604080516020601f600260001961010060018816150201909516949094049384018190048102820181019092528281526060939092909183018282801561072d5780601f106107025761010080835404028352916020019161072d565b600083608001516110c3610653611011565b6110ce610679610989565b6110d6611765565b6110e1858585612251565b95945050505050565b6110f2611b70565b6110fa611bb9565b600080611105610b2a565b915091506111166109738383611bc9565b61112b6111238585611bc9565b610157611757565b6111567f0000000000000000000000000000000000000000000000000000000000000000858561225e565b50505050565b6000806111693385611431565b90508083106111835761117e3385600061189d565b611190565b611190338585840361189d565b5060019392505050565b6000610745338484611a90565b6000610942612334565b6004805460408051602060026001851615610100026000190190941693909304601f810184900484028201840190925281815292918301828280156112375780601f1061120c57610100808354040283529160200191611237565b820191906000526020600020905b81548152906001019060200180831161121a57829003601f168201915b505050505081565b6008546000906109429060ff6123ae565b611258611b70565b61126061213e565b61126a6000611dff565b7feff3d4d215b42bf0960be9c6d5e05c22cba4df6627a3a523e2acee733b5854c86000604051610a8e91906144bb565b6003805460408051602060026001851615610100026000190190941693909304601f810184900484028201840190925281815292918301828280156112375780601f1061120c57610100808354040283529160200191611237565b7f000000000000000000000000000000000000000000000000000000000000000090565b60007f6e71edae12b1b97f4d1f60370fef10105fa2faae0126114a169c64845d6126c98888886113488c611035565b8960405160200161135e969594939291906145f3565b60405160208183030381529060405280519060200120905061138f88826113868787876123b5565b886101f86123f4565b610f7a88888861189d565b606080886113a9610653611011565b6113b4610679610989565b60006113be611765565b6113c6610773565b611418576113d58a8a8761244b565b945090506113ee6113e4610f84565b82101560cc611757565b61140060006113fb610f84565b6124e3565b6114138961140c610f84565b83036124e3565b610d8b565b6114238a8987611e50565b94509050610d8b89826124e3565b600061143b611011565b6001600160a01b0316826001600160a01b0316141561145d5750600019610749565b61146783836124ed565b9050610749565b600080600061147b611011565b6001600160a01b031663b05f8e48611491610989565b306040518363ffffffff1660e01b81526004016114af9291906146d9565b60806040518083038186803b1580156114c757600080fd5b505afa1580156114db573d6000803e3d6000fd5b505050506040513d601f19601f820116820180604052508101906114ff91906142e8565b5050915091506115108183016120a4565b9250505090565b6000610942612518565b7f000000000000000000000000000000000000000000000000000000000000000090565b600061094261196a565b600061155a83611704565b6060835160010167ffffffffffffffff8111801561157757600080fd5b506040519080825280602002602001820160405280156115a1578160200160208202803683370190505b50905030816000815181106115b257fe5b60200260200101906001600160a01b031690816001600160a01b03168152505060005b8451811015611621578481815181106115ea57fe5b602002602001015182826001018151811061160157fe5b6001600160a01b03909216602092830291909101909101526001016115d5565b506060835160010167ffffffffffffffff8111801561163f57600080fd5b50604051908082528060200260200182016040528015611669578160200160208202803683370190505b50905060008160008151811061167b57fe5b60200260200101906001600160a01b031690816001600160a01b03168152505060005b84518110156116ea578481815181106116b357fe5b60200260200101518282600101815181106116ca57fe5b6001600160a01b039092166020928302919091019091015260010161169e565b506116f7878784846125b5565b925050505b949350505050565b8061170e816126be565b5050565b6000611722838311156001611757565b50900390565b6000611735848484612737565b506001901b60001901811b1992909216911b1790565b80820390821102900390565b8161170e5761170e8161277d565b6109fa611770611905565b610192611757565b600061179460038410801561178d5750600383105b6064611757565b606061179e6107a2565b90506117aa8582611fce565b6000806117b5610b2a565b915091506117c1613c61565b60405180606001604052806117d4610af9565b81526020810185905260400183905290506000895160018111156117f457fe5b14156118585761181b896060015185898151811061180e57fe5b60200260200101516127a7565b60608a0152600061182d8a8a846127b3565b905061184c8186898151811061183f57fe5b602002602001015161287a565b955050505050506116fc565b61186c896060015185888151811061180e57fe5b60608a0152600061187e8a8a84612886565b905061184c81868a8151811061189057fe5b602002602001015161293b565b6001600160a01b0380841660008181526001602090815260408083209487168084529490915290819020849055517f8c5be1e5ebec7d5bd14f71427d1e84f3dd0314c0f7b2291e5b200ac8c7c3b925906118f89085906144de565b60405180910390a3505050565b600061190f611946565b42118061094257505060075460ff161590565b7f000000000000000000000000000000000000000000000000000000000000000090565b7f000000000000000000000000000000000000000000000000000000000000000090565b60007f00000000000000000000000000000000000000000000000000000000000000006001600160a01b031663d15e00536119a3610a20565b6040518263ffffffff1660e01b81526004016119bf919061446f565b60206040518083038186803b1580156119d757600080fd5b505afa925050508015611a07575060408051601f3d908101601f19168201909252611a04918101906140db565b60015b611a4a573d808015611a35576040519150601f19603f3d011682016040523d82523d6000602084013e611a3a565b606091505b50611a4481612947565b50610735565b633b9aca0090049050610735565b6000828202611a7c841580611a75575083858381611a7257fe5b04145b6003611757565b670de0b6b3a7640000815b04949350505050565b611aa76001600160a01b0384161515610198611757565b611abe6001600160a01b0383161515610199611757565b611ac9838383610984565b6001600160a01b038316600090815260208190526040902054611aef90826101a06129ce565b6001600160a01b038085166000908152602081905260408082209390935590841681522054611b1e9082611d48565b6001600160a01b0380841660008181526020819052604090819020939093559151908516907fddf252ad1be2c89b69c2b068fc378daa952ba7f163c4a11628f55a4df523b3ef906118f89085906144de565b6000611b9f6000357fffffffff0000000000000000000000000000000000000000000000000000000016610f9b565b9050611bb6611bae82336129e4565b610191611757565b50565b6109fa611bc4611011565b612acd565b6000806000611bd6611011565b6001600160a01b031663b05f8e48611bec610989565b7f00000000000000000000000000000000000000000000000000000000000000006040518363ffffffff1660e01b8152600401611c2a9291906146d9565b60806040518083038186803b158015611c4257600080fd5b505afa158015611c56573d6000803e3d6000fd5b505050506040513d601f19601f82011682018060405250810190611c7a91906142e8565b5050915091506000611cb6828401611cb17f0000000000000000000000000000000000000000000000000000000000000000612bb6565b6127a7565b905085811015801561069757509390931115949350505050565b611ce364e8d4a5100082101560cb611757565b611cf967016345785d8a000082111560ca611757565b600854611d0a908260c0603f611728565b6008556040517fa9ba3ffe0b6c366b81232caab38605a0699ad5398d6cce76f91ee809e322dafc90611d3d9083906144de565b60405180910390a150565b600082820161091f8482101583611757565b8015611d7a57611d75611d6b611922565b4210610193611757565b611d8f565b611d8f611d85611946565b42106101a9611757565b600780547fffffffffffffffffffffffffffffffffffffffffffffffffffffffffffffff00168215151790556040517f9e3a5e37224532dea67b89face185703738a228a6e8a23dee546960180d3be6490611d3d9083906144bb565b6109fa611df661123f565b156101b5611757565b600854611e0e908260ff612c90565b6008556040517feff3d4d215b42bf0960be9c6d5e05c22cba4df6627a3a523e2acee733b5854c890611d3d9083906144bb565b6001901b6000190191901c1690565b60006060611e5f6103e661277d565b935093915050565b333014611f56576000306001600160a01b0316600036604051611e8b92919061440d565b6000604051808303816000865af19150503d8060008114611ec8576040519150601f19603f3d011682016040523d82523d6000602084013e611ecd565b606091505b505090508060008114611edc57fe5b60046000803e6000517fffffffff00000000000000000000000000000000000000000000000000000000167f43adbafb000000000000000000000000000000000000000000000000000000008114611f38573d6000803e3d6000fd5b506020600460003e604060205260243d03602460403e601c3d016000f35b60006060611f698686868663ffffffff16565b8051601f1982018390526343adbafb7fffffffffffffffffffffffffffffffffffffffffffffffffffffffffffffffc083015291935091506020027fffffffffffffffffffffffffffffffffffffffffffffffffffffffffffffffdc82016044820181fd5b81518151611fdd908290612c9f565b60005b8181101561115657612018848281518110611ff757fe5b602002602001015184838151811061200b57fe5b6020026020010151611a58565b84828151811061202457fe5b6020908102919091010152600101611fe0565b60008160200151831015612070578151602083015160009161205c9186900390611a58565b90506120688482611712565b915050610749565b81604001518311612082575081610749565b8151604083015160009161205c91860390611a58565b600061091f8383611d48565b6000610749826120b2610773565b90611712565b60006120c78215156004611757565b670de0b6b3a764000083026120f98415806120f25750670de0b6b3a76400008583816120ef57fe5b04145b6005611757565b6001836001830304018115150291505092915050565b6000808251118015610749575060ff8016828060200190518101906121349190614328565b60ff161492915050565b6109fa61214961123f565b6101b6611757565b60006060600061216084612cac565b90506060865167ffffffffffffffff8111801561217c57600080fd5b506040519080825280602002602001820160405280156121a6578160200160208202803683370190505b50905060006121b3610f84565b905060006121c6898381518110610cde57fe5b905060006121d48583612cc2565b905060005b8a5181101561223657838114156121f1576000612217565b612217828c838151811061220157fe5b6020026020010151611a5890919063ffffffff16565b85828151811061222357fe5b60209081029190910101526001016121d9565b509399929850919650505050505050565b61170e8282612d02565b600061091f6103e661277d565b61226d8183111561014c611757565b6122886b0de0b6b39983494c589c000082111561014d611757565b6122a0670de0b6b3a7640000825b0615610161611757565b6122b2670de0b6b3a764000083612296565b6122e7670de0b6b3a76400008204604060206122df670de0b6b3a764000087600854919004602080611728565b929190611728565b6008556040516001600160a01b038416907fd0e27a0d0c2cb09280fa5e4487315455b32afcdcf012dc35b6ef2a0e3c4d128090612327908590859061475c565b60405180910390a2505050565b600061233e611011565b6001600160a01b031663aaabadc56040518163ffffffff1660e01b815260040160206040518083038186803b15801561237657600080fd5b505afa15801561238a573d6000803e3d6000fd5b505050506040513d601f19601f8201168201806040525081019061094291906141d6565b1c60011690565b60408051604180825260808201909252606091829190602082018180368337019050509050836020820152826040820152846060820153949350505050565b60006123ff85612dce565b905061241561240f878387612dea565b83611757565b612424428410156101b8611757565b5050506001600160a01b039092166000908152600660205260409020805460010190555050565b600060606124666001600160a01b0386163014610156611757565b61247d6001600160a01b0385163014610156611757565b604080516003808252608082019092526dffffffffffffffffffffffffffff91606091906020820183803683370190505090506dffffffffffffffffffffffffffff816000815181106124cc57fe5b602090810291909101015290969095509350505050565b61170e8282612e99565b6001600160a01b03918216600090815260016020908152604080832093909416825291909152205490565b60007f00000000000000000000000000000000000000000000000000000000000000007f00000000000000000000000000000000000000000000000000000000000000007f0000000000000000000000000000000000000000000000000000000000000000612585612f2c565b3060405160200161259a9594939291906146ad565b60405160208183030381529060405280519060200120905090565b600080856001600160a01b03166309b2760f866040518263ffffffff1660e01b81526004016125e4919061470e565b602060405180830381600087803b1580156125fe57600080fd5b505af1158015612612573d6000803e3d6000fd5b505050506040513d601f19601f8201168201806040525081019061263691906140db565b6040517f66a9c7d20000000000000000000000000000000000000000000000000000000081529091506001600160a01b038716906366a9c7d29061268290849088908890600401614627565b600060405180830381600087803b15801561269c57600080fd5b505af11580156126b0573d6000803e3d6000fd5b509298975050505050505050565b6002815110156126cd57611bb6565b6000816000815181106126dc57fe5b602002602001015190506000600190505b825181101561098457600083828151811061270457fe5b6020026020010151905061272d816001600160a01b0316846001600160a01b0316106065611757565b91506001016126ed565b61274661010083106064611757565b61276e6001821015801561178d575061276460ff846101000361174b565b8211156064611757565b61098483821c156101b4611757565b611bb6817f42414c0000000000000000000000000000000000000000000000000000000000612f30565b600061091f8383611a58565b60208301516000906001600160a01b03163014156127dd576127d6848484612fab565b905061091f565b7f00000000000000000000000000000000000000000000000000000000000000006001600160a01b031684602001516001600160a01b03161415612826576127d6848484613103565b7f00000000000000000000000000000000000000000000000000000000000000006001600160a01b031684602001516001600160a01b0316141561286f576127d6848484613240565b61091f61013561277d565b600061091f8383612cc2565b60408301516000906001600160a01b03163014156128a9576127d6848484613378565b7f00000000000000000000000000000000000000000000000000000000000000006001600160a01b031684604001516001600160a01b031614156128f2576127d68484846134c8565b7f00000000000000000000000000000000000000000000000000000000000000006001600160a01b031684604001516001600160a01b0316141561286f576127d6848484613600565b600061091f83836120b8565b805160208201517fffffffff00000000000000000000000000000000000000000000000000000000167f43adbafb0000000000000000000000000000000000000000000000000000000081147ffa61cc12000000000000000000000000000000000000000000000000000000008214176129c2578160208401fd5b5061170e61016561277d565b60006129dd8484111583611757565b5050900390565b600073ba1ba1ba1ba1ba1ba1ba1ba1ba1ba1ba1ba1ba1b612a03610fed565b6001600160a01b031614158015612a1e5750612a1e83613738565b15612a4657612a2b610fed565b6001600160a01b0316336001600160a01b0316149050610749565b612a4e612334565b6001600160a01b0316639be2a8848484306040518463ffffffff1660e01b8152600401612a7d939291906144e7565b60206040518083038186803b158015612a9557600080fd5b505afa158015612aa9573d6000803e3d6000fd5b505050506040513d601f19601f8201168201806040525081019061146791906140bb565b6060816001600160a01b0316612710630e8e3e8460e01b6000604051602401612af69190614722565b60408051601f198184030181529181526020820180517bffffffffffffffffffffffffffffffffffffffffffffffffffffffff167fffffffff00000000000000000000000000000000000000000000000000000000909416939093179092529051612b61919061441d565b6000604051808303818686fa925050503d8060008114612b9d576040519150601f19603f3d011682016040523d82523d6000602084013e612ba2565b606091505b5091505061170e8151600014610190611757565b60007f00000000000000000000000000000000000000000000000000000000000000006001600160a01b0316826001600160a01b03161415612c1957507f0000000000000000000000000000000000000000000000000000000000000000610d17565b7f00000000000000000000000000000000000000000000000000000000000000006001600160a01b0316826001600160a01b03161415612c6557612c5e61082b61196a565b9050610d17565b6001600160a01b038216301415612c855750670de0b6b3a7640000610d17565b610d1761013561277d565b6001811b1992909216911b1790565b61170e8183146067611757565b60008180602001905181019061091f9190614344565b6000612cd18215156004611757565b670de0b6b3a76400008302612cf98415806120f25750670de0b6b3a76400008583816120ef57fe5b828181611a8757fe5b612d196001600160a01b038316151561019b611757565b612d2582600083610984565b6001600160a01b038216600090815260208190526040902054612d4b90826101b26129ce565b6001600160a01b038316600090815260208190526040902055612d7e612d7982612d73610773565b9061379c565b6137aa565b60006001600160a01b0316826001600160a01b03167fddf252ad1be2c89b69c2b068fc378daa952ba7f163c4a11628f55a4df523b3ef83604051612dc291906144de565b60405180910390a35050565b6000612dd8612518565b82604051602001610fd0929190614439565b6000612dfc82516041146101b9611757565b60208281015160408085015160608601518251600080825295019283905292939092811a91600190612e359089908590889088906146f0565b6020604051602081039080840390855afa158015612e57573d6000803e3d6000fd5b5050604051601f1901519150506001600160a01b03811615801590612e8d5750876001600160a01b0316816001600160a01b0316145b98975050505050505050565b612ea560008383610984565b612eba612d7982612eb4610773565b90611d48565b6001600160a01b038216600090815260208190526040902054612edd9082611d48565b6001600160a01b0383166000818152602081905260408082209390935591519091907fddf252ad1be2c89b69c2b068fc378daa952ba7f163c4a11628f55a4df523b3ef90612dc29085906144de565b4690565b7f08c379a000000000000000000000000000000000000000000000000000000000600090815260206004526007602452600a808404818106603090810160081b958390069590950190829004918206850160101b01602363ffffff0060e086901c160160181b0190930160c81b60445260e882901c90606490fd5b60006130317f00000000000000000000000000000000000000000000000000000000000000006001600160a01b031685604001516001600160a01b0316148061302957507f00000000000000000000000000000000000000000000000000000000000000006001600160a01b031685604001516001600160a01b0316145b610135611757565b6116fc8460600151847f00000000000000000000000000000000000000000000000000000000000000008151811061306557fe5b6020026020010151857f00000000000000000000000000000000000000000000000000000000000000008151811061309957fe5b60200260200101516130b187600081518110610cde57fe5b867f00000000000000000000000000000000000000000000000000000000000000006001600160a01b03168a604001516001600160a01b0316146130f7576137af6130fb565b61380d5b63ffffffff16565b600061315f7f00000000000000000000000000000000000000000000000000000000000000006001600160a01b031685604001516001600160a01b03161480613029575060408501516001600160a01b03163014610135611757565b60408401516001600160a01b031630146131ba576131b58460600151847f0000000000000000000000000000000000000000000000000000000000000000815181106131a757fe5b602002602001015184613876565b6116fc565b6116fc8460600151847f0000000000000000000000000000000000000000000000000000000000000000815181106131ee57fe5b6020026020010151857f00000000000000000000000000000000000000000000000000000000000000008151811061322257fe5b602002602001015161323a87600081518110610cde57fe5b866138a6565b600061329c7f00000000000000000000000000000000000000000000000000000000000000006001600160a01b031685604001516001600160a01b03161480613029575060408501516001600160a01b03163014610135611757565b60408401516001600160a01b031630146132f2576131b58460600151847f0000000000000000000000000000000000000000000000000000000000000000815181106132e457fe5b60200260200101518461390c565b6116fc8460600151847f00000000000000000000000000000000000000000000000000000000000000008151811061332657fe5b6020026020010151857f00000000000000000000000000000000000000000000000000000000000000008151811061335a57fe5b602002602001015161337287600081518110610cde57fe5b8661394c565b60006133fd7f00000000000000000000000000000000000000000000000000000000000000006001600160a01b031685602001516001600160a01b0316148061302957507f00000000000000000000000000000000000000000000000000000000000000006001600160a01b031685602001516001600160a01b031614610135611757565b6116fc8460600151847f00000000000000000000000000000000000000000000000000000000000000008151811061343157fe5b6020026020010151857f00000000000000000000000000000000000000000000000000000000000000008151811061346557fe5b602002602001015161347d87600081518110610cde57fe5b867f00000000000000000000000000000000000000000000000000000000000000006001600160a01b03168a602001516001600160a01b0316146134c3576139b36130fb565b613a0a565b60006135247f00000000000000000000000000000000000000000000000000000000000000006001600160a01b031685602001516001600160a01b03161480613029575060208501516001600160a01b03163014610135611757565b60208401516001600160a01b0316301461357a576131b58460600151847f00000000000000000000000000000000000000000000000000000000000000008151811061356c57fe5b602002602001015184613a74565b6116fc8460600151847f0000000000000000000000000000000000000000000000000000000000000000815181106135ae57fe5b6020026020010151857f0000000000000000000000000000000000000000000000000000000000000000815181106135e257fe5b60200260200101516135fa87600081518110610cde57fe5b86613a9e565b600061365c7f00000000000000000000000000000000000000000000000000000000000000006001600160a01b031685602001516001600160a01b03161480613029575060208501516001600160a01b03163014610135611757565b60208401516001600160a01b031630146136b2576131b58460600151847f0000000000000000000000000000000000000000000000000000000000000000815181106136a457fe5b602002602001015184613aed565b6116fc8460600151847f0000000000000000000000000000000000000000000000000000000000000000815181106136e657fe5b6020026020010151857f00000000000000000000000000000000000000000000000000000000000000008151811061371a57fe5b602002602001015161373287600081518110610cde57fe5b86613b22565b60006137637f9f11080e00000000000000000000000000000000000000000000000000000000610f9b565b82148061074957506137947f38e9922e00000000000000000000000000000000000000000000000000000000610f9b565b909114919050565b600061091f838360016129ce565b600255565b6000806137bc8684612037565b905060006137ca8287612098565b905060006137d8868a611712565b905060006137f3846120b26137ed8587613b76565b8a613b90565b90506137ff8882611712565b9a9950505050505050505050565b60008061381a8684612037565b905060006138288287612098565b9050600061383f613839838b613b76565b87613bb1565b9050600061384d8483611712565b9050600061385b8288613bd1565b90506138678a82611712565b9b9a5050505050505050505050565b6000806138838484612037565b9050600061389a6138948688611d48565b85612037565b90506106978183611712565b6000826138be576138b78683612037565b90506110e1565b60006138ca8684612037565b905060006138db613894888a611d48565b905060006138e98284611712565b905060006138f78489612098565b90506137ff6139068884613b76565b82613bb1565b6000806139198484612037565b905060006139278287611712565b905060006139358286613bd1565b90506139418682611712565b979650505050505050565b60008261395a5750846110e1565b60006139668684612037565b905060006139748287612098565b90506000613982878a611d48565b905060006139908483612098565b905060006139a76139a18984613b76565b85613bb1565b90506138678189611712565b6000826139c15750846110e1565b60006139cd8684612037565b905060006139db8287612098565b905060006139e9868a611d48565b905060006139fe846120b26137ed8587613b76565b90506137ff8189611712565b600082613a1b576138b78683613bd1565b6000613a278684612037565b90506000613a358287612098565b90506000613a4c613a46838b613b76565b87613b90565b90506000613a5a8483611d48565b90506000613a688288613bd1565b9050613867818b611712565b600080613a818484612037565b90506000613a926138948688611712565b90506106978282611712565b600080613aab8684612037565b90506000613abc613894888a611712565b90506000613aca8383611712565b90506000613ad88489612098565b90506137ff613ae78884613b76565b82613b90565b600080613afa8484612037565b90506000613b088287611d48565b90506000613b168286613bd1565b90506139418187611712565b600080613b2f8684612037565b90506000613b3d8287612098565b90506000613b4b878a611712565b90506000613b598483612098565b90506000613b6a6139a18984613b76565b90506138678882611712565b600082820261091f841580611a75575083858381611a7257fe5b6000613b9f8215156004611757565b50811515600019909201046001010290565b6000613bc08215156004611757565b818381613bc957fe5b049392505050565b60008160200151831015613c1a57815161146790613bf890670de0b6b3a764000090611d48565b60208401518451613c1491613c0d9190611a58565b8690611d48565b90612cc2565b81604001518311613c2c575081610749565b815161146790613c4590670de0b6b3a764000090611712565b60408401518451613c1491613c5a9190611a58565b8690611712565b60405180606001604052806000815260200160008152602001600081525090565b60405180608001604052806060815260200160608152602001606081526020016000151581525090565b8035610749816147e9565b600082601f830112613cc7578081fd5b8135613cda613cd582614791565b61476a565b818152915060208083019084810181840286018201871015613cfb57600080fd5b60005b84811015613d1a57813584529282019290820190600101613cfe565b505050505092915050565b600082601f830112613d35578081fd5b8151613d43613cd582614791565b818152915060208083019084810181840286018201871015613d6457600080fd5b60005b84811015613d1a57815184529282019290820190600101613d67565b600082601f830112613d93578081fd5b813567ffffffffffffffff811115613da9578182fd5b613dbc6020601f19601f8401160161476a565b9150808252836020828501011115613dd357600080fd5b8060208401602084013760009082016020015292915050565b80356002811061074957600080fd5b6000610120808385031215613e0e578182fd5b613e178161476a565b915050613e248383613dec565b8152613e338360208401613cac565b6020820152613e458360408401613cac565b6040820152606082013560608201526080820135608082015260a082013560a0820152613e758360c08401613cac565b60c0820152613e878360e08401613cac565b60e08201526101008083013567ffffffffffffffff811115613ea857600080fd5b613eb485828601613d83565b82840152505092915050565b600060208284031215613ed1578081fd5b813561091f816147e9565b60008060408385031215613eee578081fd5b8235613ef9816147e9565b91506020830135613f09816147e9565b809150509250929050565b600080600060608486031215613f28578081fd5b8335613f33816147e9565b92506020840135613f43816147e9565b929592945050506040919091013590565b600080600080600080600060e0888a031215613f6e578283fd5b8735613f79816147e9565b96506020880135613f89816147e9565b955060408801359450606088013593506080880135613fa7816147fe565b9699959850939692959460a0840135945060c09093013592915050565b60008060408385031215613fd6578182fd5b8235613fe1816147e9565b946020939093013593505050565b600080600060608486031215614003578081fd5b835167ffffffffffffffff8082111561401a578283fd5b818601915086601f83011261402d578283fd5b815161403b613cd582614791565b80828252602080830192508086018b82838702890101111561405b578788fd5b8796505b84871015614086578051614072816147e9565b84526001969096019592810192810161405f565b50890151909750935050508082111561409d578283fd5b506140aa86828701613d25565b925050604084015190509250925092565b6000602082840312156140cc578081fd5b8151801515811461091f578182fd5b6000602082840312156140ec578081fd5b5051919050565b600080600080600080600060e0888a03121561410d578081fd5b87359650602088013561411f816147e9565b9550604088013561412f816147e9565b9450606088013567ffffffffffffffff8082111561414b578283fd5b6141578b838c01613cb7565b955060808a0135945060a08a0135935060c08a013591508082111561417a578283fd5b506141878a828b01613d83565b91505092959891949750929550565b6000602082840312156141a7578081fd5b81357fffffffff000000000000000000000000000000000000000000000000000000008116811461091f578182fd5b6000602082840312156141e7578081fd5b815161091f816147e9565b60008060008060808587031215614207578182fd5b843567ffffffffffffffff8082111561421e578384fd5b61422a88838901613dfb565b9550602087013591508082111561423f578384fd5b5061424c87828801613cb7565b949794965050505060408301359260600135919050565b600080600060608486031215614277578081fd5b833567ffffffffffffffff81111561428d578182fd5b61429986828701613dfb565b9660208601359650604090950135949350505050565b6000602082840312156142c0578081fd5b5035919050565b600080604083850312156142d9578182fd5b50508035926020909101359150565b600080600080608085870312156142fd578182fd5b845193506020850151925060408501519150606085015161431d816147e9565b939692955090935050565b600060208284031215614339578081fd5b815161091f816147fe565b60008060408385031215614356578182fd5b8251614361816147fe565b6020939093015192949293505050565b6000815180845260208085019450808401835b838110156143a057815187529582019590820190600101614384565b509495945050505050565b15159052565b600081518084526143c98160208601602086016147bd565b601f01601f19169290920160200192915050565b9182527fffffffff0000000000000000000000000000000000000000000000000000000016602082015260240190565b6000828483379101908152919050565b6000825161442f8184602087016147bd565b9190910192915050565b7f190100000000000000000000000000000000000000000000000000000000000081526002810192909252602282015260420190565b6001600160a01b0391909116815260200190565b60006020825261091f6020830184614371565b6000604082526144a96040830185614371565b82810360208401526110e18185614371565b901515815260200190565b92151583526020830191909152604082015260600190565b90815260200190565b9283526001600160a01b03918216602084015216604082015260600190565b600085825260206001600160a01b038087168285015280861660408501525060806060840152610100830184516080808601528181518084526101208701915084830193508592505b808310156145775761456184516147b1565b825292840192600192909201919084019061454f565b508387015193507fffffffffffffffffffffffffffffffffffffffffffffffffffffffffffffff809250828682030160a08701526145b58185614371565b935050506040850151818584030160c08601526145d283826143b1565b9250505060608401516145e860e08501826143ab565b509695505050505050565b9586526001600160a01b0394851660208701529290931660408501526060840152608083019190915260a082015260c00190565b60006060820185835260206060818501528186518084526080860191508288019350845b8181101561466f5761465d85516147b1565b8352938301939183019160010161464b565b505084810360408601528551808252908201925081860190845b818110156126b05761469b83516147b1565b85529383019391830191600101614689565b9485526020850193909352604084019190915260608301526001600160a01b0316608082015260a00190565b9182526001600160a01b0316602082015260400190565b93845260ff9290921660208401526040830152606082015260800190565b602081016003831061471c57fe5b91905290565b60ff91909116815260200190565b60006020825261091f60208301846143b1565b6000838252604060208301526116fc6040830184614371565b918252602082015260400190565b60405181810167ffffffffffffffff8111828210171561478957600080fd5b604052919050565b600067ffffffffffffffff8211156147a7578081fd5b5060209081020190565b6001600160a01b031690565b60005b838110156147d85781810151838201526020016147c0565b838111156111565750506000910152565b6001600160a01b0381168114611bb657600080fd5b60ff81168114611bb657600080fdfea26469706673582212205d12c75af1290638bd45b7ffde109e98c18924239368b38e5e04a412485c2fdd64736f6c63430007010033",
  "linkReferences": {},
  "deployedLinkReferences": {}
}