{
  "_format": "hh-sol-artifact-1",
  "contractName": "AaveLinearPoolRebalancer",
  "sourceName": "contracts/aave/AaveLinearPoolRebalancer.sol",
  "abi": [
    {
      "inputs": [
        {
          "internalType": "contract IVault",
          "name": "vault",
          "type": "address"
        },
        {
          "internalType": "contract IBalancerQueries",
          "name": "queries",
          "type": "address"
        }
      ],
      "stateMutability": "nonpayable",
      "type": "constructor"
    },
    {
      "inputs": [],
      "name": "getPool",
      "outputs": [
        {
          "internalType": "contract ILinearPool",
          "name": "",
          "type": "address"
        }
      ],
      "stateMutability": "view",
      "type": "function"
    },
    {
      "inputs": [
        {
          "internalType": "address",
          "name": "recipient",
          "type": "address"
        }
      ],
      "name": "rebalance",
      "outputs": [
        {
          "internalType": "uint256",
          "name": "",
          "type": "uint256"
        }
      ],
      "stateMutability": "nonpayable",
      "type": "function"
    },
    {
      "inputs": [
        {
          "internalType": "address",
          "name": "recipient",
          "type": "address"
        },
        {
          "internalType": "uint256",
          "name": "extraMain",
          "type": "uint256"
        }
      ],
      "name": "rebalanceWithExtraMain",
      "outputs": [
        {
          "internalType": "uint256",
          "name": "",
          "type": "uint256"
        }
      ],
      "stateMutability": "nonpayable",
      "type": "function"
    }
  ],
  "bytecode": "0x6101606040523480156200001257600080fd5b5060405162001f0238038062001f02833981016040819052620000359162000462565b336001600160a01b0316635ed312826040518163ffffffff1660e01b815260040160206040518083038186803b1580156200006f57600080fd5b505afa15801562000084573d6000803e3d6000fd5b505050506040513d601f19601f82011682018060405250810190620000aa919062000378565b8282826001600160a01b0316631dd746ea6040518163ffffffff1660e01b815260040160006040518083038186803b158015620000e657600080fd5b505afa158015620000fb573d6000803e3d6000fd5b505050506040513d6000823e601f3d908101601f191682016040526200012591908101906200039e565b836001600160a01b0316634d64cd746040518163ffffffff1660e01b815260040160206040518083038186803b1580156200015f57600080fd5b505afa15801562000174573d6000803e3d6000fd5b505050506040513d601f19601f820116820180604052508101906200019a919062000449565b81518110620001a557fe5b602090810291909101810151610100526001600160601b0319606085901b166080526040805163038fff2d60e41b815290516001600160a01b038616926338fff2d09260048082019391829003018186803b1580156200020457600080fd5b505afa15801562000219573d6000803e3d6000fd5b505050506040513d601f19601f820116820180604052508101906200023f919062000449565b60a08181525050826001600160a01b0316634de046d56040518163ffffffff1660e01b815260040160206040518083038186803b1580156200028057600080fd5b505afa15801562000295573d6000803e3d6000fd5b505050506040513d601f19601f82011682018060405250810190620002bb919062000378565b6001600160a01b031660c0816001600160a01b031660601b81525050826001600160a01b031663f174e2416040518163ffffffff1660e01b815260040160206040518083038186803b1580156200031157600080fd5b505afa15801562000326573d6000803e3d6000fd5b505050506040513d601f19601f820116820180604052508101906200034c919062000378565b6001600160601b0319606091821b811660e05292811b8316610120521b166101405250620004e0915050565b6000602082840312156200038a578081fd5b81516200039781620004c7565b9392505050565b60006020808385031215620003b1578182fd5b82516001600160401b0380821115620003c8578384fd5b818501915085601f830112620003dc578384fd5b815181811115620003eb578485fd5b8381029150620003fd848301620004a0565b8181528481019084860184860187018a101562000418578788fd5b8795505b838610156200043c5780518352600195909501949186019186016200041c565b5098975050505050505050565b6000602082840312156200045b578081fd5b5051919050565b6000806040838503121562000475578081fd5b82516200048281620004c7565b60208401519092506200049581620004c7565b809150509250929050565b6040518181016001600160401b0381118282101715620004bf57600080fd5b604052919050565b6001600160a01b0381168114620004dd57600080fd5b50565b60805160601c60a05160c05160601c60e05160601c610100516101205160601c6101405160601c61193f620005c36000398061050952806108215250806101335280610c145280610f5f52806110195250806103bf52508061046c5280610599528061074852806108ec5280610cbf52806110ad528061117752806111d952508060ea5280610190528061043052806105cc528061063152806106d2528061078452806108b1528061115552508061016f5280610402528061071a5280610a7d5280610b5c5280610dbb5280610e9a52508060995280610309525061193f6000f3fe608060405234801561001057600080fd5b50600436106100415760003560e01c8063026b1d5f1461004657806321c2819114610064578063df633d8d14610084575b600080fd5b61004e610097565b60405161005b919061160c565b60405180910390f35b6100776100723660046114ca565b6100bb565b60405161005b91906118a8565b6100776100923660046114e6565b6100ce565b7f000000000000000000000000000000000000000000000000000000000000000090565b60006100c682610122565b90505b919050565b600061011273ffffffffffffffffffffffffffffffffffffffff7f000000000000000000000000000000000000000000000000000000000000000016333085610259565b61011b83610122565b9392505050565b60008061012d610302565b905060007f000000000000000000000000000000000000000000000000000000000000000073ffffffffffffffffffffffffffffffffffffffff1663b05f8e487f00000000000000000000000000000000000000000000000000000000000000007f00000000000000000000000000000000000000000000000000000000000000006040518363ffffffff1660e01b81526004016101cc9291906117c1565b60806040518083038186803b1580156101e457600080fd5b505afa1580156101f8573d6000803e3d6000fd5b505050506040513d601f19601f8201168201806040525081019061021c919061156c565b50505090508181101561023e57610235818303856103eb565b925050506100c9565b818111156102525761023582820385610703565b5050919050565b6102fc846323b872dd60e01b85858560405160240161027a93929190611654565b604080517fffffffffffffffffffffffffffffffffffffffffffffffffffffffffffffffe08184030181529190526020810180517bffffffffffffffffffffffffffffffffffffffffffffffffffffffff167fffffffff0000000000000000000000000000000000000000000000000000000090931692909217909152610911565b50505050565b60008060007f000000000000000000000000000000000000000000000000000000000000000073ffffffffffffffffffffffffffffffffffffffff166363fe3b566040518163ffffffff1660e01b8152600401604080518083038186803b15801561036c57600080fd5b505afa158015610380573d6000803e3d6000fd5b505050506040513d601f19601f820116820180604052508101906103a49190611549565b9150915060006002828401816103b657fe5b0490506103e3817f00000000000000000000000000000000000000000000000000000000000000006109be565b935050505090565b60006103f5611417565b6040805160c081019091527f0000000000000000000000000000000000000000000000000000000000000000815260208101600081526020017f000000000000000000000000000000000000000000000000000000000000000073ffffffffffffffffffffffffffffffffffffffff1681526020017f000000000000000000000000000000000000000000000000000000000000000073ffffffffffffffffffffffffffffffffffffffff1681526020018581526020016040518060200160405280600081525081525090506104c961147a565b6040517fe969f6b300000000000000000000000000000000000000000000000000000000815260009073ffffffffffffffffffffffffffffffffffffffff7f0000000000000000000000000000000000000000000000000000000000000000169063e969f6b39061054090869086906004016117e5565b602060405180830381600087803b15801561055a57600080fd5b505af115801561056e573d6000803e3d6000fd5b505050506040513d601f19601f820116820180604052508101906105929190611531565b90506105be7f000000000000000000000000000000000000000000000000000000000000000082610a11565b6105c781610c82565b6105f17f000000000000000000000000000000000000000000000000000000000000000087610d4f565b6040517f70a0823100000000000000000000000000000000000000000000000000000000815260009073ffffffffffffffffffffffffffffffffffffffff7f000000000000000000000000000000000000000000000000000000000000000016906370a082319061066690309060040161160c565b60206040518083038186803b15801561067e57600080fd5b505afa158015610692573d6000803e3d6000fd5b505050506040513d601f19601f820116820180604052508101906106b69190611531565b90506106f973ffffffffffffffffffffffffffffffffffffffff7f000000000000000000000000000000000000000000000000000000000000000016878361104e565b9695505050505050565b600061070d611417565b6040805160c081019091527f0000000000000000000000000000000000000000000000000000000000000000815260208101600181526020017f000000000000000000000000000000000000000000000000000000000000000073ffffffffffffffffffffffffffffffffffffffff1681526020017f000000000000000000000000000000000000000000000000000000000000000073ffffffffffffffffffffffffffffffffffffffff1681526020018581526020016040518060200160405280600081525081525090506107e161147a565b6040517fe969f6b300000000000000000000000000000000000000000000000000000000815260009073ffffffffffffffffffffffffffffffffffffffff7f0000000000000000000000000000000000000000000000000000000000000000169063e969f6b39061085890869086906004016117e5565b602060405180830381600087803b15801561087257600080fd5b505af1158015610886573d6000803e3d6000fd5b505050506040513d601f19601f820116820180604052508101906108aa9190611531565b90506108d67f000000000000000000000000000000000000000000000000000000000000000087610a11565b6108e76108e28261106d565b61113b565b6105f17f000000000000000000000000000000000000000000000000000000000000000082610d4f565b600060608373ffffffffffffffffffffffffffffffffffffffff168360405161093a91906115f0565b6000604051808303816000865af19150503d8060008114610977576040519150601f19603f3d011682016040523d82523d6000602084013e61097c565b606091505b50915091506000821415610994573d6000803e3d6000fd5b6102fc8151600014806109b65750818060200190518101906109b69190611511565b6101a261126c565b60006109cd821515600461126c565b670de0b6b3a764000083026109ff8415806109f85750670de0b6b3a76400008583816109f557fe5b04145b600561126c565b828181610a0857fe5b04949350505050565b6040805160028082526060828101909352816020015b610a2f6114a1565b815260200190600190039081610a27579050509050600081600081518110610a5357fe5b6020026020010151600001906002811115610a6a57fe5b90816002811115610a7757fe5b815250507f000000000000000000000000000000000000000000000000000000000000000081600081518110610aa957fe5b602002602001015160200181815250508181600081518110610ac757fe5b602002602001015160600181815250508281600081518110610ae557fe5b60200260200101516040019073ffffffffffffffffffffffffffffffffffffffff16908173ffffffffffffffffffffffffffffffffffffffff1681525050600281600181518110610b3257fe5b6020026020010151600001906002811115610b4957fe5b90816002811115610b5657fe5b815250507f000000000000000000000000000000000000000000000000000000000000000081600181518110610b8857fe5b60200260200101516020018181525050600081600181518110610ba757fe5b602002602001015160600181815250508281600181518110610bc557fe5b602090810291909101015173ffffffffffffffffffffffffffffffffffffffff918216604091820152517fe6c460920000000000000000000000000000000000000000000000000000000081527f00000000000000000000000000000000000000000000000000000000000000009091169063e6c4609290610c4b90849060040161173d565b600060405180830381600087803b158015610c6557600080fd5b505af1158015610c79573d6000803e3d6000fd5b50505050505050565b6040517fead5d35900000000000000000000000000000000000000000000000000000000815273ffffffffffffffffffffffffffffffffffffffff7f0000000000000000000000000000000000000000000000000000000000000000169063ead5d35990610cf990309085906001906004016116d4565b6040805180830381600087803b158015610d1257600080fd5b505af1158015610d26573d6000803e3d6000fd5b505050506040513d601f19601f82011682018060405250810190610d4a9190611549565b505050565b6040805160028082526060828101909352816020015b610d6d6114a1565b815260200190600190039081610d65579050509050600281600081518110610d9157fe5b6020026020010151600001906002811115610da857fe5b90816002811115610db557fe5b815250507f000000000000000000000000000000000000000000000000000000000000000081600081518110610de757fe5b602002602001015160200181815250508181600081518110610e0557fe5b602002602001015160600181815250508281600081518110610e2357fe5b60200260200101516040019073ffffffffffffffffffffffffffffffffffffffff16908173ffffffffffffffffffffffffffffffffffffffff1681525050600181600181518110610e7057fe5b6020026020010151600001906002811115610e8757fe5b90816002811115610e9457fe5b815250507f000000000000000000000000000000000000000000000000000000000000000081600181518110610ec657fe5b602002602001015160200181815250508181600181518110610ee457fe5b602002602001015160600181815250508281600181518110610f0257fe5b602090810291909101015173ffffffffffffffffffffffffffffffffffffffff918216604091820152517f095ea7b30000000000000000000000000000000000000000000000000000000081529084169063095ea7b390610f89907f00000000000000000000000000000000000000000000000000000000000000009086906004016116ae565b602060405180830381600087803b158015610fa357600080fd5b505af1158015610fb7573d6000803e3d6000fd5b505050506040513d601f19601f82011682018060405250810190610fdb9190611511565b506040517fe6c4609200000000000000000000000000000000000000000000000000000000815273ffffffffffffffffffffffffffffffffffffffff7f0000000000000000000000000000000000000000000000000000000000000000169063e6c4609290610c4b90849060040161173d565b610d4a8363a9059cbb60e01b848460405160240161027a9291906116ae565b6040517ff57d0b4000000000000000000000000000000000000000000000000000000000815260009073ffffffffffffffffffffffffffffffffffffffff7f0000000000000000000000000000000000000000000000000000000000000000169063f57d0b40906110e29085906004016118a8565b60206040518083038186803b1580156110fa57600080fd5b505afa15801561110e573d6000803e3d6000fd5b505050506040513d601f19601f820116820180604052508101906111329190611531565b60010192915050565b61119c73ffffffffffffffffffffffffffffffffffffffff7f0000000000000000000000000000000000000000000000000000000000000000167f00000000000000000000000000000000000000000000000000000000000000008361127a565b6040517f2f2cab8700000000000000000000000000000000000000000000000000000000815273ffffffffffffffffffffffffffffffffffffffff7f00000000000000000000000000000000000000000000000000000000000000001690632f2cab87906112169030908590600090600190600401611704565b602060405180830381600087803b15801561123057600080fd5b505af1158015611244573d6000803e3d6000fd5b505050506040513d601f19601f820116820180604052508101906112689190611531565b5050565b81611268576112688161136f565b801580159061132b57506040517fdd62ed3e00000000000000000000000000000000000000000000000000000000815273ffffffffffffffffffffffffffffffffffffffff84169063dd62ed3e906112d8903090869060040161162d565b60206040518083038186803b1580156112f057600080fd5b505afa158015611304573d6000803e3d6000fd5b505050506040513d601f19601f820116820180604052508101906113289190611531565b15155b15611350576113508363095ea7b360e01b84600060405160240161027a929190611685565b610d4a8363095ea7b360e01b848460405160240161027a9291906116ae565b611399817f42414c000000000000000000000000000000000000000000000000000000000061139c565b50565b7f08c379a000000000000000000000000000000000000000000000000000000000600090815260206004526007602452600a808404818106603090810160081b958390069590950190829004918206850160101b01602363ffffff0060e086901c160160181b0190930160c81b60445260e882901c90606490fd5b6040805160c08101909152600080825260208201908152602001600073ffffffffffffffffffffffffffffffffffffffff168152602001600073ffffffffffffffffffffffffffffffffffffffff16815260200160008152602001606081525090565b60408051608081018252600080825260208201819052918101829052606081019190915290565b604080516080810190915280600081526000602082018190526040820181905260609091015290565b6000602082840312156114db578081fd5b813561011b816118e7565b600080604083850312156114f8578081fd5b8235611503816118e7565b946020939093013593505050565b600060208284031215611522578081fd5b8151801515811461011b578182fd5b600060208284031215611542578081fd5b5051919050565b6000806040838503121561155b578182fd5b505080516020909101519092909150565b60008060008060808587031215611581578182fd5b84519350602085015192506040850151915060608501516115a1816118e7565b939692955090935050565b73ffffffffffffffffffffffffffffffffffffffff808251168352602082015115156020840152806040830151166040840152506060810151151560608301525050565b600082516116028184602087016118b1565b9190910192915050565b73ffffffffffffffffffffffffffffffffffffffff91909116815260200190565b73ffffffffffffffffffffffffffffffffffffffff92831681529116602082015260400190565b73ffffffffffffffffffffffffffffffffffffffff9384168152919092166020820152604081019190915260600190565b73ffffffffffffffffffffffffffffffffffffffff92909216825260ff16602082015260400190565b73ffffffffffffffffffffffffffffffffffffffff929092168252602082015260400190565b73ffffffffffffffffffffffffffffffffffffffff93909316835260208301919091521515604082015260600190565b73ffffffffffffffffffffffffffffffffffffffff949094168452602084019290925261ffff1660408301521515606082015260800190565b602080825282518282018190526000919060409081850190868401855b828110156117b457815180516003811061177057fe5b855280870151878601528581015173ffffffffffffffffffffffffffffffffffffffff1686860152606090810151908501526080909301929085019060010161175a565b5091979650505050505050565b91825273ffffffffffffffffffffffffffffffffffffffff16602082015260400190565b600060a08252835160a08301526020840151611800816118dd565b8060c084015250604084015173ffffffffffffffffffffffffffffffffffffffff80821660e0850152806060870151166101008501525050608084015161012083015260a084015160c061014084015280518061016085015261018061186c82828701602086016118b1565b807fffffffffffffffffffffffffffffffffffffffffffffffffffffffffffffffe0601f840116860101935050505061011b60208301846115ac565b90815260200190565b60005b838110156118cc5781810151838201526020016118b4565b838111156102fc5750506000910152565b6002811061139957fe5b73ffffffffffffffffffffffffffffffffffffffff8116811461139957600080fdfea2646970667358221220698f2179c9f38bda13e226b1e522c3e849117ad9e1c17cee9cb6c281c4895b3e64736f6c63430007010033",
  "linkReferences": {},
  "deployedLinkReferences": {}
}