{
  "_format": "hh-sol-artifact-1",
  "contractName": "BalancerHelpers",
  "sourceName": "contracts/BalancerHelpers.sol",
  "abi": [
    {
      "inputs": [
        {
          "internalType": "contract IVault",
          "name": "_vault",
          "type": "address"
        }
      ],
      "stateMutability": "nonpayable",
      "type": "constructor"
    },
    {
      "inputs": [
        {
          "internalType": "bytes32",
          "name": "poolId",
          "type": "bytes32"
        },
        {
          "internalType": "address",
          "name": "sender",
          "type": "address"
        },
        {
          "internalType": "address",
          "name": "recipient",
          "type": "address"
        },
        {
          "components": [
            {
              "internalType": "contract IAsset[]",
              "name": "assets",
              "type": "address[]"
            },
            {
              "internalType": "uint256[]",
              "name": "minAmountsOut",
              "type": "uint256[]"
            },
            {
              "internalType": "bytes",
              "name": "userData",
              "type": "bytes"
            },
            {
              "internalType": "bool",
              "name": "toInternalBalance",
              "type": "bool"
            }
          ],
          "internalType": "struct IVault.ExitPoolRequest",
          "name": "request",
          "type": "tuple"
        }
      ],
      "name": "queryExit",
      "outputs": [
        {
          "internalType": "uint256",
          "name": "bptIn",
          "type": "uint256"
        },
        {
          "internalType": "uint256[]",
          "name": "amountsOut",
          "type": "uint256[]"
        }
      ],
      "stateMutability": "view",
      "type": "function"
    },
    {
      "inputs": [
        {
          "internalType": "bytes32",
          "name": "poolId",
          "type": "bytes32"
        },
        {
          "internalType": "address",
          "name": "sender",
          "type": "address"
        },
        {
          "internalType": "address",
          "name": "recipient",
          "type": "address"
        },
        {
          "components": [
            {
              "internalType": "contract IAsset[]",
              "name": "assets",
              "type": "address[]"
            },
            {
              "internalType": "uint256[]",
              "name": "maxAmountsIn",
              "type": "uint256[]"
            },
            {
              "internalType": "bytes",
              "name": "userData",
              "type": "bytes"
            },
            {
              "internalType": "bool",
              "name": "fromInternalBalance",
              "type": "bool"
            }
          ],
          "internalType": "struct IVault.JoinPoolRequest",
          "name": "request",
          "type": "tuple"
        }
      ],
      "name": "queryJoin",
      "outputs": [
        {
          "internalType": "uint256",
          "name": "bptOut",
          "type": "uint256"
        },
        {
          "internalType": "uint256[]",
          "name": "amountsIn",
          "type": "uint256[]"
        }
      ],
      "stateMutability": "view",
      "type": "function"
    },
    {
      "inputs": [],
      "name": "vault",
      "outputs": [
        {
          "internalType": "contract IVault",
          "name": "",
          "type": "address"
        }
      ],
      "stateMutability": "view",
      "type": "function"
    }
  ],
  "bytecode": "0x60c060405234801561001057600080fd5b5060405161104738038061104783398101604081905261002f916100bf565b806001600160a01b031663ad5c46486040518163ffffffff1660e01b815260040160206040518083038186803b15801561006857600080fd5b505afa15801561007c573d6000803e3d6000fd5b505050506040513d601f19601f820116820180604052508101906100a091906100bf565b6001600160601b0319606091821b811660805291901b1660a0526100fa565b6000602082840312156100d0578081fd5b81516100db816100e2565b9392505050565b6001600160a01b03811681146100f757600080fd5b50565b60805160601c60a05160601c610f0c61013b6000398060a0528061016352806103545280610417528061051e52806105905250806108185250610f0c6000f3fe608060405234801561001057600080fd5b50600436106100415760003560e01c80639ebbf05d14610046578063c7b2c52c14610070578063fbfa77cf14610083575b600080fd5b610059610054366004610c98565b610098565b604051610067929190610e4c565b60405180910390f35b61005961007e366004610c2e565b61034c565b61008b61051c565b6040516100679190610e2b565b6000606060007f000000000000000000000000000000000000000000000000000000000000000073ffffffffffffffffffffffffffffffffffffffff1663f6c00927886040518263ffffffff1660e01b81526004016100f79190610d67565b604080518083038186803b15801561010e57600080fd5b505afa158015610122573d6000803e3d6000fd5b505050506040513d601f19601f820116820180604052508101906101469190610b26565b5090506060600061015b898760000151610540565b9150915060007f000000000000000000000000000000000000000000000000000000000000000073ffffffffffffffffffffffffffffffffffffffff1663d2946c2b6040518163ffffffff1660e01b815260040160206040518083038186803b1580156101c757600080fd5b505afa1580156101db573d6000803e3d6000fd5b505050506040513d601f19601f820116820180604052508101906101ff9190610cad565b90508373ffffffffffffffffffffffffffffffffffffffff166387ec68178b8b8b87878773ffffffffffffffffffffffffffffffffffffffff166355c676286040518163ffffffff1660e01b815260040160206040518083038186803b15801561026857600080fd5b505afa15801561027c573d6000803e3d6000fd5b505050506040513d601f19601f820116820180604052508101906102a09190610cd0565b8e604001516040518863ffffffff1660e01b81526004016102c79796959493929190610d70565b600060405180830381600087803b1580156102e157600080fd5b505af11580156102f5573d6000803e3d6000fd5b505050506040513d6000823e601f3d9081017fffffffffffffffffffffffffffffffffffffffffffffffffffffffffffffffe016820160405261033b9190810190610ce8565b909b909a5098505050505050505050565b6000606060007f000000000000000000000000000000000000000000000000000000000000000073ffffffffffffffffffffffffffffffffffffffff1663f6c00927886040518263ffffffff1660e01b81526004016103ab9190610d67565b604080518083038186803b1580156103c257600080fd5b505afa1580156103d6573d6000803e3d6000fd5b505050506040513d601f19601f820116820180604052508101906103fa9190610b26565b5090506060600061040f898760000151610540565b9150915060007f000000000000000000000000000000000000000000000000000000000000000073ffffffffffffffffffffffffffffffffffffffff1663d2946c2b6040518163ffffffff1660e01b815260040160206040518083038186803b15801561047b57600080fd5b505afa15801561048f573d6000803e3d6000fd5b505050506040513d601f19601f820116820180604052508101906104b39190610cad565b90508373ffffffffffffffffffffffffffffffffffffffff16636028bfd48b8b8b87878773ffffffffffffffffffffffffffffffffffffffff166355c676286040518163ffffffff1660e01b815260040160206040518083038186803b15801561026857600080fd5b7f000000000000000000000000000000000000000000000000000000000000000081565b60606000606080610550856106d2565b6040517ff94d466800000000000000000000000000000000000000000000000000000000815290915073ffffffffffffffffffffffffffffffffffffffff7f0000000000000000000000000000000000000000000000000000000000000000169063f94d4668906105c5908990600401610d67565b60006040518083038186803b1580156105dd57600080fd5b505afa1580156105f1573d6000803e3d6000fd5b505050506040513d6000823e601f3d9081017fffffffffffffffffffffffffffffffffffffffffffffffffffffffffffffffe01682016040526106379190810190610b62565b8251845192975090955091935061064e9190610782565b60005b82518110156106c857600083828151811061066857fe5b602002602001015190506106bf83838151811061068157fe5b602002602001015173ffffffffffffffffffffffffffffffffffffffff168273ffffffffffffffffffffffffffffffffffffffff1614610208610793565b50600101610651565b5050509250929050565b606080825167ffffffffffffffff811180156106ed57600080fd5b50604051908082528060200260200182016040528015610717578160200160208202803683370190505b50905060005b835181101561077b5761074284828151811061073557fe5b60200260200101516107a1565b82828151811061074e57fe5b73ffffffffffffffffffffffffffffffffffffffff9092166020928302919091019091015260010161071d565b5092915050565b61078f8183146067610793565b5050565b8161078f5761078f816107cc565b60006107ac826107f9565b6107be576107b982610813565b6107c6565b6107c6610816565b92915050565b6107f6817f42414c000000000000000000000000000000000000000000000000000000000061083a565b50565b73ffffffffffffffffffffffffffffffffffffffff161590565b90565b7f000000000000000000000000000000000000000000000000000000000000000090565b7f08c379a000000000000000000000000000000000000000000000000000000000600090815260206004526007602452600a808404818106603090810160081b958390069590950190829004918206850160101b01602363ffffff0060e086901c160160181b0190930160c81b60445260e882901c90606490fd5b600082601f8301126108c5578081fd5b81356108d86108d382610e94565b610e6d565b8181529150602080830190848101818402860182018710156108f957600080fd5b60005b8481101561092157813561090f81610eb4565b845292820192908201906001016108fc565b505050505092915050565b600082601f83011261093c578081fd5b813561094a6108d382610e94565b81815291506020808301908481018184028601820187101561096b57600080fd5b60005b848110156109215781358452928201929082019060010161096e565b600082601f83011261099a578081fd5b81516109a86108d382610e94565b8181529150602080830190848101818402860182018710156109c957600080fd5b60005b84811015610921578151845292820192908201906001016109cc565b803580151581146107c657600080fd5b600082601f830112610a08578081fd5b813567ffffffffffffffff811115610a1e578182fd5b610a4f60207fffffffffffffffffffffffffffffffffffffffffffffffffffffffffffffffe0601f84011601610e6d565b9150808252836020828501011115610a6657600080fd5b8060208401602084013760009082016020015292915050565b600060808284031215610a90578081fd5b610a9a6080610e6d565b9050813567ffffffffffffffff80821115610ab457600080fd5b610ac0858386016108b5565b83526020840135915080821115610ad657600080fd5b610ae28583860161092c565b60208401526040840135915080821115610afb57600080fd5b50610b08848285016109f8565b604083015250610b1b83606084016109e8565b606082015292915050565b60008060408385031215610b38578182fd5b8251610b4381610eb4565b602084015190925060038110610b57578182fd5b809150509250929050565b600080600060608486031215610b76578081fd5b835167ffffffffffffffff80821115610b8d578283fd5b818601915086601f830112610ba0578283fd5b8151610bae6108d382610e94565b80828252602080830192508086018b828387028901011115610bce578788fd5b8796505b84871015610bf9578051610be581610eb4565b845260019690960195928101928101610bd2565b508901519097509350505080821115610c10578283fd5b50610c1d8682870161098a565b925050604084015190509250925092565b60008060008060808587031215610c43578081fd5b843593506020850135610c5581610eb4565b92506040850135610c6581610eb4565b9150606085013567ffffffffffffffff811115610c80578182fd5b610c8c87828801610a7f565b91505092959194509250565b60008060008060808587031215610c43578384fd5b600060208284031215610cbe578081fd5b8151610cc981610eb4565b9392505050565b600060208284031215610ce1578081fd5b5051919050565b60008060408385031215610cfa578182fd5b82519150602083015167ffffffffffffffff811115610d17578182fd5b610d238582860161098a565b9150509250929050565b6000815180845260208085019450808401835b83811015610d5c57815187529582019590820190600101610d40565b509495945050505050565b90815260200190565b6000888252602073ffffffffffffffffffffffffffffffffffffffff808a168285015280891660408501525060e06060840152610db060e0840188610d2d565b8660808501528560a085015283810360c08501528451808252835b81811015610de6578681018401518382018501528301610dcb565b81811115610df657848483850101525b50601f017fffffffffffffffffffffffffffffffffffffffffffffffffffffffffffffffe01601019998505050505050505050565b73ffffffffffffffffffffffffffffffffffffffff91909116815260200190565b600083825260406020830152610e656040830184610d2d565b949350505050565b60405181810167ffffffffffffffff81118282101715610e8c57600080fd5b604052919050565b600067ffffffffffffffff821115610eaa578081fd5b5060209081020190565b73ffffffffffffffffffffffffffffffffffffffff811681146107f657600080fdfea2646970667358221220e0eb2a08731b8e07f1aa278350a9016d7720a900de7c536c7bd14f89ba658a6b64736f6c63430007010033",
  "linkReferences": {},
  "deployedLinkReferences": {}
}