{
  "_format": "hh-sol-artifact-1",
  "contractName": "BatchRelayerLibrary",
  "sourceName": "contracts/BatchRelayerLibrary.sol",
  "abi": [
    {
      "inputs": [
        {
          "internalType": "contract IVault",
          "name": "vault",
          "type": "address"
        },
        {
          "internalType": "contract IBalancerMinter",
          "name": "minter",
          "type": "address"
        }
      ],
      "stateMutability": "nonpayable",
      "type": "constructor"
    },
    {
      "inputs": [
        {
          "internalType": "contract IERC20",
          "name": "token",
          "type": "address"
        },
        {
          "internalType": "uint256",
          "name": "amount",
          "type": "uint256"
        }
      ],
      "name": "approveVault",
      "outputs": [],
      "stateMutability": "nonpayable",
      "type": "function"
    },
    {
      "inputs": [
        {
          "internalType": "enum IVault.SwapKind",
          "name": "kind",
          "type": "uint8"
        },
        {
          "components": [
            {
              "internalType": "bytes32",
              "name": "poolId",
              "type": "bytes32"
            },
            {
              "internalType": "uint256",
              "name": "assetInIndex",
              "type": "uint256"
            },
            {
              "internalType": "uint256",
              "name": "assetOutIndex",
              "type": "uint256"
            },
            {
              "internalType": "uint256",
              "name": "amount",
              "type": "uint256"
            },
            {
              "internalType": "bytes",
              "name": "userData",
              "type": "bytes"
            }
          ],
          "internalType": "struct IVault.BatchSwapStep[]",
          "name": "swaps",
          "type": "tuple[]"
        },
        {
          "internalType": "contract IAsset[]",
          "name": "assets",
          "type": "address[]"
        },
        {
          "components": [
            {
              "internalType": "address",
              "name": "sender",
              "type": "address"
            },
            {
              "internalType": "bool",
              "name": "fromInternalBalance",
              "type": "bool"
            },
            {
              "internalType": "address payable",
              "name": "recipient",
              "type": "address"
            },
            {
              "internalType": "bool",
              "name": "toInternalBalance",
              "type": "bool"
            }
          ],
          "internalType": "struct IVault.FundManagement",
          "name": "funds",
          "type": "tuple"
        },
        {
          "internalType": "int256[]",
          "name": "limits",
          "type": "int256[]"
        },
        {
          "internalType": "uint256",
          "name": "deadline",
          "type": "uint256"
        },
        {
          "internalType": "uint256",
          "name": "value",
          "type": "uint256"
        },
        {
          "components": [
            {
              "internalType": "uint256",
              "name": "index",
              "type": "uint256"
            },
            {
              "internalType": "uint256",
              "name": "key",
              "type": "uint256"
            }
          ],
          "internalType": "struct VaultActions.OutputReference[]",
          "name": "outputReferences",
          "type": "tuple[]"
        }
      ],
      "name": "batchSwap",
      "outputs": [
        {
          "internalType": "int256[]",
          "name": "",
          "type": "int256[]"
        }
      ],
      "stateMutability": "payable",
      "type": "function"
    },
    {
      "inputs": [
        {
          "internalType": "contract ITriCryptoBackstop",
          "name": "triCryptoBackstop",
          "type": "address"
        },
        {
          "internalType": "address",
          "name": "sender",
          "type": "address"
        },
        {
          "internalType": "address",
          "name": "recipient",
          "type": "address"
        },
        {
          "internalType": "uint256",
          "name": "amount",
          "type": "uint256"
        }
      ],
      "name": "depositToBackstop",
      "outputs": [
        {
          "internalType": "uint256",
          "name": "",
          "type": "uint256"
        }
      ],
      "stateMutability": "payable",
      "type": "function"
    },
    {
      "inputs": [
        {
          "internalType": "bytes32",
          "name": "poolId",
          "type": "bytes32"
        },
        {
          "internalType": "enum VaultActions.PoolKind",
          "name": "kind",
          "type": "uint8"
        },
        {
          "internalType": "address",
          "name": "sender",
          "type": "address"
        },
        {
          "internalType": "address payable",
          "name": "recipient",
          "type": "address"
        },
        {
          "components": [
            {
              "internalType": "contract IAsset[]",
              "name": "assets",
              "type": "address[]"
            },
            {
              "internalType": "uint256[]",
              "name": "minAmountsOut",
              "type": "uint256[]"
            },
            {
              "internalType": "bytes",
              "name": "userData",
              "type": "bytes"
            },
            {
              "internalType": "bool",
              "name": "toInternalBalance",
              "type": "bool"
            }
          ],
          "internalType": "struct IVault.ExitPoolRequest",
          "name": "request",
          "type": "tuple"
        },
        {
          "components": [
            {
              "internalType": "uint256",
              "name": "index",
              "type": "uint256"
            },
            {
              "internalType": "uint256",
              "name": "key",
              "type": "uint256"
            }
          ],
          "internalType": "struct VaultActions.OutputReference[]",
          "name": "outputReferences",
          "type": "tuple[]"
        }
      ],
      "name": "exitPool",
      "outputs": [],
      "stateMutability": "payable",
      "type": "function"
    },
    {
      "inputs": [
        {
          "internalType": "contract IStakingLiquidityGauge[]",
          "name": "gauges",
          "type": "address[]"
        }
      ],
      "name": "gaugeClaimRewards",
      "outputs": [],
      "stateMutability": "payable",
      "type": "function"
    },
    {
      "inputs": [
        {
          "internalType": "contract IStakingLiquidityGauge",
          "name": "gauge",
          "type": "address"
        },
        {
          "internalType": "address",
          "name": "sender",
          "type": "address"
        },
        {
          "internalType": "address",
          "name": "recipient",
          "type": "address"
        },
        {
          "internalType": "uint256",
          "name": "amount",
          "type": "uint256"
        }
      ],
      "name": "gaugeDeposit",
      "outputs": [],
      "stateMutability": "payable",
      "type": "function"
    },
    {
      "inputs": [
        {
          "internalType": "address[]",
          "name": "gauges",
          "type": "address[]"
        },
        {
          "internalType": "uint256",
          "name": "outputReference",
          "type": "uint256"
        }
      ],
      "name": "gaugeMint",
      "outputs": [],
      "stateMutability": "payable",
      "type": "function"
    },
    {
      "inputs": [
        {
          "internalType": "bool",
          "name": "approval",
          "type": "bool"
        },
        {
          "internalType": "address",
          "name": "user",
          "type": "address"
        },
        {
          "internalType": "uint256",
          "name": "deadline",
          "type": "uint256"
        },
        {
          "internalType": "uint8",
          "name": "v",
          "type": "uint8"
        },
        {
          "internalType": "bytes32",
          "name": "r",
          "type": "bytes32"
        },
        {
          "internalType": "bytes32",
          "name": "s",
          "type": "bytes32"
        }
      ],
      "name": "gaugeSetMinterApproval",
      "outputs": [],
      "stateMutability": "payable",
      "type": "function"
    },
    {
      "inputs": [
        {
          "internalType": "contract IStakingLiquidityGauge",
          "name": "gauge",
          "type": "address"
        },
        {
          "internalType": "address",
          "name": "sender",
          "type": "address"
        },
        {
          "internalType": "address",
          "name": "recipient",
          "type": "address"
        },
        {
          "internalType": "uint256",
          "name": "amount",
          "type": "uint256"
        }
      ],
      "name": "gaugeWithdraw",
      "outputs": [],
      "stateMutability": "payable",
      "type": "function"
    },
    {
      "inputs": [],
      "name": "getEntrypoint",
      "outputs": [
        {
          "internalType": "contract IBalancerRelayer",
          "name": "",
          "type": "address"
        }
      ],
      "stateMutability": "view",
      "type": "function"
    },
    {
      "inputs": [],
      "name": "getVault",
      "outputs": [
        {
          "internalType": "contract IVault",
          "name": "",
          "type": "address"
        }
      ],
      "stateMutability": "view",
      "type": "function"
    },
    {
      "inputs": [
        {
          "internalType": "bytes32",
          "name": "poolId",
          "type": "bytes32"
        },
        {
          "internalType": "enum VaultActions.PoolKind",
          "name": "kind",
          "type": "uint8"
        },
        {
          "internalType": "address",
          "name": "sender",
          "type": "address"
        },
        {
          "internalType": "address",
          "name": "recipient",
          "type": "address"
        },
        {
          "components": [
            {
              "internalType": "contract IAsset[]",
              "name": "assets",
              "type": "address[]"
            },
            {
              "internalType": "uint256[]",
              "name": "maxAmountsIn",
              "type": "uint256[]"
            },
            {
              "internalType": "bytes",
              "name": "userData",
              "type": "bytes"
            },
            {
              "internalType": "bool",
              "name": "fromInternalBalance",
              "type": "bool"
            }
          ],
          "internalType": "struct IVault.JoinPoolRequest",
          "name": "request",
          "type": "tuple"
        },
        {
          "internalType": "uint256",
          "name": "value",
          "type": "uint256"
        },
        {
          "internalType": "uint256",
          "name": "outputReference",
          "type": "uint256"
        }
      ],
      "name": "joinPool",
      "outputs": [],
      "stateMutability": "payable",
      "type": "function"
    },
    {
      "inputs": [
        {
          "components": [
            {
              "internalType": "enum IVault.UserBalanceOpKind",
              "name": "kind",
              "type": "uint8"
            },
            {
              "internalType": "contract IAsset",
              "name": "asset",
              "type": "address"
            },
            {
              "internalType": "uint256",
              "name": "amount",
              "type": "uint256"
            },
            {
              "internalType": "address",
              "name": "sender",
              "type": "address"
            },
            {
              "internalType": "address payable",
              "name": "recipient",
              "type": "address"
            }
          ],
          "internalType": "struct IVault.UserBalanceOp[]",
          "name": "ops",
          "type": "tuple[]"
        },
        {
          "internalType": "uint256",
          "name": "value",
          "type": "uint256"
        }
      ],
      "name": "manageUserBalance",
      "outputs": [],
      "stateMutability": "payable",
      "type": "function"
    },
    {
      "inputs": [
        {
          "internalType": "address[]",
          "name": "tokens",
          "type": "address[]"
        },
        {
          "internalType": "address",
          "name": "recipient",
          "type": "address"
        }
      ],
      "name": "refundTokens",
      "outputs": [],
      "stateMutability": "payable",
      "type": "function"
    },
    {
      "inputs": [
        {
          "internalType": "address",
          "name": "relayer",
          "type": "address"
        },
        {
          "internalType": "bool",
          "name": "approved",
          "type": "bool"
        },
        {
          "internalType": "bytes",
          "name": "authorisation",
          "type": "bytes"
        }
      ],
      "name": "setRelayerApproval",
      "outputs": [],
      "stateMutability": "payable",
      "type": "function"
    },
    {
      "inputs": [
        {
          "components": [
            {
              "internalType": "bytes32",
              "name": "poolId",
              "type": "bytes32"
            },
            {
              "internalType": "enum IVault.SwapKind",
              "name": "kind",
              "type": "uint8"
            },
            {
              "internalType": "contract IAsset",
              "name": "assetIn",
              "type": "address"
            },
            {
              "internalType": "contract IAsset",
              "name": "assetOut",
              "type": "address"
            },
            {
              "internalType": "uint256",
              "name": "amount",
              "type": "uint256"
            },
            {
              "internalType": "bytes",
              "name": "userData",
              "type": "bytes"
            }
          ],
          "internalType": "struct IVault.SingleSwap",
          "name": "singleSwap",
          "type": "tuple"
        },
        {
          "components": [
            {
              "internalType": "address",
              "name": "sender",
              "type": "address"
            },
            {
              "internalType": "bool",
              "name": "fromInternalBalance",
              "type": "bool"
            },
            {
              "internalType": "address payable",
              "name": "recipient",
              "type": "address"
            },
            {
              "internalType": "bool",
              "name": "toInternalBalance",
              "type": "bool"
            }
          ],
          "internalType": "struct IVault.FundManagement",
          "name": "funds",
          "type": "tuple"
        },
        {
          "internalType": "uint256",
          "name": "limit",
          "type": "uint256"
        },
        {
          "internalType": "uint256",
          "name": "deadline",
          "type": "uint256"
        },
        {
          "internalType": "uint256",
          "name": "value",
          "type": "uint256"
        },
        {
          "internalType": "uint256",
          "name": "outputReference",
          "type": "uint256"
        }
      ],
      "name": "swap",
      "outputs": [
        {
          "internalType": "uint256",
          "name": "",
          "type": "uint256"
        }
      ],
      "stateMutability": "payable",
      "type": "function"
    },
    {
      "inputs": [
        {
          "internalType": "contract IStaticATokenLM",
          "name": "staticToken",
          "type": "address"
        },
        {
          "internalType": "address",
          "name": "sender",
          "type": "address"
        },
        {
          "internalType": "address",
          "name": "recipient",
          "type": "address"
        },
        {
          "internalType": "uint256",
          "name": "amount",
          "type": "uint256"
        },
        {
          "internalType": "bool",
          "name": "toUnderlying",
          "type": "bool"
        },
        {
          "internalType": "uint256",
          "name": "outputReference",
          "type": "uint256"
        }
      ],
      "name": "unwrapAaveStaticToken",
      "outputs": [],
      "stateMutability": "payable",
      "type": "function"
    },
    {
      "inputs": [
        {
          "internalType": "contract IERC4626",
          "name": "wrappedToken",
          "type": "address"
        },
        {
          "internalType": "address",
          "name": "sender",
          "type": "address"
        },
        {
          "internalType": "address",
          "name": "recipient",
          "type": "address"
        },
        {
          "internalType": "uint256",
          "name": "amount",
          "type": "uint256"
        },
        {
          "internalType": "uint256",
          "name": "outputReference",
          "type": "uint256"
        }
      ],
      "name": "unwrapERC4626",
      "outputs": [],
      "stateMutability": "payable",
      "type": "function"
    },
    {
      "inputs": [
        {
          "internalType": "contract IUnbuttonToken",
          "name": "wrapperToken",
          "type": "address"
        },
        {
          "internalType": "address",
          "name": "sender",
          "type": "address"
        },
        {
          "internalType": "address",
          "name": "recipient",
          "type": "address"
        },
        {
          "internalType": "uint256",
          "name": "amount",
          "type": "uint256"
        },
        {
          "internalType": "uint256",
          "name": "outputReference",
          "type": "uint256"
        }
      ],
      "name": "unwrapUnbuttonToken",
      "outputs": [],
      "stateMutability": "payable",
      "type": "function"
    },
    {
      "inputs": [
        {
          "internalType": "contract IERC20Permit",
          "name": "token",
          "type": "address"
        },
        {
          "internalType": "address",
          "name": "owner",
          "type": "address"
        },
        {
          "internalType": "uint256",
          "name": "value",
          "type": "uint256"
        },
        {
          "internalType": "uint256",
          "name": "deadline",
          "type": "uint256"
        },
        {
          "internalType": "uint8",
          "name": "v",
          "type": "uint8"
        },
        {
          "internalType": "bytes32",
          "name": "r",
          "type": "bytes32"
        },
        {
          "internalType": "bytes32",
          "name": "s",
          "type": "bytes32"
        }
      ],
      "name": "vaultPermit",
      "outputs": [],
      "stateMutability": "payable",
      "type": "function"
    },
    {
      "inputs": [
        {
          "internalType": "contract IERC20PermitDAI",
          "name": "token",
          "type": "address"
        },
        {
          "internalType": "address",
          "name": "holder",
          "type": "address"
        },
        {
          "internalType": "uint256",
          "name": "nonce",
          "type": "uint256"
        },
        {
          "internalType": "uint256",
          "name": "expiry",
          "type": "uint256"
        },
        {
          "internalType": "bool",
          "name": "allowed",
          "type": "bool"
        },
        {
          "internalType": "uint8",
          "name": "v",
          "type": "uint8"
        },
        {
          "internalType": "bytes32",
          "name": "r",
          "type": "bytes32"
        },
        {
          "internalType": "bytes32",
          "name": "s",
          "type": "bytes32"
        }
      ],
      "name": "vaultPermitDAI",
      "outputs": [],
      "stateMutability": "payable",
      "type": "function"
    },
    {
      "inputs": [
        {
          "internalType": "contract IStaticATokenLM",
          "name": "staticToken",
          "type": "address"
        },
        {
          "internalType": "address",
          "name": "sender",
          "type": "address"
        },
        {
          "internalType": "address",
          "name": "recipient",
          "type": "address"
        },
        {
          "internalType": "uint256",
          "name": "amount",
          "type": "uint256"
        },
        {
          "internalType": "bool",
          "name": "fromUnderlying",
          "type": "bool"
        },
        {
          "internalType": "uint256",
          "name": "outputReference",
          "type": "uint256"
        }
      ],
      "name": "wrapAaveDynamicToken",
      "outputs": [
        {
          "internalType": "uint256",
          "name": "",
          "type": "uint256"
        }
      ],
      "stateMutability": "payable",
      "type": "function"
    },
    {
      "inputs": [
        {
          "internalType": "contract IERC4626",
          "name": "wrappedToken",
          "type": "address"
        },
        {
          "internalType": "address",
          "name": "sender",
          "type": "address"
        },
        {
          "internalType": "address",
          "name": "recipient",
          "type": "address"
        },
        {
          "internalType": "uint256",
          "name": "amount",
          "type": "uint256"
        },
        {
          "internalType": "uint256",
          "name": "outputReference",
          "type": "uint256"
        }
      ],
      "name": "wrapERC4626",
      "outputs": [],
      "stateMutability": "payable",
      "type": "function"
    },
    {
      "inputs": [
        {
          "internalType": "contract IUnbuttonToken",
          "name": "wrapperToken",
          "type": "address"
        },
        {
          "internalType": "address",
          "name": "sender",
          "type": "address"
        },
        {
          "internalType": "address",
          "name": "recipient",
          "type": "address"
        },
        {
          "internalType": "uint256",
          "name": "uAmount",
          "type": "uint256"
        },
        {
          "internalType": "uint256",
          "name": "outputReference",
          "type": "uint256"
        }
      ],
      "name": "wrapUnbuttonToken",
      "outputs": [],
      "stateMutability": "payable",
      "type": "function"
    }
  ],
  "bytecode": "0x6101206040527fae1dc54057af8e8e5ce068cdd4383149c7efcb30e8fb95b592ee1594367fb50960e0523480156200003657600080fd5b50604051620050983803806200509883398101604081905262000059916200015d565b8082806001600160a01b031663ad5c46486040518163ffffffff1660e01b815260040160206040518083038186803b1580156200009557600080fd5b505afa158015620000aa573d6000803e3d6000fd5b505050506040513d601f19601f82011682018060405250810190620000d091906200019b565b6001600160601b0319606091821b81166080529082901b1660a05260405181903090620000fd906200014f565b6200010a929190620001c1565b604051809103906000f08015801562000127573d6000803e3d6000fd5b506001600160601b0319606091821b811660c05292901b9091166101005250620001f4915050565b610787806200491183390190565b6000806040838503121562000170578182fd5b82516200017d81620001db565b60208401519092506200019081620001db565b809150509250929050565b600060208284031215620001ad578081fd5b8151620001ba81620001db565b9392505050565b6001600160a01b0392831681529116602082015260400190565b6001600160a01b0381168114620001f157600080fd5b50565b60805160601c60a05160601c60c05160601c60e0516101005160601c6146cc620002456000398061096c5280611a4b5250806129b65250806118f55250806119f55280611b425250506146cc6000f3fe60806040526004361061018b5760003560e01c80637fd0e5d5116100d6578063959fc17a1161007f578063d80952d511610059578063d80952d514610362578063ecc0263714610375578063efe69108146103885761018b565b8063959fc17a1461031c578063abf6d3991461032f578063b6d24737146103425761018b565b80638d64cfbc116100b05780638d64cfbc146102e15780638d928af8146102f45780638fe4624f146103095761018b565b80637fd0e5d51461029957806380db15bd146102bb5780638c57198b146102ce5761018b565b8063611b90dd1161013857806375825bee1161011257806375825bee146102605780637ab6e03c146102735780637bc008f5146102865761018b565b8063611b90dd1461022757806365ca48041461023a5780636d307ea81461024d5761018b565b80632e6272ea116101695780632e6272ea146101e15780633f85d39014610201578063433b0865146102145761018b565b80630e248fea1461019057806318369446146101a5578063223e174d146101ce575b600080fd5b6101a361019e36600461345f565b61039b565b005b6101b86101b3366004613ab9565b610436565b6040516101c5919061412b565b60405180910390f35b6101a36101dc3660046133b0565b610643565b6101f46101ef366004613bb5565b61080c565b6040516101c59190614593565b6101a361020f366004613366565b610939565b6101f461022236600461395a565b610a11565b6101a36102353660046138b0565b610ddf565b6101a361024836600461390a565b610efa565b6101a361025b3660046138b0565b6110ed565b6101f461026e36600461390a565b611318565b6101a361028136600461395a565b6115f2565b6101a361029436600461390a565b611707565b3480156102a557600080fd5b506102ae6118f3565b6040516101c59190613f03565b6101a36102c93660046132d9565b611917565b6101a36102dc3660046135fc565b611a1b565b6101a36102ef366004613817565b611ac6565b34801561030057600080fd5b506102ae611b40565b6101a3610317366004613707565b611b64565b6101a361032a366004613796565b611d8e565b6101a361033d3660046138b0565b611e0b565b34801561034e57600080fd5b506101a361035d366004613885565b611fc1565b6101a361037036600461365f565b612048565b6101a361038336600461352f565b6125d6565b6101a36103963660046138b0565b6126d8565b8060005b81811015610430578383828181106103b357fe5b90506020020160208101906103c891906132a1565b6001600160a01b03166384e9bd7e336040518263ffffffff1660e01b81526004016103f39190613f03565b600060405180830381600087803b15801561040d57600080fd5b505af1158015610421573d6000803e3d6000fd5b5050505080600101905061039f565b50505050565b60603361044660208a018a6132a1565b6001600160a01b0316148061046f57503061046460208a018a6132a1565b6001600160a01b0316145b6104945760405162461bcd60e51b815260040161048b90614463565b60405180910390fd5b60005b8b518110156104f95760008c82815181106104ae57fe5b60200260200101516060015190506104c581612781565b156104f0576104d3816127cc565b8d83815181106104df57fe5b602002602001015160600181815250505b50600101610497565b506060610504611b40565b6001600160a01b031663945bcec9868f8f8f8f8f8f8f8f6040518a63ffffffff1660e01b815260040161053e98979695949392919061435a565b6000604051808303818588803b15801561055757600080fd5b505af115801561056b573d6000803e3d6000fd5b50505050506040513d6000823e601f3d908101601f19168201604052610594919081019061349f565b905060005b83811015610632576105bf8585838181106105b057fe5b90506040020160200135612781565b6105db5760405162461bcd60e51b815260040161048b906144d1565b61062a8585838181106105ea57fe5b905060400201602001356106258488888681811061060457fe5b905060400201600001358151811061061857fe5b60200260200101516127e6565b612800565b600101610599565b509c9b505050505050505050505050565b60005b825181101561080757600083828151811061065d57fe5b602002602001015190506000816001600160a01b03166370a08231306040518263ffffffff1660e01b81526004016106959190613f03565b60206040518083038186803b1580156106ad57600080fd5b505afa1580156106c1573d6000803e3d6000fd5b505050506040513d601f19601f820116820180604052508101906106e59190613ca3565b905080156107fd576040517f70a082310000000000000000000000000000000000000000000000000000000081526001600160a01b0383169063a9059cbb90869083906370a082319061073c903090600401613f03565b60206040518083038186803b15801561075457600080fd5b505afa158015610768573d6000803e3d6000fd5b505050506040513d601f19601f8201168201806040525081019061078c9190613ca3565b6040518363ffffffff1660e01b81526004016107a9929190614063565b602060405180830381600087803b1580156107c357600080fd5b505af11580156107d7573d6000803e3d6000fd5b505050506040513d601f19601f820116820180604052508101906107fb91906135e0565b505b5050600101610646565b505050565b60003361081c60208801886132a1565b6001600160a01b0316148061084557503061083a60208801886132a1565b6001600160a01b0316145b6108615760405162461bcd60e51b815260040161048b90614463565b61086e8760800151612781565b156108865761088087608001516127cc565b60808801525b6000610890611b40565b6001600160a01b03166352bbbe29858a8a8a8a6040518663ffffffff1660e01b81526004016108c29493929190614508565b6020604051808303818588803b1580156108db57600080fd5b505af11580156108ef573d6000803e3d6000fd5b50505050506040513d601f19601f820116820180604052508101906109149190613ca3565b905061091f83612781565b1561092e5761092e8382612800565b979650505050505050565b6040517f3b9f73840000000000000000000000000000000000000000000000000000000081526000906001600160a01b037f00000000000000000000000000000000000000000000000000000000000000001690633b9f7384906109a5908790879033906004016140cb565b602060405180830381600087803b1580156109bf57600080fd5b505af11580156109d3573d6000803e3d6000fd5b505050506040513d601f19601f820116820180604052508101906109f79190613ca3565b9050610a0282612781565b15610430576104308282612800565b6000610a1c84612781565b15610a2d57610a2a846127cc565b93505b600083610aac57876001600160a01b03166351c0e0616040518163ffffffff1660e01b8152600401602060405180830381600087803b158015610a6f57600080fd5b505af1158015610a83573d6000803e3d6000fd5b505050506040513d601f19601f82011682018060405250810190610aa791906132bd565b610b1f565b876001600160a01b0316634800d97f6040518163ffffffff1660e01b8152600401602060405180830381600087803b158015610ae757600080fd5b505af1158015610afb573d6000803e3d6000fd5b505050506040513d601f19601f82011682018060405250810190610b1f91906132bd565b90506001600160a01b0387163014610b64576001600160a01b0387163314610b595760405162461bcd60e51b815260040161048b90614463565b610b64878287612813565b6040517f095ea7b30000000000000000000000000000000000000000000000000000000081526001600160a01b0382169063095ea7b390610bab908b908990600401614063565b602060405180830381600087803b158015610bc557600080fd5b505af1158015610bd9573d6000803e3d6000fd5b505050506040513d601f19601f82011682018060405250810190610bfd91906135e0565b506040517f70a082310000000000000000000000000000000000000000000000000000000081526000906001600160a01b038a16906370a0823190610c46908a90600401613f03565b60206040518083038186803b158015610c5e57600080fd5b505afa158015610c72573d6000803e3d6000fd5b505050506040513d601f19601f82011682018060405250810190610c969190613ca3565b90506000896001600160a01b0316632f2cab87898960008a6040518563ffffffff1660e01b8152600401610ccd949392919061409f565b602060405180830381600087803b158015610ce757600080fd5b505af1158015610cfb573d6000803e3d6000fd5b505050506040513d601f19601f82011682018060405250810190610d1f9190613ca3565b9050610d2a85612781565b15610d3957610d398582612800565b6040517f70a0823100000000000000000000000000000000000000000000000000000000815282906001600160a01b038c16906370a0823190610d80908c90600401613f03565b60206040518083038186803b158015610d9857600080fd5b505afa158015610dac573d6000803e3d6000fd5b505050506040513d601f19601f82011682018060405250810190610dd09190613ca3565b039a9950505050505050505050565b610de882612781565b15610df957610df6826127cc565b91505b6001600160a01b0384163014610e3c576001600160a01b0384163314610e315760405162461bcd60e51b815260040161048b90614463565b610e3c848684612813565b6040517fea785a5e0000000000000000000000000000000000000000000000000000000081526000906001600160a01b0387169063ea785a5e90610e869087908790600401614063565b602060405180830381600087803b158015610ea057600080fd5b505af1158015610eb4573d6000803e3d6000fd5b505050506040513d601f19601f82011682018060405250810190610ed89190613ca3565b9050610ee382612781565b15610ef257610ef28282612800565b505050505050565b610f0381612781565b15610f1457610f11816127cc565b90505b6001600160a01b0383163014610f57576001600160a01b0383163314610f4c5760405162461bcd60e51b815260040161048b90614463565b610f57838583612813565b6040517f2e1a7d4d0000000000000000000000000000000000000000000000000000000081526001600160a01b03851690632e1a7d4d90610f9c908490600401614593565b600060405180830381600087803b158015610fb657600080fd5b505af1158015610fca573d6000803e3d6000fd5b505050506001600160a01b0382163014610430576000846001600160a01b03166382c630666040518163ffffffff1660e01b815260040160206040518083038186803b15801561101957600080fd5b505afa15801561102d573d6000803e3d6000fd5b505050506040513d601f19601f8201168201806040525081019061105191906132bd565b6040517fa9059cbb0000000000000000000000000000000000000000000000000000000081529091506001600160a01b0382169063a9059cbb9061109b9086908690600401614063565b602060405180830381600087803b1580156110b557600080fd5b505af11580156110c9573d6000803e3d6000fd5b505050506040513d601f19601f82011682018060405250810190610ef291906135e0565b6110f682612781565b1561110757611104826127cc565b91505b6000856001600160a01b03166338d52e0f6040518163ffffffff1660e01b815260040160206040518083038186803b15801561114257600080fd5b505afa158015611156573d6000803e3d6000fd5b505050506040513d601f19601f8201168201806040525081019061117a91906132bd565b90506001600160a01b03851630146111bf576001600160a01b03851633146111b45760405162461bcd60e51b815260040161048b90614463565b6111bf858285612813565b6040517f095ea7b30000000000000000000000000000000000000000000000000000000081526001600160a01b0382169063095ea7b3906112069089908790600401614063565b602060405180830381600087803b15801561122057600080fd5b505af1158015611234573d6000803e3d6000fd5b505050506040513d601f19601f8201168201806040525081019061125891906135e0565b506040517f6e553f650000000000000000000000000000000000000000000000000000000081526000906001600160a01b03881690636e553f65906112a3908790899060040161459c565b602060405180830381600087803b1580156112bd57600080fd5b505af11580156112d1573d6000803e3d6000fd5b505050506040513d601f19601f820116820180604052508101906112f59190613ca3565b905061130083612781565b1561130f5761130f8382612800565b50505050505050565b600061132382612781565b1561133457611331826127cc565b91505b6001600160a01b03841630146113e7576001600160a01b038416331461136c5760405162461bcd60e51b815260040161048b90614463565b6113e784866001600160a01b0316631b6f1b476040518163ffffffff1660e01b815260040160206040518083038186803b1580156113a957600080fd5b505afa1580156113bd573d6000803e3d6000fd5b505050506040513d601f19601f820116820180604052508101906113e191906132bd565b84612813565b6040517fb6b55f250000000000000000000000000000000000000000000000000000000081526001600160a01b0386169063b6b55f259061142c908590600401614593565b600060405180830381600087803b15801561144657600080fd5b505af115801561145a573d6000803e3d6000fd5b50506040517f70a08231000000000000000000000000000000000000000000000000000000008152600092506001600160a01b03881691506370a08231906114a6903090600401613f03565b60206040518083038186803b1580156114be57600080fd5b505afa1580156114d2573d6000803e3d6000fd5b505050506040513d601f19601f820116820180604052508101906114f69190613ca3565b9050856001600160a01b0316631b6f1b476040518163ffffffff1660e01b815260040160206040518083038186803b15801561153157600080fd5b505afa158015611545573d6000803e3d6000fd5b505050506040513d601f19601f8201168201806040525081019061156991906132bd565b6001600160a01b031663a9059cbb85836040518363ffffffff1660e01b8152600401611596929190614063565b602060405180830381600087803b1580156115b057600080fd5b505af11580156115c4573d6000803e3d6000fd5b505050506040513d601f19601f820116820180604052508101906115e891906135e0565b5095945050505050565b6115fb83612781565b1561160c57611609836127cc565b92505b6001600160a01b038516301461164f576001600160a01b03851633146116445760405162461bcd60e51b815260040161048b90614463565b61164f858785612813565b6040517fead5d3590000000000000000000000000000000000000000000000000000000081526000906001600160a01b0388169063ead5d3599061169b9088908890889060040161407c565b6040805180830381600087803b1580156116b457600080fd5b505af11580156116c8573d6000803e3d6000fd5b505050506040513d601f19601f820116820180604052508101906116ec9190613cbb565b9150506116f882612781565b1561130f5761130f8282612800565b61171081612781565b156117215761171e816127cc565b90505b6000846001600160a01b03166382c630666040518163ffffffff1660e01b815260040160206040518083038186803b15801561175c57600080fd5b505afa158015611770573d6000803e3d6000fd5b505050506040513d601f19601f8201168201806040525081019061179491906132bd565b90506001600160a01b03841630146117d9576001600160a01b03841633146117ce5760405162461bcd60e51b815260040161048b90614463565b6117d9848284612813565b6040517f095ea7b30000000000000000000000000000000000000000000000000000000081526001600160a01b0382169063095ea7b3906118209088908690600401614063565b602060405180830381600087803b15801561183a57600080fd5b505af115801561184e573d6000803e3d6000fd5b505050506040513d601f19601f8201168201806040525081019061187291906135e0565b506040517f6e553f650000000000000000000000000000000000000000000000000000000081526001600160a01b03861690636e553f65906118ba908590879060040161459c565b600060405180830381600087803b1580156118d457600080fd5b505af11580156118e8573d6000803e3d6000fd5b505050505050505050565b7f000000000000000000000000000000000000000000000000000000000000000090565b6001600160a01b03841630148061192c575082155b6119485760405162461bcd60e51b815260040161048b9061449a565b606063fa6e671d60e01b33868660405160240161196793929190613f17565b60408051601f19818403018152918152602080830180517bffffffffffffffffffffffffffffffffffffffffffffffffffffffff167fffffffff0000000000000000000000000000000000000000000000000000000090951694909417909352516119d6928691869101613ed0565b60408051601f198184030181529190529050610ef26001600160a01b037f000000000000000000000000000000000000000000000000000000000000000016826128b6565b6040517fc65427940000000000000000000000000000000000000000000000000000000081526001600160a01b037f0000000000000000000000000000000000000000000000000000000000000000169063c654279490611a8c9030908a908a908a908a908a908a9060040161401f565b600060405180830381600087803b158015611aa657600080fd5b505af1158015611aba573d6000803e3d6000fd5b50505050505050505050565b866001600160a01b031663d505accf87611ade611b40565b88888888886040518863ffffffff1660e01b8152600401611b059796959493929190613fde565b600060405180830381600087803b158015611b1f57600080fd5b505af1158015611b33573d6000803e3d6000fd5b5050505050505050505050565b7f000000000000000000000000000000000000000000000000000000000000000090565b6001600160a01b038516331480611b8357506001600160a01b03851630145b611b9f5760405162461bcd60e51b815260040161048b90614463565b6000611baa8861292e565b90506000611bb783612781565b611bc2576000611c57565b6040517f70a082310000000000000000000000000000000000000000000000000000000081526001600160a01b038316906370a0823190611c07908990600401613f03565b60206040518083038186803b158015611c1f57600080fd5b505afa158015611c33573d6000803e3d6000fd5b505050506040513d601f19601f82011682018060405250810190611c579190613ca3565b9050611c67888660400151612934565b6040860152611c74611b40565b6001600160a01b031663b95cac28858b8a8a8a6040518663ffffffff1660e01b8152600401611ca694939291906142b3565b6000604051808303818588803b158015611cbf57600080fd5b505af1158015611cd3573d6000803e3d6000fd5b5050505050611ce183612781565b156118e8576040517f70a082310000000000000000000000000000000000000000000000000000000081526000906001600160a01b038416906370a0823190611d2e908a90600401613f03565b60206040518083038186803b158015611d4657600080fd5b505afa158015611d5a573d6000803e3d6000fd5b505050506040513d601f19601f82011682018060405250810190611d7e9190613ca3565b9050611aba846106258385612962565b876001600160a01b0316638fcbaf0c88611da6611b40565b8989898989896040518963ffffffff1660e01b8152600401611dcf989796959493929190613f95565b600060405180830381600087803b158015611de957600080fd5b505af1158015611dfd573d6000803e3d6000fd5b505050505050505050505050565b611e1482612781565b15611e2557611e22826127cc565b91505b6000856001600160a01b0316636f307dc36040518163ffffffff1660e01b815260040160206040518083038186803b158015611e6057600080fd5b505afa158015611e74573d6000803e3d6000fd5b505050506040513d601f19601f82011682018060405250810190611e9891906132bd565b90506001600160a01b0385163014611edd576001600160a01b0385163314611ed25760405162461bcd60e51b815260040161048b90614463565b611edd858285612813565b6040517f095ea7b30000000000000000000000000000000000000000000000000000000081526001600160a01b0382169063095ea7b390611f249089908790600401614063565b602060405180830381600087803b158015611f3e57600080fd5b505af1158015611f52573d6000803e3d6000fd5b505050506040513d601f19601f82011682018060405250810190611f7691906135e0565b506040517f2f4f21e20000000000000000000000000000000000000000000000000000000081526000906001600160a01b03881690632f4f21e2906112a39088908890600401614063565b816001600160a01b031663095ea7b3611fd8611b40565b836040518363ffffffff1660e01b8152600401611ff6929190614063565b602060405180830381600087803b15801561201057600080fd5b505af1158015612024573d6000803e3d6000fd5b505050506040513d601f19601f8201168201806040525081019061080791906135e0565b6001600160a01b03851633148061206757506001600160a01b03851630145b6120835760405162461bcd60e51b815260040161048b90614463565b60608167ffffffffffffffff8111801561209c57600080fd5b506040519080825280602002602001820160405280156120c6578160200160208202803683370190505b50905060608267ffffffffffffffff811180156120e257600080fd5b5060405190808252806020026020018201604052801561210c578160200160208202803683370190505b50905060005b8381101561227c576121298585838181106105b057fe5b6121455760405162461bcd60e51b815260040161048b906144d1565b855160009086868481811061215657fe5b905060400201600001358151811061216a57fe5b602002602001015190508660600151156121b85761218781612978565b84838151811061219357fe5b60200260200101906001600160a01b031690816001600160a01b031681525050612273565b6121c18161297b565b61224e576121ce81612978565b6001600160a01b03166370a08231896040518263ffffffff1660e01b81526004016121f99190613f03565b60206040518083038186803b15801561221157600080fd5b505afa158015612225573d6000803e3d6000fd5b505050506040513d601f19601f820116820180604052508101906122499190613ca3565b61225a565b876001600160a01b0316315b83838151811061226657fe5b6020026020010181815250505b50600101612112565b508460600151156123135761228f611b40565b6001600160a01b0316630f5a6efa87846040518363ffffffff1660e01b81526004016122bc929190613f3b565b60006040518083038186803b1580156122d457600080fd5b505afa1580156122e8573d6000803e3d6000fd5b505050506040513d6000823e601f3d908101601f1916820160405261231091908101906135a5565b90505b612321888660400151612988565b604086015261232e611b40565b6001600160a01b0316638bdb39138a8989896040518563ffffffff1660e01b815260040161235f94939291906142b3565b600060405180830381600087803b15801561237957600080fd5b505af115801561238d573d6000803e3d6000fd5b50606092508591505067ffffffffffffffff811180156123ac57600080fd5b506040519080825280602002602001820160405280156123d6578160200160208202803683370190505b509050856060015115612473576123eb611b40565b6001600160a01b0316630f5a6efa88856040518363ffffffff1660e01b8152600401612418929190613f3b565b60006040518083038186803b15801561243057600080fd5b505afa158015612444573d6000803e3d6000fd5b505050506040513d6000823e601f3d908101601f1916820160405261246c91908101906135a5565b9050612571565b60005b8481101561256f57865160009087878481811061248f57fe5b90506040020160000135815181106124a357fe5b602002602001015190506124b68161297b565b612543576124c381612978565b6001600160a01b03166370a082318a6040518263ffffffff1660e01b81526004016124ee9190613f03565b60206040518083038186803b15801561250657600080fd5b505afa15801561251a573d6000803e3d6000fd5b505050506040513d601f19601f8201168201806040525081019061253e9190613ca3565b61254f565b886001600160a01b0316315b83838151811061255b57fe5b602090810291909101015250600101612476565b505b60005b84811015611b33576125ce86868381811061258b57fe5b905060400201602001356106258584815181106125a457fe5b60200260200101518585815181106125b857fe5b602002602001015161296290919063ffffffff16565b600101612574565b60005b8281101561266a57338484838181106125ee57fe5b905060a00201606001602081019061260691906132a1565b6001600160a01b0316148061264657503084848381811061262357fe5b905060a00201606001602081019061263b91906132a1565b6001600160a01b0316145b6126625760405162461bcd60e51b815260040161048b90614463565b6001016125d9565b50612673611b40565b6001600160a01b0316630e8e3e848285856040518463ffffffff1660e01b81526004016126a192919061416f565b6000604051808303818588803b1580156126ba57600080fd5b505af11580156126ce573d6000803e3d6000fd5b5050505050505050565b6126e182612781565b156126f2576126ef826127cc565b91505b6001600160a01b0384163014612735576001600160a01b038416331461272a5760405162461bcd60e51b815260040161048b90614463565b612735848684612813565b6040517fba0876520000000000000000000000000000000000000000000000000000000081526000906001600160a01b0387169063ba08765290610e86908690889030906004016145b3565b7fba100000000000000000000000000000000000000000000000000000000000007fffff0000000000000000000000000000000000000000000000000000000000008216145b919050565b6000806127d8836129af565b805460009091559392505050565b60008082136127f857816000036127fa565b815b92915050565b600061280b836129af565b919091555050565b8061281d57610807565b60408051600180825281830190925260609160208083019080368337019050509050828160008151811061284d57fe5b6001600160a01b039290921660209283029190910190910152604080516001808252818301909252606091816020016020820280368337019050509050828160008151811061289857fe5b6020026020010181815250506128af858383612a05565b5050505050565b606060006060846001600160a01b0316846040516128d49190613eb4565b6000604051808303816000865af19150503d8060008114612911576040519150601f19603f3d011682016040523d82523d6000602084013e612916565b606091505b50915091506129258282612b3f565b95945050505050565b60601c90565b6060600083801561294157fe5b14156129575761295082612b69565b90506127fa565b6127fa610136612ba6565b6000612972838311156001612bd3565b50900390565b90565b6001600160a01b03161590565b6060600083801561299557fe5b14156129a45761295082612be5565b6127fa610150612ba6565b60006001827f00000000000000000000000000000000000000000000000000000000000000006040516020016129e6929190613ef5565b60408051808303601f1901815291905280516020909101200392915050565b6060825167ffffffffffffffff81118015612a1f57600080fd5b50604051908082528060200260200182016040528015612a5957816020015b612a46612e76565b815260200190600190039081612a3e5790505b50905060005b8351811015612af1576040805160a081019091528060038152602001858381518110612a8757fe5b60200260200101516001600160a01b03168152602001848381518110612aa957fe5b60200260200101518152602001866001600160a01b03168152602001306001600160a01b0316815250828281518110612ade57fe5b6020908102919091010152600101612a5f565b50612afa611b40565b6001600160a01b0316630e8e3e84826040518263ffffffff1660e01b8152600401612b25919061421d565b600060405180830381600087803b1580156126ba57600080fd5b60608215612b4e5750806127fa565b815115612b5e5781518083602001fd5b6127fa6101ae612ba6565b60606000612b7683612c2e565b90506001816004811115612b8657fe5b1415612b9d57612b9583612c44565b9150506127c7565b829150506127c7565b612bd0817f42414c0000000000000000000000000000000000000000000000000000000000612cf2565b50565b81612be157612be181612ba6565b5050565b60606000612bf283612d53565b90506000816003811115612c0257fe5b1415612c1157612b9583612d69565b6001816003811115612c1f57fe5b1415612b9d57612b9583612dcc565b6000818060200190518101906127fa9190613a48565b6060806000612c5284612e1f565b915091506000805b8351811015612cb8576000848281518110612c7157fe5b60200260200101519050612c8481612781565b15612caf57612c92816127cc565b858381518110612c9e57fe5b602002602001018181525050600192505b50600101612c5a565b5080612cc45784612925565b60018383604051602001612cda93929190614327565b60405160208183030381529060405295945050505050565b62461bcd60e51b600090815260206004526007602452600a808404818106603090810160081b958390069590950190829004918206850160101b01602363ffffff0060e086901c160160181b0190930160c81b60445260e882901c90606490fd5b6000818060200190518101906127fa91906139c9565b6060600080612d7784612e42565b91509150612d8482612781565b15612dc257612d92826127cc565b915060008282604051602001612daa93929190614306565b604051602081830303815290604052925050506127c7565b83925050506127c7565b60606000612dd983612e59565b9050612de481612781565b15612b9d57612df2816127cc565b9050600181604051602001612e089291906142ef565b6040516020818303038152906040529150506127c7565b6060600082806020019051810190612e379190613a63565b909590945092505050565b60008082806020019051810190612e379190613a12565b600081806020019051810190612e6f91906139e5565b9392505050565b6040805160a081019091528060008152600060208201819052604082018190526060820181905260809091015290565b80356127fa81614666565b60008083601f840112612ec2578182fd5b50813567ffffffffffffffff811115612ed9578182fd5b6020830191508360208083028501011115612ef357600080fd5b9250929050565b600082601f830112612f0a578081fd5b8135612f1d612f18826145f9565b6145d2565b818152915060208083019084810181840286018201871015612f3e57600080fd5b60005b84811015612f66578135612f5481614666565b84529282019290820190600101612f41565b505050505092915050565b600082601f830112612f81578081fd5b8135612f8f612f18826145f9565b818152915060208083019084810160005b84811015612f66578135870160a080601f19838c03011215612fc157600080fd5b612fca816145d2565b85830135815260408084013587830152606080850135828401526080915081850135818401525082840135925067ffffffffffffffff83111561300c57600080fd5b61301a8c888587010161313c565b90820152865250509282019290820190600101612fa0565b60008083601f840112613043578182fd5b50813567ffffffffffffffff81111561305a578182fd5b602083019150836020604083028501011115612ef357600080fd5b600082601f830112613085578081fd5b8135613093612f18826145f9565b8181529150602080830190848101818402860182018710156130b457600080fd5b60005b84811015612f66578135845292820192908201906001016130b7565b600082601f8301126130e3578081fd5b81516130f1612f18826145f9565b81815291506020808301908481018184028601820187101561311257600080fd5b60005b84811015612f6657815184529282019290820190600101613115565b80356127fa8161467b565b600082601f83011261314c578081fd5b813567ffffffffffffffff811115613162578182fd5b6131756020601f19601f840116016145d2565b915080825283602082850101111561318c57600080fd5b8060208401602084013760009082016020015292915050565b8051600581106127fa57600080fd5b8035600181106127fa57600080fd5b8035600281106127fa57600080fd5b6000608082840312156131e3578081fd5b6131ed60806145d2565b9050813567ffffffffffffffff8082111561320757600080fd5b61321385838601612efa565b8352602084013591508082111561322957600080fd5b61323585838601613075565b6020840152604084013591508082111561324e57600080fd5b5061325b8482850161313c565b60408301525061326e8360608401613131565b606082015292915050565b60006080828403121561328a578081fd5b50919050565b803560ff811681146127fa57600080fd5b6000602082840312156132b2578081fd5b8135612e6f81614666565b6000602082840312156132ce578081fd5b8151612e6f81614666565b600080600080606085870312156132ee578283fd5b84356132f981614666565b935060208501356133098161467b565b9250604085013567ffffffffffffffff80821115613325578384fd5b818701915087601f830112613338578384fd5b813581811115613346578485fd5b886020828501011115613357578485fd5b95989497505060200194505050565b60008060006040848603121561337a578081fd5b833567ffffffffffffffff811115613390578182fd5b61339c86828701612eb1565b909790965060209590950135949350505050565b600080604083850312156133c2578182fd5b823567ffffffffffffffff8111156133d8578283fd5b8301601f810185136133e8578283fd5b80356133f6612f18826145f9565b808282526020808301925080850189828387028801011115613416578788fd5b8795505b8486101561344157803561342d81614666565b84526001959095019492810192810161341a565b5081965061345189828a01612ea6565b955050505050509250929050565b60008060208385031215613471578182fd5b823567ffffffffffffffff811115613487578283fd5b61349385828601612eb1565b90969095509350505050565b600060208083850312156134b1578182fd5b825167ffffffffffffffff8111156134c7578283fd5b8301601f810185136134d7578283fd5b80516134e5612f18826145f9565b8181528381019083850185840285018601891015613501578687fd5b8694505b83851015613523578051835260019490940193918501918501613505565b50979650505050505050565b600080600060408486031215613543578081fd5b833567ffffffffffffffff8082111561355a578283fd5b818601915086601f83011261356d578283fd5b81358181111561357b578384fd5b87602060a08302850101111561358f578384fd5b6020928301989097509590910135949350505050565b6000602082840312156135b6578081fd5b815167ffffffffffffffff8111156135cc578182fd5b6135d8848285016130d3565b949350505050565b6000602082840312156135f1578081fd5b8151612e6f8161467b565b60008060008060008060c08789031215613614578384fd5b863561361f8161467b565b9550602087013561362f81614666565b9450604087013593506136458860608901613290565b92506080870135915060a087013590509295509295509295565b600080600080600080600060c0888a031215613679578485fd5b8735965061368a8960208a016131b4565b9550604088013561369a81614666565b945060608801356136aa81614666565b9350608088013567ffffffffffffffff808211156136c6578283fd5b6136d28b838c016131d2565b945060a08a01359150808211156136e7578283fd5b506136f48a828b01613032565b989b979a50959850939692959293505050565b600080600080600080600060e0888a031215613721578081fd5b873596506137328960208a016131b4565b9550604088013561374281614666565b9450606088013561375281614666565b9350608088013567ffffffffffffffff81111561376d578182fd5b6137798a828b016131d2565b93505060a0880135915060c0880135905092959891949750929550565b600080600080600080600080610100898b0312156137b2578182fd5b88356137bd81614666565b975060208901356137cd81614666565b9650604089013595506060890135945060808901356137eb8161467b565b93506137fa8a60a08b01613290565b925060c0890135915060e089013590509295985092959890939650565b600080600080600080600060e0888a031215613831578081fd5b873561383c81614666565b9650602088013561384c81614666565b955060408801359450606088013593506138698960808a01613290565b925060a0880135915060c0880135905092959891949750929550565b60008060408385031215613897578182fd5b82356138a281614666565b946020939093013593505050565b600080600080600060a086880312156138c7578283fd5b85356138d281614666565b945060208601356138e281614666565b935060408601356138f281614666565b94979396509394606081013594506080013592915050565b6000806000806080858703121561391f578182fd5b843561392a81614666565b9350602085013561393a81614666565b9250604085013561394a81614666565b9396929550929360600135925050565b60008060008060008060c08789031215613972578384fd5b863561397d81614666565b9550602087013561398d81614666565b9450604087013561399d81614666565b93506060870135925060808701356139b48161467b565b8092505060a087013590509295509295509295565b6000602082840312156139da578081fd5b8151612e6f81614689565b600080604083850312156139f7578182fd5b8251613a0281614689565b6020939093015192949293505050565b600080600060608486031215613a26578081fd5b8351613a3181614689565b602085015160409095015190969495509392505050565b600060208284031215613a59578081fd5b612e6f83836131a5565b600080600060608486031215613a77578081fd5b613a8185856131a5565b9250602084015167ffffffffffffffff811115613a9c578182fd5b613aa8868287016130d3565b925050604084015190509250925092565b60008060008060008060008060008060006101608c8e031215613ada578485fd5b613ae48d8d6131c3565b9a5067ffffffffffffffff8060208e01351115613aff578586fd5b613b0f8e60208f01358f01612f71565b9a508060408e01351115613b21578586fd5b613b318e60408f01358f01612eb1565b909a509850613b438e60608f01613279565b97508060e08e01351115613b55578586fd5b613b658e60e08f01358f01612eb1565b90975095506101008d013594506101208d013593506101408d0135811015613b8b578283fd5b50613b9d8d6101408e01358e01613032565b81935080925050509295989b509295989b9093969950565b6000806000806000806101208789031215613bce578384fd5b863567ffffffffffffffff80821115613be5578586fd5b9088019060c0828b031215613bf8578586fd5b613c0260c06145d2565b82358152613c138b602085016131c3565b60208201526040830135613c2681614666565b6040820152613c388b60608501612ea6565b60608201526080830135608082015260a083013582811115613c58578788fd5b613c648c82860161313c565b60a083015250809850505050613c7d8860208901613279565b959895975050505060a08401359360c08101359360e08201359350610100909101359150565b600060208284031215613cb4578081fd5b5051919050565b60008060408385031215613ccd578182fd5b505080516020909101519092909150565b6001600160a01b03169052565b60008284526020808501945082825b85811015613d28578135613d0d81614666565b6001600160a01b031687529582019590820190600101613cfa565b509495945050505050565b60008284526020808501945082825b85811015613d2857813587529582019590820190600101613d42565b6000815180845260208085019450808401835b83811015613d2857815187529582019590820190600101613d71565b15159052565b60008151808452613dab816020860160208601614626565b601f01601f19169290920160200192915050565b8051608080845281519084018190526000916020919082019060a0860190845b81811015613e045783516001600160a01b031683529284019291840191600101613ddf565b505082850151915085810383870152613e1d8183613d5e565b9250505060408301518482036040860152613e388282613d93565b9150506060830151613e4d6060860182613d8d565b509392505050565b8035613e6081614666565b6001600160a01b039081168352602082013590613e7c8261467b565b9015156020840152604082013590613e9382614666565b1660408301526060810135613ea78161467b565b8015156060840152505050565b60008251613ec6818460208701614626565b9190910192915050565b60008451613ee2818460208901614626565b8201838582379092019182525092915050565b918252602082015260400190565b6001600160a01b0391909116815260200190565b6001600160a01b039384168152919092166020820152901515604082015260600190565b6000604082016001600160a01b03808616845260206040818601528286518085526060870191508288019450855b81811015613f87578551851683529483019491830191600101613f69565b509098975050505050505050565b6001600160a01b039889168152969097166020870152604086019490945260608501929092521515608084015260ff1660a083015260c082015260e08101919091526101000190565b6001600160a01b0397881681529590961660208601526040850193909352606084019190915260ff16608083015260a082015260c081019190915260e00190565b6001600160a01b0397881681529515156020870152939095166040850152606084019190915260ff16608083015260a082019290925260c081019190915260e00190565b6001600160a01b03929092168252602082015260400190565b6001600160a01b0393909316835260208301919091521515604082015260600190565b6001600160a01b03949094168452602084019290925261ffff1660408301521515606082015260800190565b6040808252810183905260008460608301825b8681101561410e57602083356140f381614666565b6001600160a01b0316835292830192909101906001016140de565b5080925050506001600160a01b0383166020830152949350505050565b6020808252825182820181905260009190848201906040850190845b8181101561416357835183529284019291840191600101614147565b50909695505050505050565b6020808252818101839052600090604080840186845b8781101561421057813561419881614689565b6141a181614652565b8352818501356141b081614666565b6001600160a01b031683860152818401358484015260606141d381840184614619565b6141df82860182613cde565b505060806141ef81840184614619565b6141fb82860182613cde565b505060a0928301929190910190600101614185565b5090979650505050505050565b602080825282518282018190526000919060409081850190868401855b828110156142a6578151805161424f81614652565b8552808701516001600160a01b031687860152858101518686015260608082015161427c82880182613cde565b50506080908101519061429186820183613cde565b505060a093909301929085019060010161423a565b5091979650505050505050565b60008582526001600160a01b038086166020840152808516604084015250608060608301526142e56080830184613dbf565b9695505050505050565b604081016142fc84614652565b9281526020015290565b6060810161431385614652565b938152602081019290925260409091015290565b60006005851061433357fe5b8482526060602083015261434a6060830185613d5e565b9050826040830152949350505050565b600061012080830161436b8c61465c565b8b84526020808501929092528a5190819052610140808501928281028601909101918c8201855b82811015614412578785037ffffffffffffffffffffffffffffffffffffffffffffffffffffffffffffffec00186528151805186528481015185870152604080820151908701526060808201519087015260809081015160a0918701829052906143fe81880183613d93565b978601979650505090830190600101614392565b505050508381036040850152614429818a8c613ceb565b9150506144396060840188613e55565b82810360e084015261444c818688613d33565b915050826101008301529998505050505050505050565b60208082526010908201527f496e636f72726563742073656e64657200000000000000000000000000000000604082015260600190565b6020808252601f908201527f52656c617965722063616e206f6e6c7920617070726f766520697473656c6600604082015260600190565b60208082526019908201527f696e76616c696420636861696e6564207265666572656e636500000000000000604082015260600190565b600060e08252855160e083015260208601516145238161465c565b61010083015260408601516001600160a01b03908116610120840152606087015116610140830152608086015161016083015260a086015160c06101808401526145716101a0840182613d93565b9150506145816020830186613e55565b60a082019390935260c0015292915050565b90815260200190565b9182526001600160a01b0316602082015260400190565b9283526001600160a01b03918216602084015216604082015260600190565b60405181810167ffffffffffffffff811182821017156145f157600080fd5b604052919050565b600067ffffffffffffffff82111561460f578081fd5b5060209081020190565b60008235612e6f81614666565b60005b83811015614641578181015183820152602001614629565b838111156104305750506000910152565b60048110612bd057fe5b60028110612bd057fe5b6001600160a01b0381168114612bd057600080fd5b8015158114612bd057600080fd5b60048110612bd057600080fdfea2646970667358221220967d9a1407db55931c332d4ad4ace73a169e2c4b8070ff84c55367e2c7359f4b64736f6c6343000701003360c060405234801561001057600080fd5b5060405161078738038061078783398101604081905261002f91610052565b60016000556001600160601b0319606092831b8116608052911b1660a0526100a3565b60008060408385031215610064578182fd5b825161006f8161008b565b60208401519092506100808161008b565b809150509250929050565b6001600160a01b03811681146100a057600080fd5b50565b60805160601c60a05160601c6106b36100d46000398060fc528061020f5250806058528061012052506106b36000f3fe6080604052600436106100385760003560e01c80637678922e146100885780638d928af8146100b3578063ac9650d8146100c857610083565b36610083576100813373ffffffffffffffffffffffffffffffffffffffff7f000000000000000000000000000000000000000000000000000000000000000016146102066100e8565b005b600080fd5b34801561009457600080fd5b5061009d6100fa565b6040516100aa919061050e565b60405180910390f35b3480156100bf57600080fd5b5061009d61011e565b6100db6100d6366004610480565b610142565b6040516100aa919061052f565b816100f6576100f68161026e565b5050565b7f000000000000000000000000000000000000000000000000000000000000000090565b7f000000000000000000000000000000000000000000000000000000000000000090565b606061014c61029b565b8167ffffffffffffffff8111801561016357600080fd5b5060405190808252806020026020018201604052801561019757816020015b60608152602001906001900390816101825790505b50905060005b82811015610257576102388484838181106101b457fe5b90506020028101906101c691906105e3565b8080601f0160208091040260200160405190810160405280939291908181526020018383808284376000920191909152505073ffffffffffffffffffffffffffffffffffffffff7f000000000000000000000000000000000000000000000000000000000000000016929150506102b4565b82828151811061024457fe5b602090810291909101015260010161019d565b50610260610337565b610268610348565b92915050565b610298817f42414c000000000000000000000000000000000000000000000000000000000061034f565b50565b6102ad600260005414156101906100e8565b6002600055565b6060600060608473ffffffffffffffffffffffffffffffffffffffff16846040516102df91906104ef565b600060405180830381855af49150503d806000811461031a576040519150601f19603f3d011682016040523d82523d6000602084013e61031f565b606091505b509150915061032e82826103ca565b95945050505050565b4780156102985761029833826103f4565b6001600055565b7f08c379a000000000000000000000000000000000000000000000000000000000600090815260206004526007602452600a808404818106603090810160081b958390069590950190829004918206850160101b01602363ffffff0060e086901c160160181b0190930160c81b60445260e882901c90606490fd5b606082156103d9575080610268565b8151156103e95781518083602001fd5b6102686101ae61026e565b610403814710156101a36100e8565b60008273ffffffffffffffffffffffffffffffffffffffff16826040516104299061050b565b60006040518083038185875af1925050503d8060008114610466576040519150601f19603f3d011682016040523d82523d6000602084013e61046b565b606091505b5050905061047b816101a46100e8565b505050565b60008060208385031215610492578182fd5b823567ffffffffffffffff808211156104a9578384fd5b818501915085601f8301126104bc578384fd5b8135818111156104ca578485fd5b86602080830285010111156104dd578485fd5b60209290920196919550909350505050565b6000825161050181846020870161064d565b9190910192915050565b90565b73ffffffffffffffffffffffffffffffffffffffff91909116815260200190565b6000602080830181845280855180835260408601915060408482028701019250838701855b828110156105d6577fffffffffffffffffffffffffffffffffffffffffffffffffffffffffffffffc088860301845281518051808752610599818989018a850161064d565b601f017fffffffffffffffffffffffffffffffffffffffffffffffffffffffffffffffe01695909501860194509285019290850190600101610554565b5092979650505050505050565b60008083357fffffffffffffffffffffffffffffffffffffffffffffffffffffffffffffffe1843603018112610617578283fd5b83018035915067ffffffffffffffff821115610631578283fd5b60200191503681900382131561064657600080fd5b9250929050565b60005b83811015610668578181015183820152602001610650565b83811115610677576000848401525b5050505056fea2646970667358221220063fdaaad6c7f32fb6dd53f100269a9ea16c7241c4a9587b1f83f82a35b5424264736f6c63430007010033",
  "linkReferences": {},
  "deployedLinkReferences": {}
}