{
  "_format": "hh-sol-artifact-1",
  "contractName": "ComposableStablePoolFactory",
  "sourceName": "contracts/ComposableStablePoolFactory.sol",
  "abi": [
    {
      "inputs": [
        {
          "internalType": "contract IVault",
          "name": "vault",
          "type": "address"
        },
        {
          "internalType": "contract IProtocolFeePercentagesProvider",
          "name": "protocolFeeProvider",
          "type": "address"
        },
        {
          "internalType": "string",
          "name": "factoryVersion",
          "type": "string"
        },
        {
          "internalType": "string",
          "name": "poolVersion",
          "type": "string"
        },
        {
          "internalType": "uint256",
          "name": "initialPauseWindowDuration",
          "type": "uint256"
        },
        {
          "internalType": "uint256",
          "name": "bufferPeriodDuration",
          "type": "uint256"
        }
      ],
      "stateMutability": "nonpayable",
      "type": "constructor"
    },
    {
      "anonymous": false,
      "inputs": [],
      "name": "FactoryDisabled",
      "type": "event"
    },
    {
      "anonymous": false,
      "inputs": [
        {
          "indexed": true,
          "internalType": "address",
          "name": "pool",
          "type": "address"
        }
      ],
      "name": "PoolCreated",
      "type": "event"
    },
    {
      "inputs": [
        {
          "internalType": "string",
          "name": "name",
          "type": "string"
        },
        {
          "internalType": "string",
          "name": "symbol",
          "type": "string"
        },
        {
          "internalType": "contract IERC20[]",
          "name": "tokens",
          "type": "address[]"
        },
        {
          "internalType": "uint256",
          "name": "amplificationParameter",
          "type": "uint256"
        },
        {
          "internalType": "contract IRateProvider[]",
          "name": "rateProviders",
          "type": "address[]"
        },
        {
          "internalType": "uint256[]",
          "name": "tokenRateCacheDurations",
          "type": "uint256[]"
        },
        {
          "internalType": "bool[]",
          "name": "exemptFromYieldProtocolFeeFlags",
          "type": "bool[]"
        },
        {
          "internalType": "uint256",
          "name": "swapFeePercentage",
          "type": "uint256"
        },
        {
          "internalType": "address",
          "name": "owner",
          "type": "address"
        },
        {
          "internalType": "bytes32",
          "name": "salt",
          "type": "bytes32"
        }
      ],
      "name": "create",
      "outputs": [
        {
          "internalType": "contract ComposableStablePool",
          "name": "",
          "type": "address"
        }
      ],
      "stateMutability": "nonpayable",
      "type": "function"
    },
    {
      "inputs": [],
      "name": "disable",
      "outputs": [],
      "stateMutability": "nonpayable",
      "type": "function"
    },
    {
      "inputs": [
        {
          "internalType": "bytes4",
          "name": "selector",
          "type": "bytes4"
        }
      ],
      "name": "getActionId",
      "outputs": [
        {
          "internalType": "bytes32",
          "name": "",
          "type": "bytes32"
        }
      ],
      "stateMutability": "view",
      "type": "function"
    },
    {
      "inputs": [],
      "name": "getAuthorizer",
      "outputs": [
        {
          "internalType": "contract IAuthorizer",
          "name": "",
          "type": "address"
        }
      ],
      "stateMutability": "view",
      "type": "function"
    },
    {
      "inputs": [],
      "name": "getCreationCode",
      "outputs": [
        {
          "internalType": "bytes",
          "name": "",
          "type": "bytes"
        }
      ],
      "stateMutability": "view",
      "type": "function"
    },
    {
      "inputs": [],
      "name": "getCreationCodeContracts",
      "outputs": [
        {
          "internalType": "address",
          "name": "contractA",
          "type": "address"
        },
        {
          "internalType": "address",
          "name": "contractB",
          "type": "address"
        }
      ],
      "stateMutability": "view",
      "type": "function"
    },
    {
      "inputs": [],
      "name": "getPauseConfiguration",
      "outputs": [
        {
          "internalType": "uint256",
          "name": "pauseWindowDuration",
          "type": "uint256"
        },
        {
          "internalType": "uint256",
          "name": "bufferPeriodDuration",
          "type": "uint256"
        }
      ],
      "stateMutability": "view",
      "type": "function"
    },
    {
      "inputs": [],
      "name": "getPoolVersion",
      "outputs": [
        {
          "internalType": "string",
          "name": "",
          "type": "string"
        }
      ],
      "stateMutability": "view",
      "type": "function"
    },
    {
      "inputs": [],
      "name": "getProtocolFeePercentagesProvider",
      "outputs": [
        {
          "internalType": "contract IProtocolFeePercentagesProvider",
          "name": "",
          "type": "address"
        }
      ],
      "stateMutability": "view",
      "type": "function"
    },
    {
      "inputs": [],
      "name": "getVault",
      "outputs": [
        {
          "internalType": "contract IVault",
          "name": "",
          "type": "address"
        }
      ],
      "stateMutability": "view",
      "type": "function"
    },
    {
      "inputs": [],
      "name": "isDisabled",
      "outputs": [
        {
          "internalType": "bool",
          "name": "",
          "type": "bool"
        }
      ],
      "stateMutability": "view",
      "type": "function"
    },
    {
      "inputs": [
        {
          "internalType": "address",
          "name": "pool",
          "type": "address"
        }
      ],
      "name": "isPoolFromFactory",
      "outputs": [
        {
          "internalType": "bool",
          "name": "",
          "type": "bool"
        }
      ],
      "stateMutability": "view",
      "type": "function"
    },
    {
      "inputs": [],
      "name": "version",
      "outputs": [
        {
          "internalType": "string",
          "name": "",
          "type": "string"
        }
      ],
      "stateMutability": "view",
      "type": "function"
    }
  ],
  "bytecode": "0x6101c06040523480156200001257600080fd5b5060405162009a2a38038062009a2a8339810160408190526200003591620003ae565b85858383604051806020016200004b906200025d565b601f1982820381018352601f9091011660405280518390839087903090859060006002820460a081905280830360e0819052818552909150836200009b816200017e602090811b6200069b17901c565b60601b6001600160601b0319166080528285018051838252620000ca826200017e602090811b6200069b17901c565b6001600160601b0319606091821b811660c0529690935290526101009590955250509290911b90911661012052506200010d630163f500831115610194620001d2565b620001216276a700821115610195620001d2565b6101408290526101605242016101805250505060601b6001600160601b0319166101a0525083516200015b9060029060208701906200026b565b508251620001719060039060208601906200026b565b5050505050505062000468565b80517f602038038060206000396000f3fefefefefefefefefefefefefefefefefefefe808352600091602081018484f09084529150620001cc6001600160a01b03831615156101ac620001d2565b50919050565b81620001e357620001e381620001e7565b5050565b620001f9816210905360ea1b620001fc565b50565b62461bcd60e51b600090815260206004526007602452600a808404818106603090810160081b958390069590950190829004918206850160101b01602363ffffff0060e086901c160160181b0190930160c81b60445260e882901c90606490fd5b61826980620017c183390190565b828054600181600116156101000203166002900490600052602060002090601f016020900481019282601f10620002ae57805160ff1916838001178555620002de565b82800160010185558215620002de579182015b82811115620002de578251825591602001919060010190620002c1565b50620002ec929150620002f0565b5090565b5b80821115620002ec5760008155600101620002f1565b600082601f83011262000318578081fd5b81516001600160401b03808211156200032f578283fd5b6040516020601f8401601f191682018101838111838210171562000351578586fd5b806040525081945083825286818588010111156200036e57600080fd5b600092505b8383101562000392578583018101518284018201529182019162000373565b83831115620003a45760008185840101525b5050505092915050565b60008060008060008060c08789031215620003c7578182fd5b8651620003d48162000452565b6020880151909650620003e78162000452565b60408801519095506001600160401b038082111562000404578384fd5b620004128a838b0162000307565b9550606089015191508082111562000428578384fd5b506200043789828a0162000307565b9350506080870151915060a087015190509295509295509295565b6001600160a01b0381168114620001f957600080fd5b60805160601c60a05160c05160601c60e051610100516101205160601c6101405161016051610180516101a05160601c6112d1620004f06000398061057c525080610232528061025b52508061027f525050806105f25250806105a2525080610702525080610209528061077e5250806107235250806101e8528061075a52506112d16000f3fe608060405234801561001057600080fd5b50600436106100de5760003560e01c806354fd4d501161008c578063739238d611610066578063739238d61461018f578063851c1bb3146101975780638d928af8146101b7578063aaabadc5146101bf576100de565b806354fd4d501461015f5780636634b753146101675780636c57f5a914610187576100de565b80632f2770db116100bd5780632f2770db1461012d5780633f819b6f14610137578063549673e31461013f576100de565b8062c194db146100e3578063174481fa146101015780632da47c4014610117575b600080fd5b6100eb6101c7565b6040516100f8919061107e565b60405180910390f35b6101096101e6565b6040516100f8929190611017565b61011f61022c565b6040516100f8929190611216565b6101356102b3565b005b6100eb610318565b61015261014d366004610d94565b6103cc565b6040516100f89190611091565b6100eb6104ca565b61017a610175366004610d00565b610546565b6040516100f8919061103e565b61017a610571565b61015261057a565b6101aa6101a5366004610d38565b61059e565b6040516100f89190611049565b6101526105f0565b610152610614565b60606101e1604051806020016040528060008152506106fa565b905090565b7f00000000000000000000000000000000000000000000000000000000000000007f00000000000000000000000000000000000000000000000000000000000000009091565b600080427f00000000000000000000000000000000000000000000000000000000000000008110156102a557807f00000000000000000000000000000000000000000000000000000000000000000392507f000000000000000000000000000000000000000000000000000000000000000091506102ae565b60009250600091505b509091565b6102bb6107d3565b6102c361081c565b600180547fffffffffffffffffffffffffffffffffffffffffffffffffffffffffffffff0016811790556040517f432acbfd662dbb5d8b378384a67159b47ca9d0f1b79f97cf64cf8585fa362d5090600090a1565b60038054604080516020601f60027fffffffffffffffffffffffffffffffffffffffffffffffffffffffffffffffff6101006001881615020190951694909404938401819004810282018101909252828152606093909290918301828280156103c25780601f10610397576101008083540402835291602001916103c2565b820191906000526020600020905b8154815290600101906020018083116103a557829003601f168201915b5050505050905090565b60008060006103d961022c565b915091506104b9604051806101c001604052806103f46105f0565b73ffffffffffffffffffffffffffffffffffffffff16815260200161041761057a565b73ffffffffffffffffffffffffffffffffffffffff1681526020018f81526020018e81526020018d81526020018b81526020018a81526020018981526020018c81526020018881526020018481526020018381526020018773ffffffffffffffffffffffffffffffffffffffff168152602001610492610318565b90526040516104a491906020016110b2565b60405160208183030381529060405285610831565b9d9c50505050505050505050505050565b60028054604080516020601f7fffffffffffffffffffffffffffffffffffffffffffffffffffffffffffffffff61010060018716150201909416859004938401819004810282018101909252828152606093909290918301828280156103c25780601f10610397576101008083540402835291602001916103c2565b73ffffffffffffffffffffffffffffffffffffffff1660009081526020819052604090205460ff1690565b60015460ff1690565b7f000000000000000000000000000000000000000000000000000000000000000090565b60007f0000000000000000000000000000000000000000000000000000000000000000826040516020016105d3929190610fe7565b604051602081830303815290604052805190602001209050919050565b7f000000000000000000000000000000000000000000000000000000000000000090565b600061061e6105f0565b73ffffffffffffffffffffffffffffffffffffffff1663aaabadc56040518163ffffffff1660e01b815260040160206040518083038186803b15801561066357600080fd5b505afa158015610677573d6000803e3d6000fd5b505050506040513d601f19601f820116820180604052508101906101e19190610d78565b80517f602038038060206000396000f3fefefefefefefefefefefefefefefefefefefe808352600091602081018484f090845291506106f473ffffffffffffffffffffffffffffffffffffffff831615156101ac6108c9565b50919050565b8051604080517f00000000000000000000000000000000000000000000000000000000000000007f0000000000000000000000000000000000000000000000000000000000000000818101858101848101602090810190965280855293957f00000000000000000000000000000000000000000000000000000000000000009592947f000000000000000000000000000000000000000000000000000000000000000094938801866000828a3c846000888301883c50602089810190898501016107c58183866108db565b505050505050505050919050565b60006108026000357fffffffff000000000000000000000000000000000000000000000000000000001661059e565b90506108196108118233610955565b6101916108c9565b50565b61082f610827610571565b1560d36108c9565b565b600061083b61081c565b600061084784846109f2565b73ffffffffffffffffffffffffffffffffffffffff811660008181526020819052604080822080547fffffffffffffffffffffffffffffffffffffffffffffffffffffffffffffff001660011790555192935090917f83a48fbcfc991335314e74d0496aab6a1987e992ddc85dddbcc4d6dd6ef2e9fc9190a290505b92915050565b816108d7576108d781610a3c565b5050565b5b602081106109195781518352602092830192909101907fffffffffffffffffffffffffffffffffffffffffffffffffffffffffffffffe0016108dc565b905182516020929092036101000a7fffffffffffffffffffffffffffffffffffffffffffffffffffffffffffffffff0180199091169116179052565b600061095f610614565b73ffffffffffffffffffffffffffffffffffffffff16639be2a8848484306040518463ffffffff1660e01b815260040161099b93929190611052565b60206040518083038186803b1580156109b357600080fd5b505afa1580156109c7573d6000803e3d6000fd5b505050506040513d601f19601f820116820180604052508101906109eb9190610d1c565b9392505050565b600060606109ff846106fa565b90506000838251602084016000f5905073ffffffffffffffffffffffffffffffffffffffff8116610a34573d6000803e3d6000fd5b949350505050565b7f08c379a000000000000000000000000000000000000000000000000000000000600090815260206004526007602452600a808304818106603090810160081b83860601918390049283060160101b016642414c230000300160c81b604452610819917f42414c0000000000000000000000000000000000000000000000000000000000906242414c90606490fd5b80356108c38161126b565b600082601f830112610ae6578081fd5b8135610af9610af48261124b565b611224565b818152915060208083019084810181840286018201871015610b1a57600080fd5b60005b84811015610b42578135610b308161128d565b84529282019290820190600101610b1d565b505050505092915050565b600082601f830112610b5d578081fd5b8135610b6b610af48261124b565b818152915060208083019084810181840286018201871015610b8c57600080fd5b60005b84811015610b42578135610ba28161126b565b84529282019290820190600101610b8f565b600082601f830112610bc4578081fd5b8135610bd2610af48261124b565b818152915060208083019084810181840286018201871015610bf357600080fd5b60005b84811015610b42578135610c098161126b565b84529282019290820190600101610bf6565b600082601f830112610c2b578081fd5b8135610c39610af48261124b565b818152915060208083019084810181840286018201871015610c5a57600080fd5b60005b84811015610b4257813584529282019290820190600101610c5d565b600082601f830112610c89578081fd5b813567ffffffffffffffff811115610c9f578182fd5b610cd060207fffffffffffffffffffffffffffffffffffffffffffffffffffffffffffffffe0601f84011601611224565b9150808252836020828501011115610ce757600080fd5b8060208401602084013760009082016020015292915050565b600060208284031215610d11578081fd5b81356109eb8161126b565b600060208284031215610d2d578081fd5b81516109eb8161128d565b600060208284031215610d49578081fd5b81357fffffffff00000000000000000000000000000000000000000000000000000000811681146109eb578182fd5b600060208284031215610d89578081fd5b81516109eb8161126b565b6000806000806000806000806000806101408b8d031215610db3578586fd5b8a3567ffffffffffffffff80821115610dca578788fd5b610dd68e838f01610c79565b9b5060208d0135915080821115610deb578788fd5b610df78e838f01610c79565b9a5060408d0135915080821115610e0c578788fd5b610e188e838f01610b4d565b995060608d0135985060808d0135915080821115610e34578788fd5b610e408e838f01610bb4565b975060a08d0135915080821115610e55578687fd5b610e618e838f01610c1b565b965060c08d0135915080821115610e76578586fd5b50610e838d828e01610ad6565b94505060e08b01359250610e9b8c6101008d01610acb565b91506101208b013590509295989b9194979a5092959850565b73ffffffffffffffffffffffffffffffffffffffff169052565b6000815180845260208085019450808401835b83811015610eff578151151587529582019590820190600101610ee1565b509495945050505050565b6000815180845260208085019450808401835b83811015610eff57815173ffffffffffffffffffffffffffffffffffffffff1687529582019590820190600101610f1d565b6000815180845260208085019450808401835b83811015610eff57815187529582019590820190600101610f62565b60008151808452815b81811015610fa357602081850181015186830182015201610f87565b81811115610fb45782602083870101525b50601f017fffffffffffffffffffffffffffffffffffffffffffffffffffffffffffffffe0169290920160200192915050565b9182527fffffffff0000000000000000000000000000000000000000000000000000000016602082015260240190565b73ffffffffffffffffffffffffffffffffffffffff92831681529116602082015260400190565b901515815260200190565b90815260200190565b92835273ffffffffffffffffffffffffffffffffffffffff918216602084015216604082015260600190565b6000602082526109eb6020830184610f7e565b73ffffffffffffffffffffffffffffffffffffffff91909116815260200190565b6000602082526110c6602083018451610eb4565b60208301516110d86040840182610eb4565b5060408301516101c08060608501526110f56101e0850183610f7e565b915060608501517fffffffffffffffffffffffffffffffffffffffffffffffffffffffffffffffe0808685030160808701526111318483610f7e565b935060808701519150808685030160a087015261114e8483610f0a565b935060a08701519150808685030160c087015261116b8483610f0a565b935060c08701519150808685030160e08701526111888483610f4f565b935060e087015191506101008187860301818801526111a78584610ece565b908801516101208881019190915288015161014080890191909152880151610160808901919091528801516101808089019190915288015190945091506101a06111f381880184610eb4565b87015186850390910183870152905061120c8382610f7e565b9695505050505050565b918252602082015260400190565b60405181810167ffffffffffffffff8111828210171561124357600080fd5b604052919050565b600067ffffffffffffffff821115611261578081fd5b5060209081020190565b73ffffffffffffffffffffffffffffffffffffffff8116811461081957600080fd5b801515811461081957600080fdfea264697066735822122059d18f4d39d770b6d847e6b6f519e28505edfd0697cdfea580195a588a5fc6c764736f6c634300070100336105006040523480156200001257600080fd5b506040516200826938038062008269833981016040819052620000359162001bc8565b8060200151604051806060016040528060008152602001600281526020016003815250620000698362000c4260201b60201c565b620000748462000c7b565b8461010001518560000151600087604001518860600151620000a18a608001513062000cc460201b60201c565b8a60800151516001016001600160401b0381118015620000c057600080fd5b50604051908082528060200260200182016040528015620000eb578160200160208202803683370190505b508b61012001518c61014001518d61016001518e61018001518983838a8a8e86336001600160a01b031660001b8480604051806040016040528060018152602001603160f81b815250878781600390805190602001906200014e92919062001861565b5080516200016490600490602084019062001861565b50506005805460ff19166012179055508151602092830120608052805191012060a052507f8b73c3c69bb8fe3d512ecc4cf759cc79239f7b179b0ffacaa9a75d522b39400f60c05260e0526001600160601b0319606091821b81166101005291901b166101205250620001e39050630163f50083111561019462000e5e565b620001f76276a70082111561019562000e5e565b4291909101610140819052016101605260601b6001600160601b0319166101805285516200022b906002111560c862000e5e565b620002456200023962000e73565b8751111560c962000e5e565b620002508462000e78565b60006200026b8b8b898962000f0c60201b6200165b1760201c565b9050806101a081815250508a6001600160a01b031663d2946c2b6040518163ffffffff1660e01b815260040160206040518083038186803b158015620002b057600080fd5b505afa158015620002c5573d6000803e3d6000fd5b505050506040513d601f19601f82011682018060405250810190620002eb919062001ba9565b60601b6001600160601b0319166101c052506200031d995050506001891015965061012c955062000e5e945050505050565b6200033061138882111561012d62000e5e565b60006200034b826103e862000f3b60201b6200167d1760201c565b9050620003588162000f6a565b50508051516200036d6002821160c862000e5e565b620003926001820383602001515184604001515162000fa960201b620016a81760201c565b6101e081905281518051600090620003a657fe5b60200260200101516001600160a01b0316610220816001600160a01b031660601b815250508160000151600181518110620003dd57fe5b60200260200101516001600160a01b0316610240816001600160a01b031660601b8152505081600001516002815181106200041457fe5b60200260200101516001600160a01b0316610260816001600160a01b031660601b81525050600381116200044a57600062000463565b8151805160039081106200045a57fe5b60200260200101515b60601b6001600160601b0319166102805260048111620004855760006200049e565b8151805160049081106200049557fe5b60200260200101515b60601b6001600160601b0319166102a05260058111620004c0576000620004d9565b815180516005908110620004d057fe5b60200260200101515b60601b6001600160601b0319166102c05281518051620005129190600090620004fe57fe5b602002602001015162000fc960201b60201c565b6102e052815180516200052c91906001908110620004fe57fe5b61030052815180516200054691906002908110620004fe57fe5b61032052600381116200055b57600062000571565b620005718260000151600381518110620004fe57fe5b6103405260048111620005865760006200059c565b6200059c8260000151600481518110620004fe57fe5b6103605260058111620005b1576000620005c7565b620005c78260000151600581518110620004fe57fe5b61038052815151600019015b6000811180156200060457508251805130919083908110620005f157fe5b60200260200101516001600160a01b0316115b15620006145760001901620005d3565b6102008190528251516060906001600160401b03811180156200063657600080fd5b5060405190808252806020026020018201604052801562000661578160200160208202803683370190505b50905060008080805b875151811015620008845785811015620007a057876020015181815181106200068f57fe5b6020026020010151858281518110620006a457fe5b60200260200101906001600160a01b031690816001600160a01b0316815250506200070d60006001600160a01b0316868381518110620006e057fe5b60200260200101516001600160a01b0316141582600601866200109860201b620016c5179092919060201c565b9350876040015181815181106200072057fe5b60200260200101511562000795576200076c60006001600160a01b03168683815181106200074a57fe5b60200260200101516001600160a01b0316141561015562000e5e60201b60201c565b62000789600182866200109860201b620016c5179092919060201c565b9350600192506200079a565b600191505b6200087b565b8581146200087b5787602001516001820381518110620007bc57fe5b6020026020010151858281518110620007d157fe5b60200260200101906001600160a01b031690816001600160a01b0316815250506200080d60006001600160a01b0316868381518110620006e057fe5b9350876040015160018203815181106200082357fe5b60200260200101511562000876576200084d60006001600160a01b03168683815181106200074a57fe5b6200086a600182866200109860201b620016c5179092919060201c565b9350600192506200087b565b600191505b6001016200066a565b50811560f890811b610480528115901b6104a05283518490600090620008a657fe5b60200260200101516001600160a01b03166103a0816001600160a01b031660601b8152505083600181518110620008d957fe5b60200260200101516001600160a01b03166103c0816001600160a01b031660601b81525050836002815181106200090c57fe5b60200260200101516001600160a01b03166103e0816001600160a01b031660601b815250506003845111620009435760006200095a565b836003815181106200095157fe5b60200260200101515b60601b6001600160601b0319166104005283516004106200097d57600062000994565b836004815181106200098b57fe5b60200260200101515b60601b6001600160601b031916610420528351600510620009b7576000620009ce565b83600581518110620009c557fe5b60200260200101515b60601b6001600160601b0319166104405250506104605250508251516020808501515160408601515162000a119550929350919062000fa9811b620016a817901c565b805160609062000a22903062000cc4565b8051909150600019015b60008111801562000a625750306001600160a01b031682828151811062000a4f57fe5b60200260200101516001600160a01b0316115b1562000a72576000190162000a2c565b6000805b84515181101562000b8b578281141562000a8f57600191505b60208501518051828401916000918490811062000aa857fe5b60200260200101516001600160a01b03161462000b815762000b02818760200151848151811062000ad557fe5b60200260200101518860400151858151811062000aee57fe5b6020026020010151620010a760201b60201c565b8560200151828151811062000b1357fe5b60200260200101516001600160a01b0316817fdd6d1c9badb346de6925b358a472c937b41698d2632696759e43fd6527feeec48860400151858151811062000b5757fe5b602002602001015160405162000b6e919062001db2565b60405180910390a362000b8181620011a2565b5060010162000a76565b5050505050606082901b6001600160601b0319166104c052604081015160009062000bc69060106008620011e1602090811b620016d417901c565b62000be7836020015160086000016008620011e160201b620016d41760201c565b62000c05846000015160006008620011e160201b620016d41760201c565b17176104e0819052905062000c1b8382620011f6565b5050506101a0810151805162000c3a91600d9160209091019062001861565b505062001ec7565b62000c4c620018e6565b6040518060600160405280836080015181526020018360a0015181526020018360c0015181525090505b919050565b62000c85620018e6565b604051806060016040528062000ca684608001513062000cc460201b60201c565b81526020018360a0015181526020018360e001518152509050919050565b606082516001016001600160401b038111801562000ce157600080fd5b5060405190808252806020026020018201604052801562000d0c578160200160208202803683370190505b50905082516000141562000d4f57818160008151811062000d2957fe5b60200260200101906001600160a01b031690816001600160a01b03168152505062000e58565b82515b60008111801562000d8b5750826001600160a01b031684600183038151811062000d7857fe5b60200260200101516001600160a01b0316115b1562000dd85783600182038151811062000da157fe5b602002602001015182828151811062000db657fe5b6001600160a01b03909216602092830291909101909101526000190162000d52565b60005b8181101562000e275784818151811062000df157fe5b602002602001015183828151811062000e0657fe5b6001600160a01b039092166020928302919091019091015260010162000ddb565b508282828151811062000e3657fe5b60200260200101906001600160a01b031690816001600160a01b031681525050505b92915050565b8162000e6f5762000e6f816200147c565b5050565b600690565b62000e9162000e8662001491565b82101560cb62000e5e565b62000eaa62000e9f6200149a565b82111560ca62000e5e565b62000ecc8160c0603f600854620014a660201b620016e717909392919060201c565b6008556040517fa9ba3ffe0b6c366b81232caab38605a0699ad5398d6cce76f91ee809e322dafc9062000f0190839062001db2565b60405180910390a150565b600062000f2483620014cb60201b6200170a1760201c565b62000f3285858585620014d7565b95945050505050565b600082820262000f6384158062000f5b57508385838162000f5857fe5b04145b600362000e5e565b9392505050565b62000f7881804280620015d1565b7fa0d01593e47e69d07e0ccd87bece09411e07dd1ed40ca8f2e7af2976542a02338160405162000f01919062001db2565b62000fc4828414801562000fbc57508183145b606762000e5e565b505050565b60006001600160a01b03821630141562000fed5750670de0b6b3a764000062000c76565b6000826001600160a01b031663313ce5676040518163ffffffff1660e01b815260040160206040518083038186803b1580156200102957600080fd5b505afa1580156200103e573d6000803e3d6000fd5b505050506040513d601f19601f8201168201806040525081019062001064919062001d8f565b60ff1690506000620010836012836200164460201b620017141760201c565b600a0a670de0b6b3a764000002949350505050565b6001811b1992909216911b1790565b6000826001600160a01b031663679aefce6040518163ffffffff1660e01b815260040160206040518083038186803b158015620010e357600080fd5b505afa158015620010f8573d6000803e3d6000fd5b505050506040513d601f19601f820116820180604052508101906200111e919062001b90565b6000858152600a60209081526040909120549192506200114d908290849086906200172a6200165c821b17901c565b6000868152600a602052604090819020919091555185907fb77a83204ca282e08dc3a65b0a1ca32ea4e6875c38ef0bf5bf75e52a67354fac906200119390859062001db2565b60405180910390a25050505050565b6000818152600a602090815260409091205490620011cb90829062001762620016b8821b17901c565b6000928352600a60205260409092209190915550565b6000620011f0848484620016e3565b50501b90565b6000826001600160a01b0316631a7c32636200122560006008866200173e60201b6200177a179092919060201c565b6040518263ffffffff1660e01b815260040162001243919062001db2565b60206040518083038186803b1580156200125c57600080fd5b505afa15801562001271573d6000803e3d6000fd5b505050506040513d601f19601f8201168201806040525081019062001297919062001b90565b905060006001600160a01b038416631a7c3263620012c4856008806200173e602090811b6200177a17901c565b6040518263ffffffff1660e01b8152600401620012e2919062001db2565b60206040518083038186803b158015620012fb57600080fd5b505afa15801562001310573d6000803e3d6000fd5b505050506040513d601f19601f8201168201806040525081019062001336919062001b90565b905060006001600160a01b038516631a7c32636200136486601060086200173e602090811b6200177a17901c565b6040518263ffffffff1660e01b815260040162001382919062001db2565b60206040518083038186803b1580156200139b57600080fd5b505afa158015620013b0573d6000803e3d6000fd5b505050506040513d601f19601f82011682018060405250810190620013d6919062001b90565b90506000620013f982604080600001016040620011e160201b620016d41760201c565b620014168460406000016040620011e160201b620016d41760201c565b620014308660006040620011e160201b620016d41760201c565b1717905080600b819055507fc3f0acc358200d8e08ac6ce20bc2f9f27893a344f813bf682b7859b3e521502e816040516200146c919062001db2565b60405180910390a1505050505050565b6200148e816210905360ea1b6200174d565b50565b64e8d4a5100090565b67016345785d8a000090565b6000620014b5848484620016e3565b506001901b60001901811b1992909216911b1790565b8062000e6f81620017ae565b600080856001600160a01b03166309b2760f866040518263ffffffff1660e01b815260040162001508919062001e49565b602060405180830381600087803b1580156200152357600080fd5b505af115801562001538573d6000803e3d6000fd5b505050506040513d601f19601f820116820180604052508101906200155e919062001b90565b604051633354e3e960e11b81529091506001600160a01b038716906366a9c7d290620015939084908890889060040162001dbb565b600060405180830381600087803b158015620015ae57600080fd5b505af1158015620015c3573d6000803e3d6000fd5b509298975050505050505050565b620015eb8160c06040620011e160201b620016d41760201c565b620016058360806040620011e160201b620016d41760201c565b6200161e85604080620011e160201b620016d41760201c565b620016388760006040620011e160201b620016d41760201c565b17171760095550505050565b60006200165683831115600162000e5e565b50900390565b600062001671606084901c1561014962000e5e565b620016b042830160e060206200169a8660c083838c8c60006060620016e7620014a6871b17861c565b620014a660201b620016e717909392919060201c565b949350505050565b600062000e58620016c98362001835565b60608085620014a660201b620016e717909392919060201c565b620016f46101008310606462000e5e565b6200172d600182101580156200172557506200172160ff84610100036200185560201b620017891760201c565b8211155b606462000e5e565b62000fc483821c156101b462000e5e565b6001901b6000190191901c1690565b62461bcd60e51b600090815260206004526007602452600a808404818106603090810160081b958390069590950190829004918206850160101b01602363ffffff0060e086901c160160181b0190930160c81b60445260e882901c90606490fd5b600281511015620017bf576200148e565b600081600081518110620017cf57fe5b602002602001015190506000600190505b825181101562000fc4576000838281518110620017f957fe5b602002602001015190506200182a816001600160a01b0316846001600160a01b031610606562000e5e60201b60201c565b9150600101620017e0565b600062000e5860006060846200173e60201b6200177a179092919060201c565b80820390821102900390565b828054600181600116156101000203166002900490600052602060002090601f016020900481019282601f10620018a457805160ff1916838001178555620018d4565b82800160010185558215620018d4579182015b82811115620018d4578251825591602001919060010190620018b7565b50620018e292915062001907565b5090565b60405180606001604052806060815260200160608152602001606081525090565b5b80821115620018e2576000815560010162001908565b805162000e588162001eb1565b600082601f8301126200193c578081fd5b8151620019536200194d8262001e85565b62001e5e565b8181529150602080830190848101818402860182018710156200197557600080fd5b6000805b85811015620019a5578251801515811462001992578283fd5b8552938301939183019160010162001979565b50505050505092915050565b600082601f830112620019c2578081fd5b8151620019d36200194d8262001e85565b818152915060208083019084810181840286018201871015620019f557600080fd5b60005b8481101562001a2157815162001a0e8162001eb1565b84529282019290820190600101620019f8565b505050505092915050565b600082601f83011262001a3d578081fd5b815162001a4e6200194d8262001e85565b81815291506020808301908481018184028601820187101562001a7057600080fd5b60005b8481101562001a2157815162001a898162001eb1565b8452928201929082019060010162001a73565b600082601f83011262001aad578081fd5b815162001abe6200194d8262001e85565b81815291506020808301908481018184028601820187101562001ae057600080fd5b60005b8481101562001a215781518452928201929082019060010162001ae3565b600082601f83011262001b12578081fd5b81516001600160401b0381111562001b28578182fd5b602062001b3e601f8301601f1916820162001e5e565b9250818352848183860101111562001b5557600080fd5b60005b8281101562001b7557848101820151848201830152810162001b58565b8281111562001b875760008284860101525b50505092915050565b60006020828403121562001ba2578081fd5b5051919050565b60006020828403121562001bbb578081fd5b815162000f638162001eb1565b60006020828403121562001bda578081fd5b81516001600160401b038082111562001bf1578283fd5b81840191506101c080838703121562001c08578384fd5b62001c138162001e5e565b905062001c2186846200191e565b815262001c3286602085016200191e565b602082015260408301518281111562001c49578485fd5b62001c578782860162001b01565b60408301525060608301518281111562001c6f578485fd5b62001c7d8782860162001b01565b60608301525060808301518281111562001c95578485fd5b62001ca387828601620019b1565b60808301525060a08301518281111562001cbb578485fd5b62001cc98782860162001a2c565b60a08301525060c08301518281111562001ce1578485fd5b62001cef8782860162001a9c565b60c08301525060e08301518281111562001d07578485fd5b62001d15878286016200192b565b60e083015250610100838101519082015261012080840151908201526101408084015190820152610160808401519082015261018062001d58878286016200191e565b908201526101a0838101518381111562001d70578586fd5b62001d7e8882870162001b01565b918301919091525095945050505050565b60006020828403121562001da1578081fd5b815160ff8116811462000f63578182fd5b90815260200190565b60006060820185835260206060818501528186518084526080860191508288019350845b8181101562001e075762001df4855162001ea5565b8352938301939183019160010162001ddf565b505084810360408601528551808252908201925081860190845b81811015620015c35762001e36835162001ea5565b8552938301939183019160010162001e21565b602081016003831062001e5857fe5b91905290565b6040518181016001600160401b038111828210171562001e7d57600080fd5b604052919050565b60006001600160401b0382111562001e9b578081fd5b5060209081020190565b6001600160a01b031690565b6001600160a01b03811681146200148e57600080fd5b60805160a05160c05160e0516101005160601c6101205160601c61014051610160516101805160601c6101a0516101c05160601c6101e051610200516102205160601c6102405160601c6102605160601c6102805160601c6102a05160601c6102c05160601c6102e05161030051610320516103405161036051610380516103a05160601c6103c05160601c6103e05160601c6104005160601c6104205160601c6104405160601c610460516104805160f81c6104a05160f81c6104c05160601c6104e0516161e962002080600039806108c15280610c845250806108a0525080614975525080614951525080612ce752806145bc525080611e6f525080611e3f525080611e0f525080611ddf525080611daf525080611d7f52508061327d52508061324d52508061321d5250806131ed5250806131bd52508061318d5250806120cc52508061208a525080612048525080612006525080611fc4525080611f8252508061103c5250806117b5525080611388525080610ba852508061198d525080611d53525080611d2f52508061113c525080611118525080611074525080612ef2525080612f34525080612f1352506161e96000f3fe608060405234801561001057600080fd5b50600436106103835760003560e01c806370464016116101de578063a457c2d71161010f578063d28d8852116100ad578063dd62ed3e1161007c578063dd62ed3e146106eb578063eb0f24d6146106fe578063ed24911d14610706578063f4b7964d1461070e57610383565b8063d28d8852146106b5578063d2946c2b146106bd578063d505accf146106c5578063d5c096c4146106d857610383565b8063ab7759f1116100e9578063ab7759f11461068a578063b09f12661461069d578063b35056b8146106a5578063b7b814fc146106ad57610383565b8063a457c2d71461065c578063a9059cbb1461066f578063aaabadc51461068257610383565b8063851c1bb31161017c578063893d20e811610156578063893d20e8146106245780638d928af81461063957806390193b7c1461064157806395d89b411461065457610383565b8063851c1bb3146105f6578063876f303b1461060957806387ec68171461061157610383565b80637ecebe00116101b85780637ecebe00146105b05780637f1260d1146105c357806382687a56146105e65780638456cb59146105ee57610383565b8063704640161461056957806370a082311461057c57806374f3b0091461058f57610383565b80633644e515116102b857806354a844ba1161025657806355c676281161023057806355c67628146105215780636028bfd414610529578063679aefce1461054a5780636daccffa1461055257610383565b806354a844ba146104fe57806354dea00a1461050657806354fd4d501461051957610383565b8063395093511161029257806339509351146104ba5780633c975d51146104cd5780633f4ba83a146104e35780634df77ce0146104eb57610383565b80633644e5151461049757806338e9922e1461049f57806338fff2d0146104b257610383565b80631dd746ea116103255780632df2c7c0116102ff5780632df2c7c0146104545780632f1a0bc914610467578063313ce5671461047a57806332424aa31461048f57610383565b80631dd746ea14610417578063238a2d591461042c57806323b872dd1461044157610383565b8063095ea7b311610361578063095ea7b3146103ce5780630da0669c146103ee57806318160ddd146103f85780631c0de0511461040057610383565b806301ec954a1461038857806304842d4c146103b157806306fdde03146103b9575b600080fd5b61039b610396366004615c0e565b610721565b6040516103a89190615f37565b60405180910390f35b61039b6107c7565b6103c16107d6565b6040516103a89190616085565b6103e16103dc36600461585f565b61086c565b6040516103a89190615f14565b6103f6610883565b005b61039b6108e7565b6104086108ed565b6040516103a893929190615f1f565b61041f610916565b6040516103a89190615edc565b610434610920565b6040516103a89190615e8f565b6103e161044f3660046157af565b6109bb565b6103f661046236600461575b565b610a2f565b6103f6610475366004615d45565b610a8b565b610482610b6e565b6040516103a89190616077565b610482610b77565b61039b610b80565b6103f66104ad366004615d2d565b610b8a565b61039b610ba6565b6103e16104c836600461585f565b610bca565b6104d5610c05565b6040516103a89291906160e7565b6103f6610c30565b61039b6104f9366004615d2d565b610c42565b6103f6610cb4565b61039b61051436600461575b565b610d08565b6103c1610d1b565b61039b610d7c565b61053c61053736600461598e565b610d8f565b6040516103a89291906160b8565b61039b610dc6565b61055a610e32565b6040516103a8939291906160d1565b61039b610577366004615d2d565b610e4d565b61039b61058a36600461575b565b610eaf565b6105a261059d36600461598e565b610eca565b6040516103a8929190615eef565b61039b6105be36600461575b565b610fcd565b6105d66105d136600461575b565b610fd8565b6040516103a894939291906160f5565b61039b61103a565b6103f661105e565b61039b610604366004615a31565b611070565b61039b6110c2565b61053c61061f36600461598e565b6110f0565b61062c611116565b6040516103a89190615e7b565b61062c61113a565b61039b61064f36600461575b565b61115e565b6103c1611179565b6103e161066a36600461585f565b6111da565b6103e161067d36600461585f565b611218565b61062c611225565b6103e161069836600461575b565b61122f565b6103c1611242565b6103e16112d0565b6103f66112e1565b6103c161132b565b61062c611386565b6103f66106d33660046157ef565b6113aa565b6105a26106e636600461598e565b611435565b61039b6106f9366004615777565b611558565b6103f6611595565b61039b6115c5565b6103f661071c36600461585f565b6115cf565b6000846080015161074e61073361113a565b6001600160a01b0316336001600160a01b03161460cd611795565b610763610759610ba6565b82146101f4611795565b61076b6117a3565b61077d84846107786117b3565b6117d7565b60606107876117ef565b905060008751600181111561079857fe5b146107af576107aa8787878785611888565b6107bc565b6107bc87878787856118e1565b979650505050505050565b60006107d161191c565b905090565b60038054604080516020601f60026000196101006001881615020190951694909404938401819004810282018101909252828152606093909290918301828280156108625780601f1061083757610100808354040283529160200191610862565b820191906000526020600020905b81548152906001019060200180831161084557829003601f168201915b5050505050905090565b6000610879338484611923565b5060015b92915050565b61089361088e61198b565b6119af565b61089b611a98565b6108e57f00000000000000000000000000000000000000000000000000000000000000007f0000000000000000000000000000000000000000000000000000000000000000611afc565b565b60025490565b60008060006108fa611d10565b159250610905611d2d565b915061090f611d51565b9050909192565b60606107d16117ef565b6060600061092c6117b3565b905060608167ffffffffffffffff8111801561094757600080fd5b50604051908082528060200260200182016040528015610971578160200160208202803683370190505b50905060005b828110156109b45761098881611d75565b82828151811061099457fe5b6001600160a01b0390921660209283029190910190910152600101610977565b5091505090565b6000806109c88533611558565b90506109ec336001600160a01b03871614806109e45750838210155b61019e611795565b6109f7858585611e9e565b336001600160a01b03861614801590610a1257506000198114155b15610a2457610a248533858403611923565b506001949350505050565b6000610a3a82611f7e565b90506000610a4782611d75565b9050610a606001600160a01b0382161515610155611795565b6000828152600a6020526040812054610a789061210c565b9050610a8583838361211b565b50505050565b610a936121fe565b610aa3600183101561012c611795565b610ab461138883111561012d611795565b6000610ac08242611714565b9050610ad46201518082101561013d611795565b600080610adf612244565b91509150610af0811561013e611795565b6000610afe866103e861167d565b90506000838211610b2d57610b28610b19620151808661167d565b610b23848861167d565b6122b8565b610b47565b610b47610b3d620151808461167d565b610b23868861167d565b9050610b59600282111561013f611795565b610b65848342896122d9565b50505050505050565b60055460ff1690565b60055460ff1681565b60006107d16115c5565b610b926121fe565b610b9a612328565b610ba38161233b565b50565b7f000000000000000000000000000000000000000000000000000000000000000090565b3360008181526001602090815260408083206001600160a01b03871684529091528120549091610879918590610c0090866123b4565b611923565b600c546000908190610c1a8160e9601761177a565b9250610c2981600060e961177a565b9150509091565b610c386121fe565b6108e560006123c6565b60008082610c5257506000610c7f565b6002831415610c6357506008610c7f565b6003831415610c7457506010610c7f565b610c7f6101bb612457565b610cab7f000000000000000000000000000000000000000000000000000000000000000082600861177a565b9150505b919050565b610cbc6121fe565b610cc4612481565b610cce6001612495565b7feff3d4d215b42bf0960be9c6d5e05c22cba4df6627a3a523e2acee733b5854c86001604051610cfe9190615f14565b60405180910390a1565b600061087d610d1683611f7e565b6124ec565b600d8054604080516020601f60026000196101006001881615020190951694909404938401819004810282018101909252828152606093909290918301828280156108625780601f1061083757610100808354040283529160200191610862565b6008546000906107d19060c0603f61177a565b60006060610da58651610da06117b3565b61253f565b610dba8989898989898961254c61256e6125d7565b97509795505050505050565b60006060600080600080610dd861276e565b9398509196509450925090506000610df085856123b4565b90506000610dfc612244565b5090506000848214610e1757610e12828961285e565b610e19565b835b9050610e2581846129c0565b9850505050505050505090565b6000806000610e3f612244565b90949093506103e892509050565b6000610e576112d0565b15610e6457506000610caf565b600082610e7357506000610ea0565b6002831415610e8457506040610ea0565b6003831415610e9557506080610ea0565b610ea06101bb612457565b600b54610cab9082604061177a565b6001600160a01b031660009081526020819052604090205490565b60608088610ed961073361113a565b610ee4610759610ba6565b60606000610ef186612a13565b15610f1957610efe612a42565b610f1089610f0a6108e7565b88612a55565b92509050610f6b565b610f216117a3565b6060610f2b6117ef565b9050610f378a82612b3b565b610f5b8d8d8d8d8d610f476112d0565b610f51578d610f54565b60005b878e61254c565b93509150610f69838261256e565b505b610f758b82612ba4565b81895167ffffffffffffffff81118015610f8e57600080fd5b50604051908082528060200260200182016040528015610fb8578160200160208202803683370190505b509450945050505b5097509795505050505050565b600061087d8261115e565b6000806000806000600a6000610fed88611f7e565b8152602081019190915260400160002054905061100e811515610155611795565b61101781612bae565b945061102281612bbc565b935061102d81612bca565b9597949650949392505050565b7f000000000000000000000000000000000000000000000000000000000000000090565b6110666121fe565b6108e560016123c6565b60007f0000000000000000000000000000000000000000000000000000000000000000826040516020016110a5929190615de9565b604051602081830303815290604052805190602001209050919050565b60008060006110cf61276e565b505092509250506110e981836123b490919063ffffffff16565b9250505090565b600060606111018651610da06117b3565b610dba89898989898989612bec612bfd6125d7565b7f000000000000000000000000000000000000000000000000000000000000000090565b7f000000000000000000000000000000000000000000000000000000000000000090565b6001600160a01b031660009081526006602052604090205490565b60048054604080516020601f60026000196101006001881615020190951694909404938401819004810282018101909252828152606093909290918301828280156108625780601f1061083757610100808354040283529160200191610862565b6000806111e73385611558565b9050808310611201576111fc33856000611923565b61120e565b61120e3385858403611923565b5060019392505050565b6000610879338484611e9e565b60006107d1612c66565b600061087d61123d83611f7e565b612ce0565b6004805460408051602060026001851615610100026000190190941693909304601f810184900484028201840190925281815292918301828280156112c85780601f1061129d576101008083540402835291602001916112c8565b820191906000526020600020905b8154815290600101906020018083116112ab57829003601f168201915b505050505081565b6008546000906107d19060ff612d08565b6112e96121fe565b6112f1612a42565b6112fb6000612495565b7feff3d4d215b42bf0960be9c6d5e05c22cba4df6627a3a523e2acee733b5854c86000604051610cfe9190615f14565b6003805460408051602060026001851615610100026000190190941693909304601f810184900484028201840190925281815292918301828280156112c85780601f1061129d576101008083540402835291602001916112c8565b7f000000000000000000000000000000000000000000000000000000000000000090565b60007f6e71edae12b1b97f4d1f60370fef10105fa2faae0126114a169c64845d6126c98888886113d98c61115e565b896040516020016113ef96959493929190615f5f565b6040516020818303038152906040528051906020012090506114208882611417878787612d0f565b886101f8612d4e565b61142b888888611923565b5050505050505050565b6060808861144461073361113a565b61144f610759610ba6565b6114576117a3565b60606114616117ef565b905061146b6108e7565b61151857600060606114808d8d8d868b612da5565b9150915061149961148f61191c565b83101560cc611795565b6114ab60006114a661191c565b612e7e565b6114be8b6114b761191c565b8403612e7e565b6114c88184612bfd565b808a5167ffffffffffffffff811180156114e157600080fd5b5060405190808252806020026020018201604052801561150b578160200160208202803683370190505b5095509550505050610fc0565b6115228882612b3b565b6000606061154a8d8d8d8d8d6115366112d0565b611540578d611543565b60005b898e612bec565b915091506114be8b83612e7e565b600061156261113a565b6001600160a01b0316826001600160a01b03161415611584575060001961087d565b61158e8383612e88565b905061087d565b61159d6121fe565b6000806115a8612244565b915091506115b881610140611795565b6115c182612eb3565b5050565b60006107d1612eee565b6115d76121fe565b60006115e283611f7e565b905060006115ef82611d75565b90506116086001600160a01b0382161515610155611795565b61161382828561211b565b806001600160a01b0316827fdd6d1c9badb346de6925b358a472c937b41698d2632696759e43fd6527feeec48560405161164d9190615f37565b60405180910390a350505050565b60006116668361170a565b61167285858585612f8b565b90505b949350505050565b60008282026116a184158061169a57508385838161169757fe5b04145b6003611795565b9392505050565b6116c082841480156116b957508183145b6067611795565b505050565b6001811b1992909216911b1790565b60006116e1848484613094565b50501b90565b60006116f4848484613094565b506001901b60001901811b1992909216911b1790565b806115c1816130da565b6000611724838311156001611795565b50900390565b600061173d606084901c15610149611795565b61167542830160e0602061175a8660c083838c8c600060606116e7565b9291906116e7565b600061087d61177083612bae565b83906060806116e7565b6001901b6000190191901c1690565b80820390821102900390565b816115c1576115c181612457565b6117ab613153565b6108e561315b565b7f000000000000000000000000000000000000000000000000000000000000000090565b6116c081841080156117e857508183105b6064611795565b606060006117fb6117b3565b905060608167ffffffffffffffff8111801561181657600080fd5b50604051908082528060200260200182016040528015611840578160200160208202803683370190505b50905060005b828110156109b45761186961185a826124ec565b61186383613183565b906132a1565b82828151811061187557fe5b6020908102919091010152600101611846565b60208501516000906001600160a01b03163014806118b2575060408601516001600160a01b031630145b6118c8576118c386868686866132ca565b6118d5565b6118d58686868686613334565b90505b95945050505050565b60208501516000906001600160a01b031630148061190b575060408601516001600160a01b031630145b6118c8576118c38686868686613438565b620f424090565b6001600160a01b0380841660008181526001602090815260408083209487168084529490915290819020849055517f8c5be1e5ebec7d5bd14f71427d1e84f3dd0314c0f7b2291e5b200ac8c7c3b9259061197e908590615f37565b60405180910390a3505050565b7f000000000000000000000000000000000000000000000000000000000000000090565b6060816001600160a01b0316612710630e8e3e8460e01b60006040516024016119d89190616077565b60408051601f198184030181529181526020820180517bffffffffffffffffffffffffffffffffffffffffffffffffffffffff167fffffffff00000000000000000000000000000000000000000000000000000000909416939093179092529051611a439190615e29565b6000604051808303818686fa925050503d8060008114611a7f576040519150601f19603f3d011682016040523d82523d6000602084013e611a84565b606091505b509150506115c18151600014610190611795565b611aa0612328565b60606000806000611aaf61276e565b945094509450509350611ac18361348f565b6000611acb612244565b5090506000838214611ae657611ae1828761285e565b611ae8565b825b9050611af482826134a6565b505050505050565b60006001600160a01b038316631a7c3263611b198484600861177a565b6040518263ffffffff1660e01b8152600401611b359190615f37565b60206040518083038186803b158015611b4d57600080fd5b505afa158015611b61573d6000803e3d6000fd5b505050506040513d601f19601f82011682018060405250810190611b859190615976565b905060006001600160a01b038416631a7c3263611ba48560088061177a565b6040518263ffffffff1660e01b8152600401611bc09190615f37565b60206040518083038186803b158015611bd857600080fd5b505afa158015611bec573d6000803e3d6000fd5b505050506040513d601f19601f82011682018060405250810190611c109190615976565b905060006001600160a01b038516631a7c3263611c30866010600861177a565b6040518263ffffffff1660e01b8152600401611c4c9190615f37565b60206040518083038186803b158015611c6457600080fd5b505afa158015611c78573d6000803e3d6000fd5b505050506040513d601f19601f82011682018060405250810190611c9c9190615976565b90506000611cad82608060406116d4565b611cb9846040806116d4565b611cc686600060406116d4565b1717905080600b819055507fc3f0acc358200d8e08ac6ce20bc2f9f27893a344f813bf682b7859b3e521502e81604051611d009190615f37565b60405180910390a1505050505050565b6000611d1a611d51565b4211806107d157505060075460ff161590565b7f000000000000000000000000000000000000000000000000000000000000000090565b7f000000000000000000000000000000000000000000000000000000000000000090565b600081611da357507f0000000000000000000000000000000000000000000000000000000000000000610caf565b8160011415611dd357507f0000000000000000000000000000000000000000000000000000000000000000610caf565b8160021415611e0357507f0000000000000000000000000000000000000000000000000000000000000000610caf565b8160031415611e3357507f0000000000000000000000000000000000000000000000000000000000000000610caf565b8160041415611e6357507f0000000000000000000000000000000000000000000000000000000000000000610caf565b8160051415611e9357507f0000000000000000000000000000000000000000000000000000000000000000610caf565b610caf610135612457565b611eb56001600160a01b0384161515610198611795565b611ecc6001600160a01b0383161515610199611795565b611ed78383836116c0565b6001600160a01b038316600090815260208190526040902054611efd90826101a06134cc565b6001600160a01b038085166000908152602081905260408082209390935590841681522054611f2c90826123b4565b6001600160a01b0380841660008181526020819052604090819020939093559151908516907fddf252ad1be2c89b69c2b068fc378daa952ba7f163c4a11628f55a4df523b3ef9061197e908590615f37565b60007f00000000000000000000000000000000000000000000000000000000000000006001600160a01b0316826001600160a01b03161415611fc257506000610caf565b7f00000000000000000000000000000000000000000000000000000000000000006001600160a01b0316826001600160a01b0316141561200457506001610caf565b7f00000000000000000000000000000000000000000000000000000000000000006001600160a01b0316826001600160a01b0316141561204657506002610caf565b7f00000000000000000000000000000000000000000000000000000000000000006001600160a01b0316826001600160a01b0316141561208857506003610caf565b7f00000000000000000000000000000000000000000000000000000000000000006001600160a01b0316826001600160a01b031614156120ca57506004610caf565b7f00000000000000000000000000000000000000000000000000000000000000006001600160a01b0316826001600160a01b03161415611e9357506005610caf565b600061087d8260c0602061177a565b6000826001600160a01b031663679aefce6040518163ffffffff1660e01b815260040160206040518083038186803b15801561215657600080fd5b505afa15801561216a573d6000803e3d6000fd5b505050506040513d601f19601f8201168201806040525081019061218e9190615976565b6000858152600a60205260409020549091506121ab81838561172a565b6000868152600a602052604090819020919091555185907fb77a83204ca282e08dc3a65b0a1ca32ea4e6875c38ef0bf5bf75e52a67354fac906121ef908590615f37565b60405180910390a25050505050565b600061222d6000357fffffffff0000000000000000000000000000000000000000000000000000000016611070565b9050610ba361223c82336134e2565b610191611795565b6000806000806000806122556135cb565b9350935093509350804210156122a857600194508383111561228c57818103824203858503028161228257fe5b04840195506122a3565b818103824203848603028161229d57fe5b04840395505b6122b0565b600094508295505b505050509091565b60006122c78215156004611795565b50811515600019909201046001010290565b6122e58484848461362a565b7f1835882ee7a34ac194f717a35e09bb1d24c82a3b9d854ab6c9749525b714cdf28484848460405161231a94939291906160f5565b60405180910390a150505050565b6108e5612333611d10565b610192611795565b612350612346613669565b82101560cb611795565b61236561235b613672565b82111560ca611795565b600854612376908260c0603f6116e7565b6008556040517fa9ba3ffe0b6c366b81232caab38605a0699ad5398d6cce76f91ee809e322dafc906123a9908390615f37565b60405180910390a150565b60008282016116a18482101583611795565b80156123e6576123e16123d7611d2d565b4210610193611795565b6123fb565b6123fb6123f1611d51565b42106101a9611795565b600780547fffffffffffffffffffffffffffffffffffffffffffffffffffffffffffffff00168215151790556040517f9e3a5e37224532dea67b89face185703738a228a6e8a23dee546960180d3be64906123a9908390615f14565b610ba3817f42414c000000000000000000000000000000000000000000000000000000000061367e565b6108e561248c6112d0565b156101b5611795565b6008546124a4908260ff6116c5565b6008556040517feff3d4d215b42bf0960be9c6d5e05c22cba4df6627a3a523e2acee733b5854c8906124d7908390615f14565b60405180910390a180610ba357610ba36136f9565b60006124f661103a565b82141561250c5750670de0b6b3a7640000610caf565b6000828152600a6020526040902054801561252f5761252a81612bae565b610cab565b50670de0b6b3a764000092915050565b6115c18183146067611795565b6000606061255d60008886866137cb565b915091509850989650505050505050565b8151815161257d90829061253f565b60005b81811015610a85576125b884828151811061259757fe5b60200260200101518483815181106125ab57fe5b60200260200101516129c0565b8482815181106125c457fe5b6020908102919091010152600101612580565b3330146126c6576000306001600160a01b03166000366040516125fb929190615e19565b6000604051808303816000865af19150503d8060008114612638576040519150601f19603f3d011682016040523d82523d6000602084013e61263d565b606091505b50509050806000811461264c57fe5b60046000803e6000517fffffffff00000000000000000000000000000000000000000000000000000000167f43adbafb0000000000000000000000000000000000000000000000000000000081146126a8573d6000803e3d6000fd5b506020600460003e604060205260243d03602460403e601c3d016000f35b6126ce6117a3565b60606126d86117ef565b90506126e48782612b3b565b600060606126fc8c8c8c8c8c8c898d8d63ffffffff16565b9150915061270e81848663ffffffff16565b8051601f1982018390526343adbafb7fffffffffffffffffffffffffffffffffffffffffffffffffffffffffffffffc08301526020027fffffffffffffffffffffffffffffffffffffffffffffffffffffffffffffffdc82016044820181fd5b6060600080600080606061278061113a565b6001600160a01b031663f94d4668612796610ba6565b6040518263ffffffff1660e01b81526004016127b29190615f37565b60006040518083038186803b1580156127ca57600080fd5b505afa1580156127de573d6000803e3d6000fd5b505050506040513d6000823e601f3d908101601f19168201604052612806919081019061588a565b5091505061281b816128166117ef565b612b3b565b61282481613879565b965094506000612832610c05565b909450905060006128448886846138b2565b94509050612852878261393f565b95505050509091929394565b80516000908190815b8181101561289f5761289585828151811061287e57fe5b6020026020010151846123b490919063ffffffff16565b9250600101612867565b50816128b05760009250505061087d565b600082868302825b60ff8110156129a9578260005b86811015612906576128fc6128da838761167d565b6128f78c84815181106128e957fe5b60200260200101518a61167d565b613957565b91506001016128c5565b5083945061295f61293e61293861291d848a61167d565b61293261292a888d61167d565b6103e8613957565b906123b4565b8661167d565b6128f761294e896001018561167d565b61293261292a6103e889038a61167d565b93508484111561298757600185850311612982578397505050505050505061087d565b6129a0565b6001848603116129a0578397505050505050505061087d565b506001016128b8565b506129b5610141612457565b505050505092915050565b60006129cf8215156004611795565b670de0b6b3a76400008302612a018415806129fa5750670de0b6b3a76400008583816129f757fe5b04145b6005611795565b828181612a0a57fe5b04949350505050565b600080825111801561087d575060ff801682806020019051810190612a389190615d66565b60ff161492915050565b6108e5612a4d6112d0565b6101b6611795565b6000606060006060612a6687613879565b915091506000612a7586613977565b90506060825167ffffffffffffffff81118015612a9157600080fd5b50604051908082528060200260200182016040528015612abb578160200160208202803683370190505b5090506000612aca83866129c0565b905060005b8451811015612b1d57612afe82868381518110612ae857fe5b60200260200101516132a190919063ffffffff16565b838281518110612b0a57fe5b6020908102919091010152600101612acf565b5082612b2a83600061398d565b965096505050505050935093915050565b81518151612b4a90829061253f565b60005b81811015610a8557612b85848281518110612b6457fe5b6020026020010151848381518110612b7857fe5b60200260200101516132a1565b848281518110612b9157fe5b6020908102919091010152600101612b4d565b6115c18282613a4a565b600061087d8282606061177a565b600061087d8260608061177a565b600080612bd68361210c565b9150612be58360e0602061177a565b9050915091565b6000606061255d60018886866137cb565b81518151612c0c90829061253f565b60005b81811015610a8557612c47848281518110612c2657fe5b6020026020010151848381518110612c3a57fe5b6020026020010151613b16565b848281518110612c5357fe5b6020908102919091010152600101612c0f565b6000612c7061113a565b6001600160a01b031663aaabadc56040518163ffffffff1660e01b815260040160206040518083038186803b158015612ca857600080fd5b505afa158015612cbc573d6000803e3d6000fd5b505050506040513d601f19601f820116820180604052508101906107d19190615a71565b600061087d7f0000000000000000000000000000000000000000000000000000000000000000835b1c60011690565b60408051604180825260808201909252606091829190602082018180368337019050509050836020820152826040820152846060820153949350505050565b6000612d5985613b63565b9050612d6f612d69878387613b7f565b83611795565b612d7e428410156101b8611795565b5050506001600160a01b039092166000908152600660205260409020805460010190555050565b600060606000612db484613c2e565b9050612dcf6000826003811115612dc757fe5b1460ce611795565b6060612dda85613c44565b9050612de88151875161253f565b612df28187612b3b565b6000612dfc612244565b5090506060612e0a83613c5a565b90506000612e18838361285e565b9050806000612e356d800000000000000000000000000083611714565b9050612e418d82612e7e565b8086612e4b61103a565b81518110612e5557fe5b602002602001018181525050612e6b85846134a6565b509c939b50929950505050505050505050565b6115c18282613cfc565b6001600160a01b03918216600090815260016020908152604080832093909416825291909152205490565b612ebf8182424261362a565b7fa0d01593e47e69d07e0ccd87bece09411e07dd1ed40ca8f2e7af2976542a0233816040516123a99190615f37565b60007f00000000000000000000000000000000000000000000000000000000000000007f00000000000000000000000000000000000000000000000000000000000000007f0000000000000000000000000000000000000000000000000000000000000000612f5b613d89565b30604051602001612f70959493929190616019565b60405160208183030381529060405280519060200120905090565b600080856001600160a01b03166309b2760f866040518263ffffffff1660e01b8152600401612fba9190616063565b602060405180830381600087803b158015612fd457600080fd5b505af1158015612fe8573d6000803e3d6000fd5b505050506040513d601f19601f8201168201806040525081019061300c9190615976565b6040517f66a9c7d20000000000000000000000000000000000000000000000000000000081529091506001600160a01b038716906366a9c7d29061305890849088908890600401615f93565b600060405180830381600087803b15801561307257600080fd5b505af1158015613086573d6000803e3d6000fd5b509298975050505050505050565b6130a361010083106064611795565b6130cb600182101580156117e857506130c160ff8461010003611789565b8211156064611795565b6116c083821c156101b4611795565b6002815110156130e957610ba3565b6000816000815181106130f857fe5b602002602001015190506000600190505b82518110156116c057600083828151811061312057fe5b60200260200101519050613149816001600160a01b0316846001600160a01b0316106065611795565b9150600101613109565b6108e5612328565b60006131656117b3565b905060005b818110156115c15761317b81613d8d565b60010161316a565b6000816131b157507f0000000000000000000000000000000000000000000000000000000000000000610caf565b81600114156131e157507f0000000000000000000000000000000000000000000000000000000000000000610caf565b816002141561321157507f0000000000000000000000000000000000000000000000000000000000000000610caf565b816003141561324157507f0000000000000000000000000000000000000000000000000000000000000000610caf565b816004141561327157507f0000000000000000000000000000000000000000000000000000000000000000610caf565b8160051415611e9357507f0000000000000000000000000000000000000000000000000000000000000000610caf565b60008282026132bb84158061169a57508385838161169757fe5b670de0b6b3a764000081612a0a565b60006132d68583612b3b565b6132f786606001518385815181106132ea57fe5b6020026020010151613de1565b6060870152600061330a87878787613ded565b90506133298184878151811061331c57fe5b6020026020010151613e01565b90506107bc81613e0d565b600080808751600181111561334557fe5b1490506133528684612b3b565b613372876060015184836133665786613368565b875b815181106132ea57fe5b8760600181815250506000606060008061338b8a613e29565b935093509350935060008061339e61103a565b8a146133c4576133bf878e60600151876133b78e613e92565b888b89613ecb565b6133df565b6133df878e60600151876133d78f613e92565b888b89613f04565b915091506133f08486858985613f28565b8661340a57613405828a8d8151811061331c57fe5b613427565b613427828a8c8151811061341a57fe5b6020026020010151613fa8565b9d9c50505050505050505050505050565b60006134478660600151613fb4565b60608701526134568583612b3b565b61346a86606001518386815181106132ea57fe5b6060870152600061347d87878787613fd5565b90506107bc8184868151811061341a57fe5b8015610ba357610ba36134a0611386565b82612e7e565b6134b381600060e96116d4565b6134c08360e960176116d4565b17600c556115c1613fe9565b60006134db8484111583611795565b5050900390565b600073ba1ba1ba1ba1ba1ba1ba1ba1ba1ba1ba1ba1ba1b613501611116565b6001600160a01b03161415801561351c575061351c8361401f565b1561354457613529611116565b6001600160a01b0316336001600160a01b031614905061087d565b61354c612c66565b6001600160a01b0316639be2a8848484306040518463ffffffff1660e01b815260040161357b93929190615f40565b60206040518083038186803b15801561359357600080fd5b505afa1580156135a7573d6000803e3d6000fd5b505050506040513d601f19601f8201168201806040525081019061158e9190615956565b6000806000806135ea6000604060095461177a9092919063ffffffff16565b6009549094506135fc9060408061177a565b60095490935061360f906080604061177a565b6009549092506136229060c0604061177a565b905090919293565b6136378160c060406116d4565b61364483608060406116d4565b613650856040806116d4565b61365d87600060406116d4565b17171760095550505050565b64e8d4a5100090565b67016345785d8a000090565b7f08c379a000000000000000000000000000000000000000000000000000000000600090815260206004526007602452600a808404818106603090810160081b958390069590950190829004918206850160101b01602363ffffff0060e086901c160160181b0190930160c81b60445260e882901c90606490fd5b606061370361113a565b6001600160a01b031663f94d4668613719610ba6565b6040518263ffffffff1660e01b81526004016137359190615f37565b60006040518083038186803b15801561374d57600080fd5b505afa158015613761573d6000803e3d6000fd5b505050506040513d6000823e601f3d908101601f19168201604052613789919081019061588a565b50915050613799816128166117ef565b60606137a482613c5a565b905060006137b0612244565b50905060006137bf828461285e565b9050610a8582826134a6565b60006060600060606000806137df89613e29565b93509350935093506155f78a6137f75761402a6137fb565b6140bf5b905060006060613813868689878f8f8963ffffffff16565b915091506155f78d6138275761171461382b565b6123b45b905061383887838361413d565b600061384889858463ffffffff16565b90506138578789888c85613f28565b8361386384600061398d565b9a509a5050505050505050505094509492505050565b600060606138a08361388961103a565b8151811061389357fe5b60200260200101516141b1565b6138a984613c5a565b91509150915091565b60008060008060006138c488886141c5565b92509250925060008684116138da5760006138de565b8684035b905060008484116138f05760006138f4565b8484035b9050600061390f6139056000610e4d565b61186385876129c0565b9050600061392a6139206002610e4d565b61186385886129c0565b919091019b939a509298505050505050505050565b60006116a161394e848461167d565b6128f784614247565b60006139668215156004611795565b81838161396f57fe5b049392505050565b6000818060200190518101906116a19190615d82565b6060825160010167ffffffffffffffff811180156139aa57600080fd5b506040519080825280602002602001820160405280156139d4578160200160208202803683370190505b50905060005b8151811015613a43576139eb61103a565b8114613a2257836139fa61103a565b8210613a095760018203613a0b565b815b81518110613a1557fe5b6020026020010151613a24565b825b828281518110613a3057fe5b60209081029190910101526001016139da565b5092915050565b613a616001600160a01b038316151561019b611795565b613a6d826000836116c0565b6001600160a01b038216600090815260208190526040902054613a9390826101b26134cc565b6001600160a01b038316600090815260208190526040902055613ac6613ac182613abb6108e7565b90614259565b614267565b60006001600160a01b0316826001600160a01b03167fddf252ad1be2c89b69c2b068fc378daa952ba7f163c4a11628f55a4df523b3ef83604051613b0a9190615f37565b60405180910390a35050565b6000613b258215156004611795565b670de0b6b3a76400008302613b4d8415806129fa5750670de0b6b3a76400008583816129f757fe5b6001836001830304018115150291505092915050565b6000613b6d612eee565b826040516020016110a5929190615e45565b6000613b9182516041146101b9611795565b60208281015160408085015160608601518251600080825295019283905292939092811a91600190613bca908990859088908890616045565b6020604051602081039080840390855afa158015613bec573d6000803e3d6000fd5b5050604051601f1901519150506001600160a01b03811615801590613c225750876001600160a01b0316816001600160a01b0316145b98975050505050505050565b60008180602001905181019061087d9190615b4e565b6060818060200190518101906116a19190615b69565b606080600183510367ffffffffffffffff81118015613c7857600080fd5b50604051908082528060200260200182016040528015613ca2578160200160208202803683370190505b50905060005b8151811015613a435783613cba61103a565b8210613cc95781600101613ccb565b815b81518110613cd557fe5b6020026020010151828281518110613ce957fe5b6020908102919091010152600101613ca8565b613d08600083836116c0565b613d17613ac1826129326108e7565b6001600160a01b038216600090815260208190526040902054613d3a90826123b4565b6001600160a01b0383166000818152602081905260408082209390935591519091907fddf252ad1be2c89b69c2b068fc378daa952ba7f163c4a11628f55a4df523b3ef90613b0a908590615f37565b4690565b613d9561103a565b811415613da157610ba3565b6000818152600a602052604090205480156115c157600080613dc283612bca565b9150915080421115610a8557610a8584613ddb86611d75565b8461211b565b60006116a183836132a1565b60006116726000866060015186868661426c565b60006116a18383613b16565b600061087d613e22613e1d610d7c565b614247565b8390613b16565b60006060600080600080613e3b610c05565b91509150600060606000613e508a86866142de565b9250925092506000613e60612244565b5090506000868214613e7b57613e76828561285e565b613e7d565b825b949c939b509099509297509095505050505050565b6000613ea9613e9f61103a565b8314156064611795565b613eb161103a565b8210613ec757613ec2826001611714565b61087d565b5090565b60008088613ee657613ee1888888888888614330565b613ef4565b613ef4888888888888614407565b9150915097509795505050505050565b60008088613f1a57613ee1888888888888614468565b613ef48888888888886144ce565b6000613f34868661285e565b90506000613f4283856129c0565b90506000613f5086836132a1565b905080831115613f9e578083036000613f7a613f7483613f6f84610e4d565b61167d565b86613957565b90508015613f9b576000613f8e878361393f565b9050613f998161348f565b505b50505b61142b88846134a6565b60006116a183836129c0565b600080613fc9613fc2610d7c565b849061457d565b9050610cab8382611714565b60006116726001866060015186868661426c565b6000613ff36117b3565b905060005b818110156115c157614009816145b5565b1561401757614017816145e4565b600101613ff8565b600061087d82614612565b6000606060006140398461461d565b9050600181600281111561404957fe5b14156140675761405d87878a8c8989614633565b92509250506140b4565b600281600281111561407557fe5b14156140865761405d878a86614692565b600081600281111561409457fe5b14156140a75761405d87878a8c886146be565b6140b2610150612457565b505b965096945050505050565b6000606060006140ce84613c2e565b905060018160038111156140de57fe5b14156140f25761405d87878a8c898961475f565b600381600381111561410057fe5b14156141115761405d878a866147ae565b600281600381111561411f57fe5b14156141325761405d87878a8c886147cc565b6140b2610136612457565b8251825161414c90829061253f565b60005b818110156141aa5761418b85828151811061416657fe5b602002602001015185838151811061417a57fe5b60200260200101518563ffffffff16565b85828151811061419757fe5b602090810291909101015260010161414f565b5050505050565b600061087d826141bf6108e7565b90611714565b60008060006141de846141d9876001614846565b61285e565b92506141e861494f565b15614201576141f7848661285e565b9150819050614240565b614209614973565b156142225782915061421b848661285e565b9050614240565b614231846141d9876000614846565b915061423d848661285e565b90505b9250925092565b670de0b6b3a764000081810391100290565b60006116a1838360016134cc565b600255565b6000606061427985613c5a565b9050600061428685613e92565b9050600061429385613e92565b9050600061429f612244565b50905060006142ae828661285e565b90508a156142d0576142c4828686868e86614997565b955050505050506118d8565b6142c4828686868e86614a22565b6000606060008060606142f088613879565b91509150600080614302838a8a6138b2565b915091506000614312858461393f565b905061431d8161348f565b9390930199919850919650945050505050565b6000806060875167ffffffffffffffff8111801561434d57600080fd5b50604051908082528060200260200182016040528015614377578160200160208202803683370190505b5090508881888151811061438757fe5b60200260200101818152505060006143aa878a8489896143a5610d7c565b614ab5565b90506143d28a8a8a815181106143bc57fe5b602002602001015161171490919063ffffffff16565b8989815181106143de57fe5b602090810291909101015260006143f58783611714565b919b919a509098505050505050505050565b60008060006144228689898c898961441d610d7c565b614d45565b9050614434818989815181106143bc57fe5b88888151811061444057fe5b60209081029190910101526000614457868b611714565b919a91995090975050505050505050565b60008060006144838689898c898961447e610d7c565b614e34565b90506144ab8189898151811061449557fe5b60200260200101516123b490919063ffffffff16565b8888815181106144b757fe5b60209081029190910101526000614457868b6123b4565b6000806060875167ffffffffffffffff811180156144eb57600080fd5b50604051908082528060200260200182016040528015614515578160200160208202803683370190505b5090508881888151811061452557fe5b6020026020010181815250506000614548878a848989614543610d7c565b614f01565b905061455a8a8a8a8151811061449557fe5b89898151811061456657fe5b602090810291909101015260006143f587836123b4565b600082820261459784158061169a57508385838161169757fe5b6001670de0b6b3a76400006001830304018115150291505092915050565b600061087d7f000000000000000000000000000000000000000000000000000000000000000060068401612d08565b6000818152600a60205260409020546145fc81611762565b6000928352600a60205260409092209190915550565b600061087d82615182565b60008180602001905181019061087d9190615a8d565b60006060806000614643856151be565b915091506146538251885161253f565b6146608261281688613c5a565b60006146728989858e8e6143a5610d7c565b90506146828282111560cf611795565b9a91995090975050505050505050565b6000606060006146a1846151e1565b905060606146b08688846151f7565b919791965090945050505050565b600060606000806146ce85615290565b915091506146e0865182106064611795565b6060865167ffffffffffffffff811180156146fa57600080fd5b50604051908082528060200260200182016040528015614724578160200160208202803683370190505b509050614738888884868e8e61441d610d7c565b81838151811061474457fe5b60209081029190910101529199919850909650505050505050565b6000606080600061476f856152a7565b9150915061477f8751835161253f565b61478c8261281688613c5a565b600061479e8989858e8e614543610d7c565b90506146828282101560d0611795565b6000606060006147bd846152bf565b905060606146b08688846152d5565b600060606000806147dc85615365565b915091506147ee865182106064611795565b6060865167ffffffffffffffff8111801561480857600080fd5b50604051908082528060200260200182016040528015614832578160200160208202803683370190505b509050614738888884868e8e61447e610d7c565b8151606090818167ffffffffffffffff8111801561486357600080fd5b5060405190808252806020026020018201604052801561488d578160200160208202803683370190505b50905060005b828110156149465760006148a561103a565b8210156148b257816148b7565b816001015b90506148c281612ce0565b806148d957508580156148d957506148d9816145b5565b6148f6578682815181106148e957fe5b6020026020010151614926565b61492687838151811061490557fe5b6020026020010151600a60008481526020019081526020016000205461537c565b83838151811061493257fe5b602090810291909101015250600101614893565b50949350505050565b7f000000000000000000000000000000000000000000000000000000000000000090565b7f000000000000000000000000000000000000000000000000000000000000000090565b60006149a98387878151811061449557fe5b8686815181106149b557fe5b60200260200101818152505060006149cf88888588615397565b9050838787815181106149de57fe5b6020026020010151038787815181106149f357fe5b602002602001018181525050614a1460016141bf838a89815181106143bc57fe5b9150505b9695505050505050565b6000614a34838786815181106143bc57fe5b868581518110614a4057fe5b6020026020010181815250506000614a5a88888589615397565b905083878681518110614a6957fe5b602002602001015101878681518110614a7e57fe5b602002602001018181525050614a146001612932898981518110614a9e57fe5b60200260200101518461171490919063ffffffff16565b600080805b8751811015614af357614ae9888281518110614ad257fe5b6020026020010151836123b490919063ffffffff16565b9150600101614aba565b506060865167ffffffffffffffff81118015614b0e57600080fd5b50604051908082528060200260200182016040528015614b38578160200160208202803683370190505b5090506000805b8951811015614c05576000614b70858c8481518110614b5a57fe5b6020026020010151613b1690919063ffffffff16565b9050614bb28b8381518110614b8157fe5b6020026020010151614bac8c8581518110614b9857fe5b60200260200101518e86815181106143bc57fe5b90613b16565b848381518110614bbe57fe5b602002602001018181525050614bfa614bf382868581518110614bdd57fe5b602002602001015161457d90919063ffffffff16565b84906123b4565b925050600101614b3f565b506060895167ffffffffffffffff81118015614c2057600080fd5b50604051908082528060200260200182016040528015614c4a578160200160208202803683370190505b50905060005b8a51811015614d15576000848281518110614c6757fe5b6020026020010151841115614cce576000614c90614c8486614247565b8e8581518110612ae857fe5b90506000614ca4828e86815181106143bc57fe5b9050614cc5614cbe82670de0b6b3a76400008d9003613b16565b83906123b4565b92505050614ce5565b8a8281518110614cda57fe5b602002602001015190505b614cf5818d84815181106143bc57fe5b838381518110614d0157fe5b602090810291909101015250600101614c50565b506000614d228c8361285e565b90506000614d30828a6129c0565b9050613427614d3e82614247565b8b9061457d565b600080614d6084614d5a87614bac818b611714565b9061457d565b90506000614d708a8a848b615397565b90506000614d84828b8b815181106143bc57fe5b90506000805b8b51811015614dac57614da28c8281518110614ad257fe5b9150600101614d8a565b506000614dd5828d8d81518110614dbf57fe5b60200260200101516129c090919063ffffffff16565b90506000614de282614247565b90506000614df0858361457d565b90506000614dfe8683611714565b9050614e1f614e1883670de0b6b3a76400008d90036132a1565b82906123b4565b98505050505050505050979650505050505050565b600080614e4984614d5a87614bac818b6123b4565b90506000614e598a8a848b615397565b90506000614e838a8a81518110614e6c57fe5b60200260200101518361171490919063ffffffff16565b90506000805b8b51811015614eab57614ea18c8281518110614ad257fe5b9150600101614e89565b506000614ebe828d8d81518110614dbf57fe5b90506000614ecb82614247565b90506000614ed9858361457d565b90506000614ee78683611714565b9050614e1f614e1883670de0b6b3a76400008d9003613b16565b600080805b8751811015614f2857614f1e888281518110614ad257fe5b9150600101614f06565b506060865167ffffffffffffffff81118015614f4357600080fd5b50604051908082528060200260200182016040528015614f6d578160200160208202803683370190505b5090506000805b8951811015615007576000614f8f858c8481518110614dbf57fe5b9050614fd18b8381518110614fa057fe5b6020026020010151614fcb8c8581518110614fb757fe5b60200260200101518e868151811061449557fe5b906129c0565b848381518110614fdd57fe5b602002602001018181525050614ffc614bf382868581518110612ae857fe5b925050600101614f74565b506060895167ffffffffffffffff8111801561502257600080fd5b5060405190808252806020026020018201604052801561504c578160200160208202803683370190505b50905060005b8a5181101561510d5760008385838151811061506a57fe5b602002602001015111156150c657600061508f614c8486670de0b6b3a7640000611714565b905060006150a3828e86815181106143bc57fe5b90506150bd614cbe82670de0b6b3a76400008d90036132a1565b925050506150dd565b8a82815181106150d257fe5b602002602001015190505b6150ed818d848151811061449557fe5b8383815181106150f957fe5b602090810291909101015250600101615052565b50600061511a8c8361285e565b90506000615128828a6129c0565b9050670de0b6b3a7640000811115615173576151668a7ffffffffffffffffffffffffffffffffffffffffffffffffff21f494c589c000083016132a1565b9650505050505050614a18565b60009650505050505050614a18565b60006151ad7ff4b7964d00000000000000000000000000000000000000000000000000000000611070565b82148061087d575061087d82615554565b60606000828060200190518101906151d69190615aa8565b909590945092505050565b6000818060200190518101906116a19190615aed565b6060600061520583856129c0565b9050845167ffffffffffffffff8111801561521f57600080fd5b50604051908082528060200260200182016040528015615249578160200160208202803683370190505b50915060005b85518110156152875761526882878381518110612ae857fe5b83828151811061527457fe5b602090810291909101015260010161524f565b50509392505050565b600080828060200190518101906151d69190615b19565b60606000828060200190518101906151d69190615bb6565b6000818060200190518101906116a19190615bd4565b606060006152e38385613b16565b9050845167ffffffffffffffff811180156152fd57600080fd5b50604051908082528060200260200182016040528015615327578160200160208202803683370190505b50915060005b85518110156152875761534682878381518110614bdd57fe5b83828151811061535257fe5b602090810291909101015260010161532d565b600080828060200190518101906151d69190615bf0565b60006116a161538e84613f6f85612bbc565b6128f784612bae565b6000808451860290506000856000815181106153af57fe5b6020026020010151905060008651876000815181106153ca57fe5b60200260200101510290506000600190505b87518110156154305761541561540f615408848b85815181106153fb57fe5b602002602001015161167d565b8a5161167d565b88613957565b915061542688828151811061287e57fe5b92506001016153dc565b5086858151811061543d57fe5b6020026020010151820391506000615455878861167d565b9050600061548161547561546d84610b23898861167d565b6103e861167d565b8a89815181106153fb57fe5b9050600061549c61549561546d8b89613957565b86906123b4565b90506000806154b86154ae86866123b4565b610b238d866123b4565b905060005b60ff811015615538578192506154ed6154da86612932858661167d565b610b238e6141bf8861293288600261167d565b91508282111561551657600183830311615511575097506116759650505050505050565b615530565b600182840311615530575097506116759650505050505050565b6001016154bd565b50615544610142612457565b5050505050505050949350505050565b600061557f7f2f1a0bc900000000000000000000000000000000000000000000000000000000611070565b8214806155b357506155b07feb0f24d600000000000000000000000000000000000000000000000000000000611070565b82145b8061087d575061087d8260006155e87f38e9922e00000000000000000000000000000000000000000000000000000000611070565b82148061087d5750600061087d565bfe5b803561087d8161618f565b600082601f830112615614578081fd5b813561562761562282616137565b616110565b81815291506020808301908481018184028601820187101561564857600080fd5b60005b848110156129b55781358452928201929082019060010161564b565b600082601f830112615677578081fd5b815161568561562282616137565b8181529150602080830190848101818402860182018710156156a657600080fd5b60005b848110156129b5578151845292820192908201906001016156a9565b600082601f8301126156d5578081fd5b813567ffffffffffffffff8111156156eb578182fd5b6156fe6020601f19601f84011601616110565b915080825283602082850101111561571557600080fd5b8060208401602084013760009082016020015292915050565b80516003811061087d57600080fd5b80516004811061087d57600080fd5b80356002811061087d57600080fd5b60006020828403121561576c578081fd5b81356116a18161618f565b60008060408385031215615789578081fd5b82356157948161618f565b915060208301356157a48161618f565b809150509250929050565b6000806000606084860312156157c3578081fd5b83356157ce8161618f565b925060208401356157de8161618f565b929592945050506040919091013590565b600080600080600080600060e0888a031215615809578283fd5b87356158148161618f565b965060208801356158248161618f565b955060408801359450606088013593506080880135615842816161a4565b9699959850939692959460a0840135945060c09093013592915050565b60008060408385031215615871578182fd5b823561587c8161618f565b946020939093013593505050565b60008060006060848603121561589e578081fd5b835167ffffffffffffffff808211156158b5578283fd5b818601915086601f8301126158c8578283fd5b81516158d661562282616137565b80828252602080830192508086018b8283870289010111156158f6578788fd5b8796505b8487101561592157805161590d8161618f565b8452600196909601959281019281016158fa565b508901519097509350505080821115615938578283fd5b5061594586828701615667565b925050604084015190509250925092565b600060208284031215615967578081fd5b815180151581146116a1578182fd5b600060208284031215615987578081fd5b5051919050565b600080600080600080600060e0888a0312156159a8578081fd5b8735965060208801356159ba8161618f565b955060408801356159ca8161618f565b9450606088013567ffffffffffffffff808211156159e6578283fd5b6159f28b838c01615604565b955060808a0135945060a08a0135935060c08a0135915080821115615a15578283fd5b50615a228a828b016156c5565b91505092959891949750929550565b600060208284031215615a42578081fd5b81357fffffffff00000000000000000000000000000000000000000000000000000000811681146116a1578182fd5b600060208284031215615a82578081fd5b81516116a18161618f565b600060208284031215615a9e578081fd5b6116a1838361572e565b600080600060608486031215615abc578081fd5b615ac6858561572e565b9250602084015167ffffffffffffffff811115615ae1578182fd5b61594586828701615667565b60008060408385031215615aff578182fd5b615b09848461572e565b9150602083015190509250929050565b600080600060608486031215615b2d578081fd5b615b37858561572e565b925060208401519150604084015190509250925092565b600060208284031215615b5f578081fd5b6116a1838361573d565b60008060408385031215615b7b578182fd5b615b85848461573d565b9150602083015167ffffffffffffffff811115615ba0578182fd5b615bac85828601615667565b9150509250929050565b600080600060608486031215615bca578081fd5b615ac6858561573d565b60008060408385031215615be6578182fd5b615b09848461573d565b600080600060608486031215615c04578081fd5b615b37858561573d565b60008060008060808587031215615c23578182fd5b843567ffffffffffffffff80821115615c3a578384fd5b818701915061012080838a031215615c50578485fd5b615c5981616110565b9050615c65898461574c565b8152615c7489602085016155f9565b6020820152615c8689604085016155f9565b6040820152606083013560608201526080830135608082015260a083013560a0820152615cb68960c085016155f9565b60c0820152615cc88960e085016155f9565b60e08201526101008084013583811115615ce0578687fd5b615cec8b8287016156c5565b828401525050809650506020870135915080821115615d09578384fd5b50615d1687828801615604565b949794965050505060408301359260600135919050565b600060208284031215615d3e578081fd5b5035919050565b60008060408385031215615d57578182fd5b50508035926020909101359150565b600060208284031215615d77578081fd5b81516116a1816161a4565b60008060408385031215615d94578182fd5b8251615d9f816161a4565b6020939093015192949293505050565b6000815180845260208085019450808401835b83811015615dde57815187529582019590820190600101615dc2565b509495945050505050565b9182527fffffffff0000000000000000000000000000000000000000000000000000000016602082015260240190565b6000828483379101908152919050565b60008251615e3b818460208701616163565b9190910192915050565b7f190100000000000000000000000000000000000000000000000000000000000081526002810192909252602282015260420190565b6001600160a01b0391909116815260200190565b6020808252825182820181905260009190848201906040850190845b81811015615ed05783516001600160a01b031683529284019291840191600101615eab565b50909695505050505050565b6000602082526116a16020830184615daf565b600060408252615f026040830185615daf565b82810360208401526118d88185615daf565b901515815260200190565b92151583526020830191909152604082015260600190565b90815260200190565b9283526001600160a01b03918216602084015216604082015260600190565b9586526001600160a01b0394851660208701529290931660408501526060840152608083019190915260a082015260c00190565b60006060820185835260206060818501528186518084526080860191508288019350845b81811015615fdb57615fc98551616157565b83529383019391830191600101615fb7565b505084810360408601528551808252908201925081860190845b81811015613086576160078351616157565b85529383019391830191600101615ff5565b9485526020850193909352604084019190915260608301526001600160a01b0316608082015260a00190565b93845260ff9290921660208401526040830152606082015260800190565b602081016003831061607157fe5b91905290565b60ff91909116815260200190565b60006020825282518060208401526160a4816040850160208701616163565b601f01601f19169190910160400192915050565b6000838252604060208301526116756040830184615daf565b9283529015156020830152604082015260600190565b918252602082015260400190565b93845260208401929092526040830152606082015260800190565b60405181810167ffffffffffffffff8111828210171561612f57600080fd5b604052919050565b600067ffffffffffffffff82111561614d578081fd5b5060209081020190565b6001600160a01b031690565b60005b8381101561617e578181015183820152602001616166565b83811115610a855750506000910152565b6001600160a01b0381168114610ba357600080fd5b60ff81168114610ba357600080fdfea26469706673582212204d3c903df9e59ed062a9c60c0d70b7a7b409bfe5523e5b9c06b1fc15a6abf4bd64736f6c63430007010033",
  "linkReferences": {},
  "deployedLinkReferences": {}
}