{
  "_format": "hh-sol-artifact-1",
  "contractName": "StaticATokenLM",
  "sourceName": "contracts/StaticATokenLM.sol",
  "abi": [
    {
      "inputs": [],
      "stateMutability": "nonpayable",
      "type": "constructor"
    },
    {
      "anonymous": false,
      "inputs": [
        {
          "indexed": true,
          "internalType": "address",
          "name": "owner",
          "type": "address"
        },
        {
          "indexed": true,
          "internalType": "address",
          "name": "spender",
          "type": "address"
        },
        {
          "indexed": false,
          "internalType": "uint256",
          "name": "value",
          "type": "uint256"
        }
      ],
      "name": "Approval",
      "type": "event"
    },
    {
      "anonymous": false,
      "inputs": [
        {
          "indexed": true,
          "internalType": "address",
          "name": "pool",
          "type": "address"
        },
        {
          "indexed": false,
          "internalType": "address",
          "name": "aToken",
          "type": "address"
        },
        {
          "indexed": false,
          "internalType": "string",
          "name": "staticATokenName",
          "type": "string"
        },
        {
          "indexed": false,
          "internalType": "string",
          "name": "staticATokenSymbol",
          "type": "string"
        }
      ],
      "name": "Initialized",
      "type": "event"
    },
    {
      "anonymous": false,
      "inputs": [
        {
          "indexed": true,
          "internalType": "address",
          "name": "from",
          "type": "address"
        },
        {
          "indexed": true,
          "internalType": "address",
          "name": "to",
          "type": "address"
        },
        {
          "indexed": false,
          "internalType": "uint256",
          "name": "value",
          "type": "uint256"
        }
      ],
      "name": "Transfer",
      "type": "event"
    },
    {
      "inputs": [],
      "name": "ASSET",
      "outputs": [
        {
          "internalType": "contract IERC20",
          "name": "",
          "type": "address"
        }
      ],
      "stateMutability": "view",
      "type": "function"
    },
    {
      "inputs": [],
      "name": "ATOKEN",
      "outputs": [
        {
          "internalType": "contract IERC20",
          "name": "",
          "type": "address"
        }
      ],
      "stateMutability": "view",
      "type": "function"
    },
    {
      "inputs": [],
      "name": "EIP712_REVISION",
      "outputs": [
        {
          "internalType": "bytes",
          "name": "",
          "type": "bytes"
        }
      ],
      "stateMutability": "view",
      "type": "function"
    },
    {
      "inputs": [],
      "name": "INCENTIVES_CONTROLLER",
      "outputs": [
        {
          "internalType": "contract IAaveIncentivesController",
          "name": "",
          "type": "address"
        }
      ],
      "stateMutability": "view",
      "type": "function"
    },
    {
      "inputs": [],
      "name": "LENDING_POOL",
      "outputs": [
        {
          "internalType": "contract ILendingPool",
          "name": "",
          "type": "address"
        }
      ],
      "stateMutability": "view",
      "type": "function"
    },
    {
      "inputs": [],
      "name": "METADEPOSIT_TYPEHASH",
      "outputs": [
        {
          "internalType": "bytes32",
          "name": "",
          "type": "bytes32"
        }
      ],
      "stateMutability": "view",
      "type": "function"
    },
    {
      "inputs": [],
      "name": "METAWITHDRAWAL_TYPEHASH",
      "outputs": [
        {
          "internalType": "bytes32",
          "name": "",
          "type": "bytes32"
        }
      ],
      "stateMutability": "view",
      "type": "function"
    },
    {
      "inputs": [],
      "name": "PERMIT_TYPEHASH",
      "outputs": [
        {
          "internalType": "bytes32",
          "name": "",
          "type": "bytes32"
        }
      ],
      "stateMutability": "view",
      "type": "function"
    },
    {
      "inputs": [],
      "name": "REWARD_TOKEN",
      "outputs": [
        {
          "internalType": "contract IERC20",
          "name": "",
          "type": "address"
        }
      ],
      "stateMutability": "view",
      "type": "function"
    },
    {
      "inputs": [],
      "name": "STATIC_ATOKEN_LM_REVISION",
      "outputs": [
        {
          "internalType": "uint256",
          "name": "",
          "type": "uint256"
        }
      ],
      "stateMutability": "view",
      "type": "function"
    },
    {
      "inputs": [],
      "name": "UNDERLYING_ASSET_ADDRESS",
      "outputs": [
        {
          "internalType": "address",
          "name": "",
          "type": "address"
        }
      ],
      "stateMutability": "view",
      "type": "function"
    },
    {
      "inputs": [],
      "name": "_name",
      "outputs": [
        {
          "internalType": "string",
          "name": "",
          "type": "string"
        }
      ],
      "stateMutability": "view",
      "type": "function"
    },
    {
      "inputs": [
        {
          "internalType": "address",
          "name": "",
          "type": "address"
        }
      ],
      "name": "_nonces",
      "outputs": [
        {
          "internalType": "uint256",
          "name": "",
          "type": "uint256"
        }
      ],
      "stateMutability": "view",
      "type": "function"
    },
    {
      "inputs": [],
      "name": "_symbol",
      "outputs": [
        {
          "internalType": "string",
          "name": "",
          "type": "string"
        }
      ],
      "stateMutability": "view",
      "type": "function"
    },
    {
      "inputs": [
        {
          "internalType": "address",
          "name": "owner",
          "type": "address"
        },
        {
          "internalType": "address",
          "name": "spender",
          "type": "address"
        }
      ],
      "name": "allowance",
      "outputs": [
        {
          "internalType": "uint256",
          "name": "",
          "type": "uint256"
        }
      ],
      "stateMutability": "view",
      "type": "function"
    },
    {
      "inputs": [
        {
          "internalType": "address",
          "name": "spender",
          "type": "address"
        },
        {
          "internalType": "uint256",
          "name": "amount",
          "type": "uint256"
        }
      ],
      "name": "approve",
      "outputs": [
        {
          "internalType": "bool",
          "name": "",
          "type": "bool"
        }
      ],
      "stateMutability": "nonpayable",
      "type": "function"
    },
    {
      "inputs": [
        {
          "internalType": "address",
          "name": "account",
          "type": "address"
        }
      ],
      "name": "balanceOf",
      "outputs": [
        {
          "internalType": "uint256",
          "name": "",
          "type": "uint256"
        }
      ],
      "stateMutability": "view",
      "type": "function"
    },
    {
      "inputs": [
        {
          "internalType": "address",
          "name": "receiver",
          "type": "address"
        },
        {
          "internalType": "bool",
          "name": "forceUpdate",
          "type": "bool"
        }
      ],
      "name": "claimRewards",
      "outputs": [],
      "stateMutability": "nonpayable",
      "type": "function"
    },
    {
      "inputs": [
        {
          "internalType": "address",
          "name": "onBehalfOf",
          "type": "address"
        },
        {
          "internalType": "address",
          "name": "receiver",
          "type": "address"
        },
        {
          "internalType": "bool",
          "name": "forceUpdate",
          "type": "bool"
        }
      ],
      "name": "claimRewardsOnBehalf",
      "outputs": [],
      "stateMutability": "nonpayable",
      "type": "function"
    },
    {
      "inputs": [
        {
          "internalType": "bool",
          "name": "forceUpdate",
          "type": "bool"
        }
      ],
      "name": "claimRewardsToSelf",
      "outputs": [],
      "stateMutability": "nonpayable",
      "type": "function"
    },
    {
      "inputs": [],
      "name": "collectAndUpdateRewards",
      "outputs": [],
      "stateMutability": "nonpayable",
      "type": "function"
    },
    {
      "inputs": [],
      "name": "decimals",
      "outputs": [
        {
          "internalType": "uint8",
          "name": "",
          "type": "uint8"
        }
      ],
      "stateMutability": "view",
      "type": "function"
    },
    {
      "inputs": [
        {
          "internalType": "address",
          "name": "spender",
          "type": "address"
        },
        {
          "internalType": "uint256",
          "name": "subtractedValue",
          "type": "uint256"
        }
      ],
      "name": "decreaseAllowance",
      "outputs": [
        {
          "internalType": "bool",
          "name": "",
          "type": "bool"
        }
      ],
      "stateMutability": "nonpayable",
      "type": "function"
    },
    {
      "inputs": [
        {
          "internalType": "address",
          "name": "recipient",
          "type": "address"
        },
        {
          "internalType": "uint256",
          "name": "amount",
          "type": "uint256"
        },
        {
          "internalType": "uint16",
          "name": "referralCode",
          "type": "uint16"
        },
        {
          "internalType": "bool",
          "name": "fromUnderlying",
          "type": "bool"
        }
      ],
      "name": "deposit",
      "outputs": [
        {
          "internalType": "uint256",
          "name": "",
          "type": "uint256"
        }
      ],
      "stateMutability": "nonpayable",
      "type": "function"
    },
    {
      "inputs": [
        {
          "internalType": "address",
          "name": "account",
          "type": "address"
        }
      ],
      "name": "dynamicBalanceOf",
      "outputs": [
        {
          "internalType": "uint256",
          "name": "",
          "type": "uint256"
        }
      ],
      "stateMutability": "view",
      "type": "function"
    },
    {
      "inputs": [
        {
          "internalType": "uint256",
          "name": "amount",
          "type": "uint256"
        }
      ],
      "name": "dynamicToStaticAmount",
      "outputs": [
        {
          "internalType": "uint256",
          "name": "",
          "type": "uint256"
        }
      ],
      "stateMutability": "view",
      "type": "function"
    },
    {
      "inputs": [],
      "name": "getAccRewardsPerToken",
      "outputs": [
        {
          "internalType": "uint256",
          "name": "",
          "type": "uint256"
        }
      ],
      "stateMutability": "view",
      "type": "function"
    },
    {
      "inputs": [
        {
          "internalType": "address",
          "name": "user",
          "type": "address"
        }
      ],
      "name": "getClaimableRewards",
      "outputs": [
        {
          "internalType": "uint256",
          "name": "",
          "type": "uint256"
        }
      ],
      "stateMutability": "view",
      "type": "function"
    },
    {
      "inputs": [],
      "name": "getDomainSeparator",
      "outputs": [
        {
          "internalType": "bytes32",
          "name": "",
          "type": "bytes32"
        }
      ],
      "stateMutability": "view",
      "type": "function"
    },
    {
      "inputs": [],
      "name": "getIncentivesController",
      "outputs": [
        {
          "internalType": "contract IAaveIncentivesController",
          "name": "",
          "type": "address"
        }
      ],
      "stateMutability": "view",
      "type": "function"
    },
    {
      "inputs": [],
      "name": "getLastRewardBlock",
      "outputs": [
        {
          "internalType": "uint256",
          "name": "",
          "type": "uint256"
        }
      ],
      "stateMutability": "view",
      "type": "function"
    },
    {
      "inputs": [],
      "name": "getLifetimeRewards",
      "outputs": [
        {
          "internalType": "uint256",
          "name": "",
          "type": "uint256"
        }
      ],
      "stateMutability": "view",
      "type": "function"
    },
    {
      "inputs": [],
      "name": "getLifetimeRewardsClaimed",
      "outputs": [
        {
          "internalType": "uint256",
          "name": "",
          "type": "uint256"
        }
      ],
      "stateMutability": "view",
      "type": "function"
    },
    {
      "inputs": [],
      "name": "getTotalClaimableRewards",
      "outputs": [
        {
          "internalType": "uint256",
          "name": "",
          "type": "uint256"
        }
      ],
      "stateMutability": "view",
      "type": "function"
    },
    {
      "inputs": [
        {
          "internalType": "address",
          "name": "user",
          "type": "address"
        }
      ],
      "name": "getUnclaimedRewards",
      "outputs": [
        {
          "internalType": "uint256",
          "name": "",
          "type": "uint256"
        }
      ],
      "stateMutability": "view",
      "type": "function"
    },
    {
      "inputs": [
        {
          "internalType": "address",
          "name": "spender",
          "type": "address"
        },
        {
          "internalType": "uint256",
          "name": "addedValue",
          "type": "uint256"
        }
      ],
      "name": "increaseAllowance",
      "outputs": [
        {
          "internalType": "bool",
          "name": "",
          "type": "bool"
        }
      ],
      "stateMutability": "nonpayable",
      "type": "function"
    },
    {
      "inputs": [
        {
          "internalType": "contract ILendingPool",
          "name": "pool",
          "type": "address"
        },
        {
          "internalType": "address",
          "name": "aToken",
          "type": "address"
        },
        {
          "internalType": "string",
          "name": "staticATokenName",
          "type": "string"
        },
        {
          "internalType": "string",
          "name": "staticATokenSymbol",
          "type": "string"
        }
      ],
      "name": "initialize",
      "outputs": [],
      "stateMutability": "nonpayable",
      "type": "function"
    },
    {
      "inputs": [],
      "name": "isImplementation",
      "outputs": [
        {
          "internalType": "bool",
          "name": "",
          "type": "bool"
        }
      ],
      "stateMutability": "view",
      "type": "function"
    },
    {
      "inputs": [
        {
          "internalType": "address",
          "name": "depositor",
          "type": "address"
        },
        {
          "internalType": "address",
          "name": "recipient",
          "type": "address"
        },
        {
          "internalType": "uint256",
          "name": "value",
          "type": "uint256"
        },
        {
          "internalType": "uint16",
          "name": "referralCode",
          "type": "uint16"
        },
        {
          "internalType": "bool",
          "name": "fromUnderlying",
          "type": "bool"
        },
        {
          "internalType": "uint256",
          "name": "deadline",
          "type": "uint256"
        },
        {
          "components": [
            {
              "internalType": "uint8",
              "name": "v",
              "type": "uint8"
            },
            {
              "internalType": "bytes32",
              "name": "r",
              "type": "bytes32"
            },
            {
              "internalType": "bytes32",
              "name": "s",
              "type": "bytes32"
            }
          ],
          "internalType": "struct IStaticATokenLM.SignatureParams",
          "name": "sigParams",
          "type": "tuple"
        }
      ],
      "name": "metaDeposit",
      "outputs": [
        {
          "internalType": "uint256",
          "name": "",
          "type": "uint256"
        }
      ],
      "stateMutability": "nonpayable",
      "type": "function"
    },
    {
      "inputs": [
        {
          "internalType": "address",
          "name": "owner",
          "type": "address"
        },
        {
          "internalType": "address",
          "name": "recipient",
          "type": "address"
        },
        {
          "internalType": "uint256",
          "name": "staticAmount",
          "type": "uint256"
        },
        {
          "internalType": "uint256",
          "name": "dynamicAmount",
          "type": "uint256"
        },
        {
          "internalType": "bool",
          "name": "toUnderlying",
          "type": "bool"
        },
        {
          "internalType": "uint256",
          "name": "deadline",
          "type": "uint256"
        },
        {
          "components": [
            {
              "internalType": "uint8",
              "name": "v",
              "type": "uint8"
            },
            {
              "internalType": "bytes32",
              "name": "r",
              "type": "bytes32"
            },
            {
              "internalType": "bytes32",
              "name": "s",
              "type": "bytes32"
            }
          ],
          "internalType": "struct IStaticATokenLM.SignatureParams",
          "name": "sigParams",
          "type": "tuple"
        }
      ],
      "name": "metaWithdraw",
      "outputs": [
        {
          "internalType": "uint256",
          "name": "",
          "type": "uint256"
        },
        {
          "internalType": "uint256",
          "name": "",
          "type": "uint256"
        }
      ],
      "stateMutability": "nonpayable",
      "type": "function"
    },
    {
      "inputs": [],
      "name": "name",
      "outputs": [
        {
          "internalType": "string",
          "name": "",
          "type": "string"
        }
      ],
      "stateMutability": "view",
      "type": "function"
    },
    {
      "inputs": [
        {
          "internalType": "address",
          "name": "owner",
          "type": "address"
        },
        {
          "internalType": "address",
          "name": "spender",
          "type": "address"
        },
        {
          "internalType": "uint256",
          "name": "value",
          "type": "uint256"
        },
        {
          "internalType": "uint256",
          "name": "deadline",
          "type": "uint256"
        },
        {
          "internalType": "uint8",
          "name": "v",
          "type": "uint8"
        },
        {
          "internalType": "bytes32",
          "name": "r",
          "type": "bytes32"
        },
        {
          "internalType": "bytes32",
          "name": "s",
          "type": "bytes32"
        }
      ],
      "name": "permit",
      "outputs": [],
      "stateMutability": "nonpayable",
      "type": "function"
    },
    {
      "inputs": [],
      "name": "rate",
      "outputs": [
        {
          "internalType": "uint256",
          "name": "",
          "type": "uint256"
        }
      ],
      "stateMutability": "view",
      "type": "function"
    },
    {
      "inputs": [
        {
          "internalType": "uint256",
          "name": "amount",
          "type": "uint256"
        }
      ],
      "name": "staticToDynamicAmount",
      "outputs": [
        {
          "internalType": "uint256",
          "name": "",
          "type": "uint256"
        }
      ],
      "stateMutability": "view",
      "type": "function"
    },
    {
      "inputs": [],
      "name": "symbol",
      "outputs": [
        {
          "internalType": "string",
          "name": "",
          "type": "string"
        }
      ],
      "stateMutability": "view",
      "type": "function"
    },
    {
      "inputs": [],
      "name": "totalSupply",
      "outputs": [
        {
          "internalType": "uint256",
          "name": "",
          "type": "uint256"
        }
      ],
      "stateMutability": "view",
      "type": "function"
    },
    {
      "inputs": [
        {
          "internalType": "address",
          "name": "recipient",
          "type": "address"
        },
        {
          "internalType": "uint256",
          "name": "amount",
          "type": "uint256"
        }
      ],
      "name": "transfer",
      "outputs": [
        {
          "internalType": "bool",
          "name": "",
          "type": "bool"
        }
      ],
      "stateMutability": "nonpayable",
      "type": "function"
    },
    {
      "inputs": [
        {
          "internalType": "address",
          "name": "sender",
          "type": "address"
        },
        {
          "internalType": "address",
          "name": "recipient",
          "type": "address"
        },
        {
          "internalType": "uint256",
          "name": "amount",
          "type": "uint256"
        }
      ],
      "name": "transferFrom",
      "outputs": [
        {
          "internalType": "bool",
          "name": "",
          "type": "bool"
        }
      ],
      "stateMutability": "nonpayable",
      "type": "function"
    },
    {
      "inputs": [
        {
          "internalType": "address",
          "name": "recipient",
          "type": "address"
        },
        {
          "internalType": "uint256",
          "name": "amount",
          "type": "uint256"
        },
        {
          "internalType": "bool",
          "name": "toUnderlying",
          "type": "bool"
        }
      ],
      "name": "withdraw",
      "outputs": [
        {
          "internalType": "uint256",
          "name": "",
          "type": "uint256"
        },
        {
          "internalType": "uint256",
          "name": "",
          "type": "uint256"
        }
      ],
      "stateMutability": "nonpayable",
      "type": "function"
    },
    {
      "inputs": [
        {
          "internalType": "address",
          "name": "recipient",
          "type": "address"
        },
        {
          "internalType": "uint256",
          "name": "amount",
          "type": "uint256"
        },
        {
          "internalType": "bool",
          "name": "toUnderlying",
          "type": "bool"
        }
      ],
      "name": "withdrawDynamicAmount",
      "outputs": [
        {
          "internalType": "uint256",
          "name": "",
          "type": "uint256"
        },
        {
          "internalType": "uint256",
          "name": "",
          "type": "uint256"
        }
      ],
      "stateMutability": "nonpayable",
      "type": "function"
    }
  ],
  "bytecode": "0x6080604052600080553480156200001557600080fd5b5060408051808201825260128082527114d510551250d7d05513d2d15397d253541360721b60208084018281528551808701909652928552840152815191929162000063916037916200009e565b508051620000799060389060208401906200009e565b50506039805460ff19908116601217909155604580549091166001179055506200013a565b828054600181600116156101000203166002900490600052602060002090601f016020900481019282601f10620000e157805160ff191683800117855562000111565b8280016001018555821562000111579182015b8281111562000111578251825591602001919060010190620000f4565b506200011f92915062000123565b5090565b5b808211156200011f576000815560010162000124565b6138e3806200014a6000396000f3fe608060405234801561001057600080fd5b50600436106103365760003560e01c806369a69e29116101b2578063b16a19de116100f9578063d28d8852116100a2578063dd62ed3e1161007c578063dd62ed3e146105e1578063ead5d359146105f4578063ed24911d14610607578063f57d0b401461060f57610336565b8063d28d8852146105b3578063d505accf146105bb578063dd05aa12146105ce57610336565b8063b9844d8d116100d3578063b9844d8d14610585578063bf62bee614610598578063c485852b146105a057610336565b8063b16a19de1461056d578063b3a5902214610575578063b4dcfc771461057d57610336565b806395d89b411161015b578063a457c2d711610135578063a457c2d71461053f578063a9059cbb14610552578063b09f12661461056557610336565b806395d89b411461052757806399248ea71461052f578063a135a55e1461053757610336565b8063781603761161018c578063781603761461050f5780637f372cff146105175780638d9484151461051f57610336565b806369a69e29146104e157806370a08231146104f457806375d264131461050757610336565b806331a5cfa4116102815780634800d97f1161022a578063602665571161020457806360266557146104b657806360a49b33146104c957806361d0494d146104d157806363210537146104d957610336565b80634800d97f14610493578063491c011a1461049b57806351c0e061146104ae57610336565b80633eb2eba61161025b5780633eb2eba61461046557806344b68c3f1461046d57806345c1ace71461048057610336565b806331a5cfa41461043757806336a5a6d61461043f578063395093511461045257610336565b8063288587ce116102e3578063308e401e116102bd578063308e401e1461040757806330adf81f1461041a578063313ce5671461042257610336565b8063288587ce146103cb5780632c4e722e146103ec5780632f2cab87146103f457610336565b806318160ddd1161031457806318160ddd1461038e5780632016a0d2146103a357806323b872dd146103b857610336565b806306fdde031461033b578063095ea7b31461035957806310d0ab2214610379575b600080fd5b610343610622565b60405161035091906137c3565b60405180910390f35b61036c6103673660046132cc565b6106b9565b60405161035091906136a5565b6103816106d0565b6040516103509190613571565b6103966106df565b60405161035091906136b0565b6103b66103b13660046133b6565b6106e5565b005b61036c6103c636600461311b565b610ae4565b6103de6103d93660046132f7565b610b39565b604051610350929190613833565b610396610b56565b61039661040236600461332d565b610c01565b610396610415366004613061565b610c19565b610396610c2f565b61042a610c53565b6040516103509190613841565b610396610c5c565b61039661044d366004613448565b610c62565b61036c6104603660046132cc565b610c75565b6103b6610cab565b61039661047b366004613061565b610e4b565b6103b661048e36600461337e565b610e66565b610381610e89565b6103b66104a936600461329f565b610e98565b610381610ebc565b6103de6104c43660046131db565b610ecb565b61036c611137565b610396611140565b610396611145565b6103966104ef366004613061565b611169565b610396610502366004613061565b61118b565b6103816111a6565b6103436111b5565b6103966111ee565b61039661139f565b6103436113c3565b610381611424565b610396611433565b61036c61054d3660046132cc565b611439565b61036c6105603660046132cc565b611472565b61034361147f565b61038161150d565b61039661151c565b610381611522565b610396610593366004613061565b611536565b610396611548565b6103966105ae36600461315b565b61154e565b6103436117b4565b6103b66105c936600461322f565b61180f565b6103b66105dc3660046130d1565b611a52565b6103966105ef366004613099565b611b8c565b6103de6106023660046132f7565b611bb7565b610396611bc8565b61039661061d366004613448565b611c7c565b60378054604080516020601f60026000196101006001881615020190951694909404938401819004810282018101909252828152606093909290918301828280156106ae5780601f10610683576101008083540402835291602001916106ae565b820191906000526020600020905b81548152906001019060200180831161069157829003601f168201915b505050505090505b90565b60006106c6338484611c8a565b5060015b92915050565b603a546001600160a01b031681565b60365490565b60006106ef611cf2565b60015490915060ff16806107065750610706611cf7565b80610712575060005481115b6107375760405162461bcd60e51b815260040161072e906137d6565b60405180910390fd5b60015460ff1615801561077457600180547fffffffffffffffffffffffffffffffffffffffffffffffffffffffffffffff00168117905560008290555b603980547fffffffffffffffffffffff0000000000000000000000000000000000000000ff166101006001600160a01b038b81169190910291909117909155603b80547fffffffffffffffffffffffff0000000000000000000000000000000000000000169189169190911790556107ee60378787612f40565b506107fb60388585612f40565b50610875876001600160a01b031663313ce5676040518163ffffffff1660e01b815260040160206040518083038186803b15801561083857600080fd5b505afa15801561084c573d6000803e3d6000fd5b505050506040513d601f19601f820116820180604052508101906108709190613494565b611cfd565b866001600160a01b031663b16a19de6040518163ffffffff1660e01b815260040160206040518083038186803b1580156108ae57600080fd5b505afa1580156108c2573d6000803e3d6000fd5b505050506040513d601f19601f820116820180604052508101906108e6919061307d565b603c80547fffffffffffffffffffffffff0000000000000000000000000000000000000000166001600160a01b03928316179081905561092a911689600019611d31565b866001600160a01b03166375d264136040518163ffffffff1660e01b815260040160206040518083038186803b15801561096357600080fd5b505afa925050508015610993575060408051601f3d908101601f191682019092526109909181019061307d565b60015b61099c57610aab565b6001600160a01b03811615610aa957603a80547fffffffffffffffffffffffff0000000000000000000000000000000000000000166001600160a01b038381169190911791829055604080517f99248ea7000000000000000000000000000000000000000000000000000000008152905192909116916399248ea791600480820192602092909190829003018186803b158015610a3857600080fd5b505afa158015610a4c573d6000803e3d6000fd5b505050506040513d601f19601f82011682018060405250810190610a70919061307d565b603d80547fffffffffffffffffffffffff0000000000000000000000000000000000000000166001600160a01b03929092169190911790555b505b8015610ada57600180547fffffffffffffffffffffffffffffffffffffffffffffffffffffffffffffff001690555b5050505050505050565b6000610af1848484611e7d565b6001600160a01b038416600090815260356020908152604080832033808552925290912054610b2e918691610b29908661019e611f5d565b611c8a565b5060015b9392505050565b600080610b4a338660008787611f73565b91509150935093915050565b603954603c546040517fd15e005300000000000000000000000000000000000000000000000000000000815260009261010090046001600160a01b039081169263d15e005392610bac9290911690600401613571565b60206040518083038186803b158015610bc457600080fd5b505afa158015610bd8573d6000803e3d6000fd5b505050506040513d601f19601f82011682018060405250810190610bfc9190613460565b905090565b6000610c103386868686612191565b95945050505050565b60006106ca82610c288461118b565b600161233a565b7f6e71edae12b1b97f4d1f60370fef10105fa2faae0126114a169c64845d6126c981565b60395460ff1690565b60405490565b60006106ca82610c70610b56565b612375565b3360008181526035602090815260408083206001600160a01b038716845290915281205490916106c6918590610b299086612381565b603a546001600160a01b0316610cc057610e49565b436042556000610cce6106df565b60408051600180825281830190925291925060609190602080830190803683375050603b5482519293506001600160a01b031691839150600090610d0e57fe5b6001600160a01b039283166020918202929092010152603a546040517f3111e7b30000000000000000000000000000000000000000000000000000000081526000929190911690633111e7b390610d6f908590600019903090600401613673565b602060405180830381600087803b158015610d8957600080fd5b505af1158015610d9d573d6000803e3d6000fd5b505050506040513d601f19601f82011682018060405250810190610dc19190613460565b90506000610dda8260405461238190919063ffffffff16565b90506000610dfb610df66041548461239390919063ffffffff16565b6123a1565b9050600085118015610e0d5750600081115b15610e3557610e31610e28610e21876123a1565b839061240c565b603f5490612381565b603f555b8015610e415760418290555b506040555050505b565b60006106ca610e598361118b565b610e61610b56565b6124ec565b603a546001600160a01b0316610e7b57610e86565b610e863333836124f8565b50565b603c546001600160a01b031681565b603a546001600160a01b0316610ead57610eb8565b610eb83383836124f8565b5050565b603b546001600160a01b031681565b60408051808201909152600181527f3100000000000000000000000000000000000000000000000000000000000000602082015260009081906001600160a01b038a16610f2b5760405162461bcd60e51b815260040161072e91906137c3565b50834211156040518060400160405280600181526020017f320000000000000000000000000000000000000000000000000000000000000081525090610f845760405162461bcd60e51b815260040161072e91906137c3565b506001600160a01b0389166000908152603e602052604081205490610fa7611bc8565b7fce21806401473655533a882461ca5036529d194f238d3c1793817a552bd133a58c8c8c8c8c888d604051602001610fe6989796959493929190613701565b6040516020818303038152906040528051906020012060405160200161100d92919061353b565b60408051601f1981840301815291905280516020918201209150600190829061103890880188613478565b876020013588604001356040516000815260200160405260405161105f94939291906137a5565b6020604051602081039080840390855afa158015611081573d6000803e3d6000fd5b505050602060405103516001600160a01b03168b6001600160a01b0316146040518060400160405280600181526020017f3300000000000000000000000000000000000000000000000000000000000000815250906110f35760405162461bcd60e51b815260040161072e91906137c3565b506110ff826001612381565b6001600160a01b038c166000908152603e60205260409020556111258b8b8b8b8b611f73565b93509350505097509795505050505050565b60455460ff1681565b600181565b7f4dab0a5e832f103ac80c9c3e51e5742f8a24aa0a3d941fe91c64e1e3db50c74381565b6001600160a01b0381166000908152604460205260408120546106ca90612615565b6001600160a01b031660009081526034602052604090205490565b603a546001600160a01b031690565b6040518060400160405280600181526020017f310000000000000000000000000000000000000000000000000000000000000081525081565b603a546000906001600160a01b0316611209575060006106b6565b604080516001808252818301909252606091602080830190803683375050603b5482519293506001600160a01b03169183915060009061124557fe5b6001600160a01b039283166020918202929092010152603a546040517f8b599f260000000000000000000000000000000000000000000000000000000081526000929190911690638b599f26906112a29085903090600401613648565b60206040518083038186803b1580156112ba57600080fd5b505afa1580156112ce573d6000803e3d6000fd5b505050506040513d601f19601f820116820180604052508101906112f29190613460565b603d546040517f70a082310000000000000000000000000000000000000000000000000000000081529192506113989183916001600160a01b0316906370a0823190611342903090600401613571565b60206040518083038186803b15801561135a57600080fd5b505afa15801561136e573d6000803e3d6000fd5b505050506040513d601f19601f820116820180604052508101906113929190613460565b90612381565b9250505090565b7fce21806401473655533a882461ca5036529d194f238d3c1793817a552bd133a581565b60388054604080516020601f60026000196101006001881615020190951694909404938401819004810282018101909252828152606093909290918301828280156106ae5780601f10610683576101008083540402835291602001916106ae565b603d546001600160a01b031681565b603f5490565b3360008181526035602090815260408083206001600160a01b038716845290915281205490916106c6918590610b29908661019f611f5d565b60006106c6338484611e7d565b6038805460408051602060026001851615610100026000190190941693909304601f810184900484028201840190925281815292918301828280156115055780601f106114da57610100808354040283529160200191611505565b820191906000526020600020905b8154815290600101906020018083116114e857829003601f168201915b505050505081565b603c546001600160a01b031690565b60415490565b60395461010090046001600160a01b031681565b603e6020526000908152604090205481565b60425490565b60408051808201909152600181527f340000000000000000000000000000000000000000000000000000000000000060208201526000906001600160a01b0389166115ac5760405162461bcd60e51b815260040161072e91906137c3565b50824211156040518060400160405280600181526020017f3200000000000000000000000000000000000000000000000000000000000000815250906116055760405162461bcd60e51b815260040161072e91906137c3565b506001600160a01b0388166000908152603e602052604081205490611628611bc8565b7f4dab0a5e832f103ac80c9c3e51e5742f8a24aa0a3d941fe91c64e1e3db50c7438b8b8b8b8b888c6040516020016116679897969594939291906136b9565b6040516020818303038152906040528051906020012060405160200161168e92919061353b565b60408051601f198184030181529190528051602091820120915060019082906116b990870187613478565b86602001358760400135604051600081526020016040526040516116e094939291906137a5565b6020604051602081039080840390855afa158015611702573d6000803e3d6000fd5b505050602060405103516001600160a01b03168a6001600160a01b0316146040518060400160405280600181526020017f3300000000000000000000000000000000000000000000000000000000000000815250906117745760405162461bcd60e51b815260040161072e91906137c3565b50611780826001612381565b6001600160a01b038b166000908152603e60205260409020556117a68a8a8a8a8a612191565b9a9950505050505050505050565b6037805460408051602060026001851615610100026000190190941693909304601f810184900484028201840190925281815292918301828280156115055780601f106114da57610100808354040283529160200191611505565b60408051808201909152600181527f310000000000000000000000000000000000000000000000000000000000000060208201526001600160a01b03881661186a5760405162461bcd60e51b815260040161072e91906137c3565b50834211156040518060400160405280600181526020017f3200000000000000000000000000000000000000000000000000000000000000815250906118c35760405162461bcd60e51b815260040161072e91906137c3565b506001600160a01b0387166000908152603e6020526040812054906118e6611bc8565b7f6e71edae12b1b97f4d1f60370fef10105fa2faae0126114a169c64845d6126c98a8a8a868b60405160200161192196959493929190613745565b6040516020818303038152906040528051906020012060405160200161194892919061353b565b6040516020818303038152906040528051906020012090506001818686866040516000815260200160405260405161198394939291906137a5565b6020604051602081039080840390855afa1580156119a5573d6000803e3d6000fd5b505050602060405103516001600160a01b0316896001600160a01b0316146040518060400160405280600181526020017f330000000000000000000000000000000000000000000000000000000000000081525090611a175760405162461bcd60e51b815260040161072e91906137c3565b50611a23826001612381565b6001600160a01b038a166000908152603e6020526040902055611a47898989611c8a565b505050505050505050565b603a546001600160a01b0316611a6757611b87565b336001600160a01b0384161480611b275750603a546040517f74d945ec0000000000000000000000000000000000000000000000000000000081526001600160a01b03909116906374d945ec90611ac2908690600401613571565b60206040518083038186803b158015611ada57600080fd5b505afa158015611aee573d6000803e3d6000fd5b505050506040513d601f19601f82011682018060405250810190611b12919061307d565b6001600160a01b0316336001600160a01b0316145b6040518060400160405280600181526020017f360000000000000000000000000000000000000000000000000000000000000081525090611b7b5760405162461bcd60e51b815260040161072e91906137c3565b50611b878383836124f8565b505050565b6001600160a01b03918216600090815260356020908152604080832093909416825291909152205490565b600080610b4a338686600087611f73565b6000467f8b73c3c69bb8fe3d512ecc4cf759cc79239f7b179b0ffacaa9a75d522b39400f611bf4610622565b8051602091820120604080518082018252600181527f31000000000000000000000000000000000000000000000000000000000000009084015251611c6093927fc89efdaa54c0f20c7adf612882df0950f5a951637e0307cdcb4c672f298b8bc6918691309101613779565b6040516020818303038152906040528051906020012091505090565b60006106ca82610e61610b56565b6001600160a01b0380841660008181526035602090815260408083209487168084529490915290819020849055517f8c5be1e5ebec7d5bd14f71427d1e84f3dd0314c0f7b2291e5b200ac8c7c3b92590611ce59085906136b0565b60405180910390a3505050565b600190565b303b1590565b603980547fffffffffffffffffffffffffffffffffffffffffffffffffffffffffffffff001660ff92909216919091179055565b8015801590611dd557506040517fdd62ed3e0000000000000000000000000000000000000000000000000000000081526001600160a01b0384169063dd62ed3e90611d829030908690600401613585565b60206040518083038186803b158015611d9a57600080fd5b505afa158015611dae573d6000803e3d6000fd5b505050506040513d601f19601f82011682018060405250810190611dd29190613460565b15155b15611e5e57611e5e8363095ea7b360e01b846000604051602401611dfa9291906135c3565b60408051601f198184030181529190526020810180517bffffffffffffffffffffffffffffffffffffffffffffffffffffffff167fffffffff000000000000000000000000000000000000000000000000000000009093169290921790915261261f565b611b878363095ea7b360e01b8484604051602401611dfa9291906135df565b611e946001600160a01b03841615156101986126c5565b611eab6001600160a01b03831615156101996126c5565b611eb68383836126d3565b6001600160a01b038316600090815260346020526040902054611edc90826101a0611f5d565b6001600160a01b038085166000908152603460205260408082209390935590841681522054611f0b9082612381565b6001600160a01b0380841660008181526034602052604090819020939093559151908516907fddf252ad1be2c89b69c2b068fc378daa952ba7f163c4a11628f55a4df523b3ef90611ce59085906136b0565b6000611f6c84841115836126c5565b5050900390565b60408051808201909152600181527f3500000000000000000000000000000000000000000000000000000000000000602082015260009081906001600160a01b038716611fd35760405162461bcd60e51b815260040161072e91906137c3565b50841580611fdf575083155b6040518060400160405280600181526020017f3700000000000000000000000000000000000000000000000000000000000000815250906120335760405162461bcd60e51b815260040161072e91906137c3565b5061203c612718565b60006120478861118b565b90506000806000612056610b56565b905088156120805783891161206b578861206d565b835b915061207982826124ec565b92506120ad565b600061208c85836124ec565b905080891161209b578861209d565b805b93506120a98483612375565b9250505b6120b78b8361288d565b861561216b57603954603c546040517f69328dec0000000000000000000000000000000000000000000000000000000081526001600160a01b036101009093048316926369328dec926121139291169087908f906004016135f8565b602060405180830381600087803b15801561212d57600080fd5b505af1158015612141573d6000803e3d6000fd5b505050506040513d601f19601f820116820180604052508101906121659190613460565b50612182565b603b54612182906001600160a01b03168b85612959565b50999098509650505050505050565b60455460408051808201909152600181527f3800000000000000000000000000000000000000000000000000000000000000602082015260009160ff16156121ec5760405162461bcd60e51b815260040161072e91906137c3565b5060408051808201909152600181527f350000000000000000000000000000000000000000000000000000000000000060208201526001600160a01b0386166122485760405162461bcd60e51b815260040161072e91906137c3565b50612251612718565b81156122fe57603c5461226f906001600160a01b0316873087612978565b603954603c546040517fe8eda9df0000000000000000000000000000000000000000000000000000000081526001600160a01b0361010090930483169263e8eda9df926122c79291169088903090899060040161361b565b600060405180830381600087803b1580156122e157600080fd5b505af11580156122f5573d6000803e3d6000fd5b50505050612316565b603b54612316906001600160a01b0316873087612978565b600061232485610c70610b56565b90506123308682612999565b9695505050505050565b60008061236a61234b868686612a26565b6001600160a01b03871660009081526044602052604090205490612381565b9050610c1081612615565b6000610b328383612bf3565b6000828201610b3284821015836126c5565b6000610b3283836001611f5d565b6000633b9aca008281029083908204146040518060400160405280600281526020017f3438000000000000000000000000000000000000000000000000000000000000815250906124055760405162461bcd60e51b815260040161072e91906137c3565b5092915050565b60408051808201909152600281527f35300000000000000000000000000000000000000000000000000000000000006020820152600090826124615760405162461bcd60e51b815260040161072e91906137c3565b5060408051808201909152600281527f34380000000000000000000000000000000000000000000000000000000000006020820152744f3a68dbc8f03f243baf513267aa9a3ee524f8e0288411156124cc5760405162461bcd60e51b815260040161072e91906137c3565b50816b033b2e3c9fd0803ce80000008402816124e457fe5b049392505050565b6000610b328383612cd4565b801561250657612506610cab565b60006125118461118b565b905060006125218583600061233a565b603d546040517f70a082310000000000000000000000000000000000000000000000000000000081529192506000916001600160a01b03909116906370a0823190612570903090600401613571565b60206040518083038186803b15801561258857600080fd5b505afa15801561259c573d6000803e3d6000fd5b505050506040513d601f19601f820116820180604052508101906125c09190613460565b9050808211156125ce578091505b811561260d576001600160a01b0386166000908152604460205260408120556125f686612d93565b603d5461260d906001600160a01b03168684612959565b505050505050565b633b9aca00900490565b60006060836001600160a01b03168360405161263b919061351f565b6000604051808303816000865af19150503d8060008114612678576040519150601f19603f3d011682016040523d82523d6000602084013e61267d565b606091505b50915091506000821415612695573d6000803e3d6000fd5b6126bf8151600014806126b75750818060200190518101906126b7919061339a565b6101a26126c5565b50505050565b81610eb857610eb881612db2565b603a546001600160a01b03166126e857611b87565b6001600160a01b038316156127005761270083612ddc565b6001600160a01b03821615611b8757611b8782612ddc565b603a546001600160a01b031661272d57610e49565b604254431115610e49574360425560006127456106df565b9050806127525750610e49565b604080516001808252818301909252606091602080830190803683375050603b5482519293506001600160a01b03169183915060009061278e57fe5b6001600160a01b039283166020918202929092010152603a546040517f8b599f260000000000000000000000000000000000000000000000000000000081526000929190911690638b599f26906127eb9085903090600401613648565b60206040518083038186803b15801561280357600080fd5b505afa158015612817573d6000803e3d6000fd5b505050506040513d601f19601f8201168201806040525081019061283b9190613460565b905060006128548260405461238190919063ffffffff16565b90506000612870610df66041548461239390919063ffffffff16565b9050612881610e28610e21876123a1565b603f5550604155505050565b6128a46001600160a01b038316151561019b6126c5565b6128b0826000836126d3565b6001600160a01b0382166000908152603460205260409020546128d690826101b2611f5d565b6001600160a01b038316600090815260346020526040902055612909612904826128fe6106df565b90612393565b612e47565b60006001600160a01b0316826001600160a01b03167fddf252ad1be2c89b69c2b068fc378daa952ba7f163c4a11628f55a4df523b3ef8360405161294d91906136b0565b60405180910390a35050565b611b878363a9059cbb60e01b8484604051602401611dfa9291906135df565b6126bf846323b872dd60e01b858585604051602401611dfa9392919061359f565b6129a5600083836126d3565b6129b4612904826113926106df565b6001600160a01b0382166000908152603460205260409020546129d79082612381565b6001600160a01b0383166000818152603460205260408082209390935591519091907fddf252ad1be2c89b69c2b068fc378daa952ba7f163c4a11628f55a4df523b3ef9061294d9085906136b0565b603a546000906001600160a01b0316612a4157506000610b32565b82612a4e57506000610b32565b6000612a59846123a1565b90506000612a656106df565b603f549091508115801590612a775750845b15612bb957604080516001808252818301909252606091602080830190803683375050603b5482519293506001600160a01b031691839150600090612ab857fe5b6001600160a01b039283166020918202929092010152603a546040517f8b599f260000000000000000000000000000000000000000000000000000000081526000929190911690638b599f2690612b159085903090600401613648565b60206040518083038186803b158015612b2d57600080fd5b505afa158015612b41573d6000803e3d6000fd5b505050506040513d601f19601f82011682018060405250810190612b659190613460565b90506000612b7e8260405461238190919063ffffffff16565b90506000612b9a610df66041548461239390919063ffffffff16565b9050612bb2612bab610e21886123a1565b8690612381565b9450505050505b6001600160a01b038716600090815260436020526040902054612be890612be1908390612393565b8490612e4c565b979650505050505050565b60408051808201909152600281527f3530000000000000000000000000000000000000000000000000000000000000602082015260009082612c485760405162461bcd60e51b815260040161072e91906137c3565b506040805180820190915260028082527f343800000000000000000000000000000000000000000000000000000000000060208301528304906b033b2e3c9fd0803ce8000000821904851115612cb15760405162461bcd60e51b815260040161072e91906137c3565b5082816b033b2e3c9fd0803ce800000086020181612ccb57fe5b04949350505050565b6000821580612ce1575081155b15612cee575060006106ca565b817ffffffffffffffffffffffffffffffffffffffffffe6268e1b017bfe18bffffff81612d1757fe5b048311156040518060400160405280600281526020017f343800000000000000000000000000000000000000000000000000000000000081525090612d6f5760405162461bcd60e51b815260040161072e91906137c3565b506b033b2e3c9fd0803ce80000008383026b019d971e4fe8401e74000000016124e4565b603f546001600160a01b03909116600090815260436020526040902055565b610e86817f42414c0000000000000000000000000000000000000000000000000000000000612edf565b6000612de78261118b565b90508015612e3e576000612dfd83836000612a26565b6001600160a01b038416600090815260446020526040902054909150612e239082612381565b6001600160a01b038416600090815260446020526040902055505b610eb882612d93565b603655565b6000821580612e59575081155b15612e66575060006106ca565b8160001981612e7157fe5b048311156040518060400160405280600281526020017f343800000000000000000000000000000000000000000000000000000000000081525090612ec95760405162461bcd60e51b815260040161072e91906137c3565b506b033b2e3c9fd0803ce80000008383026124e4565b62461bcd60e51b600090815260206004526007602452600a808404818106603090810160081b958390069590950190829004918206850160101b01602363ffffff0060e086901c160160181b0190930160c81b60445260e882901c90606490fd5b828054600181600116156101000203166002900490600052602060002090601f016020900481019282601f10612f9f578280017fffffffffffffffffffffffffffffffffffffffffffffffffffffffffffffff00823516178555612fcc565b82800160010185558215612fcc579182015b82811115612fcc578235825591602001919060010190612fb1565b50612fd8929150612fdc565b5090565b5b80821115612fd85760008155600101612fdd565b60008083601f840112613002578182fd5b50813567ffffffffffffffff811115613019578182fd5b60208301915083602082850101111561303157600080fd5b9250929050565b600060608284031215613049578081fd5b50919050565b803561ffff811681146106ca57600080fd5b600060208284031215613072578081fd5b8135610b328161387b565b60006020828403121561308e578081fd5b8151610b328161387b565b600080604083850312156130ab578081fd5b82356130b68161387b565b915060208301356130c68161387b565b809150509250929050565b6000806000606084860312156130e5578081fd5b83356130f08161387b565b925060208401356131008161387b565b9150604084013561311081613890565b809150509250925092565b60008060006060848603121561312f578283fd5b833561313a8161387b565b9250602084013561314a8161387b565b929592945050506040919091013590565b6000806000806000806000610120888a031215613176578283fd5b87356131818161387b565b965060208801356131918161387b565b9550604088013594506131a78960608a0161304f565b935060808801356131b781613890565b925060a088013591506131cd8960c08a01613038565b905092959891949750929550565b6000806000806000806000610120888a0312156131f6578283fd5b87356132018161387b565b965060208801356132118161387b565b9550604088013594506060880135935060808801356131b781613890565b600080600080600080600060e0888a031215613249578081fd5b87356132548161387b565b965060208801356132648161387b565b9550604088013594506060880135935060808801356132828161389e565b9699959850939692959460a0840135945060c09093013592915050565b600080604083850312156132b1578182fd5b82356132bc8161387b565b915060208301356130c681613890565b600080604083850312156132de578182fd5b82356132e98161387b565b946020939093013593505050565b60008060006060848603121561330b578081fd5b83356133168161387b565b925060208401359150604084013561311081613890565b60008060008060808587031215613342578182fd5b843561334d8161387b565b935060208501359250613363866040870161304f565b9150606085013561337381613890565b939692955090935050565b60006020828403121561338f578081fd5b8135610b3281613890565b6000602082840312156133ab578081fd5b8151610b3281613890565b600080600080600080608087890312156133ce578384fd5b86356133d98161387b565b955060208701356133e98161387b565b9450604087013567ffffffffffffffff80821115613405578586fd5b6134118a838b01612ff1565b90965094506060890135915080821115613429578384fd5b5061343689828a01612ff1565b979a9699509497509295939492505050565b600060208284031215613459578081fd5b5035919050565b600060208284031215613471578081fd5b5051919050565b600060208284031215613489578081fd5b8135610b328161389e565b6000602082840312156134a5578081fd5b8151610b328161389e565b6000815180845260208085019450808401835b838110156134e85781516001600160a01b0316875295820195908201906001016134c3565b509495945050505050565b6000815180845261350b81602086016020860161384f565b601f01601f19169290920160200192915050565b6000825161353181846020870161384f565b9190910192915050565b7f190100000000000000000000000000000000000000000000000000000000000081526002810192909252602282015260420190565b6001600160a01b0391909116815260200190565b6001600160a01b0392831681529116602082015260400190565b6001600160a01b039384168152919092166020820152604081019190915260600190565b6001600160a01b0392909216825260ff16602082015260400190565b6001600160a01b03929092168252602082015260400190565b6001600160a01b0393841681526020810192909252909116604082015260600190565b6001600160a01b03948516815260208101939093529216604082015261ffff909116606082015260800190565b60006040825261365b60408301856134b0565b90506001600160a01b03831660208301529392505050565b60006060825261368660608301866134b0565b90508360208301526001600160a01b0383166040830152949350505050565b901515815260200190565b90815260200190565b9788526001600160a01b039687166020890152949095166040870152606086019290925261ffff166080850152151560a084015260c083019190915260e08201526101000190565b9788526001600160a01b03968716602089015294909516604087015260608601929092526080850152151560a084015260c083019190915260e08201526101000190565b9586526001600160a01b0394851660208701529290931660408501526060840152608083019190915260a082015260c00190565b9485526020850193909352604084019190915260608301526001600160a01b0316608082015260a00190565b93845260ff9290921660208401526040830152606082015260800190565b600060208252610b3260208301846134f3565b6020808252602e908201527f436f6e747261637420696e7374616e63652068617320616c726561647920626560408201527f656e20696e697469616c697a6564000000000000000000000000000000000000606082015260800190565b918252602082015260400190565b60ff91909116815260200190565b60005b8381101561386a578181015183820152602001613852565b838111156126bf5750506000910152565b6001600160a01b0381168114610e8657600080fd5b8015158114610e8657600080fd5b60ff81168114610e8657600080fdfea2646970667358221220c0fbccc4a8cf8e94d2e6a5a0f33382a9536851e992ee2568c3ad9a7aa7e0bdaf64736f6c63430007010033",
  "linkReferences": {},
  "deployedLinkReferences": {}
}