{
  "_format": "hh-sol-artifact-1",
  "contractName": "WeightedPool",
  "sourceName": "contracts/WeightedPool.sol",
  "abi": [
    {
      "inputs": [
        {
          "components": [
            {
              "internalType": "string",
              "name": "name",
              "type": "string"
            },
            {
              "internalType": "string",
              "name": "symbol",
              "type": "string"
            },
            {
              "internalType": "contract IERC20[]",
              "name": "tokens",
              "type": "address[]"
            },
            {
              "internalType": "uint256[]",
              "name": "normalizedWeights",
              "type": "uint256[]"
            },
            {
              "internalType": "contract IRateProvider[]",
              "name": "rateProviders",
              "type": "address[]"
            },
            {
              "internalType": "address[]",
              "name": "assetManagers",
              "type": "address[]"
            },
            {
              "internalType": "uint256",
              "name": "swapFeePercentage",
              "type": "uint256"
            }
          ],
          "internalType": "struct WeightedPool.NewPoolParams",
          "name": "params",
          "type": "tuple"
        },
        {
          "internalType": "contract IVault",
          "name": "vault",
          "type": "address"
        },
        {
          "internalType": "contract IProtocolFeePercentagesProvider",
          "name": "protocolFeeProvider",
          "type": "address"
        },
        {
          "internalType": "uint256",
          "name": "pauseWindowDuration",
          "type": "uint256"
        },
        {
          "internalType": "uint256",
          "name": "bufferPeriodDuration",
          "type": "uint256"
        },
        {
          "internalType": "address",
          "name": "owner",
          "type": "address"
        }
      ],
      "stateMutability": "nonpayable",
      "type": "constructor"
    },
    {
      "anonymous": false,
      "inputs": [
        {
          "indexed": false,
          "internalType": "uint256",
          "name": "oldATHRateProduct",
          "type": "uint256"
        },
        {
          "indexed": false,
          "internalType": "uint256",
          "name": "newATHRateProduct",
          "type": "uint256"
        }
      ],
      "name": "ATHRateProductUpdated",
      "type": "event"
    },
    {
      "anonymous": false,
      "inputs": [
        {
          "indexed": true,
          "internalType": "address",
          "name": "owner",
          "type": "address"
        },
        {
          "indexed": true,
          "internalType": "address",
          "name": "spender",
          "type": "address"
        },
        {
          "indexed": false,
          "internalType": "uint256",
          "name": "value",
          "type": "uint256"
        }
      ],
      "name": "Approval",
      "type": "event"
    },
    {
      "anonymous": false,
      "inputs": [
        {
          "indexed": false,
          "internalType": "bool",
          "name": "paused",
          "type": "bool"
        }
      ],
      "name": "PausedStateChanged",
      "type": "event"
    },
    {
      "anonymous": false,
      "inputs": [
        {
          "indexed": false,
          "internalType": "bytes32",
          "name": "feeCache",
          "type": "bytes32"
        }
      ],
      "name": "ProtocolFeePercentageCacheUpdated",
      "type": "event"
    },
    {
      "anonymous": false,
      "inputs": [
        {
          "indexed": false,
          "internalType": "bool",
          "name": "enabled",
          "type": "bool"
        }
      ],
      "name": "RecoveryModeStateChanged",
      "type": "event"
    },
    {
      "anonymous": false,
      "inputs": [
        {
          "indexed": false,
          "internalType": "uint256",
          "name": "swapFeePercentage",
          "type": "uint256"
        }
      ],
      "name": "SwapFeePercentageChanged",
      "type": "event"
    },
    {
      "anonymous": false,
      "inputs": [
        {
          "indexed": true,
          "internalType": "address",
          "name": "from",
          "type": "address"
        },
        {
          "indexed": true,
          "internalType": "address",
          "name": "to",
          "type": "address"
        },
        {
          "indexed": false,
          "internalType": "uint256",
          "name": "value",
          "type": "uint256"
        }
      ],
      "name": "Transfer",
      "type": "event"
    },
    {
      "inputs": [],
      "name": "DOMAIN_SEPARATOR",
      "outputs": [
        {
          "internalType": "bytes32",
          "name": "",
          "type": "bytes32"
        }
      ],
      "stateMutability": "view",
      "type": "function"
    },
    {
      "inputs": [
        {
          "internalType": "address",
          "name": "owner",
          "type": "address"
        },
        {
          "internalType": "address",
          "name": "spender",
          "type": "address"
        }
      ],
      "name": "allowance",
      "outputs": [
        {
          "internalType": "uint256",
          "name": "",
          "type": "uint256"
        }
      ],
      "stateMutability": "view",
      "type": "function"
    },
    {
      "inputs": [
        {
          "internalType": "address",
          "name": "spender",
          "type": "address"
        },
        {
          "internalType": "uint256",
          "name": "amount",
          "type": "uint256"
        }
      ],
      "name": "approve",
      "outputs": [
        {
          "internalType": "bool",
          "name": "",
          "type": "bool"
        }
      ],
      "stateMutability": "nonpayable",
      "type": "function"
    },
    {
      "inputs": [
        {
          "internalType": "address",
          "name": "account",
          "type": "address"
        }
      ],
      "name": "balanceOf",
      "outputs": [
        {
          "internalType": "uint256",
          "name": "",
          "type": "uint256"
        }
      ],
      "stateMutability": "view",
      "type": "function"
    },
    {
      "inputs": [],
      "name": "decimals",
      "outputs": [
        {
          "internalType": "uint8",
          "name": "",
          "type": "uint8"
        }
      ],
      "stateMutability": "view",
      "type": "function"
    },
    {
      "inputs": [
        {
          "internalType": "address",
          "name": "spender",
          "type": "address"
        },
        {
          "internalType": "uint256",
          "name": "amount",
          "type": "uint256"
        }
      ],
      "name": "decreaseAllowance",
      "outputs": [
        {
          "internalType": "bool",
          "name": "",
          "type": "bool"
        }
      ],
      "stateMutability": "nonpayable",
      "type": "function"
    },
    {
      "inputs": [],
      "name": "disableRecoveryMode",
      "outputs": [],
      "stateMutability": "nonpayable",
      "type": "function"
    },
    {
      "inputs": [],
      "name": "enableRecoveryMode",
      "outputs": [],
      "stateMutability": "nonpayable",
      "type": "function"
    },
    {
      "inputs": [],
      "name": "getATHRateProduct",
      "outputs": [
        {
          "internalType": "uint256",
          "name": "",
          "type": "uint256"
        }
      ],
      "stateMutability": "view",
      "type": "function"
    },
    {
      "inputs": [
        {
          "internalType": "bytes4",
          "name": "selector",
          "type": "bytes4"
        }
      ],
      "name": "getActionId",
      "outputs": [
        {
          "internalType": "bytes32",
          "name": "",
          "type": "bytes32"
        }
      ],
      "stateMutability": "view",
      "type": "function"
    },
    {
      "inputs": [],
      "name": "getActualSupply",
      "outputs": [
        {
          "internalType": "uint256",
          "name": "",
          "type": "uint256"
        }
      ],
      "stateMutability": "view",
      "type": "function"
    },
    {
      "inputs": [],
      "name": "getAuthorizer",
      "outputs": [
        {
          "internalType": "contract IAuthorizer",
          "name": "",
          "type": "address"
        }
      ],
      "stateMutability": "view",
      "type": "function"
    },
    {
      "inputs": [],
      "name": "getDomainSeparator",
      "outputs": [
        {
          "internalType": "bytes32",
          "name": "",
          "type": "bytes32"
        }
      ],
      "stateMutability": "view",
      "type": "function"
    },
    {
      "inputs": [],
      "name": "getInvariant",
      "outputs": [
        {
          "internalType": "uint256",
          "name": "",
          "type": "uint256"
        }
      ],
      "stateMutability": "view",
      "type": "function"
    },
    {
      "inputs": [],
      "name": "getLastPostJoinExitInvariant",
      "outputs": [
        {
          "internalType": "uint256",
          "name": "",
          "type": "uint256"
        }
      ],
      "stateMutability": "view",
      "type": "function"
    },
    {
      "inputs": [
        {
          "internalType": "address",
          "name": "account",
          "type": "address"
        }
      ],
      "name": "getNextNonce",
      "outputs": [
        {
          "internalType": "uint256",
          "name": "",
          "type": "uint256"
        }
      ],
      "stateMutability": "view",
      "type": "function"
    },
    {
      "inputs": [],
      "name": "getNormalizedWeights",
      "outputs": [
        {
          "internalType": "uint256[]",
          "name": "",
          "type": "uint256[]"
        }
      ],
      "stateMutability": "view",
      "type": "function"
    },
    {
      "inputs": [],
      "name": "getOwner",
      "outputs": [
        {
          "internalType": "address",
          "name": "",
          "type": "address"
        }
      ],
      "stateMutability": "view",
      "type": "function"
    },
    {
      "inputs": [],
      "name": "getPausedState",
      "outputs": [
        {
          "internalType": "bool",
          "name": "paused",
          "type": "bool"
        },
        {
          "internalType": "uint256",
          "name": "pauseWindowEndTime",
          "type": "uint256"
        },
        {
          "internalType": "uint256",
          "name": "bufferPeriodEndTime",
          "type": "uint256"
        }
      ],
      "stateMutability": "view",
      "type": "function"
    },
    {
      "inputs": [],
      "name": "getPoolId",
      "outputs": [
        {
          "internalType": "bytes32",
          "name": "",
          "type": "bytes32"
        }
      ],
      "stateMutability": "view",
      "type": "function"
    },
    {
      "inputs": [
        {
          "internalType": "uint256",
          "name": "feeType",
          "type": "uint256"
        }
      ],
      "name": "getProtocolFeePercentageCache",
      "outputs": [
        {
          "internalType": "uint256",
          "name": "",
          "type": "uint256"
        }
      ],
      "stateMutability": "view",
      "type": "function"
    },
    {
      "inputs": [],
      "name": "getProtocolFeesCollector",
      "outputs": [
        {
          "internalType": "contract IProtocolFeesCollector",
          "name": "",
          "type": "address"
        }
      ],
      "stateMutability": "view",
      "type": "function"
    },
    {
      "inputs": [
        {
          "internalType": "uint256",
          "name": "feeType",
          "type": "uint256"
        }
      ],
      "name": "getProviderFeeId",
      "outputs": [
        {
          "internalType": "uint256",
          "name": "",
          "type": "uint256"
        }
      ],
      "stateMutability": "view",
      "type": "function"
    },
    {
      "inputs": [],
      "name": "getRateProviders",
      "outputs": [
        {
          "internalType": "contract IRateProvider[]",
          "name": "",
          "type": "address[]"
        }
      ],
      "stateMutability": "view",
      "type": "function"
    },
    {
      "inputs": [],
      "name": "getScalingFactors",
      "outputs": [
        {
          "internalType": "uint256[]",
          "name": "",
          "type": "uint256[]"
        }
      ],
      "stateMutability": "view",
      "type": "function"
    },
    {
      "inputs": [],
      "name": "getSwapFeePercentage",
      "outputs": [
        {
          "internalType": "uint256",
          "name": "",
          "type": "uint256"
        }
      ],
      "stateMutability": "view",
      "type": "function"
    },
    {
      "inputs": [],
      "name": "getVault",
      "outputs": [
        {
          "internalType": "contract IVault",
          "name": "",
          "type": "address"
        }
      ],
      "stateMutability": "view",
      "type": "function"
    },
    {
      "inputs": [],
      "name": "inRecoveryMode",
      "outputs": [
        {
          "internalType": "bool",
          "name": "",
          "type": "bool"
        }
      ],
      "stateMutability": "view",
      "type": "function"
    },
    {
      "inputs": [
        {
          "internalType": "address",
          "name": "spender",
          "type": "address"
        },
        {
          "internalType": "uint256",
          "name": "addedValue",
          "type": "uint256"
        }
      ],
      "name": "increaseAllowance",
      "outputs": [
        {
          "internalType": "bool",
          "name": "",
          "type": "bool"
        }
      ],
      "stateMutability": "nonpayable",
      "type": "function"
    },
    {
      "inputs": [],
      "name": "name",
      "outputs": [
        {
          "internalType": "string",
          "name": "",
          "type": "string"
        }
      ],
      "stateMutability": "view",
      "type": "function"
    },
    {
      "inputs": [
        {
          "internalType": "address",
          "name": "owner",
          "type": "address"
        }
      ],
      "name": "nonces",
      "outputs": [
        {
          "internalType": "uint256",
          "name": "",
          "type": "uint256"
        }
      ],
      "stateMutability": "view",
      "type": "function"
    },
    {
      "inputs": [
        {
          "internalType": "bytes32",
          "name": "poolId",
          "type": "bytes32"
        },
        {
          "internalType": "address",
          "name": "sender",
          "type": "address"
        },
        {
          "internalType": "address",
          "name": "recipient",
          "type": "address"
        },
        {
          "internalType": "uint256[]",
          "name": "balances",
          "type": "uint256[]"
        },
        {
          "internalType": "uint256",
          "name": "lastChangeBlock",
          "type": "uint256"
        },
        {
          "internalType": "uint256",
          "name": "protocolSwapFeePercentage",
          "type": "uint256"
        },
        {
          "internalType": "bytes",
          "name": "userData",
          "type": "bytes"
        }
      ],
      "name": "onExitPool",
      "outputs": [
        {
          "internalType": "uint256[]",
          "name": "",
          "type": "uint256[]"
        },
        {
          "internalType": "uint256[]",
          "name": "",
          "type": "uint256[]"
        }
      ],
      "stateMutability": "nonpayable",
      "type": "function"
    },
    {
      "inputs": [
        {
          "internalType": "bytes32",
          "name": "poolId",
          "type": "bytes32"
        },
        {
          "internalType": "address",
          "name": "sender",
          "type": "address"
        },
        {
          "internalType": "address",
          "name": "recipient",
          "type": "address"
        },
        {
          "internalType": "uint256[]",
          "name": "balances",
          "type": "uint256[]"
        },
        {
          "internalType": "uint256",
          "name": "lastChangeBlock",
          "type": "uint256"
        },
        {
          "internalType": "uint256",
          "name": "protocolSwapFeePercentage",
          "type": "uint256"
        },
        {
          "internalType": "bytes",
          "name": "userData",
          "type": "bytes"
        }
      ],
      "name": "onJoinPool",
      "outputs": [
        {
          "internalType": "uint256[]",
          "name": "",
          "type": "uint256[]"
        },
        {
          "internalType": "uint256[]",
          "name": "",
          "type": "uint256[]"
        }
      ],
      "stateMutability": "nonpayable",
      "type": "function"
    },
    {
      "inputs": [
        {
          "components": [
            {
              "internalType": "enum IVault.SwapKind",
              "name": "kind",
              "type": "uint8"
            },
            {
              "internalType": "contract IERC20",
              "name": "tokenIn",
              "type": "address"
            },
            {
              "internalType": "contract IERC20",
              "name": "tokenOut",
              "type": "address"
            },
            {
              "internalType": "uint256",
              "name": "amount",
              "type": "uint256"
            },
            {
              "internalType": "bytes32",
              "name": "poolId",
              "type": "bytes32"
            },
            {
              "internalType": "uint256",
              "name": "lastChangeBlock",
              "type": "uint256"
            },
            {
              "internalType": "address",
              "name": "from",
              "type": "address"
            },
            {
              "internalType": "address",
              "name": "to",
              "type": "address"
            },
            {
              "internalType": "bytes",
              "name": "userData",
              "type": "bytes"
            }
          ],
          "internalType": "struct IPoolSwapStructs.SwapRequest",
          "name": "request",
          "type": "tuple"
        },
        {
          "internalType": "uint256",
          "name": "balanceTokenIn",
          "type": "uint256"
        },
        {
          "internalType": "uint256",
          "name": "balanceTokenOut",
          "type": "uint256"
        }
      ],
      "name": "onSwap",
      "outputs": [
        {
          "internalType": "uint256",
          "name": "",
          "type": "uint256"
        }
      ],
      "stateMutability": "nonpayable",
      "type": "function"
    },
    {
      "inputs": [],
      "name": "pause",
      "outputs": [],
      "stateMutability": "nonpayable",
      "type": "function"
    },
    {
      "inputs": [
        {
          "internalType": "address",
          "name": "owner",
          "type": "address"
        },
        {
          "internalType": "address",
          "name": "spender",
          "type": "address"
        },
        {
          "internalType": "uint256",
          "name": "value",
          "type": "uint256"
        },
        {
          "internalType": "uint256",
          "name": "deadline",
          "type": "uint256"
        },
        {
          "internalType": "uint8",
          "name": "v",
          "type": "uint8"
        },
        {
          "internalType": "bytes32",
          "name": "r",
          "type": "bytes32"
        },
        {
          "internalType": "bytes32",
          "name": "s",
          "type": "bytes32"
        }
      ],
      "name": "permit",
      "outputs": [],
      "stateMutability": "nonpayable",
      "type": "function"
    },
    {
      "inputs": [
        {
          "internalType": "bytes32",
          "name": "poolId",
          "type": "bytes32"
        },
        {
          "internalType": "address",
          "name": "sender",
          "type": "address"
        },
        {
          "internalType": "address",
          "name": "recipient",
          "type": "address"
        },
        {
          "internalType": "uint256[]",
          "name": "balances",
          "type": "uint256[]"
        },
        {
          "internalType": "uint256",
          "name": "lastChangeBlock",
          "type": "uint256"
        },
        {
          "internalType": "uint256",
          "name": "protocolSwapFeePercentage",
          "type": "uint256"
        },
        {
          "internalType": "bytes",
          "name": "userData",
          "type": "bytes"
        }
      ],
      "name": "queryExit",
      "outputs": [
        {
          "internalType": "uint256",
          "name": "bptIn",
          "type": "uint256"
        },
        {
          "internalType": "uint256[]",
          "name": "amountsOut",
          "type": "uint256[]"
        }
      ],
      "stateMutability": "nonpayable",
      "type": "function"
    },
    {
      "inputs": [
        {
          "internalType": "bytes32",
          "name": "poolId",
          "type": "bytes32"
        },
        {
          "internalType": "address",
          "name": "sender",
          "type": "address"
        },
        {
          "internalType": "address",
          "name": "recipient",
          "type": "address"
        },
        {
          "internalType": "uint256[]",
          "name": "balances",
          "type": "uint256[]"
        },
        {
          "internalType": "uint256",
          "name": "lastChangeBlock",
          "type": "uint256"
        },
        {
          "internalType": "uint256",
          "name": "protocolSwapFeePercentage",
          "type": "uint256"
        },
        {
          "internalType": "bytes",
          "name": "userData",
          "type": "bytes"
        }
      ],
      "name": "queryJoin",
      "outputs": [
        {
          "internalType": "uint256",
          "name": "bptOut",
          "type": "uint256"
        },
        {
          "internalType": "uint256[]",
          "name": "amountsIn",
          "type": "uint256[]"
        }
      ],
      "stateMutability": "nonpayable",
      "type": "function"
    },
    {
      "inputs": [
        {
          "internalType": "uint256",
          "name": "swapFeePercentage",
          "type": "uint256"
        }
      ],
      "name": "setSwapFeePercentage",
      "outputs": [],
      "stateMutability": "nonpayable",
      "type": "function"
    },
    {
      "inputs": [],
      "name": "symbol",
      "outputs": [
        {
          "internalType": "string",
          "name": "",
          "type": "string"
        }
      ],
      "stateMutability": "view",
      "type": "function"
    },
    {
      "inputs": [],
      "name": "totalSupply",
      "outputs": [
        {
          "internalType": "uint256",
          "name": "",
          "type": "uint256"
        }
      ],
      "stateMutability": "view",
      "type": "function"
    },
    {
      "inputs": [
        {
          "internalType": "address",
          "name": "recipient",
          "type": "address"
        },
        {
          "internalType": "uint256",
          "name": "amount",
          "type": "uint256"
        }
      ],
      "name": "transfer",
      "outputs": [
        {
          "internalType": "bool",
          "name": "",
          "type": "bool"
        }
      ],
      "stateMutability": "nonpayable",
      "type": "function"
    },
    {
      "inputs": [
        {
          "internalType": "address",
          "name": "sender",
          "type": "address"
        },
        {
          "internalType": "address",
          "name": "recipient",
          "type": "address"
        },
        {
          "internalType": "uint256",
          "name": "amount",
          "type": "uint256"
        }
      ],
      "name": "transferFrom",
      "outputs": [
        {
          "internalType": "bool",
          "name": "",
          "type": "bool"
        }
      ],
      "stateMutability": "nonpayable",
      "type": "function"
    },
    {
      "inputs": [],
      "name": "unpause",
      "outputs": [],
      "stateMutability": "nonpayable",
      "type": "function"
    },
    {
      "inputs": [],
      "name": "updateProtocolFeePercentageCache",
      "outputs": [],
      "stateMutability": "nonpayable",
      "type": "function"
    }
  ],
  "bytecode": "0x6106606040523480156200001257600080fd5b5060405162007b8138038062007b81833981016040819052620000359162001598565b856040015151866080015185604051806060016040528060008152602001600281526020016003815250888a600001518b602001518c604001518d60a001518e60c001518c8c8c600089875160021480156200008f575081155b6200009c5760016200009f565b60025b8a8a8a8a8a8a8a8a8983838a8a8e86336001600160a01b031660001b8480604051806040016040528060018152602001603160f81b81525087878160039080519060200190620000f192919062001262565b5080516200010790600490602084019062001262565b50506005805460ff19166012179055508151602092830120608052805191012060a052507f8b73c3c69bb8fe3d512ecc4cf759cc79239f7b179b0ffacaa9a75d522b39400f60c05260e0526001600160601b0319606091821b81166101005291901b166101205250620001869050630163f50083111561019462000ac3565b6200019a6276a70082111561019562000ac3565b4291909101610140819052016101605260601b6001600160601b031916610180528551620001ce906002111560c862000ac3565b620001e8620001dc62000ad8565b8751111560c962000ac3565b620001f38462000add565b60006200020e8b8b898962000b7160201b620014341760201c565b9050806101a081815250508a6001600160a01b031663d2946c2b6040518163ffffffff1660e01b815260040160206040518083038186803b1580156200025357600080fd5b505afa15801562000268573d6000803e3d6000fd5b505050506040513d601f19601f820116820180604052508101906200028e919062001579565b6001600160a01b03166101c0816001600160a01b031660601b81525050505050505050505050505050505050505050505050816001600160a01b03166101e0816001600160a01b031660601b81525050600062000303826040015160088060000101600862000ba060201b620014541760201c565b6200032483602001516008600001600862000ba060201b620014541760201c565b6200034284600001516000600862000ba060201b620014541760201c565b1717610200819052905062000358838262000bb5565b506200036d915050600883111560c962000ac3565b6200038582825162000e3b60201b620014671760201c565b620003908162000e4a565b151560f81b6103205280518190600090620003a757fe5b60200260200101516001600160a01b0316610220816001600160a01b031660601b8152505080600181518110620003da57fe5b60200260200101516001600160a01b0316610240816001600160a01b031660601b81525050600282116200041057600062000427565b806002815181106200041e57fe5b60200260200101515b60601b6001600160601b03191661026052600382116200044957600062000460565b806003815181106200045757fe5b60200260200101515b60601b6001600160601b03191661028052600482116200048257600062000499565b806004815181106200049057fe5b60200260200101515b60601b6001600160601b0319166102a05260058211620004bb576000620004d2565b80600581518110620004c957fe5b60200260200101515b60601b6001600160601b0319166102c05260068211620004f45760006200050b565b806006815181106200050257fe5b60200260200101515b60601b6001600160601b0319166102e052600782116200052d57600062000544565b806007815181106200053b57fe5b60200260200101515b6001600160a01b0316610300816001600160a01b031660601b81525050505060008660400151519050620005898188606001515162000e3b60201b620014671760201c565b6103408190526000805b828160ff1610156200060357600089606001518260ff1681518110620005b557fe5b60200260200101519050620005dd662386f26fc1000082101561012e62000ac360201b60201c565b620005f7818462000ea660201b620014781790919060201c565b92505060010162000593565b506200061c670de0b6b3a7640000821461013462000ac3565b87604001516000815181106200062e57fe5b60200260200101516001600160a01b0316610360816001600160a01b031660601b8152505087604001516001815181106200066557fe5b60200260200101516001600160a01b0316610380816001600160a01b031660601b81525050600282116200069b576000620006b6565b8760400151600281518110620006ad57fe5b60200260200101515b60601b6001600160601b0319166103a05260038211620006d8576000620006f3565b8760400151600381518110620006ea57fe5b60200260200101515b60601b6001600160601b0319166103c052600482116200071557600062000730565b87604001516004815181106200072757fe5b60200260200101515b60601b6001600160601b0319166103e05260058211620007525760006200076d565b87604001516005815181106200076457fe5b60200260200101515b60601b6001600160601b03191661040052600682116200078f576000620007aa565b8760400151600681518110620007a157fe5b60200260200101515b60601b6001600160601b0319166104205260078211620007cc576000620007e7565b8760400151600781518110620007de57fe5b60200260200101515b6001600160a01b0316610440816001600160a01b031660601b815250506200082e88604001516000815181106200081a57fe5b602002602001015162000ec360201b60201c565b61046052604088015180516200084b919060019081106200081a57fe5b61048052600282116200086057600062000876565b6200087688604001516002815181106200081a57fe5b6104a052600382116200088b576000620008a1565b620008a188604001516003815181106200081a57fe5b6104c05260048211620008b6576000620008cc565b620008cc88604001516004815181106200081a57fe5b6104e05260058211620008e1576000620008f7565b620008f788604001516005815181106200081a57fe5b61050052600682116200090c57600062000922565b6200092288604001516006815181106200081a57fe5b6105205260078211620009375760006200094d565b6200094d88604001516007815181106200081a57fe5b61054052606088015180516000906200096257fe5b6020026020010151610560818152505087606001516001815181106200098457fe5b6020026020010151610580818152505060028211620009a5576000620009c0565b8760600151600281518110620009b757fe5b60200260200101515b6105a05260038211620009d5576000620009f0565b8760600151600381518110620009e757fe5b60200260200101515b6105c0526004821162000a0557600062000a20565b876060015160048151811062000a1757fe5b60200260200101515b6105e0526005821162000a3557600062000a50565b876060015160058151811062000a4757fe5b60200260200101515b610600526006821162000a6557600062000a80565b876060015160068151811062000a7757fe5b60200260200101515b610620526007821162000a9557600062000ab0565b876060015160078151811062000aa757fe5b60200260200101515b6106405250620018599650505050505050565b8162000ad45762000ad48162000f92565b5050565b600890565b62000af662000aeb62000fa7565b82101560cb62000ac3565b62000b0f62000b0462000fb0565b82111560ca62000ac3565b62000b318160c0603f60085462000fbc60201b6200148a17909392919060201c565b6008556040517fa9ba3ffe0b6c366b81232caab38605a0699ad5398d6cce76f91ee809e322dafc9062000b6690839062001744565b60405180910390a150565b600062000b898362000fe160201b620014ad1760201c565b62000b978585858562000fed565b95945050505050565b600062000baf848484620010e7565b50501b90565b6000826001600160a01b0316631a7c326362000be460006008866200114760201b620014b7179092919060201c565b6040518263ffffffff1660e01b815260040162000c02919062001744565b60206040518083038186803b15801562000c1b57600080fd5b505afa15801562000c30573d6000803e3d6000fd5b505050506040513d601f19601f8201168201806040525081019062000c56919062001560565b905060006001600160a01b038416631a7c326362000c838560088062001147602090811b620014b717901c565b6040518263ffffffff1660e01b815260040162000ca1919062001744565b60206040518083038186803b15801562000cba57600080fd5b505afa15801562000ccf573d6000803e3d6000fd5b505050506040513d601f19601f8201168201806040525081019062000cf5919062001560565b905060006001600160a01b038516631a7c326362000d23866010600862001147602090811b620014b717901c565b6040518263ffffffff1660e01b815260040162000d41919062001744565b60206040518083038186803b15801562000d5a57600080fd5b505afa15801562000d6f573d6000803e3d6000fd5b505050506040513d601f19601f8201168201806040525081019062000d95919062001560565b9050600062000db88260408060000101604062000ba060201b620014541760201c565b62000dd5846040600001604062000ba060201b620014541760201c565b62000def866000604062000ba060201b620014541760201c565b17179050806009819055507fc3f0acc358200d8e08ac6ce20bc2f9f27893a344f813bf682b7859b3e521502e8160405162000e2b919062001744565b60405180910390a1505050505050565b62000ad4828214606762000ac3565b6000805b825181101562000e9b5760006001600160a01b031683828151811062000e7057fe5b60200260200101516001600160a01b03161462000e9257600091505062000ea1565b60010162000e4e565b50600190505b919050565b600082820162000eba848210158362000ac3565b90505b92915050565b60006001600160a01b03821630141562000ee75750670de0b6b3a764000062000ea1565b6000826001600160a01b031663313ce5676040518163ffffffff1660e01b815260040160206040518083038186803b15801562000f2357600080fd5b505afa15801562000f38573d6000803e3d6000fd5b505050506040513d601f19601f8201168201806040525081019062000f5e919062001721565b60ff169050600062000f7d6012836200115660201b620014c61760201c565b600a0a670de0b6b3a764000002949350505050565b62000fa4816210905360ea1b6200116e565b50565b64e8d4a5100090565b67016345785d8a000090565b600062000fcb848484620010e7565b506001901b60001901811b1992909216911b1790565b8062000ad481620011cf565b600080856001600160a01b03166309b2760f866040518263ffffffff1660e01b81526004016200101e9190620017db565b602060405180830381600087803b1580156200103957600080fd5b505af11580156200104e573d6000803e3d6000fd5b505050506040513d601f19601f8201168201806040525081019062001074919062001560565b604051633354e3e960e11b81529091506001600160a01b038716906366a9c7d290620010a9908490889088906004016200174d565b600060405180830381600087803b158015620010c457600080fd5b505af1158015620010d9573d6000803e3d6000fd5b509298975050505050505050565b620010f86101008310606462000ac3565b62001131600182101580156200112957506200112560ff84610100036200125660201b620014dc1760201c565b8211155b606462000ac3565b6200114283821c156101b462000ac3565b505050565b6001901b6000190191901c1690565b60006200116883831115600162000ac3565b50900390565b62461bcd60e51b600090815260206004526007602452600a808404818106603090810160081b958390069590950190829004918206850160101b01602363ffffff0060e086901c160160181b0190930160c81b60445260e882901c90606490fd5b600281511015620011e05762000fa4565b600081600081518110620011f057fe5b602002602001015190506000600190505b8251811015620011425760008382815181106200121a57fe5b602002602001015190506200124b816001600160a01b0316846001600160a01b031610606562000ac360201b60201c565b915060010162001201565b80820390821102900390565b828054600181600116156101000203166002900490600052602060002090601f016020900481019282601f10620012a557805160ff1916838001178555620012d5565b82800160010185558215620012d5579182015b82811115620012d5578251825591602001919060010190620012b8565b50620012e3929150620012e7565b5090565b5b80821115620012e35760008155600101620012e8565b805162000ebd8162001843565b600082601f8301126200131c578081fd5b8151620013336200132d8262001817565b620017f0565b8181529150602080830190848101818402860182018710156200135557600080fd5b60005b84811015620013815781516200136e8162001843565b8452928201929082019060010162001358565b505050505092915050565b600082601f8301126200139d578081fd5b8151620013ae6200132d8262001817565b818152915060208083019084810181840286018201871015620013d057600080fd5b60005b8481101562001381578151620013e98162001843565b84529282019290820190600101620013d3565b600082601f8301126200140d578081fd5b81516200141e6200132d8262001817565b8181529150602080830190848101818402860182018710156200144057600080fd5b60005b8481101562001381578151620014598162001843565b8452928201929082019060010162001443565b600082601f8301126200147d578081fd5b81516200148e6200132d8262001817565b818152915060208083019084810181840286018201871015620014b057600080fd5b60005b848110156200138157815184529282019290820190600101620014b3565b600082601f830112620014e2578081fd5b81516001600160401b03811115620014f8578182fd5b60206200150e601f8301601f19168201620017f0565b925081835284818386010111156200152557600080fd5b60005b828110156200154557848101820151848201830152810162001528565b82811115620015575760008284860101525b50505092915050565b60006020828403121562001572578081fd5b5051919050565b6000602082840312156200158b578081fd5b815162000eba8162001843565b60008060008060008060c08789031215620015b1578182fd5b86516001600160401b0380821115620015c8578384fd5b9088019060e0828b031215620015dc578384fd5b620015e860e0620017f0565b825182811115620015f7578586fd5b620016058c828601620014d1565b8252506020830151828111156200161a578586fd5b620016288c828601620014d1565b60208301525060408301518281111562001640578586fd5b6200164e8c8286016200138c565b60408301525060608301518281111562001666578586fd5b620016748c8286016200146c565b6060830152506080830151828111156200168c578586fd5b6200169a8c828601620013fc565b60808301525060a083015182811115620016b2578586fd5b620016c08c8286016200130b565b60a08301525060c083015160c0820152809850505050620016e58860208901620012fe565b9450620016f68860408901620012fe565b93506060870151925060808701519150620017158860a08901620012fe565b90509295509295509295565b60006020828403121562001733578081fd5b815160ff8116811462000eba578182fd5b90815260200190565b60006060820185835260206060818501528186518084526080860191508288019350845b81811015620017995762001786855162001837565b8352938301939183019160010162001771565b505084810360408601528551808252908201925081860190845b81811015620010d957620017c8835162001837565b85529383019391830191600101620017b3565b6020810160038310620017ea57fe5b91905290565b6040518181016001600160401b03811182821017156200180f57600080fd5b604052919050565b60006001600160401b038211156200182d578081fd5b5060209081020190565b6001600160a01b031690565b6001600160a01b038116811462000fa457600080fd5b60805160a05160c05160e0516101005160601c6101205160601c61014051610160516101805160601c6101a0516101c05160601c6101e05160601c610200516102205160601c6102405160601c6102605160601c6102805160601c6102a05160601c6102c05160601c6102e05160601c6103005160601c6103205160f81c610340516103605160601c6103805160601c6103a05160601c6103c05160601c6103e05160601c6104005160601c6104205160601c6104405160601c61046051610480516104a0516104c0516104e05161050051610520516105405161056051610580516105a0516105c0516105e05161060051610620516106405161608562001afc6000398061233c52806136e25250806122f952806136815250806122b6528061362052508061227352806135bf525080612230528061355e5250806121ed52806134fd5250806121aa528061349c525080612170528061343b525080612d12525080612cee525080612cca525080612ca6525080612c82525080612c5e525080612c3a525080612c1652508061263652806136a75250806125f452806136465250806125b252806135e5525080612570528061358452508061252e52806135235250806124ec52806134c25250806124aa52806134615250806124615280613400525080611ac95250806139875250806109da5280613be85250806109835280613b9c52508061092c5280613b505250806108d55280613b0452508061087e5280613ab85250806108195280613a575250806107c25280613a0652508061077452806139c85250806106ba5280610b8b525080610699525080611213525080610ada52508061155252508061190e5250806118ea525080610ef5525080610ed1525080610e1f52508061295252508061299452508061297352506160856000f3fe608060405234801561001057600080fd5b50600436106102ff5760003560e01c80637ecebe001161019c578063a9059cbb116100ee578063d2946c2b11610097578063dd62ed3e11610071578063dd62ed3e146105ab578063ed24911d146105be578063f89f27ed146105c6576102ff565b8063d2946c2b1461057d578063d505accf14610585578063d5c096c414610598576102ff565b8063b35056b8116100c8578063b35056b814610565578063b7b814fc1461056d578063c0ff1a1514610575576102ff565b8063a9059cbb14610542578063aaabadc514610555578063b10962781461055d576102ff565b8063893d20e81161015057806395d89b411161012a57806395d89b41146105145780639d2c110c1461051c578063a457c2d71461052f576102ff565b8063893d20e8146104e45780638d928af8146104f957806390193b7c14610501576102ff565b8063851c1bb311610181578063851c1bb3146104b6578063876f303b146104c957806387ec6817146104d1576102ff565b80637ecebe001461049b5780638456cb59146104ae576102ff565b806338e9922e1161025557806354a844ba1161020957806370464016116101e3578063704640161461045457806370a082311461046757806374f3b0091461047a576102ff565b806354a844ba1461042357806355c676281461042b5780636028bfd414610433576102ff565b8063395093511161023a57806339509351146103f55780633f4ba83a146104085780634df77ce014610410576102ff565b806338e9922e146103da57806338fff2d0146103ed576102ff565b80631dd746ea116102b757806323ef89ed1161029157806323ef89ed146103b5578063313ce567146103bd5780633644e515146103d2576102ff565b80631dd746ea14610378578063238a2d591461038d57806323b872dd146103a2576102ff565b80630da0669c116102e85780630da0669c1461034257806318160ddd1461034c5780631c0de05114610361576102ff565b806306fdde0314610304578063095ea7b314610322575b600080fd5b61030c6105ce565b6040516103199190615f52565b60405180910390f35b610335610330366004615716565b610665565b6040516103199190615de1565b61034a61067c565b005b6103546106e0565b6040516103199190615e04565b6103696106e6565b60405161031993929190615dec565b61038061070f565b6040516103199190615da9565b61039561071e565b6040516103199190615d5c565b6103356103b0366004615666565b610a2d565b610354610aa3565b6103c5610aa9565b6040516103199190615f44565b610354610ab2565b61034a6103e8366004615c1b565b610abc565b610354610ad8565b610335610403366004615716565b610afc565b61034a610b37565b61035461041e366004615c1b565b610b49565b61034a610bbb565b610354610c0f565b610446610441366004615845565b610c22565b604051610319929190615f85565b610354610462366004615c1b565b610c59565b610354610475366004615612565b610cbb565b61048d610488366004615845565b610cd6565b604051610319929190615dbc565b6103546104a9366004615612565b610dfe565b61034a610e09565b6103546104c4366004615942565b610e1b565b610354610e6d565b6104466104df366004615845565b610ea9565b6104ec610ecf565b6040516103199190615d48565b6104ec610ef3565b61035461050f366004615612565b610f17565b61030c610f32565b61035461052a366004615b1f565b610f93565b61033561053d366004615716565b61108c565b610335610550366004615716565b6110ca565b6104ec6110d7565b6103546110e1565b6103356110f9565b61034a61110a565b610354611154565b6104ec611211565b61034a6105933660046156a6565b611235565b61048d6105a6366004615845565b6112c0565b6103546105b936600461562e565b6113e3565b610354611420565b61038061142a565b60038054604080516020601f600260001961010060018816150201909516949094049384018190048102820181019092528281526060939092909183018282801561065a5780601f1061062f5761010080835404028352916020019161065a565b820191906000526020600020905b81548152906001019060200180831161063d57829003601f168201915b505050505090505b90565b60006106723384846114e8565b5060015b92915050565b61068c610687611550565b611574565b61069461165d565b6106de7f00000000000000000000000000000000000000000000000000000000000000007f00000000000000000000000000000000000000000000000000000000000000006116b7565b565b60025490565b60008060006106f36118cb565b1592506106fe6118e8565b915061070861190c565b9050909192565b6060610719611930565b905090565b6060600061072a611ac7565b905060608167ffffffffffffffff8111801561074557600080fd5b5060405190808252806020026020018201604052801561076f578160200160208202803683370190505b5090507f0000000000000000000000000000000000000000000000000000000000000000816000815181106107a057fe5b60200260200101906001600160a01b031690816001600160a01b0316815250507f0000000000000000000000000000000000000000000000000000000000000000816001815181106107ee57fe5b60200260200101906001600160a01b031690816001600160a01b031681525050600282111561086a577f00000000000000000000000000000000000000000000000000000000000000008160028151811061084557fe5b60200260200101906001600160a01b031690816001600160a01b031681525050610873565b91506106629050565b600382111561086a577f0000000000000000000000000000000000000000000000000000000000000000816003815181106108aa57fe5b60200260200101906001600160a01b031690816001600160a01b031681525050600482111561086a577f00000000000000000000000000000000000000000000000000000000000000008160048151811061090157fe5b60200260200101906001600160a01b031690816001600160a01b031681525050600582111561086a577f00000000000000000000000000000000000000000000000000000000000000008160058151811061095857fe5b60200260200101906001600160a01b031690816001600160a01b031681525050600682111561086a577f0000000000000000000000000000000000000000000000000000000000000000816006815181106109af57fe5b60200260200101906001600160a01b031690816001600160a01b031681525050600782111561086a577f000000000000000000000000000000000000000000000000000000000000000081600781518110610a0657fe5b60200260200101906001600160a01b031690816001600160a01b0316815250505b91505090565b600080610a3a85336113e3565b9050610a5e336001600160a01b0387161480610a565750838210155b61019e611aeb565b610a69858585611af9565b336001600160a01b03861614801590610a8457506000198114155b15610a9657610a9685338584036114e8565b60019150505b9392505050565b600a5490565b60055460ff1690565b6000610719611420565b610ac4611bd9565b610acc611c1f565b610ad581611c32565b50565b7f000000000000000000000000000000000000000000000000000000000000000090565b3360008181526001602090815260408083206001600160a01b03871684529091528120549091610672918590610b329086611478565b6114e8565b610b3f611bd9565b6106de6000611cab565b60008082610b5957506000610b86565b6002831415610b6a57506008610b86565b6003831415610b7b57506010610b86565b610b866101bb611d3c565b610bb27f00000000000000000000000000000000000000000000000000000000000000008260086114b7565b9150505b919050565b610bc3611bd9565b610bcb611d66565b610bd56001611d7a565b7feff3d4d215b42bf0960be9c6d5e05c22cba4df6627a3a523e2acee733b5854c86001604051610c059190615de1565b60405180910390a1565b6008546000906107199060c0603f6114b7565b60006060610c388651610c33611ac7565b611467565b610c4d89898989898989611dd1611e33611ea2565b97509795505050505050565b6000610c636110f9565b15610c7057506000610bb6565b600082610c7f57506000610cac565b6002831415610c9057506040610cac565b6003831415610ca157506080610cac565b610cac6101bb611d3c565b600954610bb2908260406114b7565b6001600160a01b031660009081526020819052604090205490565b60608088610d00610ce5610ef3565b6001600160a01b0316336001600160a01b03161460cd611aeb565b610d15610d0b610ad8565b82146101f4611aeb565b60606000610d2286612039565b15610d4a57610d2f612068565b610d4189610d3b6106e0565b8861207b565b92509050610d9c565b610d5261209f565b6060610d5c611930565b9050610d688a826120a7565b610d8c8d8d8d8d8d610d786110f9565b610d82578d610d85565b60005b878e611dd1565b93509150610d9a8382611e33565b505b610da68b82612110565b81895167ffffffffffffffff81118015610dbf57600080fd5b50604051908082528060200260200182016040528015610de9578160200160208202803683370190505b509450945050505b5097509795505050505050565b600061067682610f17565b610e11611bd9565b6106de6001611cab565b60007f000000000000000000000000000000000000000000000000000000000000000082604051602001610e50929190615cb6565b604051602081830303815290604052805190602001209050919050565b600080610e786106e0565b90506000610e95610e87611154565b610e8f61211a565b84612368565b509050610ea28282611478565b9250505090565b60006060610eba8651610c33611ac7565b610c4d898989898989896123ab6123f4611ea2565b7f000000000000000000000000000000000000000000000000000000000000000090565b7f000000000000000000000000000000000000000000000000000000000000000090565b6001600160a01b031660009081526006602052604090205490565b60048054604080516020601f600260001961010060018816150201909516949094049384018190048102820181019092528281526060939092909183018282801561065a5780601f1061062f5761010080835404028352916020019161065a565b60008360800151610fa5610ce5610ef3565b610fb0610d0b610ad8565b610fb861209f565b6000610fc7866020015161245d565b90506000610fd8876040015161245d565b9050610fe48683612681565b9550610ff08582612681565b945060008751600181111561100157fe5b141561104d57611014876060015161268d565b606088018190526110259083612681565b606088015260006110378888886126ae565b905061104381836126e1565b9450505050611084565b61105b876060015182612681565b6060880152600061106d8888886126ed565b90506110798184612718565b905061104381612724565b509392505050565b60008061109933856113e3565b90508083106110b3576110ae338560006114e8565b6110c0565b6110c033858584036114e8565b5060019392505050565b6000610672338484611af9565b6000610719612740565b6000610719600060c06110f26127ba565b91906114b7565b6008546000906107199060ff6127c0565b611112611bd9565b61111a612068565b6111246000611d7a565b7feff3d4d215b42bf0960be9c6d5e05c22cba4df6627a3a523e2acee733b5854c86000604051610c059190615de1565b60006060611160610ef3565b6001600160a01b031663f94d4668611176610ad8565b6040518263ffffffff1660e01b81526004016111929190615e04565b60006040518083038186803b1580156111aa57600080fd5b505afa1580156111be573d6000803e3d6000fd5b505050506040513d6000823e601f3d908101601f191682016040526111e69190810190615741565b509150506111fb816111f6611930565b6120a7565b606061120561211a565b9050610ea281836127c7565b7f000000000000000000000000000000000000000000000000000000000000000090565b60007f6e71edae12b1b97f4d1f60370fef10105fa2faae0126114a169c64845d6126c98888886112648c610f17565b8960405160200161127a96959493929190615e2c565b6040516020818303038152906040528051906020012090506112ab88826112a2878787612839565b886101f8612878565b6112b68888886114e8565b5050505050505050565b606080886112cf610ce5610ef3565b6112da610d0b610ad8565b6112e261209f565b60606112ec611930565b90506112f66106e0565b6113a3576000606061130b8d8d8d868b6128cf565b9150915061132461131a612912565b83101560cc611aeb565b6113366000611331612912565b612919565b6113498b611342612912565b8403612919565b61135381846123f4565b808a5167ffffffffffffffff8111801561136c57600080fd5b50604051908082528060200260200182016040528015611396578160200160208202803683370190505b5095509550505050610df1565b6113ad88826120a7565b600060606113d58d8d8d8d8d6113c16110f9565b6113cb578d6113ce565b60005b898e6123ab565b915091506113498b83612919565b60006113ed610ef3565b6001600160a01b0316826001600160a01b0316141561140f5750600019610676565b6114198383612923565b9050610676565b600061071961294e565b606061071961211a565b600061143f836114ad565b61144b858585856129eb565b95945050505050565b6000611461848484612af4565b50501b90565b6114748183146067611aeb565b5050565b6000828201610a9c8482101583611aeb565b6000611497848484612af4565b506001901b60001901811b1992909216911b1790565b8061147481612b3b565b6001901b6000190191901c1690565b60006114d6838311156001611aeb565b50900390565b80820390821102900390565b6001600160a01b0380841660008181526001602090815260408083209487168084529490915290819020849055517f8c5be1e5ebec7d5bd14f71427d1e84f3dd0314c0f7b2291e5b200ac8c7c3b92590611543908590615e04565b60405180910390a3505050565b7f000000000000000000000000000000000000000000000000000000000000000090565b6060816001600160a01b0316612710630e8e3e8460e01b600060405160240161159d9190615f44565b60408051601f198184030181529181526020820180517bffffffffffffffffffffffffffffffffffffffffffffffffffffffff167fffffffff000000000000000000000000000000000000000000000000000000009094169390931790925290516116089190615cf6565b6000604051808303818686fa925050503d8060008114611644576040519150601f19603f3d011682016040523d82523d6000602084013e611649565b606091505b509150506114748151600014610190611aeb565b611665611c1f565b600061166f611154565b905060008061168d8361168061211a565b6116886106e0565b612368565b9150915061169a82612bb4565b6116a383612bcb565b80156116b2576116b281612bd4565b505050565b60006001600160a01b038316631a7c32636116d4848460086114b7565b6040518263ffffffff1660e01b81526004016116f09190615e04565b60206040518083038186803b15801561170857600080fd5b505afa15801561171c573d6000803e3d6000fd5b505050506040513d601f19601f82011682018060405250810190611740919061582d565b905060006001600160a01b038416631a7c326361175f856008806114b7565b6040518263ffffffff1660e01b815260040161177b9190615e04565b60206040518083038186803b15801561179357600080fd5b505afa1580156117a7573d6000803e3d6000fd5b505050506040513d601f19601f820116820180604052508101906117cb919061582d565b905060006001600160a01b038516631a7c32636117eb86601060086114b7565b6040518263ffffffff1660e01b81526004016118079190615e04565b60206040518083038186803b15801561181f57600080fd5b505afa158015611833573d6000803e3d6000fd5b505050506040513d601f19601f82011682018060405250810190611857919061582d565b905060006118688260806040611454565b61187484604080611454565b6118818660006040611454565b17179050806009819055507fc3f0acc358200d8e08ac6ce20bc2f9f27893a344f813bf682b7859b3e521502e816040516118bb9190615e04565b60405180910390a1505050505050565b60006118d561190c565b42118061071957505060075460ff161590565b7f000000000000000000000000000000000000000000000000000000000000000090565b7f000000000000000000000000000000000000000000000000000000000000000090565b6060600061193c611ac7565b905060608167ffffffffffffffff8111801561195757600080fd5b50604051908082528060200260200182016040528015611981578160200160208202803683370190505b50905061198c612c14565b8160008151811061199957fe5b6020026020010181815250506119ad612c38565b816001815181106119ba57fe5b602002602001018181525050600282111561086a576119d7612c5c565b816002815181106119e457fe5b602002602001018181525050600382111561086a57611a01612c80565b81600381518110611a0e57fe5b602002602001018181525050600482111561086a57611a2b612ca4565b81600481518110611a3857fe5b602002602001018181525050600582111561086a57611a55612cc8565b81600581518110611a6257fe5b602002602001018181525050600682111561086a57611a7f612cec565b81600681518110611a8c57fe5b602002602001018181525050600782111561086a57611aa9612d10565b81600781518110611ab657fe5b602002602001018181525050610a27565b7f000000000000000000000000000000000000000000000000000000000000000090565b816114745761147481611d3c565b611b106001600160a01b0384161515610198611aeb565b611b276001600160a01b0383161515610199611aeb565b611b328383836116b2565b6001600160a01b038316600090815260208190526040902054611b5890826101a0612d34565b6001600160a01b038085166000908152602081905260408082209390935590841681522054611b879082611478565b6001600160a01b0380841660008181526020819052604090819020939093559151908516907fddf252ad1be2c89b69c2b068fc378daa952ba7f163c4a11628f55a4df523b3ef90611543908590615e04565b6000611c086000357fffffffff0000000000000000000000000000000000000000000000000000000016610e1b565b9050610ad5611c178233612d4a565b610191611aeb565b6106de611c2a6118cb565b610192611aeb565b611c47611c3d612e33565b82101560cb611aeb565b611c5c611c52612e3c565b82111560ca611aeb565b600854611c6d908260c0603f61148a565b6008556040517fa9ba3ffe0b6c366b81232caab38605a0699ad5398d6cce76f91ee809e322dafc90611ca0908390615e04565b60405180910390a150565b8015611ccb57611cc6611cbc6118e8565b4210610193611aeb565b611ce0565b611ce0611cd661190c565b42106101a9611aeb565b600780547fffffffffffffffffffffffffffffffffffffffffffffffffffffffffffffff00168215151790556040517f9e3a5e37224532dea67b89face185703738a228a6e8a23dee546960180d3be6490611ca0908390615de1565b610ad5817f42414c0000000000000000000000000000000000000000000000000000000000612e48565b6106de611d716110f9565b156101b5611aeb565b600854611d89908260ff612ec3565b6008556040517feff3d4d215b42bf0960be9c6d5e05c22cba4df6627a3a523e2acee733b5854c890611dbc908390615de1565b60405180910390a180610ad557610ad5612ed2565b6000606080611dde61211a565b9050600080611ded8a84612f1a565b9150915060006060611e038e8d878c888d612f7a565b9092509050611e1f838d838888611e1a81896114c6565b61300d565b909e909d509b505050505050505050505050565b81518151611e42908290611467565b60005b81811015611e9c57611e7d848281518110611e5c57fe5b6020026020010151848381518110611e7057fe5b6020026020010151613031565b848281518110611e8957fe5b6020908102919091010152600101611e45565b50505050565b333014611f91576000306001600160a01b0316600036604051611ec6929190615ce6565b6000604051808303816000865af19150503d8060008114611f03576040519150601f19603f3d011682016040523d82523d6000602084013e611f08565b606091505b505090508060008114611f1757fe5b60046000803e6000517fffffffff00000000000000000000000000000000000000000000000000000000167f43adbafb000000000000000000000000000000000000000000000000000000008114611f73573d6000803e3d6000fd5b506020600460003e604060205260243d03602460403e601c3d016000f35b611f9961209f565b6060611fa3611930565b9050611faf87826120a7565b60006060611fc78c8c8c8c8c8c898d8d63ffffffff16565b91509150611fd981848663ffffffff16565b8051601f1982018390526343adbafb7fffffffffffffffffffffffffffffffffffffffffffffffffffffffffffffffc08301526020027fffffffffffffffffffffffffffffffffffffffffffffffffffffffffffffffdc82016044820181fd5b6000808251118015610676575060ff80168280602001905181019061205e9190615c33565b60ff161492915050565b6106de6120736110f9565b6101b6611aeb565b6000606061208883613084565b915061209585858461309a565b9050935093915050565b6106de611c1f565b815181516120b6908290611467565b60005b81811015611e9c576120f18482815181106120d057fe5b60200260200101518483815181106120e457fe5b6020026020010151613149565b8482815181106120fd57fe5b60209081029190910101526001016120b9565b611474828261317c565b60606000612126611ac7565b905060608167ffffffffffffffff8111801561214157600080fd5b5060405190808252806020026020018201604052801561216b578160200160208202803683370190505b5090507f00000000000000000000000000000000000000000000000000000000000000008160008151811061219c57fe5b6020026020010181815250507f0000000000000000000000000000000000000000000000000000000000000000816001815181106121d657fe5b602002602001018181525050600282111561086a577f00000000000000000000000000000000000000000000000000000000000000008160028151811061221957fe5b602002602001018181525050600382111561086a577f00000000000000000000000000000000000000000000000000000000000000008160038151811061225c57fe5b602002602001018181525050600482111561086a577f00000000000000000000000000000000000000000000000000000000000000008160048151811061229f57fe5b602002602001018181525050600582111561086a577f0000000000000000000000000000000000000000000000000000000000000000816005815181106122e257fe5b602002602001018181525050600682111561086a577f00000000000000000000000000000000000000000000000000000000000000008160068151811061232557fe5b602002602001018181525050600782111561086a577f000000000000000000000000000000000000000000000000000000000000000081600781518110611ab657fe5b60008060006123808661237b6000610c59565b613248565b905060008061238e8761326e565b9150915061239e868385016132de565b9890975095505050505050565b60006060806123b861211a565b90506000806123c78a84612f1a565b91509150600060606123dd8e8d878c888d6132fb565b9092509050611e1f838d838888611e1a8189611478565b81518151612403908290611467565b60005b81811015611e9c5761243e84828151811061241d57fe5b602002602001015184838151811061243157fe5b6020026020010151613377565b84828151811061244a57fe5b6020908102919091010152600101612406565b60007f00000000000000000000000000000000000000000000000000000000000000006001600160a01b0316826001600160a01b031614156124a8576124a1612c14565b9050610bb6565b7f00000000000000000000000000000000000000000000000000000000000000006001600160a01b0316826001600160a01b031614156124ea576124a1612c38565b7f00000000000000000000000000000000000000000000000000000000000000006001600160a01b0316826001600160a01b0316141561252c576124a1612c5c565b7f00000000000000000000000000000000000000000000000000000000000000006001600160a01b0316826001600160a01b0316141561256e576124a1612c80565b7f00000000000000000000000000000000000000000000000000000000000000006001600160a01b0316826001600160a01b031614156125b0576124a1612ca4565b7f00000000000000000000000000000000000000000000000000000000000000006001600160a01b0316826001600160a01b031614156125f2576124a1612cc8565b7f00000000000000000000000000000000000000000000000000000000000000006001600160a01b0316826001600160a01b03161415612634576124a1612cec565b7f00000000000000000000000000000000000000000000000000000000000000006001600160a01b0316826001600160a01b03161415612676576124a1612d10565b610bb6610135611d3c565b6000610a9c8383613149565b6000806126a261269b610c0f565b84906133c4565b9050610bb283826114c6565b60006126d9836126c186602001516133fc565b846126cf88604001516133fc565b8860600151613706565b949350505050565b6000610a9c8383613031565b60006126d98361270086602001516133fc565b8461270e88604001516133fc565b8860600151613781565b6000610a9c8383613377565b6000610676612739612734610c0f565b6137f7565b8390613377565b600061274a610ef3565b6001600160a01b031663aaabadc56040518163ffffffff1660e01b815260040160206040518083038186803b15801561278257600080fd5b505afa158015612796573d6000803e3d6000fd5b505050506040513d601f19601f820116820180604052508101906107199190615982565b60085490565b1c60011690565b670de0b6b3a764000060005b83518110156128295761281f6128188583815181106127ee57fe5b602002602001015185848151811061280257fe5b602002602001015161380990919063ffffffff16565b8390613149565b91506001016127d3565b5061067660008211610137611aeb565b60408051604180825260808201909252606091829190602082018180368337019050509050836020820152826040820152846060820153949350505050565b6000612883856138ba565b90506128996128938783876138d6565b83611aeb565b6128a8428410156101b8611aeb565b5050506001600160a01b039092166000908152600660205260409020805460010190555050565b600060606128db613985565b6128f7576128f76128f26128ed61211a565b6139a9565b612bd4565b6129048787878787613c0c565b915091509550959350505050565b620f424090565b6114748282613c9c565b6001600160a01b03918216600090815260016020908152604080832093909416825291909152205490565b60007f00000000000000000000000000000000000000000000000000000000000000007f00000000000000000000000000000000000000000000000000000000000000007f00000000000000000000000000000000000000000000000000000000000000006129bb613d2f565b306040516020016129d0959493929190615ee6565b60405160208183030381529060405280519060200120905090565b600080856001600160a01b03166309b2760f866040518263ffffffff1660e01b8152600401612a1a9190615f30565b602060405180830381600087803b158015612a3457600080fd5b505af1158015612a48573d6000803e3d6000fd5b505050506040513d601f19601f82011682018060405250810190612a6c919061582d565b6040517f66a9c7d20000000000000000000000000000000000000000000000000000000081529091506001600160a01b038716906366a9c7d290612ab890849088908890600401615e60565b600060405180830381600087803b158015612ad257600080fd5b505af1158015612ae6573d6000803e3d6000fd5b509298975050505050505050565b612b0361010083106064611aeb565b612b2c60018210158015612b255750612b2160ff84610100036114dc565b8211155b6064611aeb565b6116b283821c156101b4611aeb565b600281511015612b4a57610ad5565b600081600081518110612b5957fe5b602002602001015190506000600190505b82518110156116b2576000838281518110612b8157fe5b60200260200101519050612baa816001600160a01b0316846001600160a01b0316106065611aeb565b9150600101612b6a565b8015610ad557610ad5612bc5611211565b82612919565b610ad581613d33565b7f836ff8964123d8b264c228d02eae300e3c2112664d4622b62c883b1128f66df5600a5482604051612c07929190615f9e565b60405180910390a1600a55565b7f000000000000000000000000000000000000000000000000000000000000000090565b7f000000000000000000000000000000000000000000000000000000000000000090565b7f000000000000000000000000000000000000000000000000000000000000000090565b7f000000000000000000000000000000000000000000000000000000000000000090565b7f000000000000000000000000000000000000000000000000000000000000000090565b7f000000000000000000000000000000000000000000000000000000000000000090565b7f000000000000000000000000000000000000000000000000000000000000000090565b7f000000000000000000000000000000000000000000000000000000000000000090565b6000612d438484111583611aeb565b5050900390565b600073ba1ba1ba1ba1ba1ba1ba1ba1ba1ba1ba1ba1ba1b612d69610ecf565b6001600160a01b031614158015612d845750612d8483613d53565b15612dac57612d91610ecf565b6001600160a01b0316336001600160a01b0316149050610676565b612db4612740565b6001600160a01b0316639be2a8848484306040518463ffffffff1660e01b8152600401612de393929190615e0d565b60206040518083038186803b158015612dfb57600080fd5b505afa158015612e0f573d6000803e3d6000fd5b505050506040513d601f19601f82011682018060405250810190611419919061580d565b64e8d4a5100090565b67016345785d8a000090565b7f08c379a000000000000000000000000000000000000000000000000000000000600090815260206004526007602452600a808404818106603090810160081b958390069590950190829004918206850160101b01602363ffffff0060e086901c160160181b0190930160c81b60445260e882901c90606490fd5b6001811b1992909216911b1790565b612ee2612edd611154565b612bcb565b612eea613985565b6106de576000612ef8610aa3565b90506000612f076128ed61211a565b9050818111156114745761147481612bd4565b6000806000612f276106e0565b90506000612f3585876127c7565b9050600080612f45838886612368565b90925090508015612f5957612f5981612bd4565b612f6282612bb4565b612f6c8483611478565b989297509195505050505050565b600060606000612f8984613d5e565b90506000816002811115612f9957fe5b1415612fb557612fab88888787613d74565b9250925050613002565b6001816002811115612fc357fe5b1415612fd457612fab888686613e43565b6002816002811115612fe257fe5b1415612ff557612fab8888888888613e6f565b613000610150611d3c565b505b965096945050505050565b600061301d878787878787613ece565b905061302881612bb4565b50505050505050565b60006130408215156004611aeb565b670de0b6b3a7640000830261307284158061306b5750670de0b6b3a764000085838161306857fe5b04145b6005611aeb565b82818161307b57fe5b04949350505050565b600081806020019051810190610a9c9190615c4f565b606060006130a88385613031565b9050845167ffffffffffffffff811180156130c257600080fd5b506040519080825280602002602001820160405280156130ec578160200160208202803683370190505b50915060005b8551811015613140576131218287838151811061310b57fe5b602002602001015161314990919063ffffffff16565b83828151811061312d57fe5b60209081029190910101526001016130f2565b50509392505050565b600082820261316d84158061316657508385838161316357fe5b04145b6003611aeb565b670de0b6b3a76400008161307b565b6131936001600160a01b038316151561019b611aeb565b61319f826000836116b2565b6001600160a01b0382166000908152602081905260409020546131c590826101b2612d34565b6001600160a01b0383166000908152602081905260409020556131f86131f3826131ed6106e0565b90613fc7565b613fd5565b60006001600160a01b0316826001600160a01b03167fddf252ad1be2c89b69c2b068fc378daa952ba7f163c4a11628f55a4df523b3ef8360405161323c9190615e04565b60405180910390a35050565b6000610a9c61325f6132586110e1565b8590613031565b670de0b6b3a764000084613fda565b600080613279613985565b15613289575060009050806132d9565b600a546000613297856139a9565b90508181116132ae576000809350935050506132d9565b6132d36132bb8284613031565b670de0b6b3a76400006132ce6002610c59565b613fda565b93509150505b915091565b6000610a9c6132ed8484614018565b6132f6846137f7565b614032565b60006060600061330a84614052565b9050600181600381111561331a57fe5b141561332d57612fab8888888888614068565b600281600381111561333b57fe5b141561334d57612fab888887876140b8565b600381600381111561335b57fe5b141561336c57612fab888686614116565b613000610136611d3c565b60006133868215156004611aeb565b670de0b6b3a764000083026133ae84158061306b5750670de0b6b3a764000085838161306857fe5b6001836001830304018115150291505092915050565b60008282026133de84158061316657508385838161316357fe5b6001670de0b6b3a76400006001830304018115150291505092915050565b60007f00000000000000000000000000000000000000000000000000000000000000006001600160a01b0316826001600160a01b0316141561345f57507f0000000000000000000000000000000000000000000000000000000000000000610bb6565b7f00000000000000000000000000000000000000000000000000000000000000006001600160a01b0316826001600160a01b031614156134c057507f0000000000000000000000000000000000000000000000000000000000000000610bb6565b7f00000000000000000000000000000000000000000000000000000000000000006001600160a01b0316826001600160a01b0316141561352157507f0000000000000000000000000000000000000000000000000000000000000000610bb6565b7f00000000000000000000000000000000000000000000000000000000000000006001600160a01b0316826001600160a01b0316141561358257507f0000000000000000000000000000000000000000000000000000000000000000610bb6565b7f00000000000000000000000000000000000000000000000000000000000000006001600160a01b0316826001600160a01b031614156135e357507f0000000000000000000000000000000000000000000000000000000000000000610bb6565b7f00000000000000000000000000000000000000000000000000000000000000006001600160a01b0316826001600160a01b0316141561364457507f0000000000000000000000000000000000000000000000000000000000000000610bb6565b7f00000000000000000000000000000000000000000000000000000000000000006001600160a01b0316826001600160a01b031614156136a557507f0000000000000000000000000000000000000000000000000000000000000000610bb6565b7f00000000000000000000000000000000000000000000000000000000000000006001600160a01b0316826001600160a01b0316141561267657507f0000000000000000000000000000000000000000000000000000000000000000610bb6565b600061372861371d87670429d069189e0000613149565b831115610130611aeb565b60006137348784611478565b905060006137428883613377565b905060006137508887613031565b9050600061375e8383614134565b905061377361376c826137f7565b8990613149565b9a9950505050505050505050565b60006137a361379885670429d069189e0000613149565b831115610131611aeb565b60006137b96137b286856114c6565b8690613377565b905060006137c78588613377565b905060006137d58383614134565b905060006137eb82670de0b6b3a76400006114c6565b90506137738a826133c4565b670de0b6b3a764000081810391100290565b6000670de0b6b3a7640000821415613822575081610676565b671bc16d674ec8000082141561383c576114198384613149565b673782dace9d90000082141561386c5760006138588485613149565b90506138648182613149565b915050610676565b600061387884846141ba565b9050600061389261388b836127106133c4565b6001611478565b9050808210156138a757600092505050610676565b6138b182826114c6565b92505050610676565b60006138c461294e565b82604051602001610e50929190615d12565b60006138e882516041146101b9611aeb565b60208281015160408085015160608601518251600080825295019283905292939092811a91600190613921908990859088908890615f12565b6020604051602081039080840390855afa158015613943573d6000803e3d6000fd5b5050604051601f1901519150506001600160a01b038116158015906139795750876001600160a01b0316816001600160a01b0316145b98975050505050505050565b7f000000000000000000000000000000000000000000000000000000000000000090565b805160009081613a2f6139ec8583856139be57fe5b60200260200101517f00000000000000000000000000000000000000000000000000000000000000006142d0565b613a2a866001815181106139fc57fe5b60200260200101517f00000000000000000000000000000000000000000000000000000000000000006142d0565b613149565b90506002821115613a8957613a82613a7b85600281518110613a4d57fe5b60200260200101517f00000000000000000000000000000000000000000000000000000000000000006142d0565b8290613149565b9050613a92565b9150610bb69050565b6003821115613a8957613adc613a7b85600381518110613aae57fe5b60200260200101517f00000000000000000000000000000000000000000000000000000000000000006142d0565b90506004821115613a8957613b28613a7b85600481518110613afa57fe5b60200260200101517f00000000000000000000000000000000000000000000000000000000000000006142d0565b90506005821115613a8957613b74613a7b85600581518110613b4657fe5b60200260200101517f00000000000000000000000000000000000000000000000000000000000000006142d0565b90506006821115613a8957613bc0613a7b85600681518110613b9257fe5b60200260200101517f00000000000000000000000000000000000000000000000000000000000000006142d0565b90506007821115610bb2576126d9613a7b85600781518110613bde57fe5b60200260200101517f00000000000000000000000000000000000000000000000000000000000000006142d0565b600060606000613c1b84614052565b9050613c366000826003811115613c2e57fe5b1460ce611aeb565b6060613c4185614371565b9050613c4f81518751611467565b613c5981876120a7565b6060613c6361211a565b90506000613c7182846127c7565b90506000613c80828551614018565b9050613c8b82612bcb565b9b929a509198505050505050505050565b613ca8600083836116b2565b613cbd6131f382613cb76106e0565b90611478565b6001600160a01b038216600090815260208190526040902054613ce09082611478565b6001600160a01b0383166000818152602081905260408082209390935591519091907fddf252ad1be2c89b69c2b068fc378daa952ba7f163c4a11628f55a4df523b3ef9061323c908590615e04565b4690565b610ad5613d4e82600060c0613d466127ba565b92919061148a565b614387565b60006106768261439c565b600081806020019051810190610676919061599e565b60006060600080613d84856143a7565b91509150613d96885182106064611aeb565b6000613dd2898381518110613da757fe5b6020026020010151898481518110613dbb57fe5b6020026020010151858a613dcd610c0f565b6143c9565b90506060895167ffffffffffffffff81118015613dee57600080fd5b50604051908082528060200260200182016040528015613e18578160200160208202803683370190505b50905081818481518110613e2857fe5b60209081029190910101529299929850919650505050505050565b600060606000613e528461447f565b90506060613e6187878461309a565b919791965090945050505050565b60006060806000613e7f85614495565b91509150613e8f82518a51611467565b613e9982886120a7565b6000613eaf8a8a858a613eaa610c0f565b6144ad565b9050613ebf8282111560cf611aeb565b99919850909650505050505050565b600082821015815b8751811015613f685781613f1957613f14888281518110613ef357fe5b6020026020010151888381518110613f0757fe5b6020026020010151613fc7565b613f49565b613f49888281518110613f2857fe5b6020026020010151888381518110613f3c57fe5b6020026020010151611478565b888281518110613f5557fe5b6020908102919091010152600101613ed6565b506000613f7586896127c7565b90506000613f836000610c59565b9050613f8e82612bcb565b80613f9f5760009350505050613fbd565b6000613fb6613fae848d613031565b8888856145eb565b9450505050505b9695505050505050565b6000610a9c83836001612d34565b600255565b60008383101580613fe9575081155b15613ff657506000610a9c565b60006140028486613031565b670de0b6b3a764000003905061144b8184613149565b6000828202610a9c84158061316657508385838161316357fe5b60006140418215156004611aeb565b81838161404a57fe5b049392505050565b6000818060200190518101906106769190615a5f565b600060608060006140788561460e565b9150915061408889518351611467565b61409282886120a7565b60006140a88a8a858a6140a3610c0f565b614626565b9050613ebf8282101560d0611aeb565b600060606000806140c885614771565b915091506140da885182106064611aeb565b6000613dd28983815181106140eb57fe5b60200260200101518984815181106140ff57fe5b6020026020010151858a614111610c0f565b614788565b6000606060006141258461481e565b90506060613e61878784614834565b6000670de0b6b3a764000082141561414d575081610676565b671bc16d674ec800008214156141675761141983846133c4565b673782dace9d90000082141561418f57600061418384856133c4565b905061386481826133c4565b600061419b84846141ba565b905060006141ae61388b836127106133c4565b90506138b18282611478565b6000816141d05750670de0b6b3a7640000610676565b826141dd57506000610676565b6141ed60ff84901c156006611aeb565b82614213770bce5086492111aea88f4bb1ca6bcf584181ea8059f7653284106007611aeb565b826000670c7d713b49da0000831380156142345750670f43fc2c04ee000083125b1561426b576000614244846148c4565b9050670de0b6b3a764000080820784020583670de0b6b3a764000083050201915050614279565b81614275846149fb565b0290505b670de0b6b3a764000090056142c77ffffffffffffffffffffffffffffffffffffffffffffffffdc702bd3a30fc000082128015906142c0575068070c1cc73b00c800008213155b6008611aeb565b613fbd81614d9b565b60006001600160a01b038216156143615761435c83836001600160a01b031663679aefce6040518163ffffffff1660e01b815260040160206040518083038186803b15801561431e57600080fd5b505afa158015614332573d6000803e3d6000fd5b505050506040513d601f19601f82011682018060405250810190614356919061582d565b90613809565b610a9c565b50670de0b6b3a764000092915050565b606081806020019051810190610a9c9190615a7a565b6008546143969082600061526b565b60085550565b600061067682615297565b600080828060200190518101906143be9190615a2a565b909590945092505050565b6000806143e0846143da81886114c6565b90613377565b90506143f96709b6e64a8ec60000821015610132611aeb565b6000614417614410670de0b6b3a764000089613031565b8390614134565b9050600061442e614427836137f7565b8a90613149565b9050600061444561443e8a6137f7565b83906133c4565b9050600061445383836114c6565b9050600061446361269b896137f7565b905061446f8282611478565b9c9b505050505050505050505050565b600081806020019051810190610a9c91906159fe565b60606000828060200190518101906143be91906159b9565b60006060845167ffffffffffffffff811180156144c957600080fd5b506040519080825280602002602001820160405280156144f3578160200160208202803683370190505b5090506000805b88518110156145b85761455389828151811061451257fe5b60200260200101516143da89848151811061452957fe5b60200260200101518c858151811061453d57fe5b60200260200101516114c690919063ffffffff16565b83828151811061455f57fe5b6020026020010181815250506145ae6145a789838151811061457d57fe5b602002602001015185848151811061459157fe5b60200260200101516133c490919063ffffffff16565b8390611478565b91506001016144fa565b5060006145c989898986868a6152d3565b90506145de6145d7826137f7565b87906133c4565b9998505050505050505050565b600080614602866145fc8688613031565b85613fda565b9050613fbd84826132de565b60606000828060200190518101906143be9190615ac7565b60006060845167ffffffffffffffff8111801561464257600080fd5b5060405190808252806020026020018201604052801561466c578160200160208202803683370190505b5090506000805b885181101561471a576146d289828151811061468b57fe5b60200260200101516146cc8984815181106146a257fe5b60200260200101518c85815181106146b657fe5b602002602001015161147890919063ffffffff16565b90613031565b8382815181106146de57fe5b6020026020010181815250506147106145a78983815181106146fc57fe5b602002602001015185848151811061310b57fe5b9150600101614673565b50600061472b89898986868a6153f1565b90506000670de0b6b3a76400008211614745576000613773565b613773877ffffffffffffffffffffffffffffffffffffffffffffffffff21f494c589c00008401613149565b600080828060200190518101906143be9190615b01565b600080614799846143da8188611478565b90506147b26729a2241af62c0000821115610133611aeb565b60006147c9614410670de0b6b3a764000089613377565b905060006147e96147e283670de0b6b3a76400006114c6565b8a906133c4565b905060006147f961443e8a6137f7565b9050600061480783836114c6565b90506000614463614817896137f7565b8490613377565b600081806020019051810190610a9c9190615ae5565b606060006148428385613377565b9050845167ffffffffffffffff8111801561485c57600080fd5b50604051908082528060200260200182016040528015614886578160200160208202803683370190505b50915060005b8551811015613140576148a58287838151811061459157fe5b8382815181106148b157fe5b602090810291909101015260010161488c565b670de0b6b3a7640000026000806ec097ce7bc90715b34b9f1000000000808401907fffffffffffffffffffffffffffffffffff3f68318436f8ea4cb460f0000000008501028161491057fe5b05905060006ec097ce7bc90715b34b9f100000000082800205905081806ec097ce7bc90715b34b9f100000000081840205915060038205016ec097ce7bc90715b34b9f100000000082840205915060058205016ec097ce7bc90715b34b9f100000000082840205915060078205016ec097ce7bc90715b34b9f100000000082840205915060098205016ec097ce7bc90715b34b9f1000000000828402059150600b8205016ec097ce7bc90715b34b9f1000000000828402059150600d8205016ec097ce7bc90715b34b9f1000000000828402059150600f826002919005919091010295945050505050565b6000670de0b6b3a7640000821215614a3857614a2e826ec097ce7bc90715b34b9f100000000081614a2857fe5b056149fb565b6000039050610bb6565b60007e1600ef3172e58d2e933ec884fde10064c63b5372d805e203c00000000000008312614a8957770195e54c5dd42177f53a27172fa9ec630262827000000000830592506806f05b59d3b2000000015b73011798004d755d3c8bc8e03204cf44619e0000008312614ac1576b1425982cf597cd205cef7380830592506803782dace9d9000000015b606492830292026e01855144814a7ff805980ff00840008312614b09576e01855144814a7ff805980ff008400068056bc75e2d63100000840205925068ad78ebc5ac62000000015b6b02df0ab5a80a22c61ab5a7008312614b44576b02df0ab5a80a22c61ab5a70068056bc75e2d6310000084020592506856bc75e2d631000000015b693f1fce3da636ea5cf8508312614b7b57693f1fce3da636ea5cf85068056bc75e2d631000008402059250682b5e3af16b18800000015b690127fa27722cc06cc5e28312614bb257690127fa27722cc06cc5e268056bc75e2d6310000084020592506815af1d78b58c400000015b68280e60114edb805d038312614be75768280e60114edb805d0368056bc75e2d631000008402059250680ad78ebc5ac6200000015b680ebc5fb417461211108312614c1257680ebc5fb4174612111068056bc75e2d631000009384020592015b6808f00f760a4b2db55d8312614c47576808f00f760a4b2db55d68056bc75e2d6310000084020592506802b5e3af16b1880000015b6806f5f17757889379378312614c7c576806f5f177578893793768056bc75e2d63100000840205925068015af1d78b58c40000015b6806248f33704b2866038312614cb0576806248f33704b28660368056bc75e2d63100000840205925067ad78ebc5ac620000015b6805c548670b9510e7ac8312614ce4576805c548670b9510e7ac68056bc75e2d6310000084020592506756bc75e2d6310000015b600068056bc75e2d63100000840168056bc75e2d631000008086030281614d0757fe5b059050600068056bc75e2d63100000828002059050818068056bc75e2d63100000818402059150600382050168056bc75e2d63100000828402059150600582050168056bc75e2d63100000828402059150600782050168056bc75e2d63100000828402059150600982050168056bc75e2d63100000828402059150600b820501600202606485820105979650505050505050565b6000614de07ffffffffffffffffffffffffffffffffffffffffffffffffdc702bd3a30fc00008312158015614dd9575068070c1cc73b00c800008313155b6009611aeb565b6000821215614e1457614df582600003614d9b565b6ec097ce7bc90715b34b9f100000000081614e0c57fe5b059050610bb6565b60006806f05b59d3b20000008312614e6a57507ffffffffffffffffffffffffffffffffffffffffffffffff90fa4a62c4e00000090910190770195e54c5dd42177f53a27172fa9ec630262827000000000614eb6565b6803782dace9d90000008312614eb257507ffffffffffffffffffffffffffffffffffffffffffffffffc87d2531627000000909101906b1425982cf597cd205cef7380614eb6565b5060015b6064929092029168056bc75e2d6310000068ad78ebc5ac620000008412614f1c577fffffffffffffffffffffffffffffffffffffffffffffff5287143a539e0000009093019268056bc75e2d631000006e01855144814a7ff805980ff008400082020590505b6856bc75e2d6310000008412614f6e577fffffffffffffffffffffffffffffffffffffffffffffffa9438a1d29cf0000009093019268056bc75e2d631000006b02df0ab5a80a22c61ab5a70082020590505b682b5e3af16b188000008412614fbe577fffffffffffffffffffffffffffffffffffffffffffffffd4a1c50e94e78000009093019268056bc75e2d63100000693f1fce3da636ea5cf85082020590505b6815af1d78b58c400000841261500e577fffffffffffffffffffffffffffffffffffffffffffffffea50e2874a73c000009093019268056bc75e2d63100000690127fa27722cc06cc5e282020590505b680ad78ebc5ac6200000841261505d577ffffffffffffffffffffffffffffffffffffffffffffffff5287143a539e000009093019268056bc75e2d6310000068280e60114edb805d0382020590505b68056bc75e2d6310000084126150ac577ffffffffffffffffffffffffffffffffffffffffffffffffa9438a1d29cf000009093019268056bc75e2d63100000680ebc5fb4174612111082020590505b6802b5e3af16b188000084126150fb577ffffffffffffffffffffffffffffffffffffffffffffffffd4a1c50e94e7800009093019268056bc75e2d631000006808f00f760a4b2db55d82020590505b68015af1d78b58c40000841261514a577ffffffffffffffffffffffffffffffffffffffffffffffffea50e2874a73c00009093019268056bc75e2d631000006806f5f177578893793782020590505b68056bc75e2d631000008481019085906002908280020505918201919050600368056bc75e2d631000008783020505918201919050600468056bc75e2d631000008783020505918201919050600568056bc75e2d631000008783020505918201919050600668056bc75e2d631000008783020505918201919050600768056bc75e2d631000008783020505918201919050600868056bc75e2d631000008783020505918201919050600968056bc75e2d631000008783020505918201919050600a68056bc75e2d631000008783020505918201919050600b68056bc75e2d631000008783020505918201919050600c68056bc75e2d631000008783020505918201919050606468056bc75e2d63100000848402058502059695505050505050565b77ffffffffffffffffffffffffffffffffffffffffffffffff828116821b90821b198416179392505050565b60006152c27f38e9922e00000000000000000000000000000000000000000000000000000000610e1b565b8214806106765750610676826154fd565b670de0b6b3a764000060005b87518110156153e65760008582815181106152f657fe5b602002602001015185111561535957600061531f615313876137f7565b8b858151811061310b57fe5b90506000615333828a868151811061453d57fe5b90506000615343612739886137f7565b905061534f8382611478565b935050505061537e565b86828151811061536557fe5b60200260200101519050806000141561537e57506153de565b60006153a78a848151811061538f57fe5b60200260200101516146cc848d878151811061453d57fe5b90506153d96153d28a85815181106153bb57fe5b60200260200101518361380990919063ffffffff16565b8590613149565b935050505b6001016152df565b509695505050505050565b670de0b6b3a764000060005b87518110156153e65760008486838151811061541557fe5b6020026020010151111561548e576000670de0b6b3a7640000861161543b576000615455565b615455670de0b6b3a764000087038b858151811061310b57fe5b905060006154738661546d848c888151811061453d57fe5b906133c4565b9050615485818a868151811061453d57fe5b925050506154b3565b86828151811061549a57fe5b6020026020010151905080600014156154b357506154f5565b60006154dc8a84815181106154c457fe5b60200260200101516146cc848d87815181106146b657fe5b90506154f06153d28a85815181106153bb57fe5b935050505b6001016153fd565b50600090565b80356106768161602b565b600082601f83011261551e578081fd5b815161553161552c82615fd3565b615fac565b81815291506020808301908481018184028601820187101561555257600080fd5b60005b8481101561557157815184529282019290820190600101615555565b505050505092915050565b600082601f83011261558c578081fd5b813567ffffffffffffffff8111156155a2578182fd5b6155b56020601f19601f84011601615fac565b91508082528360208285010111156155cc57600080fd5b8060208401602084013760009082016020015292915050565b80516003811061067657600080fd5b80516004811061067657600080fd5b80356002811061067657600080fd5b600060208284031215615623578081fd5b8135610a9c8161602b565b60008060408385031215615640578081fd5b823561564b8161602b565b9150602083013561565b8161602b565b809150509250929050565b60008060006060848603121561567a578081fd5b83356156858161602b565b925060208401356156958161602b565b929592945050506040919091013590565b600080600080600080600060e0888a0312156156c0578283fd5b87356156cb8161602b565b965060208801356156db8161602b565b9550604088013594506060880135935060808801356156f981616040565b9699959850939692959460a0840135945060c09093013592915050565b60008060408385031215615728578182fd5b82356157338161602b565b946020939093013593505050565b600080600060608486031215615755578081fd5b835167ffffffffffffffff8082111561576c578283fd5b818601915086601f83011261577f578283fd5b815161578d61552c82615fd3565b80828252602080830192508086018b8283870289010111156157ad578788fd5b8796505b848710156157d85780516157c48161602b565b8452600196909601959281019281016157b1565b5089015190975093505050808211156157ef578283fd5b506157fc8682870161550e565b925050604084015190509250925092565b60006020828403121561581e578081fd5b81518015158114610a9c578182fd5b60006020828403121561583e578081fd5b5051919050565b600080600080600080600060e0888a03121561585f578081fd5b873596506020808901356158728161602b565b965060408901356158828161602b565b9550606089013567ffffffffffffffff8082111561589e578384fd5b818b0191508b601f8301126158b1578384fd5b81356158bf61552c82615fd3565b8082825285820191508585018f8788860288010111156158dd578788fd5b8795505b838610156158ff5780358352600195909501949186019186016158e1565b509850505060808b0135955060a08b0135945060c08b0135925080831115615925578384fd5b50506159338a828b0161557c565b91505092959891949750929550565b600060208284031215615953578081fd5b81357fffffffff0000000000000000000000000000000000000000000000000000000081168114610a9c578182fd5b600060208284031215615993578081fd5b8151610a9c8161602b565b6000602082840312156159af578081fd5b610a9c83836155e5565b6000806000606084860312156159cd578081fd5b6159d785856155e5565b9250602084015167ffffffffffffffff8111156159f2578182fd5b6157fc8682870161550e565b60008060408385031215615a10578182fd5b615a1a84846155e5565b9150602083015190509250929050565b600080600060608486031215615a3e578081fd5b615a4885856155e5565b925060208401519150604084015190509250925092565b600060208284031215615a70578081fd5b610a9c83836155f4565b60008060408385031215615a8c578182fd5b615a9684846155f4565b9150602083015167ffffffffffffffff811115615ab1578182fd5b615abd8582860161550e565b9150509250929050565b600080600060608486031215615adb578081fd5b6159d785856155f4565b60008060408385031215615af7578182fd5b615a1a84846155f4565b600080600060608486031215615b15578081fd5b615a4885856155f4565b600080600060608486031215615b33578081fd5b833567ffffffffffffffff80821115615b4a578283fd5b8186019150610120808389031215615b60578384fd5b615b6981615fac565b9050615b758884615603565b8152615b848860208501615503565b6020820152615b968860408501615503565b6040820152606083013560608201526080830135608082015260a083013560a0820152615bc68860c08501615503565b60c0820152615bd88860e08501615503565b60e08201526101008084013583811115615bf0578586fd5b615bfc8a82870161557c565b9183019190915250976020870135975060409096013595945050505050565b600060208284031215615c2c578081fd5b5035919050565b600060208284031215615c44578081fd5b8151610a9c81616040565b60008060408385031215615c61578182fd5b8251615c6c81616040565b6020939093015192949293505050565b6000815180845260208085019450808401835b83811015615cab57815187529582019590820190600101615c8f565b509495945050505050565b9182527fffffffff0000000000000000000000000000000000000000000000000000000016602082015260240190565b6000828483379101908152919050565b60008251615d08818460208701615fff565b9190910192915050565b7f190100000000000000000000000000000000000000000000000000000000000081526002810192909252602282015260420190565b6001600160a01b0391909116815260200190565b6020808252825182820181905260009190848201906040850190845b81811015615d9d5783516001600160a01b031683529284019291840191600101615d78565b50909695505050505050565b600060208252610a9c6020830184615c7c565b600060408252615dcf6040830185615c7c565b828103602084015261144b8185615c7c565b901515815260200190565b92151583526020830191909152604082015260600190565b90815260200190565b9283526001600160a01b03918216602084015216604082015260600190565b9586526001600160a01b0394851660208701529290931660408501526060840152608083019190915260a082015260c00190565b60006060820185835260206060818501528186518084526080860191508288019350845b81811015615ea857615e968551615ff3565b83529383019391830191600101615e84565b505084810360408601528551808252908201925081860190845b81811015612ae657615ed48351615ff3565b85529383019391830191600101615ec2565b9485526020850193909352604084019190915260608301526001600160a01b0316608082015260a00190565b93845260ff9290921660208401526040830152606082015260800190565b6020810160038310615f3e57fe5b91905290565b60ff91909116815260200190565b6000602082528251806020840152615f71816040850160208701615fff565b601f01601f19169190910160400192915050565b6000838252604060208301526126d96040830184615c7c565b918252602082015260400190565b60405181810167ffffffffffffffff81118282101715615fcb57600080fd5b604052919050565b600067ffffffffffffffff821115615fe9578081fd5b5060209081020190565b6001600160a01b031690565b60005b8381101561601a578181015183820152602001616002565b83811115611e9c5750506000910152565b6001600160a01b0381168114610ad557600080fd5b60ff81168114610ad557600080fdfea2646970667358221220ac358809ac308d4fb4b6c0c30923f9f08a9bc575ad7381645b28adf71e41a01464736f6c63430007010033",
  "linkReferences": {},
  "deployedLinkReferences": {}
}