{
  "_format": "hh-sol-artifact-1",
  "contractName": "WeightedPoolFactory",
  "sourceName": "contracts/WeightedPoolFactory.sol",
  "abi": [
    {
      "inputs": [
        {
          "internalType": "contract IVault",
          "name": "vault",
          "type": "address"
        },
        {
          "internalType": "contract IProtocolFeePercentagesProvider",
          "name": "protocolFeeProvider",
          "type": "address"
        },
        {
          "internalType": "uint256",
          "name": "initialPauseWindowDuration",
          "type": "uint256"
        },
        {
          "internalType": "uint256",
          "name": "bufferPeriodDuration",
          "type": "uint256"
        }
      ],
      "stateMutability": "nonpayable",
      "type": "constructor"
    },
    {
      "anonymous": false,
      "inputs": [],
      "name": "FactoryDisabled",
      "type": "event"
    },
    {
      "anonymous": false,
      "inputs": [
        {
          "indexed": true,
          "internalType": "address",
          "name": "pool",
          "type": "address"
        }
      ],
      "name": "PoolCreated",
      "type": "event"
    },
    {
      "inputs": [
        {
          "internalType": "string",
          "name": "name",
          "type": "string"
        },
        {
          "internalType": "string",
          "name": "symbol",
          "type": "string"
        },
        {
          "internalType": "contract IERC20[]",
          "name": "tokens",
          "type": "address[]"
        },
        {
          "internalType": "uint256[]",
          "name": "normalizedWeights",
          "type": "uint256[]"
        },
        {
          "internalType": "contract IRateProvider[]",
          "name": "rateProviders",
          "type": "address[]"
        },
        {
          "internalType": "uint256",
          "name": "swapFeePercentage",
          "type": "uint256"
        },
        {
          "internalType": "address",
          "name": "owner",
          "type": "address"
        },
        {
          "internalType": "bytes32",
          "name": "salt",
          "type": "bytes32"
        }
      ],
      "name": "create",
      "outputs": [
        {
          "internalType": "address",
          "name": "",
          "type": "address"
        }
      ],
      "stateMutability": "nonpayable",
      "type": "function"
    },
    {
      "inputs": [],
      "name": "disable",
      "outputs": [],
      "stateMutability": "nonpayable",
      "type": "function"
    },
    {
      "inputs": [
        {
          "internalType": "bytes4",
          "name": "selector",
          "type": "bytes4"
        }
      ],
      "name": "getActionId",
      "outputs": [
        {
          "internalType": "bytes32",
          "name": "",
          "type": "bytes32"
        }
      ],
      "stateMutability": "view",
      "type": "function"
    },
    {
      "inputs": [],
      "name": "getAuthorizer",
      "outputs": [
        {
          "internalType": "contract IAuthorizer",
          "name": "",
          "type": "address"
        }
      ],
      "stateMutability": "view",
      "type": "function"
    },
    {
      "inputs": [],
      "name": "getCreationCode",
      "outputs": [
        {
          "internalType": "bytes",
          "name": "",
          "type": "bytes"
        }
      ],
      "stateMutability": "view",
      "type": "function"
    },
    {
      "inputs": [],
      "name": "getCreationCodeContracts",
      "outputs": [
        {
          "internalType": "address",
          "name": "contractA",
          "type": "address"
        },
        {
          "internalType": "address",
          "name": "contractB",
          "type": "address"
        }
      ],
      "stateMutability": "view",
      "type": "function"
    },
    {
      "inputs": [],
      "name": "getPauseConfiguration",
      "outputs": [
        {
          "internalType": "uint256",
          "name": "pauseWindowDuration",
          "type": "uint256"
        },
        {
          "internalType": "uint256",
          "name": "bufferPeriodDuration",
          "type": "uint256"
        }
      ],
      "stateMutability": "view",
      "type": "function"
    },
    {
      "inputs": [],
      "name": "getProtocolFeePercentagesProvider",
      "outputs": [
        {
          "internalType": "contract IProtocolFeePercentagesProvider",
          "name": "",
          "type": "address"
        }
      ],
      "stateMutability": "view",
      "type": "function"
    },
    {
      "inputs": [],
      "name": "getVault",
      "outputs": [
        {
          "internalType": "contract IVault",
          "name": "",
          "type": "address"
        }
      ],
      "stateMutability": "view",
      "type": "function"
    },
    {
      "inputs": [],
      "name": "isDisabled",
      "outputs": [
        {
          "internalType": "bool",
          "name": "",
          "type": "bool"
        }
      ],
      "stateMutability": "view",
      "type": "function"
    },
    {
      "inputs": [
        {
          "internalType": "address",
          "name": "pool",
          "type": "address"
        }
      ],
      "name": "isPoolFromFactory",
      "outputs": [
        {
          "internalType": "bool",
          "name": "",
          "type": "bool"
        }
      ],
      "stateMutability": "view",
      "type": "function"
    }
  ],
  "bytecode": "0x6101c06040523480156200001257600080fd5b50604051620090103803806200901083398101604081905262000035916200023e565b83838383604051806020016200004b9062000230565b601f1982820381018352601f9091011660405280518390839087903090859060006002820460a081905280830360e0819052818552909150836200009b8162000151602090811b6200051b17901c565b60601b6001600160601b0319166080528285018051838252620000ca8262000151602090811b6200051b17901c565b6001600160601b0319606091821b811660c0529690935290526101009590955250509290911b90911661012052506200010d630163f500831115610194620001a5565b620001216276a700821115610195620001a5565b6101408290526101605242016101805250505060601b6001600160601b0319166101a05250620002a09350505050565b80517f602038038060206000396000f3fefefefefefefefefefefefefefefefefefefe808352600091602081018484f090845291506200019f6001600160a01b03831615156101ac620001a5565b50919050565b81620001b657620001b681620001ba565b5050565b620001cc816210905360ea1b620001cf565b50565b62461bcd60e51b600090815260206004526007602452600a808404818106603090810160081b958390069590950190829004918206850160101b01602363ffffff0060e086901c160160181b0190930160c81b60445260e882901c90606490fd5b617cac806200136483390190565b6000806000806080858703121562000254578384fd5b845162000261816200028a565b602086015190945062000274816200028a565b6040860151606090960151949790965092505050565b6001600160a01b0381168114620001cc57600080fd5b60805160601c60a05160c05160601c60e051610100516101205160601c6101405161016051610180516101a05160601c61103c62000328600039806103fc5250806102e0528061030952508061032d525050806104725250806104225250806105825250806101e352806105fe5250806105a35250806101c252806105da525061103c6000f3fe608060405234801561001057600080fd5b50600436106100c85760003560e01c80636634b75311610081578063851c1bb31161005b578063851c1bb3146101715780638d928af814610191578063aaabadc514610199576100c8565b80636634b753146101415780636c57f5a914610161578063739238d614610169576100c8565b80632182c8fe116100b25780632182c8fe146101015780632da47c40146101215780632f2770db14610137576100c8565b8062c194db146100cd578063174481fa146100eb575b600080fd5b6100d56101a1565b6040516100e29190610e5c565b60405180910390f35b6100f36101c0565b6040516100e2929190610df5565b61011461010f366004610bb1565b610206565b6040516100e29190610dd4565b6101296102da565b6040516100e2929190610f8f565b61013f610361565b005b61015461014f366004610b19565b6103c6565b6040516100e29190610e1c565b6101546103f1565b6101146103fa565b61018461017f366004610b55565b61041e565b6040516100e29190610e27565b610114610470565b610114610494565b60606101bb6040518060200160405280600081525061057a565b905090565b7f00000000000000000000000000000000000000000000000000000000000000007f00000000000000000000000000000000000000000000000000000000000000009091565b60008060006102136102da565b915091506102cb6040518060e001604052808d81526020018c81526020018b81526020018a81526020018981526020018b5167ffffffffffffffff8111801561025b57600080fd5b50604051908082528060200260200182016040528015610285578160200160208202803683370190505b508152602001889052610296610470565b61029e6103fa565b85858a6040516020016102b696959493929190610e6f565b60405160208183030381529060405285610653565b9b9a5050505050505050505050565b600080427f000000000000000000000000000000000000000000000000000000000000000081101561035357807f00000000000000000000000000000000000000000000000000000000000000000392507f0000000000000000000000000000000000000000000000000000000000000000915061035c565b60009250600091505b509091565b6103696106eb565b610371610734565b600180547fffffffffffffffffffffffffffffffffffffffffffffffffffffffffffffff0016811790556040517f432acbfd662dbb5d8b378384a67159b47ca9d0f1b79f97cf64cf8585fa362d5090600090a1565b73ffffffffffffffffffffffffffffffffffffffff1660009081526020819052604090205460ff1690565b60015460ff1690565b7f000000000000000000000000000000000000000000000000000000000000000090565b60007f000000000000000000000000000000000000000000000000000000000000000082604051602001610453929190610da4565b604051602081830303815290604052805190602001209050919050565b7f000000000000000000000000000000000000000000000000000000000000000090565b600061049e610470565b73ffffffffffffffffffffffffffffffffffffffff1663aaabadc56040518163ffffffff1660e01b815260040160206040518083038186803b1580156104e357600080fd5b505afa1580156104f7573d6000803e3d6000fd5b505050506040513d601f19601f820116820180604052508101906101bb9190610b95565b80517f602038038060206000396000f3fefefefefefefefefefefefefefefefefefefe808352600091602081018484f0908452915061057473ffffffffffffffffffffffffffffffffffffffff831615156101ac610749565b50919050565b8051604080517f00000000000000000000000000000000000000000000000000000000000000007f0000000000000000000000000000000000000000000000000000000000000000818101858101848101602090810190965280855293957f00000000000000000000000000000000000000000000000000000000000000009592947f000000000000000000000000000000000000000000000000000000000000000094938801866000828a3c846000888301883c506020898101908985010161064581838661075b565b505050505050505050919050565b600061065d610734565b600061066984846107d5565b73ffffffffffffffffffffffffffffffffffffffff811660008181526020819052604080822080547fffffffffffffffffffffffffffffffffffffffffffffffffffffffffffffff001660011790555192935090917f83a48fbcfc991335314e74d0496aab6a1987e992ddc85dddbcc4d6dd6ef2e9fc9190a290505b92915050565b600061071a6000357fffffffff000000000000000000000000000000000000000000000000000000001661041e565b9050610731610729823361081f565b610191610749565b50565b61074761073f6103f1565b1560d3610749565b565b8161075757610757816108bc565b5050565b5b602081106107995781518352602092830192909101907fffffffffffffffffffffffffffffffffffffffffffffffffffffffffffffffe00161075c565b905182516020929092036101000a7fffffffffffffffffffffffffffffffffffffffffffffffffffffffffffffffff0180199091169116179052565b600060606107e28461057a565b90506000838251602084016000f5905073ffffffffffffffffffffffffffffffffffffffff8116610817573d6000803e3d6000fd5b949350505050565b6000610829610494565b73ffffffffffffffffffffffffffffffffffffffff16639be2a8848484306040518463ffffffff1660e01b815260040161086593929190610e30565b60206040518083038186803b15801561087d57600080fd5b505afa158015610891573d6000803e3d6000fd5b505050506040513d601f19601f820116820180604052508101906108b59190610b35565b9392505050565b7f08c379a000000000000000000000000000000000000000000000000000000000600090815260206004526007602452600a808304818106603090810160081b83860601918390049283060160101b016642414c230000300160c81b604452610731917f42414c0000000000000000000000000000000000000000000000000000000000906242414c90606490fd5b80356106e581610fe4565b600082601f830112610966578081fd5b813561097961097482610fc4565b610f9d565b81815291506020808301908481018184028601820187101561099a57600080fd5b60005b848110156109c25781356109b081610fe4565b8452928201929082019060010161099d565b505050505092915050565b600082601f8301126109dd578081fd5b81356109eb61097482610fc4565b818152915060208083019084810181840286018201871015610a0c57600080fd5b60005b848110156109c2578135610a2281610fe4565b84529282019290820190600101610a0f565b600082601f830112610a44578081fd5b8135610a5261097482610fc4565b818152915060208083019084810181840286018201871015610a7357600080fd5b60005b848110156109c257813584529282019290820190600101610a76565b600082601f830112610aa2578081fd5b813567ffffffffffffffff811115610ab8578182fd5b610ae960207fffffffffffffffffffffffffffffffffffffffffffffffffffffffffffffffe0601f84011601610f9d565b9150808252836020828501011115610b0057600080fd5b8060208401602084013760009082016020015292915050565b600060208284031215610b2a578081fd5b81356108b581610fe4565b600060208284031215610b46578081fd5b815180151581146108b5578182fd5b600060208284031215610b66578081fd5b81357fffffffff00000000000000000000000000000000000000000000000000000000811681146108b5578182fd5b600060208284031215610ba6578081fd5b81516108b581610fe4565b600080600080600080600080610100898b031215610bcd578384fd5b883567ffffffffffffffff80821115610be4578586fd5b610bf08c838d01610a92565b995060208b0135915080821115610c05578586fd5b610c118c838d01610a92565b985060408b0135915080821115610c26578586fd5b610c328c838d01610956565b975060608b0135915080821115610c47578586fd5b610c538c838d01610a34565b965060808b0135915080821115610c68578586fd5b50610c758b828c016109cd565b94505060a08901359250610c8c8a60c08b0161094b565b915060e089013590509295985092959890939650565b73ffffffffffffffffffffffffffffffffffffffff169052565b6000815180845260208085019450808401835b83811015610d0157815173ffffffffffffffffffffffffffffffffffffffff1687529582019590820190600101610ccf565b509495945050505050565b6000815180845260208085019450808401835b83811015610d0157815187529582019590820190600101610d1f565b60008151808452815b81811015610d6057602081850181015186830182015201610d44565b81811115610d715782602083870101525b50601f017fffffffffffffffffffffffffffffffffffffffffffffffffffffffffffffffe0169290920160200192915050565b9182527fffffffff0000000000000000000000000000000000000000000000000000000016602082015260240190565b73ffffffffffffffffffffffffffffffffffffffff91909116815260200190565b73ffffffffffffffffffffffffffffffffffffffff92831681529116602082015260400190565b901515815260200190565b90815260200190565b92835273ffffffffffffffffffffffffffffffffffffffff918216602084015216604082015260600190565b6000602082526108b56020830184610d3b565b600060c08252875160e060c0840152610e8c6101a0840182610d3b565b905060208901517fffffffffffffffffffffffffffffffffffffffffffffffffffffffffffffff40808584030160e0860152610ec88383610d3b565b925060408b015191508085840301610100860152610ee68383610cbc565b925060608b015191508085840301610120860152610f048383610d0c565b925060808b015191508085840301610140860152610f228383610cbc565b925060a08b01519150808584030161016086015250610f418282610cbc565b60c08b01516101808601529250610f5e9150506020830188610ca2565b610f6b6040830187610ca2565b846060830152836080830152610f8460a0830184610ca2565b979650505050505050565b918252602082015260400190565b60405181810167ffffffffffffffff81118282101715610fbc57600080fd5b604052919050565b600067ffffffffffffffff821115610fda578081fd5b5060209081020190565b73ffffffffffffffffffffffffffffffffffffffff8116811461073157600080fdfea2646970667358221220dff8ff201fcc0e4bf66a1cdd19af8826d1b578eb18296da580581b031da34fab64736f6c634300070100336106606040523480156200001257600080fd5b5060405162007cac38038062007cac833981016040819052620000359162001598565b856040015151866080015185604051806060016040528060008152602001600281526020016003815250888a600001518b602001518c604001518d60a001518e60c001518c8c8c600089875160021480156200008f575081155b6200009c5760016200009f565b60025b8a8a8a8a8a8a8a8a8983838a8a8e86336001600160a01b031660001b8480604051806040016040528060018152602001603160f81b81525087878160039080519060200190620000f192919062001262565b5080516200010790600490602084019062001262565b50506005805460ff19166012179055508151602092830120608052805191012060a052507f8b73c3c69bb8fe3d512ecc4cf759cc79239f7b179b0ffacaa9a75d522b39400f60c05260e0526001600160601b0319606091821b81166101005291901b166101205250620001869050630163f50083111561019462000ac3565b6200019a6276a70082111561019562000ac3565b4291909101610140819052016101605260601b6001600160601b031916610180528551620001ce906002111560c862000ac3565b620001e8620001dc62000ad8565b8751111560c962000ac3565b620001f38462000add565b60006200020e8b8b898962000b7160201b6200155f1760201c565b9050806101a081815250508a6001600160a01b031663d2946c2b6040518163ffffffff1660e01b815260040160206040518083038186803b1580156200025357600080fd5b505afa15801562000268573d6000803e3d6000fd5b505050506040513d601f19601f820116820180604052508101906200028e919062001579565b6001600160a01b03166101c0816001600160a01b031660601b81525050505050505050505050505050505050505050505050816001600160a01b03166101e0816001600160a01b031660601b81525050600062000303826040015160088060000101600862000ba060201b6200157f1760201c565b6200032483602001516008600001600862000ba060201b6200157f1760201c565b6200034284600001516000600862000ba060201b6200157f1760201c565b1717610200819052905062000358838262000bb5565b506200036d915050600883111560c962000ac3565b6200038582825162000e3b60201b620015921760201c565b620003908162000e4a565b151560f81b6103205280518190600090620003a757fe5b60200260200101516001600160a01b0316610220816001600160a01b031660601b8152505080600181518110620003da57fe5b60200260200101516001600160a01b0316610240816001600160a01b031660601b81525050600282116200041057600062000427565b806002815181106200041e57fe5b60200260200101515b60601b6001600160601b03191661026052600382116200044957600062000460565b806003815181106200045757fe5b60200260200101515b60601b6001600160601b03191661028052600482116200048257600062000499565b806004815181106200049057fe5b60200260200101515b60601b6001600160601b0319166102a05260058211620004bb576000620004d2565b80600581518110620004c957fe5b60200260200101515b60601b6001600160601b0319166102c05260068211620004f45760006200050b565b806006815181106200050257fe5b60200260200101515b60601b6001600160601b0319166102e052600782116200052d57600062000544565b806007815181106200053b57fe5b60200260200101515b6001600160a01b0316610300816001600160a01b031660601b81525050505060008660400151519050620005898188606001515162000e3b60201b620015921760201c565b6103408190526000805b828160ff1610156200060357600089606001518260ff1681518110620005b557fe5b60200260200101519050620005dd662386f26fc1000082101561012e62000ac360201b60201c565b620005f7818462000ea660201b620015a31790919060201c565b92505060010162000593565b506200061c670de0b6b3a7640000821461013462000ac3565b87604001516000815181106200062e57fe5b60200260200101516001600160a01b0316610360816001600160a01b031660601b8152505087604001516001815181106200066557fe5b60200260200101516001600160a01b0316610380816001600160a01b031660601b81525050600282116200069b576000620006b6565b8760400151600281518110620006ad57fe5b60200260200101515b60601b6001600160601b0319166103a05260038211620006d8576000620006f3565b8760400151600381518110620006ea57fe5b60200260200101515b60601b6001600160601b0319166103c052600482116200071557600062000730565b87604001516004815181106200072757fe5b60200260200101515b60601b6001600160601b0319166103e05260058211620007525760006200076d565b87604001516005815181106200076457fe5b60200260200101515b60601b6001600160601b03191661040052600682116200078f576000620007aa565b8760400151600681518110620007a157fe5b60200260200101515b60601b6001600160601b0319166104205260078211620007cc576000620007e7565b8760400151600781518110620007de57fe5b60200260200101515b6001600160a01b0316610440816001600160a01b031660601b815250506200082e88604001516000815181106200081a57fe5b602002602001015162000ec360201b60201c565b61046052604088015180516200084b919060019081106200081a57fe5b61048052600282116200086057600062000876565b6200087688604001516002815181106200081a57fe5b6104a052600382116200088b576000620008a1565b620008a188604001516003815181106200081a57fe5b6104c05260048211620008b6576000620008cc565b620008cc88604001516004815181106200081a57fe5b6104e05260058211620008e1576000620008f7565b620008f788604001516005815181106200081a57fe5b61050052600682116200090c57600062000922565b6200092288604001516006815181106200081a57fe5b6105205260078211620009375760006200094d565b6200094d88604001516007815181106200081a57fe5b61054052606088015180516000906200096257fe5b6020026020010151610560818152505087606001516001815181106200098457fe5b6020026020010151610580818152505060028211620009a5576000620009c0565b8760600151600281518110620009b757fe5b60200260200101515b6105a05260038211620009d5576000620009f0565b8760600151600381518110620009e757fe5b60200260200101515b6105c0526004821162000a0557600062000a20565b876060015160048151811062000a1757fe5b60200260200101515b6105e0526005821162000a3557600062000a50565b876060015160058151811062000a4757fe5b60200260200101515b610600526006821162000a6557600062000a80565b876060015160068151811062000a7757fe5b60200260200101515b610620526007821162000a9557600062000ab0565b876060015160078151811062000aa757fe5b60200260200101515b6106405250620018599650505050505050565b8162000ad45762000ad48162000f92565b5050565b600890565b62000af662000aeb62000fa7565b82101560cb62000ac3565b62000b0f62000b0462000fb0565b82111560ca62000ac3565b62000b318160c0603f60085462000fbc60201b620015b517909392919060201c565b6008556040517fa9ba3ffe0b6c366b81232caab38605a0699ad5398d6cce76f91ee809e322dafc9062000b6690839062001744565b60405180910390a150565b600062000b898362000fe160201b620015d81760201c565b62000b978585858562000fed565b95945050505050565b600062000baf848484620010e7565b50501b90565b6000826001600160a01b0316631a7c326362000be460006008866200114760201b620015e2179092919060201c565b6040518263ffffffff1660e01b815260040162000c02919062001744565b60206040518083038186803b15801562000c1b57600080fd5b505afa15801562000c30573d6000803e3d6000fd5b505050506040513d601f19601f8201168201806040525081019062000c56919062001560565b905060006001600160a01b038416631a7c326362000c838560088062001147602090811b620015e217901c565b6040518263ffffffff1660e01b815260040162000ca1919062001744565b60206040518083038186803b15801562000cba57600080fd5b505afa15801562000ccf573d6000803e3d6000fd5b505050506040513d601f19601f8201168201806040525081019062000cf5919062001560565b905060006001600160a01b038516631a7c326362000d23866010600862001147602090811b620015e217901c565b6040518263ffffffff1660e01b815260040162000d41919062001744565b60206040518083038186803b15801562000d5a57600080fd5b505afa15801562000d6f573d6000803e3d6000fd5b505050506040513d601f19601f8201168201806040525081019062000d95919062001560565b9050600062000db88260408060000101604062000ba060201b6200157f1760201c565b62000dd5846040600001604062000ba060201b6200157f1760201c565b62000def866000604062000ba060201b6200157f1760201c565b17179050806009819055507fc3f0acc358200d8e08ac6ce20bc2f9f27893a344f813bf682b7859b3e521502e8160405162000e2b919062001744565b60405180910390a1505050505050565b62000ad4828214606762000ac3565b6000805b825181101562000e9b5760006001600160a01b031683828151811062000e7057fe5b60200260200101516001600160a01b03161462000e9257600091505062000ea1565b60010162000e4e565b50600190505b919050565b600082820162000eba848210158362000ac3565b90505b92915050565b60006001600160a01b03821630141562000ee75750670de0b6b3a764000062000ea1565b6000826001600160a01b031663313ce5676040518163ffffffff1660e01b815260040160206040518083038186803b15801562000f2357600080fd5b505afa15801562000f38573d6000803e3d6000fd5b505050506040513d601f19601f8201168201806040525081019062000f5e919062001721565b60ff169050600062000f7d6012836200115660201b620015f11760201c565b600a0a670de0b6b3a764000002949350505050565b62000fa4816210905360ea1b6200116e565b50565b64e8d4a5100090565b67016345785d8a000090565b600062000fcb848484620010e7565b506001901b60001901811b1992909216911b1790565b8062000ad481620011cf565b600080856001600160a01b03166309b2760f866040518263ffffffff1660e01b81526004016200101e9190620017db565b602060405180830381600087803b1580156200103957600080fd5b505af11580156200104e573d6000803e3d6000fd5b505050506040513d601f19601f8201168201806040525081019062001074919062001560565b604051633354e3e960e11b81529091506001600160a01b038716906366a9c7d290620010a9908490889088906004016200174d565b600060405180830381600087803b158015620010c457600080fd5b505af1158015620010d9573d6000803e3d6000fd5b509298975050505050505050565b620010f86101008310606462000ac3565b62001131600182101580156200112957506200112560ff84610100036200125660201b620016071760201c565b8211155b606462000ac3565b6200114283821c156101b462000ac3565b505050565b6001901b6000190191901c1690565b60006200116883831115600162000ac3565b50900390565b62461bcd60e51b600090815260206004526007602452600a808404818106603090810160081b958390069590950190829004918206850160101b01602363ffffff0060e086901c160160181b0190930160c81b60445260e882901c90606490fd5b600281511015620011e05762000fa4565b600081600081518110620011f057fe5b602002602001015190506000600190505b8251811015620011425760008382815181106200121a57fe5b602002602001015190506200124b816001600160a01b0316846001600160a01b031610606562000ac360201b60201c565b915060010162001201565b80820390821102900390565b828054600181600116156101000203166002900490600052602060002090601f016020900481019282601f10620012a557805160ff1916838001178555620012d5565b82800160010185558215620012d5579182015b82811115620012d5578251825591602001919060010190620012b8565b50620012e3929150620012e7565b5090565b5b80821115620012e35760008155600101620012e8565b805162000ebd8162001843565b600082601f8301126200131c578081fd5b8151620013336200132d8262001817565b620017f0565b8181529150602080830190848101818402860182018710156200135557600080fd5b60005b84811015620013815781516200136e8162001843565b8452928201929082019060010162001358565b505050505092915050565b600082601f8301126200139d578081fd5b8151620013ae6200132d8262001817565b818152915060208083019084810181840286018201871015620013d057600080fd5b60005b8481101562001381578151620013e98162001843565b84529282019290820190600101620013d3565b600082601f8301126200140d578081fd5b81516200141e6200132d8262001817565b8181529150602080830190848101818402860182018710156200144057600080fd5b60005b8481101562001381578151620014598162001843565b8452928201929082019060010162001443565b600082601f8301126200147d578081fd5b81516200148e6200132d8262001817565b818152915060208083019084810181840286018201871015620014b057600080fd5b60005b848110156200138157815184529282019290820190600101620014b3565b600082601f830112620014e2578081fd5b81516001600160401b03811115620014f8578182fd5b60206200150e601f8301601f19168201620017f0565b925081835284818386010111156200152557600080fd5b60005b828110156200154557848101820151848201830152810162001528565b82811115620015575760008284860101525b50505092915050565b60006020828403121562001572578081fd5b5051919050565b6000602082840312156200158b578081fd5b815162000eba8162001843565b60008060008060008060c08789031215620015b1578182fd5b86516001600160401b0380821115620015c8578384fd5b9088019060e0828b031215620015dc578384fd5b620015e860e0620017f0565b825182811115620015f7578586fd5b620016058c828601620014d1565b8252506020830151828111156200161a578586fd5b620016288c828601620014d1565b60208301525060408301518281111562001640578586fd5b6200164e8c8286016200138c565b60408301525060608301518281111562001666578586fd5b620016748c8286016200146c565b6060830152506080830151828111156200168c578586fd5b6200169a8c828601620013fc565b60808301525060a083015182811115620016b2578586fd5b620016c08c8286016200130b565b60a08301525060c083015160c0820152809850505050620016e58860208901620012fe565b9450620016f68860408901620012fe565b93506060870151925060808701519150620017158860a08901620012fe565b90509295509295509295565b60006020828403121562001733578081fd5b815160ff8116811462000eba578182fd5b90815260200190565b60006060820185835260206060818501528186518084526080860191508288019350845b81811015620017995762001786855162001837565b8352938301939183019160010162001771565b505084810360408601528551808252908201925081860190845b81811015620010d957620017c8835162001837565b85529383019391830191600101620017b3565b6020810160038310620017ea57fe5b91905290565b6040518181016001600160401b03811182821017156200180f57600080fd5b604052919050565b60006001600160401b038211156200182d578081fd5b5060209081020190565b6001600160a01b031690565b6001600160a01b038116811462000fa457600080fd5b60805160a05160c05160e0516101005160601c6101205160601c61014051610160516101805160601c6101a0516101c05160601c6101e05160601c610200516102205160601c6102405160601c6102605160601c6102805160601c6102a05160601c6102c05160601c6102e05160601c6103005160601c6103205160f81c610340516103605160601c6103805160601c6103a05160601c6103c05160601c6103e05160601c6104005160601c6104205160601c6104405160601c61046051610480516104a0516104c0516104e05161050051610520516105405161056051610580516105a0516105c0516105e0516106005161062051610640516161b062001afc60003980612467528061380d52508061242452806137ac5250806123e1528061374b52508061239e52806136ea52508061235b528061368952508061231852806136285250806122d552806135c752508061229b5280613566525080612e3d525080612e19525080612df5525080612dd1525080612dad525080612d89525080612d65525080612d4152508061276152806137d252508061271f52806137715250806126dd528061371052508061269b52806136af525080612659528061364e52508061261752806135ed5250806125d5528061358c52508061258c528061352b525080611bf4525080613ab2525080610a135280613d135250806109bc5280613cc75250806109655280613c7b52508061090e5280613c2f5250806108b75280613be35250806108525280613b825250806107fb5280613b315250806107ad5280613af35250806106f35280610bcd5250806106d252508061133e525080610b1c52508061167d525080611a39525080611a15525080610f37525080610f13525080610e61525080612a7d525080612abf525080612a9e52506161b06000f3fe608060405234801561001057600080fd5b50600436106103205760003560e01c80638456cb59116101a7578063b09f1266116100ee578063d2946c2b11610097578063dd62ed3e11610071578063dd62ed3e146105e4578063ed24911d146105f7578063f89f27ed146105ff57610320565b8063d2946c2b146105b6578063d505accf146105be578063d5c096c4146105d157610320565b8063b7b814fc116100c8578063b7b814fc1461059e578063c0ff1a15146105a6578063d28d8852146105ae57610320565b8063b09f126614610586578063b10962781461058e578063b35056b81461059657610320565b806390193b7c11610150578063a457c2d71161012a578063a457c2d714610558578063a9059cbb1461056b578063aaabadc51461057e57610320565b806390193b7c1461052a57806395d89b411461053d5780639d2c110c1461054557610320565b806387ec68171161018157806387ec6817146104fa578063893d20e81461050d5780638d928af81461052257610320565b80638456cb59146104d7578063851c1bb3146104df578063876f303b146104f257610320565b806338e9922e1161026b57806355c676281161021457806370a08231116101ee57806370a082311461049057806374f3b009146104a35780637ecebe00146104c457610320565b806355c67628146104545780636028bfd41461045c578063704640161461047d57610320565b80633f4ba83a116102455780633f4ba83a146104315780634df77ce01461043957806354a844ba1461044c57610320565b806338e9922e1461040357806338fff2d014610416578063395093511461041e57610320565b8063238a2d59116102cd578063313ce567116102a7578063313ce567146103de57806332424aa3146103f35780633644e515146103fb57610320565b8063238a2d59146103ae57806323b872dd146103c357806323ef89ed146103d657610320565b806318160ddd116102fe57806318160ddd1461036d5780631c0de051146103825780631dd746ea1461039957610320565b806306fdde0314610325578063095ea7b3146103435780630da0669c14610363575b600080fd5b61032d610607565b60405161033a919061607d565b60405180910390f35b610356610351366004615841565b61069e565b60405161033a9190615f0c565b61036b6106b5565b005b610375610719565b60405161033a9190615f2f565b61038a61071f565b60405161033a93929190615f17565b6103a1610748565b60405161033a9190615ed4565b6103b6610757565b60405161033a9190615e87565b6103566103d1366004615791565b610a66565b610375610adc565b6103e6610ae2565b60405161033a919061606f565b6103e6610aeb565b610375610af4565b61036b610411366004615d46565b610afe565b610375610b1a565b61035661042c366004615841565b610b3e565b61036b610b79565b610375610447366004615d46565b610b8b565b61036b610bfd565b610375610c51565b61046f61046a366004615970565b610c64565b60405161033a9291906160b0565b61037561048b366004615d46565b610c9b565b61037561049e36600461573d565b610cfd565b6104b66104b1366004615970565b610d18565b60405161033a929190615ee7565b6103756104d236600461573d565b610e40565b61036b610e4b565b6103756104ed366004615a6d565b610e5d565b610375610eaf565b61046f610508366004615970565b610eeb565b610515610f11565b60405161033a9190615e73565b610515610f35565b61037561053836600461573d565b610f59565b61032d610f74565b610375610553366004615c4a565b610fd5565b610356610566366004615841565b6110ce565b610356610579366004615841565b61110c565b610515611119565b61032d611123565b6103756111b1565b6103566111c9565b61036b6111da565b610375611224565b61032d6112e1565b61051561133c565b61036b6105cc3660046157d1565b611360565b6104b66105df366004615970565b6113eb565b6103756105f2366004615759565b61150e565b61037561154b565b6103a1611555565b60038054604080516020601f60026000196101006001881615020190951694909404938401819004810282018101909252828152606093909290918301828280156106935780601f1061066857610100808354040283529160200191610693565b820191906000526020600020905b81548152906001019060200180831161067657829003601f168201915b505050505090505b90565b60006106ab338484611613565b5060015b92915050565b6106c56106c061167b565b61169f565b6106cd611788565b6107177f00000000000000000000000000000000000000000000000000000000000000007f00000000000000000000000000000000000000000000000000000000000000006117e2565b565b60025490565b600080600061072c6119f6565b159250610737611a13565b9150610741611a37565b9050909192565b6060610752611a5b565b905090565b60606000610763611bf2565b905060608167ffffffffffffffff8111801561077e57600080fd5b506040519080825280602002602001820160405280156107a8578160200160208202803683370190505b5090507f0000000000000000000000000000000000000000000000000000000000000000816000815181106107d957fe5b60200260200101906001600160a01b031690816001600160a01b0316815250507f00000000000000000000000000000000000000000000000000000000000000008160018151811061082757fe5b60200260200101906001600160a01b031690816001600160a01b03168152505060028211156108a3577f00000000000000000000000000000000000000000000000000000000000000008160028151811061087e57fe5b60200260200101906001600160a01b031690816001600160a01b0316815250506108ac565b915061069b9050565b60038211156108a3577f0000000000000000000000000000000000000000000000000000000000000000816003815181106108e357fe5b60200260200101906001600160a01b031690816001600160a01b03168152505060048211156108a3577f00000000000000000000000000000000000000000000000000000000000000008160048151811061093a57fe5b60200260200101906001600160a01b031690816001600160a01b03168152505060058211156108a3577f00000000000000000000000000000000000000000000000000000000000000008160058151811061099157fe5b60200260200101906001600160a01b031690816001600160a01b03168152505060068211156108a3577f0000000000000000000000000000000000000000000000000000000000000000816006815181106109e857fe5b60200260200101906001600160a01b031690816001600160a01b03168152505060078211156108a3577f000000000000000000000000000000000000000000000000000000000000000081600781518110610a3f57fe5b60200260200101906001600160a01b031690816001600160a01b0316815250505b91505090565b600080610a73853361150e565b9050610a97336001600160a01b0387161480610a8f5750838210155b61019e611c16565b610aa2858585611c24565b336001600160a01b03861614801590610abd57506000198114155b15610acf57610acf8533858403611613565b60019150505b9392505050565b600a5490565b60055460ff1690565b60055460ff1681565b600061075261154b565b610b06611d04565b610b0e611d4a565b610b1781611d5d565b50565b7f000000000000000000000000000000000000000000000000000000000000000090565b3360008181526001602090815260408083206001600160a01b038716845290915281205490916106ab918590610b7490866115a3565b611613565b610b81611d04565b6107176000611dd6565b60008082610b9b57506000610bc8565b6002831415610bac57506008610bc8565b6003831415610bbd57506010610bc8565b610bc86101bb611e67565b610bf47f00000000000000000000000000000000000000000000000000000000000000008260086115e2565b9150505b919050565b610c05611d04565b610c0d611e91565b610c176001611ea5565b7feff3d4d215b42bf0960be9c6d5e05c22cba4df6627a3a523e2acee733b5854c86001604051610c479190615f0c565b60405180910390a1565b6008546000906107529060c0603f6115e2565b60006060610c7a8651610c75611bf2565b611592565b610c8f89898989898989611efc611f5e611fcd565b97509795505050505050565b6000610ca56111c9565b15610cb257506000610bf8565b600082610cc157506000610cee565b6002831415610cd257506040610cee565b6003831415610ce357506080610cee565b610cee6101bb611e67565b600954610bf4908260406115e2565b6001600160a01b031660009081526020819052604090205490565b60608088610d42610d27610f35565b6001600160a01b0316336001600160a01b03161460cd611c16565b610d57610d4d610b1a565b82146101f4611c16565b60606000610d6486612164565b15610d8c57610d71612193565b610d8389610d7d610719565b886121a6565b92509050610dde565b610d946121ca565b6060610d9e611a5b565b9050610daa8a826121d2565b610dce8d8d8d8d8d610dba6111c9565b610dc4578d610dc7565b60005b878e611efc565b93509150610ddc8382611f5e565b505b610de88b8261223b565b81895167ffffffffffffffff81118015610e0157600080fd5b50604051908082528060200260200182016040528015610e2b578160200160208202803683370190505b509450945050505b5097509795505050505050565b60006106af82610f59565b610e53611d04565b6107176001611dd6565b60007f000000000000000000000000000000000000000000000000000000000000000082604051602001610e92929190615de1565b604051602081830303815290604052805190602001209050919050565b600080610eba610719565b90506000610ed7610ec9611224565b610ed1612245565b84612493565b509050610ee482826115a3565b9250505090565b60006060610efc8651610c75611bf2565b610c8f898989898989896124d661251f611fcd565b7f000000000000000000000000000000000000000000000000000000000000000090565b7f000000000000000000000000000000000000000000000000000000000000000090565b6001600160a01b031660009081526006602052604090205490565b60048054604080516020601f60026000196101006001881615020190951694909404938401819004810282018101909252828152606093909290918301828280156106935780601f1061066857610100808354040283529160200191610693565b60008360800151610fe7610d27610f35565b610ff2610d4d610b1a565b610ffa6121ca565b60006110098660200151612588565b9050600061101a8760400151612588565b905061102686836127ac565b955061103285826127ac565b945060008751600181111561104357fe5b141561108f5761105687606001516127b8565b6060880181905261106790836127ac565b606088015260006110798888886127d9565b9050611085818361280c565b94505050506110c6565b61109d8760600151826127ac565b606088015260006110af888888612818565b90506110bb8184612843565b90506110858161284f565b509392505050565b6000806110db338561150e565b90508083106110f5576110f033856000611613565b611102565b6111023385858403611613565b5060019392505050565b60006106ab338484611c24565b600061075261286b565b6004805460408051602060026001851615610100026000190190941693909304601f810184900484028201840190925281815292918301828280156111a95780601f1061117e576101008083540402835291602001916111a9565b820191906000526020600020905b81548152906001019060200180831161118c57829003601f168201915b505050505081565b6000610752600060c06111c26128e5565b91906115e2565b6008546000906107529060ff6128eb565b6111e2611d04565b6111ea612193565b6111f46000611ea5565b7feff3d4d215b42bf0960be9c6d5e05c22cba4df6627a3a523e2acee733b5854c86000604051610c479190615f0c565b60006060611230610f35565b6001600160a01b031663f94d4668611246610b1a565b6040518263ffffffff1660e01b81526004016112629190615f2f565b60006040518083038186803b15801561127a57600080fd5b505afa15801561128e573d6000803e3d6000fd5b505050506040513d6000823e601f3d908101601f191682016040526112b6919081019061586c565b509150506112cb816112c6611a5b565b6121d2565b60606112d5612245565b9050610ee481836128f2565b6003805460408051602060026001851615610100026000190190941693909304601f810184900484028201840190925281815292918301828280156111a95780601f1061117e576101008083540402835291602001916111a9565b7f000000000000000000000000000000000000000000000000000000000000000090565b60007f6e71edae12b1b97f4d1f60370fef10105fa2faae0126114a169c64845d6126c988888861138f8c610f59565b896040516020016113a596959493929190615f57565b6040516020818303038152906040528051906020012090506113d688826113cd878787612964565b886101f86129a3565b6113e1888888611613565b5050505050505050565b606080886113fa610d27610f35565b611405610d4d610b1a565b61140d6121ca565b6060611417611a5b565b9050611421610719565b6114ce57600060606114368d8d8d868b6129fa565b9150915061144f611445612a3d565b83101560cc611c16565b611461600061145c612a3d565b612a44565b6114748b61146d612a3d565b8403612a44565b61147e818461251f565b808a5167ffffffffffffffff8111801561149757600080fd5b506040519080825280602002602001820160405280156114c1578160200160208202803683370190505b5095509550505050610e33565b6114d888826121d2565b600060606115008d8d8d8d8d6114ec6111c9565b6114f6578d6114f9565b60005b898e6124d6565b915091506114748b83612a44565b6000611518610f35565b6001600160a01b0316826001600160a01b0316141561153a57506000196106af565b6115448383612a4e565b90506106af565b6000610752612a79565b6060610752612245565b600061156a836115d8565b61157685858585612b16565b95945050505050565b600061158c848484612c1f565b50501b90565b61159f8183146067611c16565b5050565b6000828201610ad58482101583611c16565b60006115c2848484612c1f565b506001901b60001901811b1992909216911b1790565b8061159f81612c66565b6001901b6000190191901c1690565b6000611601838311156001611c16565b50900390565b80820390821102900390565b6001600160a01b0380841660008181526001602090815260408083209487168084529490915290819020849055517f8c5be1e5ebec7d5bd14f71427d1e84f3dd0314c0f7b2291e5b200ac8c7c3b9259061166e908590615f2f565b60405180910390a3505050565b7f000000000000000000000000000000000000000000000000000000000000000090565b6060816001600160a01b0316612710630e8e3e8460e01b60006040516024016116c8919061606f565b60408051601f198184030181529181526020820180517bffffffffffffffffffffffffffffffffffffffffffffffffffffffff167fffffffff000000000000000000000000000000000000000000000000000000009094169390931790925290516117339190615e21565b6000604051808303818686fa925050503d806000811461176f576040519150601f19603f3d011682016040523d82523d6000602084013e611774565b606091505b5091505061159f8151600014610190611c16565b611790611d4a565b600061179a611224565b90506000806117b8836117ab612245565b6117b3610719565b612493565b915091506117c582612cdf565b6117ce83612cf6565b80156117dd576117dd81612cff565b505050565b60006001600160a01b038316631a7c32636117ff848460086115e2565b6040518263ffffffff1660e01b815260040161181b9190615f2f565b60206040518083038186803b15801561183357600080fd5b505afa158015611847573d6000803e3d6000fd5b505050506040513d601f19601f8201168201806040525081019061186b9190615958565b905060006001600160a01b038416631a7c326361188a856008806115e2565b6040518263ffffffff1660e01b81526004016118a69190615f2f565b60206040518083038186803b1580156118be57600080fd5b505afa1580156118d2573d6000803e3d6000fd5b505050506040513d601f19601f820116820180604052508101906118f69190615958565b905060006001600160a01b038516631a7c326361191686601060086115e2565b6040518263ffffffff1660e01b81526004016119329190615f2f565b60206040518083038186803b15801561194a57600080fd5b505afa15801561195e573d6000803e3d6000fd5b505050506040513d601f19601f820116820180604052508101906119829190615958565b90506000611993826080604061157f565b61199f8460408061157f565b6119ac866000604061157f565b17179050806009819055507fc3f0acc358200d8e08ac6ce20bc2f9f27893a344f813bf682b7859b3e521502e816040516119e69190615f2f565b60405180910390a1505050505050565b6000611a00611a37565b42118061075257505060075460ff161590565b7f000000000000000000000000000000000000000000000000000000000000000090565b7f000000000000000000000000000000000000000000000000000000000000000090565b60606000611a67611bf2565b905060608167ffffffffffffffff81118015611a8257600080fd5b50604051908082528060200260200182016040528015611aac578160200160208202803683370190505b509050611ab7612d3f565b81600081518110611ac457fe5b602002602001018181525050611ad8612d63565b81600181518110611ae557fe5b60200260200101818152505060028211156108a357611b02612d87565b81600281518110611b0f57fe5b60200260200101818152505060038211156108a357611b2c612dab565b81600381518110611b3957fe5b60200260200101818152505060048211156108a357611b56612dcf565b81600481518110611b6357fe5b60200260200101818152505060058211156108a357611b80612df3565b81600581518110611b8d57fe5b60200260200101818152505060068211156108a357611baa612e17565b81600681518110611bb757fe5b60200260200101818152505060078211156108a357611bd4612e3b565b81600781518110611be157fe5b602002602001018181525050610a60565b7f000000000000000000000000000000000000000000000000000000000000000090565b8161159f5761159f81611e67565b611c3b6001600160a01b0384161515610198611c16565b611c526001600160a01b0383161515610199611c16565b611c5d8383836117dd565b6001600160a01b038316600090815260208190526040902054611c8390826101a0612e5f565b6001600160a01b038085166000908152602081905260408082209390935590841681522054611cb290826115a3565b6001600160a01b0380841660008181526020819052604090819020939093559151908516907fddf252ad1be2c89b69c2b068fc378daa952ba7f163c4a11628f55a4df523b3ef9061166e908590615f2f565b6000611d336000357fffffffff0000000000000000000000000000000000000000000000000000000016610e5d565b9050610b17611d428233612e75565b610191611c16565b610717611d556119f6565b610192611c16565b611d72611d68612f5e565b82101560cb611c16565b611d87611d7d612f67565b82111560ca611c16565b600854611d98908260c0603f6115b5565b6008556040517fa9ba3ffe0b6c366b81232caab38605a0699ad5398d6cce76f91ee809e322dafc90611dcb908390615f2f565b60405180910390a150565b8015611df657611df1611de7611a13565b4210610193611c16565b611e0b565b611e0b611e01611a37565b42106101a9611c16565b600780547fffffffffffffffffffffffffffffffffffffffffffffffffffffffffffffff00168215151790556040517f9e3a5e37224532dea67b89face185703738a228a6e8a23dee546960180d3be6490611dcb908390615f0c565b610b17817f42414c0000000000000000000000000000000000000000000000000000000000612f73565b610717611e9c6111c9565b156101b5611c16565b600854611eb4908260ff612fee565b6008556040517feff3d4d215b42bf0960be9c6d5e05c22cba4df6627a3a523e2acee733b5854c890611ee7908390615f0c565b60405180910390a180610b1757610b17612ffd565b6000606080611f09612245565b9050600080611f188a84613045565b9150915060006060611f2e8e8d878c888d6130a5565b9092509050611f4a838d838888611f4581896115f1565b613138565b909e909d509b505050505050505050505050565b81518151611f6d908290611592565b60005b81811015611fc757611fa8848281518110611f8757fe5b6020026020010151848381518110611f9b57fe5b602002602001015161315c565b848281518110611fb457fe5b6020908102919091010152600101611f70565b50505050565b3330146120bc576000306001600160a01b0316600036604051611ff1929190615e11565b6000604051808303816000865af19150503d806000811461202e576040519150601f19603f3d011682016040523d82523d6000602084013e612033565b606091505b50509050806000811461204257fe5b60046000803e6000517fffffffff00000000000000000000000000000000000000000000000000000000167f43adbafb00000000000000000000000000000000000000000000000000000000811461209e573d6000803e3d6000fd5b506020600460003e604060205260243d03602460403e601c3d016000f35b6120c46121ca565b60606120ce611a5b565b90506120da87826121d2565b600060606120f28c8c8c8c8c8c898d8d63ffffffff16565b9150915061210481848663ffffffff16565b8051601f1982018390526343adbafb7fffffffffffffffffffffffffffffffffffffffffffffffffffffffffffffffc08301526020027fffffffffffffffffffffffffffffffffffffffffffffffffffffffffffffffdc82016044820181fd5b60008082511180156106af575060ff8016828060200190518101906121899190615d5e565b60ff161492915050565b61071761219e6111c9565b6101b6611c16565b600060606121b3836131af565b91506121c08585846131c5565b9050935093915050565b610717611d4a565b815181516121e1908290611592565b60005b81811015611fc75761221c8482815181106121fb57fe5b602002602001015184838151811061220f57fe5b6020026020010151613274565b84828151811061222857fe5b60209081029190910101526001016121e4565b61159f82826132a7565b60606000612251611bf2565b905060608167ffffffffffffffff8111801561226c57600080fd5b50604051908082528060200260200182016040528015612296578160200160208202803683370190505b5090507f0000000000000000000000000000000000000000000000000000000000000000816000815181106122c757fe5b6020026020010181815250507f00000000000000000000000000000000000000000000000000000000000000008160018151811061230157fe5b60200260200101818152505060028211156108a3577f00000000000000000000000000000000000000000000000000000000000000008160028151811061234457fe5b60200260200101818152505060038211156108a3577f00000000000000000000000000000000000000000000000000000000000000008160038151811061238757fe5b60200260200101818152505060048211156108a3577f0000000000000000000000000000000000000000000000000000000000000000816004815181106123ca57fe5b60200260200101818152505060058211156108a3577f00000000000000000000000000000000000000000000000000000000000000008160058151811061240d57fe5b60200260200101818152505060068211156108a3577f00000000000000000000000000000000000000000000000000000000000000008160068151811061245057fe5b60200260200101818152505060078211156108a3577f000000000000000000000000000000000000000000000000000000000000000081600781518110611be157fe5b60008060006124ab866124a66000610c9b565b613373565b90506000806124b987613399565b915091506124c986838501613409565b9890975095505050505050565b60006060806124e3612245565b90506000806124f28a84613045565b91509150600060606125088e8d878c888d613426565b9092509050611f4a838d838888611f4581896115a3565b8151815161252e908290611592565b60005b81811015611fc75761256984828151811061254857fe5b602002602001015184838151811061255c57fe5b60200260200101516134a2565b84828151811061257557fe5b6020908102919091010152600101612531565b60007f00000000000000000000000000000000000000000000000000000000000000006001600160a01b0316826001600160a01b031614156125d3576125cc612d3f565b9050610bf8565b7f00000000000000000000000000000000000000000000000000000000000000006001600160a01b0316826001600160a01b03161415612615576125cc612d63565b7f00000000000000000000000000000000000000000000000000000000000000006001600160a01b0316826001600160a01b03161415612657576125cc612d87565b7f00000000000000000000000000000000000000000000000000000000000000006001600160a01b0316826001600160a01b03161415612699576125cc612dab565b7f00000000000000000000000000000000000000000000000000000000000000006001600160a01b0316826001600160a01b031614156126db576125cc612dcf565b7f00000000000000000000000000000000000000000000000000000000000000006001600160a01b0316826001600160a01b0316141561271d576125cc612df3565b7f00000000000000000000000000000000000000000000000000000000000000006001600160a01b0316826001600160a01b0316141561275f576125cc612e17565b7f00000000000000000000000000000000000000000000000000000000000000006001600160a01b0316826001600160a01b031614156127a1576125cc612e3b565b610bf8610135611e67565b6000610ad58383613274565b6000806127cd6127c6610c51565b84906134ef565b9050610bf483826115f1565b6000612804836127ec8660200151613527565b846127fa8860400151613527565b8860600151613831565b949350505050565b6000610ad5838361315c565b60006128048361282b8660200151613527565b846128398860400151613527565b88606001516138ac565b6000610ad583836134a2565b60006106af61286461285f610c51565b613922565b83906134a2565b6000612875610f35565b6001600160a01b031663aaabadc56040518163ffffffff1660e01b815260040160206040518083038186803b1580156128ad57600080fd5b505afa1580156128c1573d6000803e3d6000fd5b505050506040513d601f19601f820116820180604052508101906107529190615aad565b60085490565b1c60011690565b670de0b6b3a764000060005b83518110156129545761294a61294385838151811061291957fe5b602002602001015185848151811061292d57fe5b602002602001015161393490919063ffffffff16565b8390613274565b91506001016128fe565b506106af60008211610137611c16565b60408051604180825260808201909252606091829190602082018180368337019050509050836020820152826040820152846060820153949350505050565b60006129ae856139e5565b90506129c46129be878387613a01565b83611c16565b6129d3428410156101b8611c16565b5050506001600160a01b039092166000908152600660205260409020805460010190555050565b60006060612a06613ab0565b612a2257612a22612a1d612a18612245565b613ad4565b612cff565b612a2f8787878787613d37565b915091509550959350505050565b620f424090565b61159f8282613dc7565b6001600160a01b03918216600090815260016020908152604080832093909416825291909152205490565b60007f00000000000000000000000000000000000000000000000000000000000000007f00000000000000000000000000000000000000000000000000000000000000007f0000000000000000000000000000000000000000000000000000000000000000612ae6613e5a565b30604051602001612afb959493929190616011565b60405160208183030381529060405280519060200120905090565b600080856001600160a01b03166309b2760f866040518263ffffffff1660e01b8152600401612b45919061605b565b602060405180830381600087803b158015612b5f57600080fd5b505af1158015612b73573d6000803e3d6000fd5b505050506040513d601f19601f82011682018060405250810190612b979190615958565b6040517f66a9c7d20000000000000000000000000000000000000000000000000000000081529091506001600160a01b038716906366a9c7d290612be390849088908890600401615f8b565b600060405180830381600087803b158015612bfd57600080fd5b505af1158015612c11573d6000803e3d6000fd5b509298975050505050505050565b612c2e61010083106064611c16565b612c5760018210158015612c505750612c4c60ff8461010003611607565b8211155b6064611c16565b6117dd83821c156101b4611c16565b600281511015612c7557610b17565b600081600081518110612c8457fe5b602002602001015190506000600190505b82518110156117dd576000838281518110612cac57fe5b60200260200101519050612cd5816001600160a01b0316846001600160a01b0316106065611c16565b9150600101612c95565b8015610b1757610b17612cf061133c565b82612a44565b610b1781613e5e565b7f836ff8964123d8b264c228d02eae300e3c2112664d4622b62c883b1128f66df5600a5482604051612d329291906160c9565b60405180910390a1600a55565b7f000000000000000000000000000000000000000000000000000000000000000090565b7f000000000000000000000000000000000000000000000000000000000000000090565b7f000000000000000000000000000000000000000000000000000000000000000090565b7f000000000000000000000000000000000000000000000000000000000000000090565b7f000000000000000000000000000000000000000000000000000000000000000090565b7f000000000000000000000000000000000000000000000000000000000000000090565b7f000000000000000000000000000000000000000000000000000000000000000090565b7f000000000000000000000000000000000000000000000000000000000000000090565b6000612e6e8484111583611c16565b5050900390565b600073ba1ba1ba1ba1ba1ba1ba1ba1ba1ba1ba1ba1ba1b612e94610f11565b6001600160a01b031614158015612eaf5750612eaf83613e7e565b15612ed757612ebc610f11565b6001600160a01b0316336001600160a01b03161490506106af565b612edf61286b565b6001600160a01b0316639be2a8848484306040518463ffffffff1660e01b8152600401612f0e93929190615f38565b60206040518083038186803b158015612f2657600080fd5b505afa158015612f3a573d6000803e3d6000fd5b505050506040513d601f19601f820116820180604052508101906115449190615938565b64e8d4a5100090565b67016345785d8a000090565b7f08c379a000000000000000000000000000000000000000000000000000000000600090815260206004526007602452600a808404818106603090810160081b958390069590950190829004918206850160101b01602363ffffff0060e086901c160160181b0190930160c81b60445260e882901c90606490fd5b6001811b1992909216911b1790565b61300d613008611224565b612cf6565b613015613ab0565b610717576000613023610adc565b90506000613032612a18612245565b90508181111561159f5761159f81612cff565b6000806000613052610719565b9050600061306085876128f2565b9050600080613070838886612493565b909250905080156130845761308481612cff565b61308d82612cdf565b61309784836115a3565b989297509195505050505050565b6000606060006130b484613e89565b905060008160028111156130c457fe5b14156130e0576130d688888787613e9f565b925092505061312d565b60018160028111156130ee57fe5b14156130ff576130d6888686613f6e565b600281600281111561310d57fe5b1415613120576130d68888888888613f9a565b61312b610150611e67565b505b965096945050505050565b6000613148878787878787613ff9565b905061315381612cdf565b50505050505050565b600061316b8215156004611c16565b670de0b6b3a7640000830261319d8415806131965750670de0b6b3a764000085838161319357fe5b04145b6005611c16565b8281816131a657fe5b04949350505050565b600081806020019051810190610ad59190615d7a565b606060006131d3838561315c565b9050845167ffffffffffffffff811180156131ed57600080fd5b50604051908082528060200260200182016040528015613217578160200160208202803683370190505b50915060005b855181101561326b5761324c8287838151811061323657fe5b602002602001015161327490919063ffffffff16565b83828151811061325857fe5b602090810291909101015260010161321d565b50509392505050565b600082820261329884158061329157508385838161328e57fe5b04145b6003611c16565b670de0b6b3a7640000816131a6565b6132be6001600160a01b038316151561019b611c16565b6132ca826000836117dd565b6001600160a01b0382166000908152602081905260409020546132f090826101b2612e5f565b6001600160a01b03831660009081526020819052604090205561332361331e82613318610719565b906140f2565b614100565b60006001600160a01b0316826001600160a01b03167fddf252ad1be2c89b69c2b068fc378daa952ba7f163c4a11628f55a4df523b3ef836040516133679190615f2f565b60405180910390a35050565b6000610ad561338a6133836111b1565b859061315c565b670de0b6b3a764000084614105565b6000806133a4613ab0565b156133b457506000905080613404565b600a5460006133c285613ad4565b90508181116133d957600080935093505050613404565b6133fe6133e6828461315c565b670de0b6b3a76400006133f96002610c9b565b614105565b93509150505b915091565b6000610ad56134188484614143565b61342184613922565b61415d565b6000606060006134358461417d565b9050600181600381111561344557fe5b1415613458576130d68888888888614193565b600281600381111561346657fe5b1415613478576130d6888887876141e3565b600381600381111561348657fe5b1415613497576130d6888686614241565b61312b610136611e67565b60006134b18215156004611c16565b670de0b6b3a764000083026134d98415806131965750670de0b6b3a764000085838161319357fe5b6001836001830304018115150291505092915050565b600082820261350984158061329157508385838161328e57fe5b6001670de0b6b3a76400006001830304018115150291505092915050565b60007f00000000000000000000000000000000000000000000000000000000000000006001600160a01b0316826001600160a01b0316141561358a57507f0000000000000000000000000000000000000000000000000000000000000000610bf8565b7f00000000000000000000000000000000000000000000000000000000000000006001600160a01b0316826001600160a01b031614156135eb57507f0000000000000000000000000000000000000000000000000000000000000000610bf8565b7f00000000000000000000000000000000000000000000000000000000000000006001600160a01b0316826001600160a01b0316141561364c57507f0000000000000000000000000000000000000000000000000000000000000000610bf8565b7f00000000000000000000000000000000000000000000000000000000000000006001600160a01b0316826001600160a01b031614156136ad57507f0000000000000000000000000000000000000000000000000000000000000000610bf8565b7f00000000000000000000000000000000000000000000000000000000000000006001600160a01b0316826001600160a01b0316141561370e57507f0000000000000000000000000000000000000000000000000000000000000000610bf8565b7f00000000000000000000000000000000000000000000000000000000000000006001600160a01b0316826001600160a01b0316141561376f57507f0000000000000000000000000000000000000000000000000000000000000000610bf8565b7f00000000000000000000000000000000000000000000000000000000000000006001600160a01b0316826001600160a01b031614156137d057507f0000000000000000000000000000000000000000000000000000000000000000610bf8565b7f00000000000000000000000000000000000000000000000000000000000000006001600160a01b0316826001600160a01b031614156127a157507f0000000000000000000000000000000000000000000000000000000000000000610bf8565b600061385361384887670429d069189e0000613274565b831115610130611c16565b600061385f87846115a3565b9050600061386d88836134a2565b9050600061387b888761315c565b90506000613889838361425f565b905061389e61389782613922565b8990613274565b9a9950505050505050505050565b60006138ce6138c385670429d069189e0000613274565b831115610131611c16565b60006138e46138dd86856115f1565b86906134a2565b905060006138f285886134a2565b90506000613900838361425f565b9050600061391682670de0b6b3a76400006115f1565b905061389e8a826134ef565b670de0b6b3a764000081810391100290565b6000670de0b6b3a764000082141561394d5750816106af565b671bc16d674ec80000821415613967576115448384613274565b673782dace9d9000008214156139975760006139838485613274565b905061398f8182613274565b9150506106af565b60006139a384846142e5565b905060006139bd6139b6836127106134ef565b60016115a3565b9050808210156139d2576000925050506106af565b6139dc82826115f1565b925050506106af565b60006139ef612a79565b82604051602001610e92929190615e3d565b6000613a1382516041146101b9611c16565b60208281015160408085015160608601518251600080825295019283905292939092811a91600190613a4c90899085908890889061603d565b6020604051602081039080840390855afa158015613a6e573d6000803e3d6000fd5b5050604051601f1901519150506001600160a01b03811615801590613aa45750876001600160a01b0316816001600160a01b0316145b98975050505050505050565b7f000000000000000000000000000000000000000000000000000000000000000090565b805160009081613b5a613b17858385613ae957fe5b60200260200101517f00000000000000000000000000000000000000000000000000000000000000006143fb565b613b5586600181518110613b2757fe5b60200260200101517f00000000000000000000000000000000000000000000000000000000000000006143fb565b613274565b90506002821115613bb457613bad613ba685600281518110613b7857fe5b60200260200101517f00000000000000000000000000000000000000000000000000000000000000006143fb565b8290613274565b9050613bbd565b9150610bf89050565b6003821115613bb457613c07613ba685600381518110613bd957fe5b60200260200101517f00000000000000000000000000000000000000000000000000000000000000006143fb565b90506004821115613bb457613c53613ba685600481518110613c2557fe5b60200260200101517f00000000000000000000000000000000000000000000000000000000000000006143fb565b90506005821115613bb457613c9f613ba685600581518110613c7157fe5b60200260200101517f00000000000000000000000000000000000000000000000000000000000000006143fb565b90506006821115613bb457613ceb613ba685600681518110613cbd57fe5b60200260200101517f00000000000000000000000000000000000000000000000000000000000000006143fb565b90506007821115610bf457612804613ba685600781518110613d0957fe5b60200260200101517f00000000000000000000000000000000000000000000000000000000000000006143fb565b600060606000613d468461417d565b9050613d616000826003811115613d5957fe5b1460ce611c16565b6060613d6c8561449c565b9050613d7a81518751611592565b613d8481876121d2565b6060613d8e612245565b90506000613d9c82846128f2565b90506000613dab828551614143565b9050613db682612cf6565b9b929a509198505050505050505050565b613dd3600083836117dd565b613de861331e82613de2610719565b906115a3565b6001600160a01b038216600090815260208190526040902054613e0b90826115a3565b6001600160a01b0383166000818152602081905260408082209390935591519091907fddf252ad1be2c89b69c2b068fc378daa952ba7f163c4a11628f55a4df523b3ef90613367908590615f2f565b4690565b610b17613e7982600060c0613e716128e5565b9291906115b5565b6144b2565b60006106af826144c7565b6000818060200190518101906106af9190615ac9565b60006060600080613eaf856144d2565b91509150613ec1885182106064611c16565b6000613efd898381518110613ed257fe5b6020026020010151898481518110613ee657fe5b6020026020010151858a613ef8610c51565b6144f4565b90506060895167ffffffffffffffff81118015613f1957600080fd5b50604051908082528060200260200182016040528015613f43578160200160208202803683370190505b50905081818481518110613f5357fe5b60209081029190910101529299929850919650505050505050565b600060606000613f7d846145aa565b90506060613f8c8787846131c5565b919791965090945050505050565b60006060806000613faa856145c0565b91509150613fba82518a51611592565b613fc482886121d2565b6000613fda8a8a858a613fd5610c51565b6145d8565b9050613fea8282111560cf611c16565b99919850909650505050505050565b600082821015815b875181101561409357816140445761403f88828151811061401e57fe5b602002602001015188838151811061403257fe5b60200260200101516140f2565b614074565b61407488828151811061405357fe5b602002602001015188838151811061406757fe5b60200260200101516115a3565b88828151811061408057fe5b6020908102919091010152600101614001565b5060006140a086896128f2565b905060006140ae6000610c9b565b90506140b982612cf6565b806140ca57600093505050506140e8565b60006140e16140d9848d61315c565b888885614716565b9450505050505b9695505050505050565b6000610ad583836001612e5f565b600255565b60008383101580614114575081155b1561412157506000610ad5565b600061412d848661315c565b670de0b6b3a76400000390506115768184613274565b6000828202610ad584158061329157508385838161328e57fe5b600061416c8215156004611c16565b81838161417557fe5b049392505050565b6000818060200190518101906106af9190615b8a565b600060608060006141a385614739565b915091506141b389518351611592565b6141bd82886121d2565b60006141d38a8a858a6141ce610c51565b614751565b9050613fea8282101560d0611c16565b600060606000806141f38561489c565b91509150614205885182106064611c16565b6000613efd89838151811061421657fe5b602002602001015189848151811061422a57fe5b6020026020010151858a61423c610c51565b6148b3565b60006060600061425084614949565b90506060613f8c87878461495f565b6000670de0b6b3a76400008214156142785750816106af565b671bc16d674ec800008214156142925761154483846134ef565b673782dace9d9000008214156142ba5760006142ae84856134ef565b905061398f81826134ef565b60006142c684846142e5565b905060006142d96139b6836127106134ef565b90506139dc82826115a3565b6000816142fb5750670de0b6b3a76400006106af565b82614308575060006106af565b61431860ff84901c156006611c16565b8261433e770bce5086492111aea88f4bb1ca6bcf584181ea8059f7653284106007611c16565b826000670c7d713b49da00008313801561435f5750670f43fc2c04ee000083125b1561439657600061436f846149ef565b9050670de0b6b3a764000080820784020583670de0b6b3a7640000830502019150506143a4565b816143a084614b26565b0290505b670de0b6b3a764000090056143f27ffffffffffffffffffffffffffffffffffffffffffffffffdc702bd3a30fc000082128015906143eb575068070c1cc73b00c800008213155b6008611c16565b6140e881614ec6565b60006001600160a01b0382161561448c5761448783836001600160a01b031663679aefce6040518163ffffffff1660e01b815260040160206040518083038186803b15801561444957600080fd5b505afa15801561445d573d6000803e3d6000fd5b505050506040513d601f19601f820116820180604052508101906144819190615958565b90613934565b610ad5565b50670de0b6b3a764000092915050565b606081806020019051810190610ad59190615ba5565b6008546144c190826000615396565b60085550565b60006106af826153c2565b600080828060200190518101906144e99190615b55565b909590945092505050565b60008061450b8461450581886115f1565b906134a2565b90506145246709b6e64a8ec60000821015610132611c16565b600061454261453b670de0b6b3a76400008961315c565b839061425f565b9050600061455961455283613922565b8a90613274565b905060006145706145698a613922565b83906134ef565b9050600061457e83836115f1565b9050600061458e6127c689613922565b905061459a82826115a3565b9c9b505050505050505050505050565b600081806020019051810190610ad59190615b29565b60606000828060200190518101906144e99190615ae4565b60006060845167ffffffffffffffff811180156145f457600080fd5b5060405190808252806020026020018201604052801561461e578160200160208202803683370190505b5090506000805b88518110156146e35761467e89828151811061463d57fe5b602002602001015161450589848151811061465457fe5b60200260200101518c858151811061466857fe5b60200260200101516115f190919063ffffffff16565b83828151811061468a57fe5b6020026020010181815250506146d96146d28983815181106146a857fe5b60200260200101518584815181106146bc57fe5b60200260200101516134ef90919063ffffffff16565b83906115a3565b9150600101614625565b5060006146f489898986868a6153fe565b905061470961470282613922565b87906134ef565b9998505050505050505050565b60008061472d86614727868861315c565b85614105565b90506140e88482613409565b60606000828060200190518101906144e99190615bf2565b60006060845167ffffffffffffffff8111801561476d57600080fd5b50604051908082528060200260200182016040528015614797578160200160208202803683370190505b5090506000805b8851811015614845576147fd8982815181106147b657fe5b60200260200101516147f78984815181106147cd57fe5b60200260200101518c85815181106147e157fe5b60200260200101516115a390919063ffffffff16565b9061315c565b83828151811061480957fe5b60200260200101818152505061483b6146d289838151811061482757fe5b602002602001015185848151811061323657fe5b915060010161479e565b50600061485689898986868a61551c565b90506000670de0b6b3a7640000821161487057600061389e565b61389e877ffffffffffffffffffffffffffffffffffffffffffffffffff21f494c589c00008401613274565b600080828060200190518101906144e99190615c2c565b6000806148c48461450581886115a3565b90506148dd6729a2241af62c0000821115610133611c16565b60006148f461453b670de0b6b3a7640000896134a2565b9050600061491461490d83670de0b6b3a76400006115f1565b8a906134ef565b905060006149246145698a613922565b9050600061493283836115f1565b9050600061458e61494289613922565b84906134a2565b600081806020019051810190610ad59190615c10565b6060600061496d83856134a2565b9050845167ffffffffffffffff8111801561498757600080fd5b506040519080825280602002602001820160405280156149b1578160200160208202803683370190505b50915060005b855181101561326b576149d0828783815181106146bc57fe5b8382815181106149dc57fe5b60209081029190910101526001016149b7565b670de0b6b3a7640000026000806ec097ce7bc90715b34b9f1000000000808401907fffffffffffffffffffffffffffffffffff3f68318436f8ea4cb460f00000000085010281614a3b57fe5b05905060006ec097ce7bc90715b34b9f100000000082800205905081806ec097ce7bc90715b34b9f100000000081840205915060038205016ec097ce7bc90715b34b9f100000000082840205915060058205016ec097ce7bc90715b34b9f100000000082840205915060078205016ec097ce7bc90715b34b9f100000000082840205915060098205016ec097ce7bc90715b34b9f1000000000828402059150600b8205016ec097ce7bc90715b34b9f1000000000828402059150600d8205016ec097ce7bc90715b34b9f1000000000828402059150600f826002919005919091010295945050505050565b6000670de0b6b3a7640000821215614b6357614b59826ec097ce7bc90715b34b9f100000000081614b5357fe5b05614b26565b6000039050610bf8565b60007e1600ef3172e58d2e933ec884fde10064c63b5372d805e203c00000000000008312614bb457770195e54c5dd42177f53a27172fa9ec630262827000000000830592506806f05b59d3b2000000015b73011798004d755d3c8bc8e03204cf44619e0000008312614bec576b1425982cf597cd205cef7380830592506803782dace9d9000000015b606492830292026e01855144814a7ff805980ff00840008312614c34576e01855144814a7ff805980ff008400068056bc75e2d63100000840205925068ad78ebc5ac62000000015b6b02df0ab5a80a22c61ab5a7008312614c6f576b02df0ab5a80a22c61ab5a70068056bc75e2d6310000084020592506856bc75e2d631000000015b693f1fce3da636ea5cf8508312614ca657693f1fce3da636ea5cf85068056bc75e2d631000008402059250682b5e3af16b18800000015b690127fa27722cc06cc5e28312614cdd57690127fa27722cc06cc5e268056bc75e2d6310000084020592506815af1d78b58c400000015b68280e60114edb805d038312614d125768280e60114edb805d0368056bc75e2d631000008402059250680ad78ebc5ac6200000015b680ebc5fb417461211108312614d3d57680ebc5fb4174612111068056bc75e2d631000009384020592015b6808f00f760a4b2db55d8312614d72576808f00f760a4b2db55d68056bc75e2d6310000084020592506802b5e3af16b1880000015b6806f5f17757889379378312614da7576806f5f177578893793768056bc75e2d63100000840205925068015af1d78b58c40000015b6806248f33704b2866038312614ddb576806248f33704b28660368056bc75e2d63100000840205925067ad78ebc5ac620000015b6805c548670b9510e7ac8312614e0f576805c548670b9510e7ac68056bc75e2d6310000084020592506756bc75e2d6310000015b600068056bc75e2d63100000840168056bc75e2d631000008086030281614e3257fe5b059050600068056bc75e2d63100000828002059050818068056bc75e2d63100000818402059150600382050168056bc75e2d63100000828402059150600582050168056bc75e2d63100000828402059150600782050168056bc75e2d63100000828402059150600982050168056bc75e2d63100000828402059150600b820501600202606485820105979650505050505050565b6000614f0b7ffffffffffffffffffffffffffffffffffffffffffffffffdc702bd3a30fc00008312158015614f04575068070c1cc73b00c800008313155b6009611c16565b6000821215614f3f57614f2082600003614ec6565b6ec097ce7bc90715b34b9f100000000081614f3757fe5b059050610bf8565b60006806f05b59d3b20000008312614f9557507ffffffffffffffffffffffffffffffffffffffffffffffff90fa4a62c4e00000090910190770195e54c5dd42177f53a27172fa9ec630262827000000000614fe1565b6803782dace9d90000008312614fdd57507ffffffffffffffffffffffffffffffffffffffffffffffffc87d2531627000000909101906b1425982cf597cd205cef7380614fe1565b5060015b6064929092029168056bc75e2d6310000068ad78ebc5ac620000008412615047577fffffffffffffffffffffffffffffffffffffffffffffff5287143a539e0000009093019268056bc75e2d631000006e01855144814a7ff805980ff008400082020590505b6856bc75e2d6310000008412615099577fffffffffffffffffffffffffffffffffffffffffffffffa9438a1d29cf0000009093019268056bc75e2d631000006b02df0ab5a80a22c61ab5a70082020590505b682b5e3af16b1880000084126150e9577fffffffffffffffffffffffffffffffffffffffffffffffd4a1c50e94e78000009093019268056bc75e2d63100000693f1fce3da636ea5cf85082020590505b6815af1d78b58c4000008412615139577fffffffffffffffffffffffffffffffffffffffffffffffea50e2874a73c000009093019268056bc75e2d63100000690127fa27722cc06cc5e282020590505b680ad78ebc5ac62000008412615188577ffffffffffffffffffffffffffffffffffffffffffffffff5287143a539e000009093019268056bc75e2d6310000068280e60114edb805d0382020590505b68056bc75e2d6310000084126151d7577ffffffffffffffffffffffffffffffffffffffffffffffffa9438a1d29cf000009093019268056bc75e2d63100000680ebc5fb4174612111082020590505b6802b5e3af16b18800008412615226577ffffffffffffffffffffffffffffffffffffffffffffffffd4a1c50e94e7800009093019268056bc75e2d631000006808f00f760a4b2db55d82020590505b68015af1d78b58c400008412615275577ffffffffffffffffffffffffffffffffffffffffffffffffea50e2874a73c00009093019268056bc75e2d631000006806f5f177578893793782020590505b68056bc75e2d631000008481019085906002908280020505918201919050600368056bc75e2d631000008783020505918201919050600468056bc75e2d631000008783020505918201919050600568056bc75e2d631000008783020505918201919050600668056bc75e2d631000008783020505918201919050600768056bc75e2d631000008783020505918201919050600868056bc75e2d631000008783020505918201919050600968056bc75e2d631000008783020505918201919050600a68056bc75e2d631000008783020505918201919050600b68056bc75e2d631000008783020505918201919050600c68056bc75e2d631000008783020505918201919050606468056bc75e2d63100000848402058502059695505050505050565b77ffffffffffffffffffffffffffffffffffffffffffffffff828116821b90821b198416179392505050565b60006153ed7f38e9922e00000000000000000000000000000000000000000000000000000000610e5d565b8214806106af57506106af82615628565b670de0b6b3a764000060005b875181101561551157600085828151811061542157fe5b602002602001015185111561548457600061544a61543e87613922565b8b858151811061323657fe5b9050600061545e828a868151811061466857fe5b9050600061546e61286488613922565b905061547a83826115a3565b93505050506154a9565b86828151811061549057fe5b6020026020010151905080600014156154a95750615509565b60006154d28a84815181106154ba57fe5b60200260200101516147f7848d878151811061466857fe5b90506155046154fd8a85815181106154e657fe5b60200260200101518361393490919063ffffffff16565b8590613274565b935050505b60010161540a565b509695505050505050565b670de0b6b3a764000060005b87518110156155115760008486838151811061554057fe5b602002602001015111156155b9576000670de0b6b3a76400008611615566576000615580565b615580670de0b6b3a764000087038b858151811061323657fe5b9050600061559e86615598848c888151811061466857fe5b906134ef565b90506155b0818a868151811061466857fe5b925050506155de565b8682815181106155c557fe5b6020026020010151905080600014156155de5750615620565b60006156078a84815181106155ef57fe5b60200260200101516147f7848d87815181106147e157fe5b905061561b6154fd8a85815181106154e657fe5b935050505b600101615528565b50600090565b80356106af81616156565b600082601f830112615649578081fd5b815161565c615657826160fe565b6160d7565b81815291506020808301908481018184028601820187101561567d57600080fd5b60005b8481101561569c57815184529282019290820190600101615680565b505050505092915050565b600082601f8301126156b7578081fd5b813567ffffffffffffffff8111156156cd578182fd5b6156e06020601f19601f840116016160d7565b91508082528360208285010111156156f757600080fd5b8060208401602084013760009082016020015292915050565b8051600381106106af57600080fd5b8051600481106106af57600080fd5b8035600281106106af57600080fd5b60006020828403121561574e578081fd5b8135610ad581616156565b6000806040838503121561576b578081fd5b823561577681616156565b9150602083013561578681616156565b809150509250929050565b6000806000606084860312156157a5578081fd5b83356157b081616156565b925060208401356157c081616156565b929592945050506040919091013590565b600080600080600080600060e0888a0312156157eb578283fd5b87356157f681616156565b9650602088013561580681616156565b9550604088013594506060880135935060808801356158248161616b565b9699959850939692959460a0840135945060c09093013592915050565b60008060408385031215615853578182fd5b823561585e81616156565b946020939093013593505050565b600080600060608486031215615880578081fd5b835167ffffffffffffffff80821115615897578283fd5b818601915086601f8301126158aa578283fd5b81516158b8615657826160fe565b80828252602080830192508086018b8283870289010111156158d8578788fd5b8796505b848710156159035780516158ef81616156565b8452600196909601959281019281016158dc565b50890151909750935050508082111561591a578283fd5b5061592786828701615639565b925050604084015190509250925092565b600060208284031215615949578081fd5b81518015158114610ad5578182fd5b600060208284031215615969578081fd5b5051919050565b600080600080600080600060e0888a03121561598a578081fd5b8735965060208089013561599d81616156565b965060408901356159ad81616156565b9550606089013567ffffffffffffffff808211156159c9578384fd5b818b0191508b601f8301126159dc578384fd5b81356159ea615657826160fe565b8082825285820191508585018f878886028801011115615a08578788fd5b8795505b83861015615a2a578035835260019590950194918601918601615a0c565b509850505060808b0135955060a08b0135945060c08b0135925080831115615a50578384fd5b5050615a5e8a828b016156a7565b91505092959891949750929550565b600060208284031215615a7e578081fd5b81357fffffffff0000000000000000000000000000000000000000000000000000000081168114610ad5578182fd5b600060208284031215615abe578081fd5b8151610ad581616156565b600060208284031215615ada578081fd5b610ad58383615710565b600080600060608486031215615af8578081fd5b615b028585615710565b9250602084015167ffffffffffffffff811115615b1d578182fd5b61592786828701615639565b60008060408385031215615b3b578182fd5b615b458484615710565b9150602083015190509250929050565b600080600060608486031215615b69578081fd5b615b738585615710565b925060208401519150604084015190509250925092565b600060208284031215615b9b578081fd5b610ad5838361571f565b60008060408385031215615bb7578182fd5b615bc1848461571f565b9150602083015167ffffffffffffffff811115615bdc578182fd5b615be885828601615639565b9150509250929050565b600080600060608486031215615c06578081fd5b615b02858561571f565b60008060408385031215615c22578182fd5b615b45848461571f565b600080600060608486031215615c40578081fd5b615b73858561571f565b600080600060608486031215615c5e578081fd5b833567ffffffffffffffff80821115615c75578283fd5b8186019150610120808389031215615c8b578384fd5b615c94816160d7565b9050615ca0888461572e565b8152615caf886020850161562e565b6020820152615cc1886040850161562e565b6040820152606083013560608201526080830135608082015260a083013560a0820152615cf18860c0850161562e565b60c0820152615d038860e0850161562e565b60e08201526101008084013583811115615d1b578586fd5b615d278a8287016156a7565b9183019190915250976020870135975060409096013595945050505050565b600060208284031215615d57578081fd5b5035919050565b600060208284031215615d6f578081fd5b8151610ad58161616b565b60008060408385031215615d8c578182fd5b8251615d978161616b565b6020939093015192949293505050565b6000815180845260208085019450808401835b83811015615dd657815187529582019590820190600101615dba565b509495945050505050565b9182527fffffffff0000000000000000000000000000000000000000000000000000000016602082015260240190565b6000828483379101908152919050565b60008251615e3381846020870161612a565b9190910192915050565b7f190100000000000000000000000000000000000000000000000000000000000081526002810192909252602282015260420190565b6001600160a01b0391909116815260200190565b6020808252825182820181905260009190848201906040850190845b81811015615ec85783516001600160a01b031683529284019291840191600101615ea3565b50909695505050505050565b600060208252610ad56020830184615da7565b600060408252615efa6040830185615da7565b82810360208401526115768185615da7565b901515815260200190565b92151583526020830191909152604082015260600190565b90815260200190565b9283526001600160a01b03918216602084015216604082015260600190565b9586526001600160a01b0394851660208701529290931660408501526060840152608083019190915260a082015260c00190565b60006060820185835260206060818501528186518084526080860191508288019350845b81811015615fd357615fc1855161611e565b83529383019391830191600101615faf565b505084810360408601528551808252908201925081860190845b81811015612c1157615fff835161611e565b85529383019391830191600101615fed565b9485526020850193909352604084019190915260608301526001600160a01b0316608082015260a00190565b93845260ff9290921660208401526040830152606082015260800190565b602081016003831061606957fe5b91905290565b60ff91909116815260200190565b600060208252825180602084015261609c81604085016020870161612a565b601f01601f19169190910160400192915050565b6000838252604060208301526128046040830184615da7565b918252602082015260400190565b60405181810167ffffffffffffffff811182821017156160f657600080fd5b604052919050565b600067ffffffffffffffff821115616114578081fd5b5060209081020190565b6001600160a01b031690565b60005b8381101561614557818101518382015260200161612d565b83811115611fc75750506000910152565b6001600160a01b0381168114610b1757600080fd5b60ff81168114610b1757600080fdfea26469706673582212208cf1084a6245b0886162587b6ceac88d9a47f0ece293e1973c762ff4e5f0594f64736f6c63430007010033",
  "linkReferences": {},
  "deployedLinkReferences": {}
}